:10F000003EC0000061C000005FC000005DC00000A5
:10F010005BC0000059C0000057C0000055C0000090
:10F0200053C0000051C000004FC000004DC00000A0
:10F030004BC0000049C0000047C0000045C00000B0
:10F0400043C0000041C000003FC000003DC00000C0
:10F050003BC0000039C0000037C0000035C00000D0
:10F0600033C0000031C000002FC000002DC00000E0
:10F070002BC0000029C0000027C00000137B112412
:10F080001FBECFEFD0E1DEBFCDBF11E0A0E0B1E009
:10F09000ECEEFDEF02C005900D92A634B107D9F752
:10F0A00015E0A6E4B1E001C01D92A53AB107E1F771
:10F0B00010EFCEE7D0EF03C02297FE0191D6CC37F8
:10F0C000D107D1F7B1D21AC69BCF382FDB0180917F
:10F0D0004C0390914D038150891B8F738230A8F1AE
:10F0E0003295330F330F307C306820914D03E22F7F
:10F0F000F0E0E15AFC4F832F90E034E0959587953E
:10F100003A95E1F7808311822E5F2F7320934D0390
:10F110001CC080914C0390914D038150891B8F73CB
:10F12000823090F090914D03E92FF0E0E15AFC4FCE
:10F13000822F82958F70806180832F702061218360
:10F140009E5F9F7390934D0311962C91222309F794
:10F1500027C05A985B9810924E031EC080914D03B1
:10F1600090914C03891B8F73B9F081E080934E031B
:10F1700080914C03E82FF0E0E15AFC4FE0818F5F73
:10F180008F7380934C03E4FD5B9A8BB1E295E07F33
:10F190008F70E82BEBB95A9A88E893E10197F1F761
:10F1A00080914D0390914C03891B8F7321F48091C2
:10F1B0004E03882359F08091A3058F5F8093A305A8
:10F1C00080914E03882309F0C4CFC8CF0895BC01B5
:10F1D0004498459820E030E840E14798C9018623EB
:10F1E0009723892B11F0459A01C04598479A4150C1
:10F1F00019F036952795F1CF4798449A089580E005
:10F200009FEBE5CF8FEF90E4E2CF1F93CF93DF9397
:10F210009C01162FEA01662371F1009729F4FA0187
:10F2200080E38193615025C040E0E42FF0E0E85A8C
:10F23000FC4FC9016AE070E086D580834F5FC90149
:10F240006AE070E080D59B016115710571F7642F4C
:10F25000DE0108C04150E42FF0E0E85AFC4F808105
:10F26000805D8D934423B1F7FE01E60FF11D161B5F
:10F27000612F61111082DF91CF911F910895A6E057
:10F28000B0E0E4E4F9E781C5F999FECFA091480127
:10F29000B091490183E0FD0180935700E89507B6DE
:10F2A00000FCFDCFBD010AE411E0F801808190E08F
:10F2B000518140E0842B952B0E5F1F4F21E0FB0115
:10F2C0000C0120935700E89511246E5F7F4FF2E008
:10F2D0000A341F0751F785E0FD0180935700E89538
:10F2E00007B600FCFDCF81E180935700E895CD0182
:10F2F00080509F4F909349018093480166E08E01B2
:10F300000F5F1F4FA80181DF81E0B801DEDE269686
:10F31000E4E057C5982F84FD5B9A8BB19295907F5E
:10F320008F70892B8BB95A9A88E893E10197F1F78E
:10F330005A985B9888E99AE30197F1F708951F932B
:10F34000182F82958F70E6DF812F8F70E3DF1F917A
:10F350000895982F8FEF8EBD0DB407FEFDCF8EB5AB
:10F36000892F80648EBD0DB407FEFDCF7EBD0DB428
:10F3700007FEFDCF6EBD0DB407FEFDCF5EBD0DB423
:10F3800007FEFDCF4EBD0DB407FEFDCF992311F44E
:10F3900085E905C0983011F487E801C08FEF8EBD74
:10F3A0000DB407FEFDCF90E08FEF8EBD0DB407FECC
:10F3B000FDCF8EB587FF03C09F5F9431A9F70895F5
:10F3C000625070408040904020915303269505C0C4
:10F3D0002695660F771F881F991F2223C9F7209152
:10F3E0009F053091A0054091A1055091A205260FDF
:10F3F000371F481F591FB901CA010895FC0120E0B9
:10F4000030E08FEF8EBD0DB407FEFDCF8EB58F3F80
:10F4100039F42F5F3F4F8FEF2F3F380791F721C00F
:10F420008E3FF9F48FEF8EBD0DB407FEFDCF8EB584
:10F4300080838FEF8EBD0DB407FEFDCF8EB5818327
:10F440006250704011F03296EDCF90E08FEF8EBD9C
:10F450000DB407FEFDCF8EB59F5F9230B9F780E007
:10F46000089589E00895AB01BC012C988091A40512
:10F47000823039F0F9E0440F551F661F771FFA9567
:10F48000D1F781E166DF882311F084E005C08FE9C0
:10F4900093E060E072E0B2DF2C9A811181E0089580
:10F4A000E2DF882311F082E0089580919D0590911C
:10F4B0009E0585559A4A11F083E008958091D50301
:10F4C000863431F48091D603813411F480E109C08F
:10F4D0008091F103863449F48091F203813429F458
:10F4E00080E280935E0380E0089584E00895EF92C7
:10F4F000FF920F931F93CF93DF93EC01EC80FD807D
:10F500000E811F81E114F1040105110509F46FC09A
:10F51000998180915303981709F069C082E0E81639
:10F52000F1040105110508F479C0209154033091CC
:10F530005503409156035091570380915E038031EB
:10F5400029F49927812F702F6F2D09C0C801B701A9
:10F55000E7E09695879577956795EA95D1F7620FDD
:10F56000731F841F951F7FDF882309F057C0A09168
:10F570005E03A03161F4F701F070EE0FFF1FE1565A
:10F58000FC4F80819181BC0180E090E00EC0F701CA
:10F59000EF77F070EE0FFF1FEE0FFF1FE156FC4FED
:10F5A00060817181828193819F70611571058105F0
:10F5B0009105A1F19B01AC012250304040405040E8
:10F5C000A03131F42E5E3F4F4040504038F505C029
:10F5D0002E5E3F4F4F4F5F4008F56C837D838E83D7
:10F5E0009F83EEDE688779878A879B871982688583
:10F5F00079858A859B8537DF882381F4888599857D
:10F60000AA85BB850196A11DB11D88879987AA8708
:10F61000BB8789818F5F898380E001C082E0CDB79D
:10F62000DEB7E6E0CCC30895A4E3B0E0E9E1FBE790
:10F63000A4C384B714BE8091600088618093600089
:10F6400010926000F8943F9A3C9A3E98449A4798EA
:10F650003F9A3C9A3D9A449A4498449AFF2428E061
:10F66000FF0C86B190E0A6E096958795AA95E1F704
:10F670008170F82A479A4798215091F78FEF97E0C9
:10F680004CD3E82E882321F08FEF97E060E04DD334
:10F690008FEFF81619F4EE2009F431C0B0DD539A5B
:10F6A000529A8AB1806F8AB95B985A9888EE93E033
:10F6B000E4EFF1E03197F1F70197D1F783E02ADE2B
:10F6C00000E117E2C8010197F1F783E023DEC801EA
:10F6D0000197F1F783E01EDEC8010197F1F782E0A0
:10F6E00019DE88E22CDE8CE02ADE86E028DE81E06E
:10F6F00026DE82E024DE10924E03F7FE03C0EE20E9
:10F7000009F444C284B1876084B985B1876085B942
:10F7100010925E03279A259A2698249A2C9A249A66
:10F720002C9A8DB58E7F8DBD80E58CBD2E9A109262
:10F73000A4052C9A90E08FEF8EBD0DB407FEFDCF8F
:10F740009F5F9A30C1F72C9800E010E080E040E025
:10F7500050E060E070E0FDDD813039F00F5F1F4F59
:10F760009FEF0F3F190791F777C088E04AEA51E011
:10F7700060E070E0EEDD82FF03C01092A40520C0BF
:10F780008FEF8EBD0DB407FEFDCF8EB58FEF8EBD12
:10F790000DB407FEFDCF8EB58FEF8EBD0DB407FE05
:10F7A000FDCF0EB400FE58C08FEF8EBD0DB407FE26
:10F7B000FDCF8EB58A3A09F04FC081E08093A40551
:10F7C0008091A405813021F0CC24DD24760105C090
:10F7D000C12CD12CE12CF0E4FF2E00E010E087E3F7
:10F7E00040E050E060E070E0B4DD89E2B701A601DE
:10F7F000B0DD882339F00F5F1F4FAFEF0F3F1A07BF
:10F8000071F72AC08091A4058130F1F48AE340E0C9
:10F8100050E060E070E09DDD8823F1F48FEF8EBD55
:10F820000DB407FEFDCF0EB406FE03C082E0809348
:10F83000A40590E08FEF8EBD0DB407FEFDCF8EB511
:10F840009F5F9330B9F70AC080E140E052E060E08A
:10F8500070E07FDD882311F081E001C080E02C9A08
:10F86000882309F085C160E070E080E090E018DE58
:10F87000982F8250823008F47DC0943021F0EE241D
:10F88000FF2487010EC0E0906505F09066050091A9
:10F89000670510916805C801B70102DE882309F0E9
:10F8A00067C12091B5033091B60380915E03803229
:10F8B00021F0A90160E070E008C04091C3035091BD
:10F8C000C4036091C5037091C6038091AF03823079
:10F8D00021F4440F551F661F771F8091AD0390914F
:10F8E000AE03A0E0B0E08E0D9F1DA01FB11F80935E
:10F8F000540390935503A0935603B093570320915C
:10F90000AC03209353039A01AB01280F391F4A1F00
:10F910005B1F80915E03803229F0722F632F942F3A
:10F92000852F08C07091CB036091CC039091CD03DB
:10F930008091CE0370934F036093500390935103D3
:10F94000809352038091B0039091B10364E0969547
:10F9500087956A95E1F7A0E0B0E0280F391F4A1FAC
:10F960005B1F20939F053093A0054093A105509302
:10F97000A20503C0992309F0FBC080E3FE01339682
:10F98000DF011D928A95E9F780915E0320914F0374
:10F99000309150034091510350915203803261F4F1
:10F9A0002F83388749875A87CA01B90109DD6B87D8
:10F9B0007C878D879E873DC02B873C874D875E87E0
:10F9C00038C08DA59EA52FA138A5AC01B9018091A5
:10F9D0005E038A019B01025010402040304080317C
:10F9E00051F40E3EBFEF1B07B0E02B07B0E03B0722
:10F9F00008F0BEC009C00E3E8FEF18078FEF280732
:10FA00008FE0380708F0B4C081E08B834F835887BC
:10FA100069877A871C82CB01BA01D2DC6B877C872D
:10FA20008D879E871E821D8280E06CE071E04DDB39
:10FA30002CC01D811F7031F4CE01039658DD882340
:10FA400009F096C08D819E8101969E838D83E12F62
:10FA5000F0E085E0EE0FFF1F8A95E1F7DE01539697
:10FA6000E156FC4F80E201900D928150E1F79B89B5
:10FA7000992309F47DC08E8D83FDDBCF9E32C9F2C0
:10FA8000953E09F02FC1D5CFFADBEFA4F8A809A95C
:10FA90001AA9C12CB1E0DB2E88249924AAE4AA2E4D
:10FAA000A1E0BA2E45C08D819E81892B31F4CE0113
:10FAB00003961DDD882309F041C06D817E8180E0C1
:10FAC00092E0861B970BA6018C159D0508F4AC01EE
:10FAD000CA01A0E0B0E0E816F9060A071B0708F41F
:10FAE000A701DB01A156BC4F9A01F50104C08D911D
:10FAF00081932150304021153105C9F79A01260F15
:10FB0000371FA40EB51E3E832D83C41AD50A840E5A
:10FB1000951ECA01A0E0B0E0E81AF90A0A0B1B0B17
:10FB20002050324011F41E821D82C114D10431F0E4
:10FB3000E114F1040105110509F0B5CFEFA6F8AA0B
:10FB400009AB1AAB8114910409F09ECFE114F104C2
:10FB50000105110569F480E061E371E0B6DA80E146
:10FB600097E2E4EFF1E03197F1F70197D1F7B0C0F8
:10FB700049DB80E06AE171E0A8DA80E29EE4E4EF2C
:10FB8000F1E03197F1F70197D1F7A2C0F6FCA0C0E0
:10FB900080E063E271E099DA8091C0008D7F80930C
:10FBA000C0001092C50087E28093C4008091C1001C
:10FBB00080618093C100FF241BAACC24DD2400E0D7
:10FBC00010E002C08F2DF82E8091C00087FFFCCF7F
:10FBD0009091C600913F10F0973FA1F7ABA9A130DB
:10FBE000C1F0A13018F0A23069F726C0F801E15C3D
:10FBF000FE4F8081981751F402DB0F5F1F4F0630D4
:10FC0000110501F78F2DB1E0BBAB13C0FBDA8F2DCF
:10FC100010C097FD5AC0FE01E00FF11F91830F5FE6
:10FC20001F4F0230110571F680E092E09BABCC24AF
:10FC3000DD2400E010E0C7CF97FD19C0F601E65BB8
:10FC4000FE4F00FF0EC09F708081982B9083AFEF16
:10FC5000CA16D10409F008F4F90E0894C11CD11C8D
:10FC600003C09295907F90830F5F1F4FABCF973F5C
:10FC700009F0A8CF99819F3791F48A81882379F47C
:10FC80000115110561F461E371E01FDA80E197E28B
:10FC9000E4EFF1E03197F1F70197D1F719C0B1E046
:10FCA000CB16B1E0DB0681F49E3771F48A8188239C
:10FCB00059F480914A028F1539F48CABE0DA1BAA13
:10FCC00000E010E08CA97FCF9DDA8F2D1BAAB1CF69
:10FCD000E0914601F0914701099580E090E0E496BB
:10FCE000ECE067C080E091E0BE016D5E7F4F4BE0CD
:10FCF00050E006D0009709F09CCE63CEF89474C013
:10FD0000FB01DC0104C08D910190801921F4415068
:10FD10005040C8F7881B990B0895F999FECF92BD02
:10FD200081BDF89A992780B50895262FF999FECFBD
:10FD30001FBA92BD81BD20BD0FB6F894FA9AF99A08
:10FD40000FBE01960895AA1BBB1B51E107C0AA1F55
:10FD5000BB1FA617B70710F0A61BB70B881F991F6C
:10FD60005A95A9F780959095BC01CD0108952F92E1
:10FD70003F924F925F926F927F928F929F92AF923B
:10FD8000BF92CF92DF92EF92FF920F931F93CF9388
:10FD9000DF93CDB7DEB7CA1BDB0B0FB6F894DEBF1F
:10FDA0000FBECDBF09942A88398848885F846E8445
:10FDB0007D848C849B84AA84B984C884DF80EE808F
:10FDC000FD800C811B81AA81B981CE0FD11D0FB698
:10FDD000F894DEBF0FBECDBFED010895EE0FFF1FFB
:0CFDE0000590F491E02D0994F894FFCFF9
:10FDEC00414D42494B41202042494E00534420751D
:10FDFC0070646174652E2E2E20005344206572723F
:10FE0C006F7200537978207570646174652E2E2E94
:10FE1C0000446F6E6520202020202020202000F040
:06FE2C00002102000400A9
:040000030000F00009
:00000001FF
