:100000000C9426250C944E250C944E250C944E25CC
:100010000C944E250C944E250C944E250C944E2594
:100020000C944E250C94D0340C944E250C944E25F3
:100030000C944E250C944E250C944E250C944E2574
:100040000C944E250C944E250C944E250C944E2564
:100050000C944E250C944E250C944E250C944E2554
:100060000C944E250C944E25522500003E2600008F
:100070005A2500003E2600003E26000045270000CD
:10008000A1270000A1270000A1270000A127000050
:100090001728000017280000172800001728000064
:1000A000A32800005B2B000023290000B0290000DA
:1000B0000D2B0000CA2B0000F92900001A2C0000AB
:1000C000CB490400040004000400050005000500FD
:1000D00006000600070007000700080008000900E6
:1000E00009000A000B000B000C000D000E000E00B2
:1000F0000F00100011001200140015001600170068
:1001000019001A001C001E001F00210023002500FA
:1001100028002A002D002F003200350039003C0055
:100120004000430047004C00500055005A0060005A
:1001300065006C00720079008000880090009900D2
:10014000A200AC00B600C100CC00D900E600F3006C
:100150000201110122013301450159016E0184019F
:100160009B01B301CD01E9010602250246026902A5
:100170008E02B502DF020B0339036B039F03D60324
:10018000110450049204D80422057005C4051C060D
:100190007906DD064607B5072B08A8082D09B90919
:1001A0004E0AEC0A930B450C010DC80D9B0E7A0FFD
:1001B000671063116D128713B214EF153F17A31860
:1001C0001C1AFFFFD8492140E237DB30D82AAF257F
:1001D0003D21651D101A2B17A5146F128010CC0E2F
:1001E0004D0DFA0BCE0AC409D80805084907A10627
:1001F0000A0683050A059C043A04E10390034703B9
:100200000503C9029202600232020902E301C00141
:10021000A001830168014F01390124011001FF0091
:10022000EE00DF00D100C400B800AC00A2009800CE
:100230008F0087007F00770071006A0064005F0014
:100240005A00550050004C004800440040003D005A
:100250003A003700340032002F002D002B00290017
:10026000270025002300210020001E001D001C0087
:100270001A001900180017001600150014001300CA
:10028000120012001100100010000F000E000E00EE
:100290000D000D000C000C000B000B000A000A0002
:1002A0000900090009000800070007000600060011
:1002B0000500050004000400030003000200020022
:1002C0000100602B6A2B742B7E2B882B922B9D2B8D
:1002D000A72BB12BBB2BC52BCF2BD92BE32BED2B76
:1002E000F82B022C0C2C162C202C2A2C352C3F2CD5
:1002F000492C532C5E2C682C722C7C2C872C912C36
:100300009B2CA62CB02CBA2CC52CCF2CD92CE42C91
:10031000EE2CF82C032D0D2D182D222D2C2D372DE4
:10032000412D4C2D562D612D6B2D762D802D8B2D35
:10033000952DA02DAA2DB52DC02DCA2DD52DDF2D83
:10034000EA2DF52DFF2D0A2E142E1F2E2A2E342EC7
:100350003F2E4A2E542E5F2E6A2E752E7F2E8A2E09
:10036000952EA02EAA2EB52EC02ECB2ED62EE02E48
:10037000EB2EF62E012F0C2F172F222F2D2F372F7C
:10038000422F4D2F582F632F6E2F792F842F8F2FB1
:100390009A2FA52FB02FBB2FC62FD12FDC2FE72FE1
:1003A000F22FFD2F083014301F302A303530403006
:1003B0004B30563062306D30783083308E309A302A
:1003C000A530B030BB30C730D230DD30E830F4304B
:1003D000FF300A31163121312C31383143314F3160
:1003E0005A31653171317C31883193319F31AA3175
:1003F000B631C131CD31D831E431EF31FB31063284
:1004000012321D322932353240324C325732633289
:100410006F327A32863292329D32A932B532C03290
:10042000CC32D832E432EF32FB32073313331F338E
:100430002A33363342334E335A33663372337D3385
:1004400089339533A133AD33B933C533D133DD337C
:10045000E933F53301340D341934253431343D3466
:100460004934553461346E347A34863492349E344F
:10047000AA34B634C334CF34DB34E734F334003534
:100480000C351835253531353D354935563562350C
:100490006E357B3587359335A035AC35B935C535E7
:1004A000D235DE35EA35F735033610361C362936B7
:1004B000353642364E365B366836743681368D3682
:1004C0009A36A736B336C036CC36D936E636F3364A
:1004D000FF360C371937253732373F374C37583707
:1004E000653772377F378C379937A537B237BF37C3
:1004F000CC37D937E637F33700380D381A38273874
:10050000343841384E385B386838753882388F381F
:100510009C38A938B638C338D038DD38EA38F838CE
:10052000053912391F392C393A394739543961396B
:100530006F397C3989399639A439B139BE39CC390A
:10054000D939E639F439013A0F3A1C3A2A3A373A9E
:10055000443A523A5F3A6D3A7A3A883A953AA33A2F
:10056000B13ABE3ACC3AD93AE73AF43A023B103BB8
:100570001D3B2B3B393B463B543B623B703B7D3B39
:100580008B3B993BA73BB43BC23BD03BDE3BEC3BB8
:10059000FA3B073C153C233C313C3F3C4D3C5B3C2B
:1005A000693C773C853C933CA13CAF3CBD3CCB3C9B
:1005B000D93CE73CF53C033D113D1F3D2D3D3C3D05
:1005C0004A3D583D663D743D833D913D9F3DAD3D67
:1005D000BB3DCA3DD83DE63DF53D033E113E203EC4
:1005E0002E3E3C3E4B3E593E683E763E843E933E18
:1005F000A13EB03EBE3ECD3EDB3EEA3EF83E073F6A
:10060000163F243F333F413F503F5F3F6D3F7C3FAC
:100610008B3F993FA83FB73FC53FD43FE33FF23FF1
:1006200000400F401E402D403C404B405940684028
:10063000774086409540A440B340C240D140E0405E
:10064000EF40FE400D411C412B413A414941584188
:100650006741764185419541A441B341C241D141B1
:10066000E141F041FF410E421E422D423C424B42CD
:100670005B426A42794289429842A842B742C642E6
:10068000D642E542F54204431443234333434243F5
:1006900052436143714381439043A043AF43BF43FF
:1006A000CF43DE43EE43FE430E441D442D443D4400
:1006B0004D445C446C447C448C449C44AB44BB44FB
:1006C000CB44DB44EB44FB440B451B452B453B45EE
:1006D0004B455B456B457B458B459B45AB45BB45DA
:1006E000CB45DC45EC45FC450C461C462C463D46BE
:1006F0004D465D466D467E468E469E46AF46BF469B
:10070000CF46E046F046004711472147324742476F
:1007100053476347744784479547A547B647C6473D
:10072000D747E847F847094819482A483B484C4802
:100730005C486D487E488E489F48B048C148D248C2
:10074000E248F34804491549264937494849594977
:100750006A497B498C499D49AE49BF49D049E14925
:10076000F249034A144A254A364A474A594A6A4ACC
:100770007B4A8C4A9D4AAF4AC04AD14AE34AF44A6E
:10078000054B174B284B394B4B4B5C4B6D4B7F4B01
:10079000904BA24BB34BC54BD64BE84BF94B0B4C94
:1007A0001D4C2E4C404C514C634C754C864C984C17
:1007B000AA4CBB4CCD4CDF4CF14C034D144D264D97
:1007C000384D4A4D5C4D6E4D7F4D914DA34DB54D0D
:1007D000C74DD94DEB4DFD4D0F4E214E334E454E7D
:1007E000584E6A4E7C4E8E4EA04EB24EC44ED74EE0
:1007F000E94EFB4E0D4F204F324F444F574F694F3C
:100800007B4F8E4FA04FB24FC54FD74FEA4FFC4F93
:100810000F5021503450465059506B507E509150DB
:10082000A350B650C950DB50EE5001511351265120
:1008300039514C515E51715184519751AA51BD515A
:10084000CF51E251F55108521B522E52415254528F
:1008500067527A528D52A052B452C752DA52ED52B8
:100860000053135327533A534D53605373538753D5
:100870009A53AD53C153D453E753FB530E542254F0
:10088000355449545C54705483549754AA54BE54FC
:10089000D154E554F9540C552055345547555B5502
:1008A0006F5582559655AA55BE55D255E655F95500
:1008B0000D562156355649565D56715685569956F0
:1008C000AD562000400080008100B500C900000145
:1008D00001016A019201C001000202024002C0024D
:1008E000D40200032403760300043E04B60400058A
:1008F000A80500082B0DD107DA064906E105910588
:100900004F051805E704BD04970475045504380421
:100910001D040404ED03D703C303AF039D038B033E
:100920007A036A035B034C033E033003230316037D
:100930000A03FE02F302E702DD02D202C802BE028F
:10094000B402AB02A2029902900288027F027702EF
:100950006F0268026002580251024A0243023C02DE
:1009600035022F02280222021B0215020F02090281
:100970000302FE01F801F201ED01E701E201DD01F0
:10098000D701D201CD01C801C301BE01BA01B50131
:10099000B001AC01A701A3019E019A01950191014B
:1009A0008D018901850181017C0178017501710149
:1009B0006D016901650161015E015A015601530132
:1009C0004F014C014801450141013E013B01370106
:1009D000340131012D012A012701240121011E01C9
:1009E0001A011701140111010E010B010901060181
:1009F00003010001FD00FA00F700F500F200EF002E
:100A0000EC00EA00E700E400E200DF00DD00DA00CD
:100A1000D700D500D200D000CD00CB00C900C60061
:100A2000C400C100BF00BC00BA00B800B500B300EC
:100A3000B100AF00AC00AA00A800A600A300A1006E
:100A40009F009D009B0098009600940092009000EB
:100A50008E008C008A00880086008400820080005E
:100A60007E007C007A0078007600740072007000CE
:100A70006E006C006A00680067006500630061003A
:100A80005F005D005C005A0058005600540053009F
:100A900051004F004D004C004A0048004600450000
:100AA0004300410040003E003C003B00390037005D
:100AB00036003400330031002F002E002C002B00B4
:100AC00029002700260024002300210020001E000A
:100AD0001D001B001A00180017001500140012005A
:100AE00011000F000E000C000B00090008000600AA
:100AF000050004000000008000400080C200C20128
:100B0000C202C208F408F40A00000000000000005D
:100B100000000000000000000002020303040506BC
:100B200007080A0C0E111418000304050607090A29
:100B30000C0F12151A1F252D0004050608090B0DB0
:100B40001013171C2228313A00050607080A0C0F5B
:100B50001115191E242C353F0004050608090B0D3C
:100B60001013171C2228313A000304050607090A4E
:100B70000C0F12151A1F252D00020203030405068F
:100B800007080A0C0E1114180000000000000000F5
:100B9000000000000000000000FEFEFDFDFCFBFA6E
:100BA000F9F8F6F4F2EFECE800FDFCFBFAF9F7F6E1
:100BB000F4F1EEEBE6E1DBD300FCFBFAF8F7F5F33A
:100BC000F0EDE9E4DED8CFC600FBFAF9F8F6F4F16F
:100BD000EFEBE7E2DCD4CBC100FCFBFAF8F7F5F36E
:100BE000F0EDE9E4DED8CFC600FDFCFBFAF9F7F63C
:100BF000F4F1EEEBE6E1DBD300FEFEFDFDFCFBFADB
:100C0000F9F8F6F4F2EFECE8000101020203030444
:100C100004050608090B0D1000010102020303047C
:100C200004050608090B0D1000010102020303046C
:100C300004050608090B0D1000010102020303045C
:100C400004050608090B0D1000010102020303044C
:100C500004050608090B0D1000010102020303043C
:100C600004050608090B0D1000010102020303042C
:100C700004050608090B0D1000010102020303041C
:100C800004050608090B0D1000FFFFFEFEFDFDFC2C
:100C9000FCFBFAF8F7F5F3F000FFFFFEFEFDFDFCAC
:100CA000FCFBFAF8F7F5F3F000FFFFFEFEFDFDFC9C
:100CB000FCFBFAF8F7F5F3F000FFFFFEFEFDFDFC8C
:100CC000FCFBFAF8F7F5F3F000FFFFFEFEFDFDFC7C
:100CD000FCFBFAF8F7F5F3F000FFFFFEFEFDFDFC6C
:100CE000FCFBFAF8F7F5F3F000FFFFFEFEFDFDFC5C
:100CF000FCFBFAF8F7F5F3F000FFFFFEFEFDFDFC4C
:100D0000FCFBFAF8F7F5F3F0020202030203030416
:100D10000504070509070A0B0B0D0D111012151517
:100D200017191B1C201F242427292B2E303335375D
:100D3000393E3F4146464B4C515255595C5E6164C9
:100D4000686B6D7074777A7C818287898C909394BC
:100D50009A9B9EA3A3A9A9AEB1B2B6B9BBBFC0C3AB
:100D6000C7C8CBCDD1D2D4D8D8DCDDDFE2E3E6E60C
:100D7000E9EBEBEFEEF1F2F3F5F5F6F9F7FBF9FC41
:100D8000FBFCFDFDFDFEFEFEFDFFFEFDFDFEFCFD90
:100D9000FBFBFAFAF8F8F6F6F5F2F3F0EFEEECEA10
:100DA000E9E7E6E2E2E0DDDBD9D7D4D3D0CECAC9A9
:100DB000C6C4C0BEBCB8B6B3B1ADAAA8A4A29E9C1E
:100DC0009995938F8D888783807D7A7674716D6A0B
:100DD0006865605F5C585553504D4A4745423F3DFA
:100DE00039383532312D2B2A262523201F1D1A1A7A
:100DF0001616141310100D0E0B0A0A080806060525
:100E00000405020402020203011D1D1F1D1F1F1FF6
:100E100020202022202321232323232425252426A8
:100E20002725272728272929282A292B2A2C2A2D34
:100E30002B2D2D2D2E2E2E2F2F30303032303133C2
:100E400032323434323635313CF5FFFAF8FCF9F9F8
:100E5000F8F9F8F7F8F6F6F7F5F5F5F5F3F5F3F236
:100E6000F3F2F2F1F2F0F0F0EFF0EEEEEFEDEDEC88
:100E7000EEEBECEBEAECE9EAE9E9E9E8E8E7E7E6DA
:100E8000E7E6E5E5E5E4E4E4E3E2E3E2E2E0E2E02C
:100E9000E0E0DFDFDFDDDFDCDEDDDBDDDBDBDBD980
:100EA000DBDAD8DAD8D7D9D6D8D6D6D5D6D5D5D3D1
:100EB000D4D4D3D2D3D1D2D1D1CFD2CECFD0CECD24
:100EC000CECECCCDCDCACBCEC609010606060507CF
:100ED00007070907080A09090A0B0B0B0B0D0B0E74
:100EE0000D0D0E0E0F0F100F111011121113121302
:100EF0001413141514161615171717171918181A8E
:100F0000191A1B1A1B1C1C1B1E1C2021202122220B
:100F10002321242423242525252626262728272780
:100F20002A28282B292A2B2B2B2B2E2B2D2D2E2D0F
:100F3000302D302F312F30332F333232333432359E
:100F40003435343736333A383043ECFFF5F4F8F7BC
:100F5000F3F5F7F2F4F4F3F2F3F2F1F2F1EFF1F06A
:100F6000EFEFEFEEEEEDEDEDEDEBECECEAEBEAE9B9
:100F7000EAE9E9E8E7E9E6E7E7E6E5E6E4E5E5E307
:100F8000E3E4E2E2E3E1E1E1E0E1DFE0DEDFDEDE57
:100F9000DEDCDEDBDDDBDCDADBDAD9DAD9D8D9D8A6
:100FA000D7D7D8D5D6D6D6D4D5D3D5D3D3D3D2D2F6
:100FB000D1D1D2CFD1D0CFCED0CDCECECDCBCECC45
:100FC000CBCBCCC9CBCBC6C9D0BC1303080D07090A
:100FD0000D090B0C0C0B0E0C0D0E0F0D0F100F103E
:100FE00011101013111213131314141415151616CF
:100FF00016161817181819181A191B1A1B1B1B1C60
:101000001D1D1C1E1E1D201E201F201F1E201F21F7
:101010001F231F232124212423242426232725279B
:101020002528282629282A282B282C2A2B2C2C2B2B
:101030002E2C2F2C2F2F2E302F31303130343034B6
:10104000303730373138313A313B32FEF5FDF3FD80
:10105000F3FCF2FAF3F9F2F8F2F6F2F5F1F4F2F247
:10106000F2F0F2EFF1EFF0EEEFEDEFECEFEBEDEB96
:10107000ECEAECEAEAE9E9EAE7E9E7E8E6E8E4E8E5
:10108000E4E5E5E5E2E5E3E2E3E2E1E1E2E0E0DF39
:10109000E1DDE0DDDFDDDDDDDCDCDBDCDADBDADA87
:1010A000D8DAD8D9D7D8D6D7D6D7D4D7D3D5D4D4D9
:1010B000D2D4D2D2D2D1D2CFD2CED1CDD1CCD1CA2C
:1010C000D1C9CFCACFC7CFC6CFC5CE020B020C0342
:1010D0000C050C060D070D080D0A0D0C0D0C0E0D60
:1010E0000F0E0F100F1010121013111311151215EF
:1010F0001414151616161617181718181A181B197F
:101100001B191D1B1C1B1E1C1F1C1F1F29282728E9
:101110002B2B29292B2B2D2B2B2C2E2D2E2C2E300F
:101120002F2E2F30313130303234323132343534A9
:1011300034323638353534383A3735373A3C383743
:10114000373D3F3A35394343382C3C72B9EFFEF214
:10115000E4E5EEF2ECE7E6EDECEBE5E7E9ECE6E6FC
:10116000E5E8E8E6E4E3E7E6E3E3E2E5E4E2E0E23B
:10117000E2E3DFE0DFE1E1DDDEDFDEDFDCDCDDDD81
:10118000DDDADADCDBDBD9D8DADAD8D8D7D7D9D7C9
:10119000D5D5D7D6D5D4D4D4D5D3D2D2D4D2D2CF14
:1011A000D1D2D1D0CDD0CFD0CECCCECDCFCCCACB5A
:1011B000CECCC9CAC9CBCCC7C7C8CBC9C5C4C7CA9E
:1011C000C9C1C1C7CAC7BDBCC8D4C48D4711010EAF
:1011D0001C19120F121B17151117191A1515181CA7
:1011E0001918171B1B1C191A1C1E1C1B1C1E1F1F49
:1011F0001C1E1F21201F1F212321212123242322E4
:101200002424262523262627272528272A24252681
:10121000292A2A2C2A29292827282A2B2E2E2F2F23
:101220002F2D2B2C2C2B2F3033333334332F302EC8
:101230002F30343538393938353331313134393D5F
:101240004042403B372F2C2A313B506A85A6C2DBF7
:10125000EEFAFEFDF7F0EAE5E2E5E5EAEDF0F0EEA4
:10126000ECE8E7E3E2E4E5E8E8E9EAE8E6E4E1E11E
:10127000DFE2E1E4E4E6E3E3E1DFDDDDDDDDDFDF66
:10128000E1E0DFDEDCDBD9D8DAD9DCDBDCDDD9DAA2
:10129000D8D5D5D5D5D7D6D9D8D7D7D4D2D2D0D1FD
:1012A000D1D2D5D4D4D4D1D0CDCDCBCDCDD0D0D238
:1012B000D0D0CCCBC7C7C7C8CACDCED0CFCAC8C282
:1012C000C0BFBFC3CBCFD5D5D0C4AF977A5A3E23CA
:1012D00013060103090F161B1D1B1B1513101011FC
:1012E00014171A1C1D1D1A1818151718191C1F1F62
:1012F0001F201D1C1B1C1B1D1F20232323222120FC
:10130000201F2121242625282725252424232B2C92
:101310002B2B2A2928272626232323212321222475
:10132000232626282B2D2E3033353538383A3939B7
:101330003A37373632322F2C2B29262624252426DD
:10134000282B2F333A40485159636F7984909CA6DB
:10135000B2BCC7D0D9E1E8EEF3F8F9FDFEFEFDFD21
:10136000FAF9F6F4EFEEEAE7E6E2E1DFDEDDDDDEF4
:10137000DCDFE0DFE2E3E5E5E7E8E9E9E9EAE8E91F
:10138000E7E6E4E4E1DFDEDBDBD8D8D6D5D5D3D69B
:10139000D3D6D5D7D7D8DBDADBDEDCDEDEDEDEDCAB
:1013A000DCDAD9D8D5D3D1CFCECACBC7C8C6C7C54A
:1013B000C8C7C9CACDCED1D3D5D7D9DBDADCDBD902
:1013C000D8D6D0CBC8BEB9AEA79C91877B70645AE3
:1013D0004D433930271E18110D090503020202037F
:1013E00004080A0C0F1316171B1D1F21212322238B
:1013F0002221211F1F1B1D19181917161617161841
:1014000019191B1C201F22242627282A2A2B2B4D82
:101410004E4E515052545356565659595A5C5B5E73
:101420005D60606162636465666768686B6A6C6C66
:101430006F6D70707272737475767777797A7A7B64
:101440007D7C7E807E828182838584868688888A70
:10145000898B8C8C8D8E8F9090929292959495968C
:10146000979898999A9B9C9B9E9D9F9FA0A1A1A3B2
:10147000A2A4A5A4A7A5A9A7A8AAABA9ADABADAEE8
:10148000AEAEB1AFB1B2B2B2B4B5B4B5B6B8B6B82B
:10149000B9B9BABABCBABEBCBDBEBFC0BFC0C2C07B
:1014A000C4C1C4C4C4C5C6C5C7C7C8C8C9C9CACAD7
:1014B000CBCBCCCCCECCCFCDD0CFD0D0D1D1D2D243
:1014C000D3D3D4D4D4D5D5D7D6D6D8D7D8DBD3098F
:1014D00001060807090C0B0C0F1010121314161735
:1014E000171A1A1B1D1F1E20222323252726292AEF
:1014F0002B2B2D2F2F303233333537363A383B3BB9
:101500003D3E3F4041424443464747484B494D4C8E
:101510004E505151525455555659575A5A5C5C5E6B
:101520005E5E626063626564676668686B696C6D65
:101530006D6E6F70717174727675757878797A7A6C
:101540007B7D7D7E7E81808182848385868687887F
:1015500089898B8B8B8E8E8D9090909292939494A0
:1015600096969699979A999B9B9C9D9D9F9EA0A1CC
:10157000A0A2A2A4A3A5A6A4A8A7A8A8AAAAAAAC08
:10158000ABADAEADAFAFAFB1B2B1B2B3B4B4B5B550
:10159000B6B7B8B6BAB8BABABBBCBBBDBCBFBDC0A3
:1015A000BEC1C0C0C3C1C3C3C4C4C4C6C6C5C8C706
:1015B000C7C9C9C9C9CBCBCBCBCDCCCECDCECFCF74
:1015C000CED1D1CFD3D1D1D4D3D2D4D7D1D5DCCAF7
:1015D00013020A0E090E0F100F1413131716181901
:1015E0001B1B1D1D1F202222232526262929292DCC
:1015F0002C2D2F303132333435383639393C3B3CA1
:101600003F3F404142434446464749494A4C4D4D7D
:101610004E4D504F5251535455565659595A5A5D82
:101620005C5E5F5F626163636566666769696A6C79
:101630006B6E6D706F7171737473767677777A797C
:101640007B7B7C7D7F7E808082828384858587878B
:1016500088898A8A8C8C8D8D8F908F9291939394A8
:10166000969497979899999A9C9A9E9C9E9F9FA0D2
:10167000A1A2A1A4A3A5A4A7A5A8A8A8A9ABA9AC09
:10168000ACADACAFAEAFB0B0B2B1B3B3B3B5B5B54E
:10169000B7B6B8B7B9B9BBB9BCBBBDBCBDBEBFBF9F
:1016A000C0C0C0C2C1C4C1C5C3C6C3C8C4C9C5C9FE
:1016B000C8C9C8CCC8CCCBCCCCCDCECCD0CDD0CF6B
:1016C000D1CFD4CED4D1D5D0D7D0D9D1D9D2DBD1E6
:1016D000DD000C030D071009110D130F151316165D
:1016E00018181C191E1D1E21212223252527282AF2
:1016F000282E2B2E2E3130333235353737393A3AC2
:101700003D3C3F3F40414342464547464B484B4C9A
:101710004D4E53525456575757595A5B5D5A5E5F58
:101720006060606263646564666869676A6B6B6E5B
:101730006B6E6F7071717173757475767778797976
:10174000797C7C7D7C7F7E81808181848483858699
:1017500087878889888C8B8B8C8D8F8E908F9093C8
:101760009292949397959598979999999A9C9C9C05
:101770009C9E9EA0A09EA2A2A2A2A4A3A6A5A5A74D
:10178000A7A8A8A9A9AAACABABACADAFAEAEAFB1A0
:10179000B0B1B2B0B5B3B3B4B5B6B6B7B5B8B9B900
:1017A000B8B9BABCBCBABBBDBFBDBEBDBFC2C0BF6D
:1017B000BFC3C4C1C2C2C5C6C4C4C3C9C7C7C4C8E5
:1017C000C9CCC7C6C9CECDC9C5CDD3D0C5C5D3DF59
:1017D000D2964910020F1E1E1413191F201B192127
:1017E00023241F2225292726272B2D2D2B2C313270
:1017F00031313235383536383B3B3A3C3D40403F5D
:1018000041424445454547494A494A4D4D4E4E504F
:101810005053534F505054535858595A5A5B5A5A70
:101820005C5C5E6160656365666564676569686B7D
:101830006C6F6E706F706F71707373757778797A83
:10184000797A7A7A7B7C7E7E8281838482848384A7
:10185000858588888A8C8C8C8D8C8D8C8F8E9191CF
:1018600094949595969595959798999A9C9D9E9DFB
:101870009E9E9D9DA09FA2A2A4A6A5A6A6A5A5A644
:10188000A6A7AAABABAEADADADADACAEACB0B1B191
:10189000B5B3B5B5B4B3B3B4B5B5B8B9BBBCBBBCDF
:1018A000BAB9BBB8BCBCBEC0C2C2C3C1C1C0BEBF56
:1018B000C0C3C4C7C9C9CAC7C6C4C2C4C5C7CBCFC1
:1018C000D1D1D0CDCBC4C5C3C8CCD4DCE1E1DCCE12
:1018D000B99F805F422514050103081118202323B6
:1018E00023201B1B191B1E22252B2B2C2D2B2929BA
:1018F0002A292E2F333537383738373538373B3CA0
:101900003F41434443434343434646494B4C4F4F77
:101910004F4F4E50515051505150505250515353BF
:10192000545658585B5E5D6262656668696A6C6CA5
:101930006D6D6E6E6D6F6D6F6E6E6F6F70717273B9
:10194000747678797A7E7E7F83828585868788889B
:1019500088888A878A878A888A888B8B8B8D8E90E5
:1019600090939496969A9A9C9D9DA09EA1A0A0A1CA
:10197000A19FA19FA19FA0A0A1A2A1A3A5A5A7A847
:10198000ABACADAFB1B2B3B4B6B5B6B6B6B6B5B62C
:10199000B4B4B4B3B3B3B4B3B5B5B7B8BABBBDC0E0
:1019A000C1C3C5C7C8C9CBC9CBCBC9C9C9C6C6C4C1
:1019B000C3C1C1C1BFC1C0C1C4C6C7CCCED1D5DAB5
:1019C000DBE0E2E4E5E5E5E3E1DAD8CEC8BEB5A8C0
:1019D0009D908376695A4F42362C2219130B0804C6
:1019E0000201020105080B0E13181B1F25272A2DC3
:1019F00030313232343333323130312F2E302E2FDA
:101A00003031333337383A3E3E434447484B4C4EEF
:101A10004E4F514F52030506090B0C0F10121517AC
:101A2000171B1C1E20222426282A2B2E3031343549
:101A300038393B3E3F41434548484B4D4F51525545
:101A400057585A5E5D61626565696A6C6E6F737442
:101A500075787A7B7E7F828484888A8A8E8F909440
:101A60009597989B9E9DA2A2A4A7A9AAACAEB1B23D
:101A7000B4B6B8BABCBEC0C1C4C6C8C9CBCECFD23A
:101A8000D3D5D8D9DADEDFE0E4E4E8E7ECECEFF038
:101A9000F3F4F7F8FAFEFDF9F9F6F4F2F1EEECEBF7
:101AA000E9E6E4E3E1DEDDDADAD6D5D3D1CFCDCB9A
:101AB000C9C7C5C3C2BFBDBBBAB7B6B3B2AFADAD80
:101AC000A9A8A5A4A2A09E9C9A97979492908E8C68
:101AD0008B88868582817E7C7B79767573716E6D4D
:101AE0006B6966666360605D5B5958555351504D34
:101AF0004C49474742433F3E3B3B373634322F2F1A
:101B00002C2A28272323201E1C1B19161413100F00
:101B10000D0B08070404020405070A0B0E0E13122E
:101B20001617191B1E1E22232428292B2C30303473
:101B30003437383C3C3F40434546494A4D4E51526C
:101B400055555A595D5E60636367686A6C6E707262
:101B5000747678797D7D80828485888A8B8E8F9259
:101B60009495979A9B9E9FA1A4A5A7AAAAAEAFB150
:101B7000B3B5B7B9BBBDBFC1C3C4C8C8CBCCD0D047
:101B8000D2D6D6D8DBDCDFE1E2E4E6E9EBEBEFF03E
:101B9000F2F5F6F7FBFCFFFCFCF9F6F5F3F2EEEEDE
:101BA000EAE9E8E5E3E1DFDDDCD9D7D5D4D1D0CC73
:101BB000CCCAC7C6C3C1C0BDBDB8B8B6B4B1B0AD5C
:101BC000ADA9A8A5A5A1A09E9C9A97979491918E46
:101BD0008B8B888684837F7F7C7A79767472716E32
:101BE0006D6A69656662605F5D5A58585452524E1C
:101BF0004D4A4A464542423E3E3A39383433312F07
:101C00002E2A2A26262321201C1C191814151010F0
:101C10000D0C090805030202030305070A0B0E1049
:101C200013141618191D1C21212426282A2C2E30A5
:101C3000323336383A3B3F3F434445484B4A4F4F97
:101C4000535356585B5B5E60616565686A6C6E7085
:101C500072747579797C7E8082848688898D8E8F76
:101C600092949698999D9EA0A2A3A7A7AAACAEB065
:101C7000B2B4B6B8B9BDBEBFC2C4C6C8CACCCFCF55
:101C8000D2D4D6D7DADCDFDFE2E5E6E8E9EDECF046
:101C9000F2F5F5FAFAFDFCFFFEFCFBFAF6F5F1F1C0
:101CA000EEEBEBE7E8E3E4DFDFDDD9D8D7D3D3D041
:101CB000CECCCBC9C5C5C2BFBFBCBAB8B7B4B2B130
:101CC000ADADA9A9A6A4A2A09E9D9A989694929023
:101CD0008E8D8989858582807F7B7A787674727112
:101CE0006D6D6A67676461615D5C5B585654515104
:101CF0004E4C4948474342413E3B3B3737333131F5
:101D00002E2B2B28262422201D1B1B1717131311E3
:101D10000D0C09070603020302020303040507086A
:101D20000A0B0E101215161A1C1E202425282A2C08
:101D30002E31323536393A3C3D4141444547494CD4
:101D40004D50515357575B5C5F616366676A6C6EB9
:101D50007171757679797D7E8081858588898C8E93
:101D600090919496999A9CA0A1A3A6A8A9AEADB172
:101D7000B3B4B7B9BABDBEC0C2C4C6C7CACBCDD151
:101D8000D0D4D7D7DBDCE0E2E4E6E9ECEEEFF3F425
:101D9000F6F8F9FBFCFDFDFDFFFDFEFDFCFBF9F88F
:101DA000F6F5F2F0EEECE8E8E3E3DFDCDCD7D7D3DE
:101DB000D2D0CDCCC9C8C6C3C3C0BFBCBABAB6B5F1
:101DC000B2B1AFACAAA8A6A4A0A09D9A98979393ED
:101DD0008F8E8B8B878683837F7F7C7A79767472F4
:101DE000716E6C6A686563625E5C5B5954555150F4
:101DF0004D4B49484642433F3E3C3B3836353231F5
:101E00002E2C2B272623201F1B1A1714130F0E0C02
:101E10000909060603040203011B28590F0D0100DE
:101E200012333E0D0C06000F455D0E0C07000A54E0
:101E30006E0D0A0800172C570F0C01000D1D500DD8
:101E4000080000062E510C03000009335F0F030049
:101E50000306496307030E0902020202020202029C
:101E60000202020202020202020202020202020252
:101E70000202020202020202020202020202020242
:101E80000202020202020202020202020202020232
:101E90000202020202020203030303030303030319
:101EA00003030404040404050505050606060707E4
:101EB0000808090A0A0B0C0D0E0F1012131516183C
:101EC0001A1C1E212326292D3034373B4044494E0D
:101ED00053585D63696E747A80868C92979DA3A82F
:101EE000ADB2B7BCC0C5C9CCD0D3D7DADCDFE2E431
:101EF000E6E8EAEBEDEEF0F1F2F3F4F5F6F6F7F8DA
:101F0000F8F9F9FAFAFAFBFBFBFBFCFCFCFCFCFD24
:101F1000FDFDFDFDFDFDFDFDFDFDFDFEFEFEFEFEEC
:101F2000FEFEFEFEFEFEFEFEFEFEFEFEFEFEFEFED1
:101F3000FEFEFEFEFEFEFEFEFEFEFEFEFEFEFEFEC1
:101F4000FEFEFEFEFEFEFEFEFEFEFEFEFEFEFEFEB1
:101F5000FEFEFEFEFEFEFEFE01FE0004070B0F135A
:101F6000171A1E2225292C2F3336393C3F4245486B
:101F70004B4E515456595C5E616366686B6D6F726F
:101F80007476787A7D7F81838587898A8C8E90921A
:101F9000949597999A9C9E9FA1A2A4A5A7A8AAAB45
:101FA000ACAEAFB0B2B3B4B5B7B8B9BABBBCBDBED6
:101FB000C0C1C2C3C4C5C6C7C8C8C9CACBCCCDCEB0
:101FC000CFCFD0D1D2D3D3D4D5D5D6D7D8D8D9DACC
:101FD000DADBDBDCDDDDDEDEDFE0E0E1E1E2E2E317
:101FE000E3E4E4E5E5E6E6E7E7E8E8E8E9E9EAEA84
:101FF000EAEBEBECECECEDEDEDEEEEEEEFEFEFF00F
:10200000F0F0F1F1F1F1F2F2F2F2F3F3F3F3F4F4B0
:10201000F4F4F5F5F5F5F6F6F6F6F6F7F7F7F7F763
:10202000F8F8F8F8F8F8F9F9F9F9F9F9FAFAFAFA22
:10203000FAFAFAFBFBFBFBFBFBFBFBFCFCFCFCFCEE
:10204000FCFCFCFDFDFDFDFDFDFDFDFDFDFEFEFEC0
:10205000FEFEFEFEFEFEFEFEFEFFFF02020202028A
:102060000202020202020202020202020202020250
:102070000202020202020202020202020202020240
:102080000202020202020202020202020202020230
:10209000020202020202020202020280FFFFFFFFAE
:1020A000FFFFFFFFFFFFFFFFFFFFFFFFFFFFFFFF40
:1020B000FFFFFFFFFFFFFFFFFFFFFFFFFFFFFFFF30
:1020C000FFFFFFFFFFFFFFFFFFFFFFFFFFFFFFFF20
:1020D000FFFFFFFFFFFFFFFFFFFFFF0200060D13E3
:1020E000191F262C32373D43484D52575C606468B7
:1020F0006C6F7275787A7C7E7F808181828181802D
:102100007F7E7C7A7875726F6C6864605C57524D24
:1021100048433D37322C261F19130D0600FDF6F0FB
:10212000EAE4DDD7D1CCC6C0BBB6B1ACA7A39F9BB8
:102130009794918E8B898785848382828282828321
:10214000848587898B8E9194979B9FA3A7ACB1B60A
:10215000BBC0C6CCD1D7DDE4EAF0F6FD00808080BC
:102160008080808080B0B0B0B0B0B0B0B0DADADAE1
:10217000DADADADADAF5F5F5F5F5F5F5F5FFFFFF78
:10218000FFFFFFFFFFF5F5F5F5F5F5F5F5DADADA1E
:10219000DADADADADAB0B0B0B0B0B0B0B0808080FD
:1021A00080808080804F4F4F4F4F4F4F4F252525C8
:1021B00025252525250A0A0A0A0A0A0A0A00000016
:1021C00000000000000A0A0A0A0A0A0A0A25252550
:1021D00025252525254F4F4F4F4F4F4F4F807F8649
:1021E0008C92989EA5AAB0B6BCC1C6CBD0D5DADE7B
:1021F000E2E6EAEDF0F3F5F8FAFBFDFEFEFFFFFF85
:10220000FEFEFDFBFAF8F5F3F0EDEAE6E2DEDAD5E4
:10221000D0CBC6C1BCB6B0AAA59E98928C86807958
:10222000736D67615A554F49433E39342F2A252132
:102230001D1915120F0C0A07050402010100000008
:102240000101020405070A0C0F1215191D21252A88
:102250002F34393E43494F555A61676D73797F80FA
:10226000808080808080808181828486898D919623
:102270009CA3AAB2BBC4CCD5DEE6EDF3F8FCFEFF0E
:10228000FEFCF8F3EDE6DED5CCC4BBB2AAA39C9667
:10229000918D898684828181808080808080808009
:1022A0007F7F7F7F7F7F7F7E7E7D7B7976726E6989
:1022B000635C554D443B332A2119120C070301007E
:1022C0000103070C1219212A333B444D555C636905
:1022D0006E7276797B7D7E7E7F7F7F7F7F7F7F8042
:1022E0000004080C1014181C2024282D3135393D09
:1022F0004145494D5155595D6165696D7175797DEE
:1023000082868A8E92969A9EA2A6AAAEB2B6BABECD
:10231000C2C6CACED2D7DBDFE3E7EBEFF3F7FBFFB2
:10232000FFFBF7F3EFEBE7E3DFDBD7D2CECAC6C2A2
:10233000BEBAB6B2AEAAA6A29E9A96928E8A86829D
:102340007D7975716D6965615D5955514D4945419D
:102350003D3935312D2824201C1814100C08040098
:1023600000181A1D202225282A2D303336393C3FEB
:102370004245484B4E5155585B5F6266696D7074BB
:10238000777B7F83868A8E92969A9EA2A6AAAEB209
:10239000B6BBBFC3C8CCD1D5DADEE3E7ECF1F5FAC2
:1023A000FF181A1D202225282A2D303336393C3FAC
:1023B0004245484B4E5155585B5F6266696D70747B
:1023C000777B7F83868A8E92969A9EA2A6AAAEB2C9
:1023D000B6BBBFC3C8CCD1D5DADEE3E7ECF1F5FA82
:1023E000FF1804040404040404040404040404049E
:1023F000040404040404040404040404040404049D
:10240000040481FFFFFFFFFFFFFFFFFFFFFFFFFF50
:10241000FFFFFFFFFFFFFFFFFFFFFFFFFFFFFFFFCC
:10242000FFFF040404040404040404040404040476
:10243000040404040404040404040404040404045C
:10244000040481FFFFFFFFFFFFFFFFFFFFFFFFFF10
:10245000FFFFFFFFFFFFFFFFFFFFFFFFFFFFFFFF8C
:10246000FFFF04000D1A26323E49535D666D747AF3
:102470007E81838483817E7A746D665D53493E32AA
:10248000261A0D00FAEEE1D5C9BEB4AAA19A938E20
:10249000898684848486898E939AA1AAB4BEC9D57C
:1024A000E1EEFA000D1A26323E49535D666D747AEC
:1024B0007E81838483817E7A746D665D53493E326A
:1024C000261A0D00FAEEE1D5C9BEB4AAA19A938EE0
:1024D000898684848486898E939AA1AAB4BEC9D53C
:1024E000E1EEFA0080808080B0B0B0B0DADADADAFB
:1024F000F5F5F5F5FFFFFFFFF5F5F5F5DADADADAD0
:10250000B0B0B0B0808080804F4F4F4F252525253B
:102510000A0A0A0A000000000A0A0A0A25252525D7
:102520004F4F4F4F80808080B0B0B0B0DADADADA47
:10253000F5F5F5F5FFFFFFFFF5F5F5F5DADADADA8F
:10254000B0B0B0B0808080804F4F4F4F25252525FB
:102550000A0A0A0A000000000A0A0A0A2525252597
:102560004F4F4F4F80808C98A5B0BCC6D0DAE2EABE
:10257000F0F5FAFDFEFFFEFDFAF5F0EAE2DAD0C66C
:10258000BCB0A5988C8073675A4F43392F251D1511
:102590000F0A050201000102050A0F151D252F393A
:1025A000434F5A6773808C98A5B0BCC6D0DAE2EA74
:1025B000F0F5FAFDFEFFFEFDFAF5F0EAE2DAD0C62C
:1025C000BCB0A5988C8073675A4F43392F251D15D1
:1025D0000F0A050201000102050A0F151D252F39FA
:1025E000434F5A677380808080808182868D96A356
:1025F000B2C4D5E6F3FCFFFCF3E6D5C4B2A3968DD6
:10260000868281808080807F7F7F7E7D7972695C19
:102610004D3B2A190C0300030C192A3B4D5C6972CF
:10262000797D7E7F7F7F808080808182868D96A36A
:10263000B2C4D5E6F3FCFFFCF3E6D5C4B2A3968D95
:10264000868281808080807F7F7F7E7D7972695CD9
:102650004D3B2A190C0300030C192A3B4D5C69728F
:10266000797D7E7F7F7F80000810182028313941D6
:1026700049515961697179828A929AA2AAB2BAC201
:10268000CAD2DBE3EBF3FBFFF7EFE7DFD7CEC6BE43
:10269000B6AEA69E968E867D756D655D554D453DA3
:1026A000352D241C140C0400081018202831394141
:1026B00049515961697179828A929AA2AAB2BAC2C1
:1026C000CAD2DBE3EBF3FBFFF7EFE7DFD7CEC6BE03
:1026D000B6AEA69E968E867D756D655D554D453D63
:1026E000352D241C140C040018191B1C1D1F20213F
:1026F0002224252628292A2C2D2F30313334363711
:10270000393A3C3D3F404243454648494B4C4E5088
:102710005153545658595B5D5E6062636567686AE1
:102720006C6E6F71737577787A7C7E808283858713
:10273000898B8D8F91939597999A9C9EA0A2A4A71F
:10274000A9ABADAFB1B3B5B7B9BBBDC0C2C4C6C804
:10275000CACDCFD1D3D5D8DADCDEE1E3E5E8EAECC7
:10276000EEF1F3F5F8FAFDFF186C6C666F777A7A84
:102770009B909D9299A2929BAB9FA28B8B73686F4B
:10278000685B584F4B42423B402A2E1F2123233087
:10279000333342374D585D71858089838E8997A484
:1027A000AFC3C3C7DBD3E7EDE9F8F8F6FFEDFDED06
:1027B000EBE0D0AFA48B77685D584925301F130D2F
:1027C000161A251F2C2A2C302C2C372C4B585F7EA8
:1027D0008999A89DB6C5CCC7D0CECEB8BFC1AFAB86
:1027E000A4A49F949B92908B7A6C7A6C55514D4D1A
:1027F00046504B46464D3E393A48414D51554D5D48
:10280000667D929C9C98887F6861595D53585859A1
:10281000606B666C757F7D8B8F9B8D877C7869681C
:102820006171747A77858793AFCEDBF4FFFAE8D9CC
:10283000C5BAA7B6B4B1B1AE998A7D664E4B3F36E4
:1028400026211A121C29273C48585869726F697250
:102850007171849BA1ACB6CABEC2C2B9A9ACB2CADE
:10286000E0FCFCE8DBCBAEA69F8F7A493734456CA1
:10287000837A624732101B3E494849391E050C4590
:102880007484A2A99B87898E887C7D7D868D9DBC62
:10289000BCA7AB9F8D8F97BBB9BAC5BE976B666659
:1028A000606182986D492F33476AB4E8F6D3AB90E4
:1028B0005F3D487085837B838063607D7F6E5F654D
:1028C0005652606B8573635B4D4A63717C95A0992A
:1028D000856A79859BB0DFFFF1C1A7866B5C89BEF5
:1028E000E7E7EFE4B6A4A4BAAB796449435F878A0B
:1028F000885B4B231D334C4B51482D1010185775D6
:10290000919E9A8B8683807B736D717D8EA1BCB7FF
:10291000ACAD8C878CA0BAC4D9D9B98A6669647108
:1029200084A6996142353B5C8DD3E8E5B7A47F511D
:102930003C505E6F6E7875795D636E715F61574E66
:10294000555C658A77695155586E7A8DADAA947C2D
:102950006F8086A5C4F3FFDCBA9E76686C9EC5E3E3
:10296000EBE2C6A69CA2B193715836324351737EF6
:1029700093845C422D4C4F6573636E533722171F4F
:1029800046789ABDB5A68E5F4D3A45606EA2A9B74E
:10299000AD8761525B7DAABEDBE1B9A070737F9801
:1029A000A8A2A4927E60362D427DA3E1FFF9FAC170
:1029B000814F2B343F6981A5AD997E4C3F2D364721
:1029C000455E5C696D443D31334D6586ABB19F8C8E
:1029D00063535F6D99B2EDF8EDDDB1948675607368
:1029E00094C2FDF1F8E7D4C38A68504752517A89FE
:1029F00099A7B4C3CFDBE4ECF4FAFEFEFBF8F3ECEA
:102A0000E1D6CABBAC9D8E7F706053463A312A270F
:102A1000232224293036414D58646F7D8B98A3AD15
:102A2000B7C0C7CDD1D2D1CDC9C3BAAFA397897929
:102A30006A5A4D3E3024190E0603010100030B179C
:102A4000212B374755637382919EAAB6C3CAD0D64D
:102A5000D9DBD7D4D0CAC1B6ACA0928375675B501E
:102A6000453B35302C2B2C2F353C4753606D7A7FFE
:102A7000838B969FA5A8ADB2B5BABEBFB9B2AEAAB8
:102A8000A3978E877C6F625749382B231A120B0647
:102A900006020001060D172029313B45515E6A747C
:102AA0007C828A939B9EA3A6A8A7A5A39D938A84B4
:102AB0007F776C635C574E4745423F42474B4C51D2
:102AC0005F6B747D8A97A0A8B5C7D2DBE3ECF2F503
:102AD000F7F9FEFAF8F3ECE3DAD1C7BAADA1978CB7
:102AE000827970665F5A595857585B60656E777F78
:102AF000857C7A87938C75685F5A5D666C665851E1
:102B00004D41322F363B3B3B3B2D19100B0E171B13
:102B100020261D0B0200122B3B362F29262B2D3889
:102B200041413F44515A585D636A68687378736FD6
:102B30007887877C7C8795979AA0A09EA0B0BEBB23
:102B4000C0D0DDDBD0CBD0C9C0CDEFFDFDF6F2EFBC
:102B5000EBE2E2EBE9EBE9E9E4DDD2C7B9B5BEC7E8
:102B6000C2B7B0A5958E939E9E958A817C757E870F
:102B70008584939DA7A79B89755E514C51596673B7
:102B80008393A1B0C0C6C1B4A28C766B666E7E8DF5
:102B9000A5B5C2C6C0B4A18D7F7570737F91A6BB69
:102BA000C6D3DADEE2DDD3C5AE9C8A7B777E8FABFF
:102BB000C8E6F9FFF5DDB98F694D3D3E4A607B916E
:102BC0009FA5A7A19A968D85776454453429241F23
:102BD000202635465053554A35221B2122130F1CFF
:102BE0002A3A465B778D92948F7F6C5E5856596473
:102BF0007584878B78747965564F5652536E5F4A49
:102C00005648444C434C4F473F45483431383129AE
:102C10002C3529403D2140392C4F5D5A525B5E6175
:102C20007C6E657062696D5F665A576A6664686932
:102C30006D6E7982808E9B9EA4AFB1B1BBB8BFCDC3
:102C4000D3CBBBD2D1BFDDD5CBCEACA9ACA9A49B95
:102C5000957B68707B7368797B65628AE5FFBB95BD
:102C6000A4BFCFBBBEDADEC6BEC8C2B5BEB8A5998A
:102C70009288876197866FABBF8FA0F0B191F3C642
:102C800097F3C9ACF3D3C9D7EAC6A6F3BC94F2B99B
:102C900072DDC342D0B42FBF8A4B8771763E7582F6
:102CA0001E75792E66664E6354727055968167ABB9
:102CB0009993B2B4CDB2CEE8C4D8F1E8DDF1E8E83A
:102CC000EBECE8B1E8EF8DE8DB8CC5B68E7289726B
:102CD0003A4B45161109060A000A03060A030A0AB6
:102CE0000A090A0A0A0A0A0A010A20140A4E3F0AB5
:102CF0005D7144618570B94DBDDD5FA3FC735FFDFF
:102D00008383FF7F6FFDCA80ECE57D6AFFDA5DFD9E
:102D1000D944E6DF3F82C6797776956343AC4F446A
:102D2000B86744B07C3A636A83304D87955962999D
:102D3000678357C36D7DCA7D8F768DEC8FB2E88D2A
:102D40008FACB58D6A8DCA548F9D548A6FB0635213
:102D5000A9342C792942013662006C23346A206A36
:102D6000676A606A6C6A6C6A6C0F6C791A6A833283
:102D70006C9F548F85B836FF21D2FD1CA3FF1A1813
:102D8000FD1E66FF1117FDB413FFD01011FFFD10DB
:102D9000FDFF07E5FD420BD7E80C59FF2F05F86D45
:102DA00004FFD905FDF3046397B4041CACEF0438A9
:102DB000E2056105D70504E50405041CD5056ACBC9
:102DC0000405475C0405048B04053D053205DE520D
:102DD00004F83605C950940589EA10FF5C86FD5752
:102DE000FDF6FDE5FCFFFDFFFDFF2FFFFD31FDD0F2
:102DF00025FFFD2DFDB88473655D57585D646D71C9
:102E000072706D67656364677079859099A0A19D04
:102E10009488796A615E616D7A8B9BAAB5BCC1C3E7
:102E2000C4C3C1C0C0C3C5C9CCC9C3B7A6947F6C55
:102E30005A4B413B3A3B3E43454849484544464E40
:102E40005C6F869FB6CBDBE9F1F3EFE6D9C7B39EA3
:102E50008C7B6F635547392C1E140A0300020A1637
:102E600026394D60717D878B8E8F959EA9B4BDC527
:102E7000C8C7C1B5A59484657F92A6B2ADADB2B501
:102E8000C0D1D1CDC7B2ADB0ADB9C8C0B9B09F98AF
:102E900095867B6C482D1804040C0C131B1A2D4AC4
:102EA000638CADBCCAD1D1DDECF3FDFFEADBCCB95C
:102EB000B9B5ABA99D87827D767A78685C462B246C
:102EC0001F181F1F18181D2446657F9DADB0B9BC83
:102ED000BCC7C5C0BEB09C9A9390958C807A716A2D
:102EE000787F878E897A6F6562675B4F41271818F4
:102EF0001824373C434D52656B8FAEC9D9D6D4D513
:102F0000D4D8E0DEDAD8CFCFD3D1D4D6C4AF9B8526
:102F10007D7D7C8184796E614D4239281C100309C6
:102F2000192B475B646B6F6F778082898A828187F8
:102F30008FA8BBC6D0CABBB3A697918C837F776E90
:102F4000717473746C594C4444576C7F95A3A9B445
:102F5000B9BCC3BEB3A796848281848E90939897A0
:102F60009090897F7464544C4B54605E56462B1489
:102F7000080004111926394B6B7DA6CADBDFD6CEBB
:102F8000CACACDCDCDCCCACAC9C9CBCDCEC5B19ADE
:102F900084746F727F909FA6A59C8B755A402819E8
:102FA000151F2B3231291C15141618191B1D222A26
:102FB0003A537391ACBFCBCEC7B59F8C817F8490C1
:102FC000A4BDDAF3FFFBECDBCECBCFD7DFE4E6E743
:102FD000E3DACEBBA58B705B4D443F3C3B3F48538F
:102FE0005A595245382C23202231485E6E74716440
:102FF000534030241B182134547D88AFC3BCA688AD
:10300000706465718290989386726666748BA2AFC5
:10301000AA9A816B5B575B666E74736B5C4C3D3632
:103020003A485E727E7C6E5945393437404D5D6951
:1030300071726D686A7890ABBFC6C1B3A39488847F
:103040008A9DB8D8F3FFFBEAD4C0B3AEAEB2B9BF25
:10305000C1BEB4A59589868B97A3A9A79C8C7A6BD2
:103060005F555150535A6266635B55545964717C85
:1030700082837C6A50331D1A2F58887C929DABB98D
:10308000BAB7BBC5C0ADA1967F604A484A4D5766E6
:103090006F758195A5B1C3D7E2E7EAE8D5B6A095EB
:1030A0008770615746322B3135323D5C778493A669
:1030B000B3AFAEB6BEB7A99B876E58493A2B29323B
:1030C00038374258697285A2B6C4D3E9EEE0D0CC55
:1030D000C6B3A49B8D735B52514D4C55606A7A9078
:1030E0009C9EA3B6C8CDD2D3C7AA937F63432F2695
:1030F000180C0A0801000B1D2937577C5E86C09DFD
:10310000655C4155AFCED3D68C4A535982D3D4B6E1
:10311000A15F467A96BBE2B06E542C3A87A4ABB05E
:1031200066272C2A529E997E68281A5987BEF2CDAE
:10313000967A4E5EA7BECBC97E4A545990DED7BD63
:103140009A442B576FA3CF9761431434829CB3A941
:103150005121202470BEC0BC9C4E4B788ED0F1B360
:10316000855D27509CB9DFD9865B524C91D3C6B49C
:1031700080281E3D5FAAC28F6A26003A5E7A85913A
:103180009CA7B1BCC5CDD5DBE0E4E6E5E6E5E1DF33
:10319000DBD8D1CBC5BDB7B1ACAAA8A8A8A8A9A9AE
:1031A000AAAAAAAAAAADAFB2B4B6B9BCBFC1C5C7D4
:1031B000C8C8C7C7C4C2BCB6ADA49B8E8274685CC5
:1031C0004E41362B21180F080502000002070D138F
:1031D0001B242C363D454E545C60676C70737374D1
:1031E00073706C69686562605F5C5955514D494503
:1031F000413E3B38383B3E4348515A64707A7D89A2
:103200009195A0B0C5D5DEE6E9ECEFF2F2F0E1D1A0
:10321000C3BCBFBFBCB3A79EA3ADB9C3C8C8C9CB0D
:10322000CCCCC8C0BCBFC5C9D4E3F0FBFFFCF8F2EE
:10323000E9E4DED8D5D1C9BCAD9D979A9E9B8B7130
:10324000553C281F1F2221160C070D1B2D393F3C12
:1032500036343943515555575755514E4C4E4E4EB5
:103260004E483C2D211F212A343A33251610131CB9
:103270002B373C3A332D2B2A282A36485C717D8720
:10328000877F797F8D9DAEBBC1BEB9C0C7C7C0A2C5
:103290008972646E777B776D66738DA1AFB5B4B7B5
:1032A000B7BDC1BEB2A8A4A9AAB7CCE1EFF0E4DAD9
:1032B000CBBEB8B0A9A4A29A8A766866738A948CA9
:1032C00070523C2C2F425B6D706C70839FBCCECED5
:1032D000C1AB988F939A9687796C5F54453C393887
:1032E0003A373022120100081C303C3725141320D5
:1032F00039597581837E71685E544C51637381873F
:10330000867D787B8E989CADC9DFDFDCF1FFFCEE1B
:10331000CEB9A28D919192948B83828D928A87836C
:1033200083848DA2AEA796847F7B808D959C9B8E97
:103330008B868B929592929692847264564F4F4FE1
:10334000442E1D0F040716344E5F6A7B90A6B7BD4E
:10335000BBB2A391827D7F7867584D4643403F447E
:103360004B514D4847443F3D404D585F5D5B595D73
:103370006B8096A6ADB1B1A99F91867D7D8684892B
:10338000868378747E9499909CBAD5D8D6EFFFFB4B
:10339000ECD5CBBBA7A69F9FA49F988C8880696023
:1033A0005B595B637D919282695E57555551524ED0
:1033B00045484E606F77797E85867E746B5A4432BD
:1033C0002A2117151410111A2F465D7084959D9FA0
:1033D0009C97969085766D6A63564C45464C53593A
:1033E000616C727070788185848485858689929CF1
:1033F000A4ADB8BEBFC0C4C8C5C0B4ACA4A19F91A1
:103400008B838D746F7D95998990ACC5C3BED7E6CB
:10341000DFCAAEA99B828484848E8E8E8E97A590FF
:1034200084898E949EBCD3CEBEA582625A584A37F8
:10343000332C231E2831332E37465361727F7D7221
:10344000645A535354585D64646262686D798EA205
:10345000A5A09D957D6A5B54514C413325252C30A8
:103460002E3545483E3533353F464A4C545F626DF4
:1034700084A4C1DFF4FFFBF6F4EFEDEAECE6E6E34B
:10348000C8AC8D9277747F8685777174776D686E1E
:10349000706A5C4F5454484F5858616A76869BBF97
:1034A000BDB4C6D2D7DDEAF5E7E6E3B68B7F7C6A2A
:1034B000494849362519150A0006162A4C799DB344
:1034C000C3C6BDC0CFD7DDEDF6EAC8A48B7770794F
:1034D0008C918E8E8362545151515252493D3A3FE4
:1034E0003A2E303736271807000A181E1F303F4083
:1034F000455E88ADCCEAF9F3E3DAD4D8E7F5F9FC18
:10350000F9E1BC92CBE4E9929D9202173C2721217C
:1035100009102F4E235F221C6938A197CFB4D09594
:10352000DC87C1A0EBDAEEA463EEDDE6EFEDEDECB7
:10353000ECE886E4EECACEA9D1CC6FCDE6AB8BA089
:103540008D6D62332E50000A271E050C026A4C1046
:10355000524E6F2D1C7F410B03290201440C1C2E7F
:1035600031312E29453938524E60604A6871C6EAB9
:10357000ECD1DED5E2DFDFE3E5C2B7E4E3D3ABAC09
:10358000C3C9AC70CB60454E78B0BE8F4B4D6E79E1
:1035900056705D9BD4D8CCAA8793C1CED9C3B49EB4
:1035A000A9C6C7BEBAC2A3B3A29B9E8D746F798110
:1035B000756C866F59545C6F7158314D10103658C8
:1035C0004E22020A315720604F24112754654A22A7
:1035D0003C22122A3E3A32282C3F5D1B424E514A71
:1035E0004E5956566463756C748DB4B89E8F8A8F2D
:1035F000F6FDF1D3B2B8D8FEFDFBFCD1E6FFF6B084
:103600009CC5F7FDF6609E4C62697DAAA168608B3F
:103610007D5D73756297C9BD956D70A9E8DACBC001
:10362000A596ADBAAAA5A39288958D7977787A7672
:10363000633A29394B515043333445555C56433036
:10364000313A3F3B2F200F101D2F3935302E35409A
:10365000546869594943414856584F413E454D5673
:10366000636764646D747281898084A9C2AD979820
:10367000B1E9FEFEFFDDC3D5FCFEFEFEF9D7E5FD98
:10368000E5AAB1DFF1E09EA9705B666C84947D6071
:103690006B7669666C687AABBBA88D8197C0C9BF31
:1036A000B6A79598A7A59C99928B8C89776A6F721B
:1036B0006F634935384A595B55473E4758605C50FF
:1036C0003D30313C443F32221F273749514E44435D
:1036D0004C5A6B7269564A484C565E5B524F535B6C
:1036E000606B73726E7077787F8584859BB5B9A89F
:1036F000A1ACCBEEFFF8E1C7C3DBF8FDF4EEDED9F9
:10370000E7E1B59FAEC5C5A9808E9DABB9C7D3DD36
:10371000E7EFF5FAFEFFFFFEFBF7F2EBE4DBD3C9C0
:10372000BFB5ACA39B938B85807B787574737475E0
:10373000777A7D8185898D9195989B9D9FA0A09F8B
:103740009E9C9996928E8984807B76716D69666362
:1037500061605F5F606264676A6E72767A7E82859E
:10376000888A8B8C8B8A8784807A746C645C534AD9
:103770003F362C241B140D080401000001050A101B
:1037800018222C38465462718080BEEAF5E4C4A742
:103790009EAAC5E2F7FFFEF8F0E8DBC7AD978D9370
:1037A000A6BDCAC3A681645B6D8FB2C5BEA4826B81
:1037B000687A96B0BBB6A5918076706963606778C9
:1037C00090A4A99772492C2C4C7FB3D3D3B68D68A3
:1037D000565B6F87989F9C968F897F6E5A49444F9E
:1037E000698597947D5B413A4D7092A49B7E593CCC
:1037F0003542596C7268523824170F070100081DB2
:103800003A5561583B1B0A15418080ABC3C1AC9748
:1038100092A6CBEFFFF3D4B4A5AFCBE6EEDDB9961D
:10382000858FACC9D5C7A8897D8BACCCD9CDAD8DE2
:103830007F89A5BFC7B58F69555A738B927F5C3955
:103840002A365677867E644B45597FA6BAB49B814B
:103850007988A9C9D5C6A3806D748CA5AA96704A2B
:1038600038405A76807252322633537482765738F3
:103870002A3653707A694622111934505A4B2B0C50
:10388000011034596D68533E3C54808095A9BDCFDA
:10389000DFEBF5FCFFFFFCF6EEE3D6C9B9AB9C8F7E
:1038A0008379716A676566686C72787F878D939794
:1038B000999A98958E867C7063544636291C110916
:1038C000030000030A14203042566A7F95A9BDCF39
:1038D000DFEBF5FCFFFFFCF6EEE3D6C9B9AB9C8F3E
:1038E0008379716A676566686C72787F878D939754
:1038F000999A98958E867C7063544636291C1109D6
:10390000030000030A14203042566A8080B9E0EBBD
:10391000DFCBC0C7DAEBECD8B79B93A6CAEEFFF4B7
:10392000D3AD928B939D9983644B49638FBCD6D35F
:10393000BA9B84808991896E462519294B6E8077C0
:10394000593722213143483C271922477FB8DDE609
:10395000D8C3B7BCCEDEDDC8A6887F91B4D6E6DA80
:10396000B991766E767F7B64452C2943709CB6B402
:103970009B7C66626C746D522C0B011135596C6422
:103980004827131425383F3420141F468080A9CBC4
:10399000DBD8C7AD96898C9DB9D9F2FFFDEDD5BABC
:1039A000A69B9AA0A9B0B2AEA4978C8480807F7D9C
:1039B00079716A66687180919FA5A194806D61623A
:1039C0007089A6BFCDCAB59673574A4E627F9DB126
:1039D000B5A88C694A35323F59768F9D9E927F6B90
:1039E0005E5A606E7F8E9799958E868280807F7BEF
:1039F00073685B514D4F565F656459452A1202004A
:103A00000D2646627376695238272434568080BF6B
:103A1000EDFFF6DDC2B1ACAFB3B3AEA8A7ADB4B89D
:103A2000B3A490827F8A9BA8A7977F69616A7F95DC
:103A3000A09A8772666A7C92A2A59C8D83818993E5
:103A40009A9A958F8C8D8D836B4A2A1A23497FB65B
:103A5000DCE5D5B5947C727273706A65656C767EB0
:103A60007C72635A5D6D8395998D78655F6A7F95E9
:103A70009E96806858576475807D6F5B4C474B52AB
:103A80005857514C4C50534E3D22090112408079F9
:103A90007F848991959AA0A5ABAFB1B5BAC0C2C6D3
:103AA000CBCFD4D8DBDCDAD6CBB5A08D725039279A
:103AB00015080003101C293C556B7A8795A0A3A319
:103AC000A2A09E9B97959794959894908E887E73CC
:103AD0006961564D4847494C505B69747C878E94A8
:103AE00097938E8A847A726964615E595C606061C2
:103AF0006465686967696B6F72747980878B91946C
:103B00009A9B9995928D88807A7774717173757983
:103B1000ACCDDEF3FBDEBFAC8759433A2F2A3846E3
:103B20004C5C6A7377818683868C8A868381786F02
:103B300068625856595D64707C848E9596928D8625
:103B40007B736F6A696D73777D8688898A898481C2
:103B50007E7B77787B7C81898F929698948F898100
:103B600076716E6D6F7A848E9AA5A8A8A8A3999293
:103B70008A8178787774757B807E868F959CACB8C7
:103B8000BBC6CDC1AEA186573629100015344B7483
:103B9000ACBDD2DDE9F7FFFBF3ECE2CFBAA594842C
:103BA00071615955514C4D55595C60686D71777D07
:103BB000828991989EA5ADB2B3B3B2AFA89D91860C
:103BC0007C6E6058554F4C4D53585F66707A828AB0
:103BD000929AA0A5A9ADB1B2B2B1AEAAA39A9389A7
:103BE0007D726B635D5855555556585C6063676AC6
:103BF0006D707173737372706E6A67635E5955523C
:103C00004F4A4A4B48484C4F4F505860677787920D
:103C1000A6BD878F95969594959CA0A2A9ABA9A4C3
:103C2000A2A1A4ABAEB3BCBFBEBDBDC0C0C6CECF0B
:103C3000C6A685652D000A2223376B8E8F8F999E2D
:103C4000A2A9B5C2C0B19E7B4E363227223C5D6828
:103C50006E79848A919CACB9BFBCAC8F74634F39C8
:103C60003C4D54555B646463687482919895918867
:103C7000745C52504B4E53565C5F5D616C787F852F
:103C80008D8D877F7673737273757776716B6D73B5
:103C9000797F878F8E949DA2A9B2BBC3C7D5E2E27C
:103CA000E4EEEEEAE5F6E5CCDAD4BFB7B098908161
:103CB0007A68594D3F3E3B2121291E16252525298D
:103CC0003445464B5E6F7480949FA5B0C2C9C7D07F
:103CD000DCE0DBD6DEDCCBC8CFB5A6A5978B7A6C53
:103CE0005F5447392C2B220D2115000D1C15132074
:103CF000242A37464E535C6870757B847E89928A8D
:103D00008C8E8B9089898B7C88837C837A7B817B6A
:103D10008380818F909FA3A7B7C0BECDE1CFBBD9D1
:103D2000EAC6BBD0BE9EA7B1916F707A6340425085
:103D30002F132C330C001D20101A1D2333313B4B45
:103D4000505A656B707579818989838B908C8A8BC9
:103D50008A858889817E82817D7E7E7C7C888A833B
:103D60008A929A9EA6ACB1BEC2CADADADDE7E3EA6D
:103D7000E5D5E7F2CDB8CFCFA497A68E6C6875666F
:103D80003F33494021273B20123843282E495152C6
:103D9000626E727C90747A797B7F7D7772707273B9
:103DA00074787C818183878A8D8C8A9091949A9E85
:103DB000A5AEB7B5B6C6C2C6CFC9CDC5BBBDBEBD23
:103DC000BABEC0BDA5796764350025676454739891
:103DD0009B9DB1C1BDA17F63565C51343551544C9C
:103DE0006A94A2A2A9AAA39E9078686154444355FC
:103DF00061637189959CA5A3998E7E6A5A4C37366A
:103E000042444C606B7883868A897C716962554F25
:103E100050565D646A74CADD9B82CBFFDDBACFEB7E
:103E2000DFC5C9DED3A08AADC09160667C796452DB
:103E30004E575C575A66645B67848F837F91ACB63C
:103E4000A99DA6B2B0A7A59C8E898E8C7C675F6762
:103E50006F635250596A7C77626F9EAE9E9CADB87C
:103E6000C0C8BFB3B4BBB7AA9A89878A7E615255CE
:103E7000564B3C31313B3B3333343B4B4F42435742
:103E8000635E58565B676758525D65554A545B5A86
:103E900060768C816379CA94A1B3D3D7CFECFFEA63
:103EA000E3EEEAC9B9CFA86B828D4E36422E2927A0
:103EB000181E1F273542504836717D2E4A9E5C4D94
:103EC000856D70777B8975719192738097888290E8
:103ED00087878E838A877489877380787681757CDB
:103EE00085737B95806F8B9C838496919F8A9FC9F5
:103EF0007691E5A282C0CCB3B9CAD3DCD9DAD2BEFE
:103F0000BEA9A3A3634E73531A242E0E02141B0CD6
:103F10001238433C59778194C0BE96C0FBD1BEEAAB
:103F2000FFEBEFFAF2EFF1EBECE8C8BED7C9A397CD
:103F3000A7927382865B476361413E4236343C3CC4
:103F40003733313F534C3B4F645F6179776B7F9CD4
:103F5000988E98A3A6B2BBBAB6B1C4D5BFB7D6D017
:103F6000BDCECEB5B5C0B7A49C9E998A827D6A5D50
:103F70005F5E493B3F3D3233332823312C32291DCC
:103F8000372B332D3C2C3A473F354A41484E43515D
:103F9000656F625B81A48684C0D3EECA8498F3FF08
:103FA000A15B637C776B6F6D62668BB1C5C2A994B0
:103FB000A6CBC0865A5B6B675D5F605C6988A2A90F
:103FC0009F91909FA896756062666361615C5C6D6D
:103FD000869697918F96A1A2937E727170727D7A68
:103FE0006D819D9C9FA99F9DA095887D6E6F767227
:103FF0006B70787F868786837B747472665C5A6286
:104000006869646871746D6C6E6864615E5F5C544D
:10401000575D5C5957575F78A7D383B0D4EBF3ED66
:10402000DDC9B5A398918E89827A726D6B6E7885A1
:10403000939FA7A9A7A0968C827C767372737474E1
:104040007372706C6763646B778799A7ADA7947977
:10405000593A2214141F3246596B7F93A8BCD0E200
:10406000EEEEE0C7A8896D5B545A697A8A969D9EE8
:104070009B96918F8E8D8D8E8F8E8B867F766B61CA
:104080005B595B626E7D8A9397958F877F7874709A
:104090006A5E4D3824150F162F558384ACCCE1EAA7
:1040A000E6D7C4AF9E918A8680776B5B4B3D3538EF
:1040B000465E7A96AEBCBEB5A48E77645B5C636CDC
:1040C000767D807F7C7B7F899AADC0CDD1CAB59645
:1040D000704C2E1C171E2E42566775818D9AABC0F0
:1040E000D4E4EBE5D3B6916C4D3830344255687862
:1040F0008286858281858C959FA6A69D8B745D4C5A
:104100004346536B88A4BBC9CCC5B7A6978A827CAB
:10411000777064523D2A1C171F375B848BAFB1A8A0
:10412000B1B48E595EA5E0D19D95BDD8C39D816780
:104130004E5481ACB0A097844F26428BAB8F7C9AB3
:10414000B7A177799CA58467749AB9BC9F735B67A4
:104150007D83879CA6814C4D7D8854305C9FA886CA
:1041600086ACB4865C6179818598A5906343486983
:104170008E987D5E668789624B6685735775BEDC57
:10418000B27D696252547FAEB49A80653F29436D17
:104190006530205DA4A7734E505854618B838D9277
:1041A000959A9D9C999EAAB6B8B5B7C0C7C8C5C315
:1041B000C2C1C4CCD3D5D5D5D4CFCACED7DBD8D500
:1041C000D8DBD7D1CFD2D1CBC6C5C7C9C8C1B8B14A
:1041D000AFAFACA9A7A59C928F928F837A7C817D8B
:1041E0007470716F665D5A59555252504940393852
:1041F0003B3D3B36303032302A26292C2A262A33C2
:1042000037332D2C2C2C2E353D403F3E3C3A3A4145
:104210004A4D494B5764686564686C707783839036
:104220009BA5AEB7BFC7CED4D9DEE2E5E7EAECEC9A
:10423000EBEBEBECECECECEAE7E5E3E0DDD9D5D237
:10424000CECAC7C4C1BEBCBBB9B7B5B5B5B4B2B1AF
:10425000AFADAAA7A5A39F9A9794918D8884817EDC
:104260007974706D6B67625E5C5A575452514F4D52
:104270004C4D4C4A48474543403D3A37332F2C2854
:1042800024211E1D1A1715151516161616151617A4
:104290001A1D2023282E333A424B535C67758385C1
:1042A000B1D0DFDED6CECBCFD5DBDEDEDCDBDCDFB4
:1042B000E3E8EBE8DFD5CDC7C2BCB4A99C8E85820C
:1042C00083868785817D78736F6A68696B6C6B6B99
:1042D0006C70767D848787837E7B797978787A7F26
:1042E00085898A888887837E7A7A7E848C9295965F
:1042F000969697989997938E8985807C7B7B7E7F15
:104300007C7366584D46403A342C221A17191E23E6
:104310002627252323262D3336332B22223256857A
:1043200084BDE2EFEADBC9BBB7BCC0BFB6ACA29BA1
:10433000989A9FA2A09A96969AA0A4A7A7A3998CB0
:104340007F767273777D807E7A74706C6B6D70741B
:104350007779797874727379818685807A757274C9
:104360007C878F8E87807C7C81888E908D898888E1
:104370008A8D91959695918D888382858A8E8F8B73
:104380008275685E5A5A5D62676B6B67625F6268CE
:104390006A665F564B4241464A4639271712214A00
:1043A00084807A7A7C80817E7B7C7E7C777371725C
:1043B000717274797A7F858A8A8A8C92928B8485CD
:1043C00087837872747D7E7B79808788827F7B7219
:1043D00066616162677B97A7A6B0CDE3CAA0A38B95
:1043E00068615523223D58595B6F8B9A9D9D9E961F
:1043F0008B84817B767A8386817F868F8D817879A5
:104400007D79706B70757575787F8385888D8E8DDD
:104410008E8E8984818384827E7E828585807D7F65
:1044200081808588857D78757069656B747E8898D4
:10443000A5A19594A3AF9779644A51656C625C64B9
:104440007688979D9A908A89867A72737D817E7F1D
:10445000898E897D787672686365718197A4A1924F
:1044600094A8BCA289704B5C6B6D5C586476808AA2
:10447000949A96908987817B7879797A7F868885E6
:10448000818083827B726D6E6F7070767C7F80839B
:10449000898F8F9092928E837D7C7F7E79777A81CF
:1044A000848485849CB2C6D6E2E8E9E7E4E0DBD602
:1044B000D1CDCAC8C5C3BFBBB6B1ACA7A29D9A97A0
:1044C0009693908E8D8C8C8B8A8988888A8B8C8B26
:1044D0008B8B8B8A89898A8A888787888786858556
:1044E00085828181817F7D7C7C7B7A797A7A7977FC
:1044F000777878777676777675767779797977764B
:1045000075757573716E6C6A67645F5A55504B466A
:10451000423F3C393734302B26211D1A181A202AE5
:104520003B50698488CAF4FFF1DACDD1E2EDE3C3F0
:10453000946340323A4E616B6B635B5A667C929B2C
:10454000958472686973818E96989694969CA3A8B8
:10455000A9A2968678716E6E6E6F70707074797E97
:1045600082878B8A827976797F84888D91919192E6
:1045700093939390897B6C5F59595F666B6D6B6900
:104580006B73808F98998F7D6C666F859BA7A79EB4
:104590009696A0B4C7CFC19E6D3E1E151F2F35281D
:1045A00010021142880706060505909AA3B9C6BFF6
:1045B000BDCCCFAD6C445488C1DED8C2A5878186FE
:1045C0008A8F9187776E8ECEF4DE9C6F6A6D6D7ADE
:1045D0008891949694918C96A18B531409418CBA2E
:1045E000BCA48E7057514F43323447576792CDDA8F
:1045F000A14A1B2434435B788B82777D796962639F
:10460000551B061161A8C4B59D8368626C76766CF3
:10461000667288A8DDFFE6A0573D51677688ABC17A
:10462000C1C3C3B6A807625F637DAFE4FFF9E7D2F9
:10463000B8A3928981829ABCDAEBF0E8CEA57F6AB2
:10464000686B7084A5C7D6D4C6AF9984756D69743C
:1046500098C8E7E8D2B1917763524B4B5A738EA159
:10466000A69A86684126202C3C526D8BA2A7916B9E
:10467000432C282C2A293D6A98A692683B1F1312C6
:1046800011172B4C728E958C7B6344251A284B6C2A
:1046900089A8BDC4B5946F544C51585C6886B4DC8D
:1046A000DBB98D6A5A56627A8CA4C3D8DED5C1A80C
:1046B0008B7B86A0BACDD6DFECF3EACDAB8F8690AC
:1046C000A3B2BFD0E1EBE4CBAC938B8B96A7B3BD89
:1046D000CAD8DFD5C09F7D6966758D9DA1A3A9AAA3
:1046E0009F856042353E4E5E6D7B8B958F77573749
:1046F000241F2E455B69727B7D73593817010118A1
:10470000394F575A5A5D5741250B000A29506A758F
:104710007B858B7F623E2C2D405B77889199A4A589
:1047200090715242455C7E7AB0C0C0B6AFA4927D13
:10473000717A98BFDEF0F6F0E1CEBAA4948E94A61A
:10474000BFD9E8EDE5D1BBAB998C8B96AFCDE7F344
:10475000F2E6D2BFAD948279839DB7C9CABCA89254
:104760007C644F4243557088979D98846E543929D4
:10477000252F46637C8B887C644D3824110A122BCC
:104780004A657067543B25170900051936566D793F
:10479000776D5C4734272430486782989C94826DFB
:1047A000594B413E486187ADB0C6B096827E828942
:1047B0009CB4CBE3F5FFFCECD4BDAB9B97A7C4DE68
:1047C000ECEFECDECBB6A89C979AA4BCD5E8F5F349
:1047D000E3C8AC9F9C9F9FA4B1C0C5C4BCAD977FEC
:1047E000695851586B85999B8F7F6D5A4A3F39386C
:1047F0003D4D5F707A7A6B4E290D030B19283845B1
:1048000050524A3D2A1506000612284562706D6115
:104810004D3D343032333C4A5F788587837359404D
:10482000363F54698196A8AFAFC6828B95A2B0BEC1
:10483000CAD3D4D4D2D0CDCED1D7DDE5EBEEEEE9DC
:10484000E4DFDAD3D1D3D9DEE6E9EDECE5E1DCD67D
:10485000D0CDCFD0D2D5D5D4CCC1B5AAA29995957B
:1048600096959493908881766F68605E5F636869BF
:1048700068625750453D332D2A292A2C2B29241BA9
:104880001209040001050C141C22252624201F1FD8
:1048900021262D3641494D4E4D4844423F41454D1C
:1048A000565F6A70737374747579821039343B354E
:1048B000363738393A3E453B3D3C3D3E3E103B3471
:1048C0003B4734463438470E45474647474747013C
:1048D000464700000000000000000000000000004B
:1048E00000080E0F0F0F101111121200000000002F
:1048F0000000000822232424252627282800000061
:104900000000000000014539000000000000000028
:1049100000000000000000084A4B4C4D4E4F4F0372
:1049200003000000000000000008292A2B2B2C2C7B
:104930002C2C2C00000000000000000849494548CC
:104940004848484848000000000000000010032DBF
:104950002D482E2E2E2F30303132322E333333105D
:104960000D00010203040405060708090A0B0B0CDD
:104970000C10032213141515424216161717181897
:10498000191A1A084244424841414242420000007A
:10499000000000000004434344453F0000000000C5
:1049A00000000000000000081B1C1D1E1F1F20210E
:1049B000210000000000000000043F3F3F403F0096
:1049C000000000000000000000000064756D6D79BB
:1049D00000000000000000000020000000000000B7
:1049E000007F00000000003F000028143C00000091
:1049F000000028143C000000000028143C000000C7
:104A00000000100302000003000302000003000086
:104A1000000003010004060006003F0B00000C012B
:104A2000000112200E120010040003040000000018
:104A30000000000000000000000000000000000076
:104A4000000050255125DE2EFB36DF2E11241FBE1F
:104A5000CFEFD8E0DEBFCDBF11E0A0E0B1E0EEE0E7
:104A6000FFE602C005900D92AC34B107D9F715E00E
:104A7000ACE4B1E001C01D92AE31B107E1F71AE438
:104A8000CAE4DAE404C02297FE010E947637C234F9
:104A9000D107C9F70E9449350C94FC360C940000EC
:104AA00008950895FB0198E202C080E88193915037
:104AB000E0F70895A0E0B0E0E0E6F5E20C943D37C1
:104AC000EC017B014985842F829570EFA72EA822E7
:104AD0003A2C30948F70E82FF0E0EE0FFF1FE85E65
:104AE000FE4F608071808F5F863008F085E0E82F90
:104AF000F0E0EE0FFF1FE85EFE4F808091808F8117
:104B000090E080589F4F582E4424805890409595AF
:104B1000879590ECD92ED81A4533B0F04453440F02
:104B2000440F56E66D2D549F90014095649F40952B
:104B3000200D311D1124549FC0014095349F409594
:104B4000800D911D1124D92E2D818B819C81C22E27
:104B50008C01CC0C001F111FCD821C830B8368813C
:104B600079812A8088E2B82E80E02C2D220E601FE9
:104B7000711F811DAD8DBE8DFD01819311961C921B
:104B80003196FE8FED8FEB8DFC8D8081882319F49B
:104B90008181882319F0222460E070E03296FC8F36
:104BA000EB8FF301E70FF11D862F95911590819DF5
:104BB000F0018095899FE00DF11D11249F2FF401D4
:104BC000E70FF11D862FA5911590819DF00180952D
:104BD0008A9FE00DF11D1124AF2F392F432D5A2F3D
:104BE0002A2D529FF001349FE00DF11D11243F2F1B
:104BF0004D2D349F812D11249B01240D351DF30172
:104C0000E30FF11D922F45911590919DF001909524
:104C1000949FE00DF11D11244F2FF401E30FF11DBE
:104C2000922FA5911590919DF00190959A9FE00D7E
:104C3000F11D1124AF2F532D2A2F3A2D239FF00160
:104C4000459FE00DF11D11244F2F5D2D459F912DA6
:104C500011248058891BF7018083818322E030E092
:104C6000E20EF31E3EEFB30E09F07ECF7983688328
:104C70002A82CDB7DEB7E2E10C945937A0E0B0E06C
:104C8000E4E4F6E20C943D37DC017B0119962C91AB
:104C90001997822F829520EFC22EC8224C2C409467
:104CA00016963C911697343019F492E082E013C0C6
:104CB000282F2F70313011F48AE005C0323011F006
:104CC00081E101C083E0982F920FE22FEF5FE73080
:104CD00008F0E6E08E0FE92FF0E0EE0FFF1FEE5F29
:104CE000FE4F60807180E82FF0E0EE0FFF1FEE5F57
:104CF000FE4F808091801396AD90BC9014971596CE
:104D00005C9015972C9111964C91119712966C917D
:104D100012975B96EC915B975C96FC915C975D9625
:104D20001C915D975E96DC905E97333009F456C017
:104D3000822F942FAC01062FCF011C01812F9D2DB6
:104D4000EC0118E242C0F1018081882319F000E0F3
:104D500040E050E080E0652D9501060F421F531F93
:104D6000811D8883F301E50FF11D842F3591159086
:104D7000819DF0018095839FE00DF11D11243F2F4F
:104D8000F401E50FF11D842F25911590819DF0010F
:104D90008095829FE00DF11D11242F2F742D6C2D15
:104DA000269FC001379F800D911D1124892F1796D2
:104DB0002C911797921710F42695820F0894211CB6
:104DC000311C2196F70181937F01115008F0BBCF70
:104DD00011965C934E9312960C9352C0822F942F8F
:104DE000AC01762FCF01EC01812F9D2D1C0168E2D3
:104DF0003FC08881882319F070E040E050E02196A0
:104E000080E0252D8501720F401F511F811DF1018A
:104E100081931F01F301E50FF11D842F359115904A
:104E2000819DF0018095839FE00DF11D11243F2F9E
:104E3000F401E50FF11D842F25911590819DF0015E
:104E40008095829FE00DF11D11242F2F042D1C2D24
:104E5000219FC001309F800D911D112417962C9128
:104E60001797892F921708F4822FF70181937F01FA
:104E7000615008F0BECF11965C934E9312967C93CE
:104E8000CDB7DEB7E2E10C945937EF92FF920F9362
:104E90001F93CF93DF93DC01EB011396ED90FC9011
:104EA000149715960C9115974D915C911197129648
:104EB0007C91129718E238C05B96ED91FC915C975B
:104EC00081915C96FC93EE935B97882319F070E0D8
:104ED00040E050E080E09701700F421F531F811D9A
:104EE0005D96ED91FC915E9781935E96FC93EE93B7
:104EF0005D97352F503210F06FEF04C0652F660FAD
:104F0000660F660F17962C911797220F629FC001AC
:104F10002095329F2095800D911D1124E92FF0E0FE
:104F2000E85FF24FE491E993115008F0C5CF119674
:104F30005C934E9312967C93CDB7DEB7E6E00C946B
:104F40006537A0E0B0E0E7EAF7E20C944237EC0105
:104F5000162FA72ECB80DC806F8170E080E090E080
:104F6000960140E050E00E941E37F2E0969587954A
:104F700077956795FA95D1F74601860E971EBE8004
:104F80002AEFB20EEA84FB847D80488159810A8130
:104F90008B2D8370682F70E0660F771F6C50754FF4
:104FA000212F3A2DC901DC0138E2A32E31C0EB8D4F
:104FB000FC8D8191FC8FEB8F882319F000E040E09D
:104FC00050E080E0172D9601010F421F531F811DF5
:104FD000ED8DFE8D8193FE8FED8F882319F0FB01FF
:104FE000E590F490E80CF91CEF2DF0E0E85FF24F4B
:104FF0002491352F3095B1FE06C020582303812D12
:105000001124805803C0239F812D11248C93119665
:10501000AA942FEFA21609F0CACF598348830A83B6
:10502000FB86EA86CDB7DEB7EDE00C945E37A0E0F4
:10503000B0E0EDE1F8E20C944237EC01162FA72E18
:10504000CB80DC806F8170E080E090E0960140E0F2
:1050500050E00E941E37A2E0969587957795679558
:10506000AA95D1F74601860E971E0E810650EA8456
:10507000FB847D8048815981BA80802F8370682F9E
:1050800070E0660F771F6C50754F212F3A2DC901C4
:10509000DC01E8E2AE2E48C0EB8DFC8D8191FC8FE7
:1050A000EB8F882319F0BB2440E050E080E0172DFF
:1050B0009601B10E421F531F811DED8DFE8D819310
:1050C000FE8FED8F882319F0FB01E590F490E80C3A
:1050D000F91CEF2DF0E0E85FF24F249130E440300E
:1050E000530710F43FEF0FC057FF02C030E00BC072
:1050F000CA01805090448095909536E096958795AA
:105100003A95E1F7382F053011F42695205801FF24
:1051100006C020582303812D1124805803C0239FEB
:10512000812D11248C931196AA948FEFA81609F063
:10513000B3CF59834883BA82FB86EA86CDB7DEB700
:10514000EDE00C945E37A0E0B0E0E9EAF8E20C9400
:105150004237EC01162FA72ECB80DC806F8170E0E8
:1051600080E090E0960140E050E00E941E37F2E0BF
:105170009695879577956795FA95D1F74601860EAE
:10518000971EBE802AEFB20EEA84FB847D804881A0
:1051900059810A818B2D8370682F70E0660F771F0D
:1051A0006C50754F212F3A2DC901DC0138E2A32E36
:1051B0003BC0EB8DFC8D8191FC8FEB8F882319F028
:1051C00000E040E050E080E0172D9601010F421F03
:1051D000531F811DED8DFE8D8193FE8FED8F8823F2
:1051E00019F0FB01E590F490E80CF91CEF2DF0E0CC
:1051F000E85FF24F3491CA01880F892F881F990BFD
:10520000919557FF03C0282F209501C0282FB1FE8C
:1052100006C030583203812D1124805803C0329FBC
:10522000812D11248C931196AA942FEFA21609F0C8
:10523000C0CF598348830A83FB86EA86CDB7DEB7A1
:10524000EDE00C945E37A0E0B0E0E9E2F9E20C9406
:105250004337EC014B018885883110F480E005C0AC
:10526000813310F088E101C08851E82FF0E0EE0FA3
:10527000FF1FEE53F74F6591749180E090E0AB8093
:10528000BC80950140E050E00E941E37672F782FC8
:10529000892F992787FD9A956B018F81880F8F83BE
:1052A000EA84FB840D81A881B9815A81B70118E293
:1052B0003EC0EB8DFC8D8191FC8FEB8F882319F024
:1052C00050E0A0E0B0E080E09501500FA21FB31FB6
:1052D000811DED8DFE8D8193FE8FED8F6C0D7D1DFB
:1052E00028E03DE0F901E70FF11D962F859115901B
:1052F000919DF0019095989FE00DF11D11248F2F45
:105300004F81849FC00111248A0F9B1FF901E90F6F
:10531000F11D882F25911590819DF0018095829F28
:10532000E00DF11D11242F2FF40121934F01115095
:1053300008F0BFCFB983A8835A8388E290E09C012C
:10534000C29EC001C39E900DD29E900D11248E0D61
:105350009F1D9B878A87CDB7DEB7ECE00C945F3743
:105360000F931F93CF93DF93DC01EB0113960D9105
:105370001C91149715967C9115974D915C911197FE
:1053800012963C91129768E228C05B96ED91FC91D1
:105390005C9781915C96FC93EE935B97882319F060
:1053A00030E040E050E080E0370F401F511F811D8A
:1053B0005D96ED91FC915E9781935E96FC93EE93E2
:1053C0005D9717968C911797982F990F9527282FEF
:1053D000209592238695890F89936150B0F6119696
:1053E0005C934E9312963C93DF91CF911F910F9156
:1053F0000895A0E0B0E0EFEFF9E20C944337DC0150
:105400006B015A968C915A978F5F83705A968C9342
:105410005A97882309F052C017962C911797422F5C
:1054200042954F7037E0439FA0011124022F0F7067
:10543000142FBD01542FED01E52FF0E0E75EF14E92
:105440003491595FE52FF0E0E75EF14E2491209F03
:10545000C0010095005F309F00510095800D911DA7
:10546000112423E0880F991F2A95E1F79B878A87EB
:1054700056502296812F8D5F5817F1F6595FE52F10
:10548000F0E0E75EF14E449120E030E0409F900173
:105490000095005F409F00510095200D311D1124A3
:1054A0003F70207F322B3295432FFB01468B5650A5
:1054B0006F5F7F4F812F895F581701F7209101019E
:1054C00059964C9159972402900111241396CD912D
:1054D000DC911497ED90FC90119712968C90129796
:1054E000AA24BB24AC1ABD0AB7016C1B7D0B620F4A
:1054F000731F870158E278C01A968D919C911B9773
:1055000050962D913C915197820F931F51969C93E9
:105510008E935097907F56968C915697982BE92FA3
:10552000F0E0E85FF44F94901C968D919C911D974C
:1055300052962D913C915397820F931F53969C93B3
:105540008E935297E92FE07F57968C915797E82BCF
:10555000F0E0E85FF44F44911E968D919C911F9767
:1055600054962D913C915597820F931F55969C937D
:105570008E935497E92FE07F58968C915897E82B9B
:10558000F0E0E85FF34FE491490D4E0F4103212D08
:1055900011246C177D0760F451961C921E9250974F
:1055A00053961C921E92529755961C921E92549797
:1055B000332727FD3095220F331F220F331F20582A
:1055C0003F4F222F332B12F420E002C009F02FEFBF
:1055D000F6012083218322E030E0C20ED31E525018
:1055E0000A0D1B1D6A0D7B1D552309F085CF8CEE1E
:1055F0009FEFFC01CE9FC001CF9F900DDE9F900DCD
:1056000011248E0D9F1D11969C938E9312968C9251
:10561000CDB7DEB7ECE00C945F37FF920F931F938A
:10562000CF93DF93DC01EB0113960D911C9114973E
:105630001596FC9015974D915C91119712966C916F
:10564000129778E22CC05B96ED91FC915C9781916A
:105650005C96FC93EE935B97882319F060E040E042
:1056600050E080E02F2D620F401F511F811D5D967D
:10567000ED91FC915E9781935E96FC93EE935D971E
:10568000252F332717968C91179790E081589F4FBD
:105690002817390710F08FEF01C080E0899371500F
:1056A00090F611965C934E9312966C93CDB7DEB73D
:1056B000E5E00C946637A0E0B0E0E1E6FBE20C9494
:1056C0004337EC015B010B811C816F8170E080E04E
:1056D00090E0980140E050E00E941E374DE0969522
:1056E0008795779567954A95D1F76F5F7F4F6B01E7
:1056F000C00ED11E7601E60EF71E4701860E971EDC
:10570000BD81688179815A81A8E239C0EB8DFC8D19
:105710008191FC8FEB8F882319F050E060E070E0FE
:1057200080E02B2F520F601F711F811DED8DFE8DAC
:105730008193FE8FED8F8A859B858C0D9D1D9B87A8
:105740008A878C859D858E0D9F1D9D878C872E85D4
:105750003F85280D391D3F872E87472F4695469553
:105760009D85969596958B8586958695980F832F22
:1057700086958695980F940FF50191935F01A1503E
:1057800008F0C4CF798368835A83CDB7DEB7ECE0E5
:105790000C945F37A0E0B0E0E0EDFBE20C944837FA
:1057A000EC01AB85BC85109711F4A1E0B0E01F813E
:1057B000110F110F143008F414E0E880F980DA803A
:1057C00008E22CC0EB8DFC8D8191FC8FEB8F882340
:1057D00011F0AD85BE85CD0196958795A170B0700D
:1057E000B095A195BF4FA070B47BA827B9273B2FD8
:1057F0002A85319FA0011095219F1095400D511DC4
:1058000011245A878F81803428F0351B3058FB01D2
:10581000308302C0FB0150836F5F7F4F015090F6D1
:10582000F982E882DA82BC87AB87CDB7DEB7E7E0E2
:105830000C946437A0E0B0E0E0E2FCE20C943F3767
:10584000DC013B0116962C911697255132E1239FDE
:10585000B00111246555774BFB01449117962C91AB
:105860001797220F249F90011124432F4F5FCB01E4
:10587000840F911DFC0154914F5F640F711DFB015A
:105880004491522E21E8529F700111248BE590E241
:10589000E80EF91E429F80011124080F191F13966C
:1058A0008D909C90149715964C9015976D917C91C6
:1058B00011971296DC9012975B96CD91DC915C97D4
:1058C0005D96AD90BC905E97F8E2CF2E3CC088818B
:1058D000882319F0DD2460E070E0219680E0442DFB
:1058E0009401D40E621F731F811DF50181935F0126
:1058F0009B0136952795F701E30FF11D822F5591F6
:105900001590819DF0018095859FE00DF11D11247A
:105910005F2FF801E30FF11D822F25911590819DD6
:10592000F0018095829FE00DF11D11242F2F452D50
:105930004095352D239FC001549F800D911D11244A
:10594000F30191933F01CA94FFEFCF1609F0BFCF47
:1059500011967C936E931296DC92CDB7DEB7E0E1A0
:105960000C945B37AF92BF92CF92DF92FF920F936E
:105970001F93CF93DF93DC01EB0117963C911797B0
:1059800021E8329F500111240BE510E2A00EB11E58
:105990001396CD90DC9014971596FC9015972D9149
:1059A0003C91119712966C91129778E230C05B96F9
:1059B000ED91FC915C9781915C96FC93EE935B97E3
:1059C000882319F060E020E030E080E00F2DA60190
:1059D000600F241F351F811D5D96ED91FC915E9730
:1059E00081935E96FC93EE935D97C901969587959A
:1059F000F501E90FF11D982F85911590919DF0010A
:105A00009095989FE00DF11D11248F2F899371506F
:105A100008F0CDCF11963C932E9312966C93DF91A4
:105A2000CF911F910F91FF90DF90CF90BF90AF90DB
:105A30000895CF93DF93EC012A893B898C899D8956
:105A4000820F931F9D8B8C8B8217930740F548899B
:105A500039892FEF329FC0012095429F2095800DFC
:105A6000911D11249F8B8E8B9F859F5F9F87943004
:105A700011F41F8A1E8A8F89888BA92FB0E0FE013E
:105A8000EA0FFB1F8285898B9F871D8A1C8AAA0FBC
:105A9000BB1FAC0FBD1F8D919C919B8B8A8B8A89FC
:105AA0009B89892BF1F08C899D892AE53FE1F901D9
:105AB000E90FF11D882F25911590819DF0018095AA
:105AC000829FE00DF11D11242F2F58894989429F93
:105AD000C0012095529F2095800D911D11249F8B10
