:100000000C9453160C947B160C947B160C947B1654
:100010000C947B160C947B160C947B160C947B161C
:100020000C947B160C947B160C947B160C94141871
:100030000C947B160C947B160C947B160C94181D58
:100040000C947B160C947B160C947B160C947B16EC
:100050000C947B160C947B160C947B160C947B16DC
:100060000C947B160C947B160C947B160C947B16CC
:100070000C947B160C947B160C947B16EF19131AB8
:10008000171C371A5B1A701A171C171C3A4740477F
:100090004E474E473A4740474E474E479874A574DF
:1000A0000B7511759674967496749674967496740E
:1000B000A375A875AA75B775CF7501007F150200E5
:1000C0007F2A03007F0004007F0005007F000600F8
:1000D0007F00780000040001000010000101000111
:1000E0001000001600002A00011600012A0000007E
:1000F0000000000102030405060708090A0B0C0DA5
:100100000E0F1011121314151617191A1B1C1F1E8F
:10011000FF1D191A1B1C1F1EFF1D191A1B1C1F1E59
:10012000FF1D2120232425232425232425232425C2
:100130002324252324252324252324252324252380
:100140002425232425232425232425232425272867
:1001500029272829272829272829FFFFFFFFFFFF14
:10016000FFFF2A2B2C2D2E2F3031323334353637EA
:100170003839FEFEFEFEFEFEFEFEFEFEFEFEFEFE2A
:10018000FEFEFEFEFEFEFEFEFEFEFEFEFEFEFEFE8F
:10019000FEFEFEFEFEFEFEFEFEFEFEFEFEFEFEFE7F
:1001A000FEFEFEFEFEFEFEFEFEFEFEFEFEFEFEFE6F
:1001B000FEFEFFFFFFFFFFFFFFFFFFFFFFFFFFFF51
:1001C000FFFFFFFFFFFFFFFFFFFFFFFFFFFFFFFF3F
:1001D000FFFFFFFFFFFFFFFFFFFFFFFFFFFFFFFF2F
:1001E000FFFF000000000000000000000000000011
:1001F0000000FFFFFF16FF30FF2AFF17FFFF0E0F63
:10020000020300010405060708090A0B0C0D12136E
:100210001415FFFFFFFFFFFFFFFFFFFFFFFF1D1E86
:100220001F2021FFFFFF1D1E1FFFFFFFFFFF1D1EE1
:100230001FFFFFFFFFFF2FFF1B111C19101AFFFFED
:100240001BFF1C19FF1AFFFF1BFF1C19FF1AFFFFE2
:100250002C2DFFFFFFFFFFFF313233343539FFFF15
:10026000FFFFFFFFFFFFFFFFFFFFFFFFFFFFFFFF9E
:10027000FFFF00000500250100FF10000000003F07
:1002800001000100007F0100FF11010001003F019A
:10029000000203E8180100FF0E020002003F010007
:1002A0000303C0400100FF0F030003003F010004EF
:1002B0000500250100FF12000000004001000500BC
:1002C000007F0100FF13010001004001000603E868
:1002D000180100FF14020002004001000703C040A3
:1002E0000100FF15030003004001000801003F0169
:1002F00000FF16B9000400410100090600050100D5
:10030000FF17BA0006004101000A01003F0100FF8B
:1003100018410008004101000B07000A0100FF1905
:10032000000000004101000C01003F0100FF1A0520
:100330000005004101000D01003F0100FF1B5C00B2
:100340005C004101000E01003F0100FF0CBD00BD3B
:10035000004101000F01001F0100FF0DBE00EE0073
:100360004101001000007F0100FF4AEF00EF004351
:1003700001001101003F0100FF470900090043018E
:1003800000120800020100FF1C0A000A00430100DD
:100390001300007F0100FF1DEF00EF004401001477
:1003A00001003F0100FF1E0900090044010015087B
:1003B00000020100FF1F0A000A00440100160100AC
:1003C0003F0100FF030B000B004301001701003F3A
:1003D0000100FF090C000C004301040002000201AF
:1003E00000FFFF130013000000001800007F030847
:1003F0000049C1000D004501001900007F030800FD
:100400004B0E000E004501001A00007F0308004655
:100410000F000F004501001B00007F03080048107B
:100420000010004501001F0900020308002C110004
:1004300011004201001D0A008E0308002D12001257
:10044000004201001C0B00130308002E00000000F6
:100450004201003100007F0100FF2F120012001442
:100460000000300B00030100FF300000000014000A
:10047000040102000D0100FFFF1A00190000000036
:10048000320C00180E0301FF420015001900003362
:100490000D00120E0301FF160016001900003403B0
:1004A000C13F0E0301FF41000800190004020200D1
:1004B000030100FFFF1D001C000000005C0C001E7B
:1004C000040302FF170017001C00005D0C001E044F
:1004D0000302FF180018001C00005E0E000A04034F
:1004E00002FF070007001C00017000007F0100FFF1
:1004F000071E001E002800017103FE020100FFFF1D
:1005000046001F002800017203817F0100FF5E0387
:10051000000300280001730100280100FF5F440070
:100520002000280001740F001F0100FFFF24002499
:1005300000280001750400010100FF442100210092
:100540002800017601003F0100FF0522002200285B
:100550000001771000020100FF664500230028001B
:1005600001781100050100FF6725002500FD00014D
:10057000790301040100FF6802000200FD00017A16
:100580000200150100FF6926002600FD00017B1511
:10059000000E0100FF6A2E002E00FD00017C01010B
:1005A000200100FFFF32002F002501017D01012005
:1005B0000100FFFF330030002501017E0101200111
:1005C00000FFFF340031002501017F12000401000B
:1005D000FF6B0A000A00280004030200050100FF67
:1005E000FF2800280000000200190010060403FF85
:1005F000270027002800020113007F060403FF2CB8
:10060000002C002800020213007F060403FF2D00C7
:100610002D00280002181427F00100FFFF290029EF
:1006200000480102191600050100FFFF35003500E2
:100630004801021A00007F0100FFFF410008004846
:1006400001021B0100080100FFFF2A002B004801E6
:10065000030017000F0100FFFF3D003D00360003BF
:10066000011800040100FFFF3E003E0036000302B7
:100670000400010100FFFF380038004A01030304B1
:1006800000010100FFFF370037004A0103040400A6
:10069000010100FFFF390039004A01030504000190
:1006A0000100FFFF3A003B004A010306040001017C
:1006B00000FFFF3C003C004A010000000000000079
:1006C000004700490083008900F600F90015016F1A
:1006D000009400B300FF005501FC000F010A010067
:1006E00000000015013901290124010000204343C5
:1006F00023204444232045204646232047472320E7
:100700004141232042002D303132333435363738E1
:100710003900AB028E03000455051C070008AB0A24
:10072000001055150020AB2A0040555500800000F0
:1007300060484030242018100C0806040302017899
:10074000000000000000000001000A10101001FF6E
:10075000FF8080CCCC20200020406080A0C0FF0023
:1007600010204080FF80402020202000008040BCDE
:10077000643C64B0643064BC643C64B0643064BCA9
:10078000643C64B064B0E4BC643C64B06430640055
:10079000000000010000000220F40C20001F0000F7
:1007A00000000060000000000018000028143C0059
:1007B00027000000280028002F00000028642800DF
:1007C0003F00000048000000000100030200030396
:1007D00000040000040100050600060C000B0C00DC
:1007E0000C060002123F0E12101004200604100323
:1007F0000400040500050B000B0C000000000000C5
:1008000000000043204C2056205C206120692072AB
:10081000207C2085208C2096209B20A420AD20B415
:1008200020BA20C220CA20D220D720DE20E820EF24
:1008300020FB20FF2003210E21032115211E21254D
:10084000212C2133213A2141214C2154215921636A
:10085000216B21732178217C21812187218B21909B
:100860002195219E21A721B021B521BA21BF21C602
:1008700021CB21D021D521E121E621F021FC210845
:1008800022122216221B222022252229222E223346
:100890002238223C223F22442248224F2258225D05
:1008A0002262226922702277227E22872290229958
:1008B00022A222AC22B022B322B922BD22C322C975
:1008C00022CE22D522DB22E322E922EF22F522FAF0
:1008D00022012307230D2315231D2325232E233334
:1008E000233D2341234523492358224E2353235894
:1008F000235D23622367236C23712376237B23806C
:100900002385238A238F239423382299239E23A689
:1009100023AA23AF23B423B923BE23C323C823CDE3
:1009200023D223D823DF23E423EA23EE23F323F87F
:1009300023FD23022407240C24112416241B242025
:100940002425242A242F24332438243D24422447D8
:10095000244C24512456245B24602465246A246F8B
:1009600024732477247B247E24812486248B249062
:100970002495249A249F24A3245B24A824AC24B186
:1009800024B624BB24C024C524CA240C24CF24D3D9
:1009900024D924DF24E524EB24F124F724FD2404C6
:1009A000250B251225192520252F24332427252E14
:1009B0002535253C25432551245624BD2249255063
:1009C0002556255B25602564256825702578257EBC
:1009D0002584258C259F24A324BD229425AC249B0B
:1009E00025A125BB24AD20B420C220F724CF24AB01
:1009F00025AE25B125B425B925C125C925D2256344
:100A0000213822DB25DF25E425E925ED25A623F184
:100A100025F425F725FB25FF250426092613261A8C
:100A2000262026232628263026492537263D2641FE
:100A300026452649264D265126552659265D2661EE
:100A40002666266B26702675267A267F2684268EB5
:100A5000261A2698269D26A226A726AC26B126B6BB
:100A600026BB26C026C526CA26CF26D426D926DEF2
:100A700026E326E826ED26F326FB26FB250027069F
:100A8000270D271A2727272D2731273A2743274CB9
:100A90002758275E27642770277727822790279D6E
:100AA00027A727AC27B227BB27C327C927CD27D322
:100AB00027D827E427EB27F127F827002808280E56
:100AC0002814281A28222828282D283A2842284C79
:100AD0002856285D28642871287D28892894289D17
:100AE00028A828B028B828BF28CB28D828E328046D
:100AF00000040004000400050005000500060006CF
:100B00000007000700070008000800090009000AA4
:100B1000000B000B000C000D000E000E000F00106B
:100B20000011001200140015001600170019001A19
:100B3000001C001E001F0021002300250028002AA1
:100B4000002D002F003200350039003C00400043EA
:100B50000047004C00500055005A00600065006CD2
:100B600000720079008000880090009900A200AC1B
:100B700000B600C100CC00D900E600F3000201116C
:100B80000122013301450159016E0184019B01B32A
:100B900001CD01E90106022502460269028E02B575
:100BA00002DF020B0339036B039F03D603110450CA
:100BB000049204D80422057005C4051C067906DDDC
:100BC000064607B5072B08A8082D09B9094E0AECF7
:100BD0000A930B450C010DC80D9B0E7A0F6710632D
:100BE000116D128713B214EF153F17A3181C1A00CA
:100BF000000F0005001400EFFFFEFFF4FF020011DC
:100C000000ECFFFBFFF1FF00000F000500F9FF0AF9
:100C100000FEFFF4FF02001100ECFFFBFF0C0000E0
:100C200000000000000000C0FF0000000000000005
:100C30000000000000C0FF0000000000000000C035
:100C4000FF000000000000000000000000000000A5
:100C500000000000000000C0FF00000000000000D5
:100C600000C0FF000000000000F4FFFF7FFF7FEFE7
:100C7000FFFEFFFF7F0200F6FFFF7FFF7FF1FF0017
:100C8000000F00FF7FFF7FFF7FFEFFFF7F0200114D
:100C900000FF7FFF7FFF7F00000F00FF7FFF7FEFE0
:100CA000FFFF7FF4FFFF7FFF7FECFFFF7FF1FF007F
:100CB00000F4FFFF7FFF7FEFFFFF7FF4FF0200F6EE
:100CC000FFFF7FFF7FF1FF00000F00FF7FFF7FEF3F
:100CD000FFFF7FF4FF02001100FF7FFF7FF1FF00A5
:100CE00000FF7F0500FF7FEFFFFEFFFF7F0200FF99
:100CF0007F0700FF7FF1FF0000FF7F0500FF7F0AF5
:100D000000FF7F0F000200FF7F0700FF7F0C000045
:100D100000FF7FEAFFF9FFFF7FFEFFFF7F0200FF7A
:100D20007FECFFFBFFFF7F0000FF7F05001400FF4B
:100D30007FFEFFFF7F0200FF7F07001600FF7F009E
:100D400000FF7F0500F9FFFF7FFEFFFF7F0200F637
:100D5000FFFF7FFBFFFF7F0000FF7F0500FF7FEFAE
:100D6000FFFEFFFF7F0200FF7FECFFFBFFFF7F0026
:100D700000FF7F0500FF7FEFFFFEFFFF7F0200FF08
:100D80007F0700FBFF0C000000FF7F0500F9FFFF5D
:100D90007FFEFFFF7F0200FF7FECFFFBFFF1FF0004
:100DA00000F4FFFF7FF9FFFF7FFEFFFF7FFF7FFF64
:100DB0007FECFFFBFFFF7F0000FF7F0500F9FFFFD7
:100DC0007FFEFFFF7F0200FF7FFF7FFF7FF1FF00BD
:100DD00000FF7FFF7FFF7FEFFFFEFFFF7F0200F638
:100DE000FFFF7FFBFFFF7F0000FF7F0500FF7FFF0E
:100DF0007FFF7FF4FF0200FF7FECFFFBFFFF7F0020
:100E000000FF7F0500F9FFFF7FFEFFFF7F0200FF6D
:100E10007F0700FBFFFF7F0000FF7F0500FF7FEFE4
:100E2000FFFEFFFF7F0200F6FFFF7FFF7FF1FF0065
:100E300000FF7F0500FF7F0A00FEFFFF7FFF7FF6B8
:100E4000FFFF7FFBFFFF7F0000F4FFFF7FFF7FFFBF
:100E50007FFEFFFF7F0200FF7FFF7FFBFFFF7F0022
:100E600000F4FFFF7FF9FFFF7FFF7FFF7F0200FF9E
:100E70007FFF7FFBFFFF7F0000FF7FFF7FF9FFFF0A
:100E80007FFEFFFF7F0200FF7FFF7FFBFFFF7F00F2
:100E900000FF7FFF7FF9FFFF7FFEFFF4FFFF7FF67C
:100EA000FFFF7FFF7FFF7F0000FF7FFF7FF9FFEFE6
:100EB000FFFEFFFF7FFF7FFF7FECFFFBFFFF7F5504
:100EC00055F5F5B5B5D5D555AB555995950909499C
:100ED000924952494919D56B6B5B5B7777B76D5770
:100EE000576F6FDF7611A9C16F01D17F007F00813D
:100EF000FF81FF7F007F0081FF81FF7F007F0081F6
:100F0000FF81FF7F007F0081FF81FF7F0081FF7FE6
:100F10000081FF7F0081FF7F0081FF7F0081FF7FD5
:100F20000081FF7F0081FF7F0081FFC1FFC1FF7F44
:100F300000000081FF000000005800000000005881
:100F400000CEFFA8FF00005800000013002C005D39
:100F500000FCFF2000CBFFA6FF81FF750020009A58
:100F6000FFCBFF6900CBFF5D00CBFF58009BFF6B01
:100F700000A1FF5800A8FF3200DAFF4100A8FF657A
:100F800000A1FF650081FF3F00E1FF4600ACFF5478
:100F90000090FF54009EFF70009EFF3600BAFF7F56
:100FA00000ACFF7F0090FF5400ACFFEF0AEF0B078F
:100FB0000C1F0C370C4F0C670C7F0C970CAF0CC739
:100FC0000CDF0CF70C0F0D270D3F0D0F0D570D6F9C
:100FD0000D870D9F0DB70DCF0DE70DFF0D170E2FD0
:100FE0000E470E5F0E770E8F0EA70EF70CBF0EEB9F
:100FF0000E0B0F2B0F4B0F6B0F8B0F020303020215
:101000000E1E0C000004040E1F1F00000008150235
:10101000000000010101030300120C00191B06026D
:101020000404080010080402010000040004000485
:10103000000400808386898C8F9295989B9EA1A442
:10104000A7AAADB0B3B6B8BBBEC1C3C6C8CBCDD0DE
:10105000D2D4D7D9DBDDDFE1E3E5E7E9EAECEEEF77
:10106000F0F2F3F4F6F7F8F9F9FAFBFCFCFDFDFDFC
:10107000FEFEFEFEFEFEFEFDFDFDFCFCFBFAF9F9A8
:10108000F8F7F6F4F3F2F0EFEEECEAE9E7E5E3E186
:10109000DFDDDBD9D7D4D2D0CDCBC8C6C3C1BEBB70
:1010A000B8B6B3B0ADAAA7A4A19E9B9895928F8C19
:1010B000898683807C797673706D6A6764615E5B14
:1010C0005855524F4C494744413E3C393734322FF2
:1010D0002D2B28262422201E1C1A18161513111039
:1010E0000F0D0C0B09080706060504030302020294
:1010F00001010101010101020202030304050606C8
:101100000708090B0C0D0F1011131516181A1C1EC9
:1011100020222426282B2D2F323437393C3E4144BF
:1011200047494C4F5255585B5E6164676A6D7073F6
:1011300076797C8080858A8F94999DA2A7ACB1B581
:10114000BABEC2C7CBCFD2D6DADDE0E3E6E9ECEE39
:10115000F1F3F5F6F8F9FBFCFCFDFEFEFEFEFEFDEC
:10116000FDFCFBFAF9F8F6F4F3F1EFEDEAE8E6E35B
:10117000E0DEDBD8D5D2CFCCC9C6C3C0BDB9B6B3CB
:10118000B0ADAAA7A4A19F9C999794928F8D8B89AB
:1011900087858382807F7D7C7B7A79787877777684
:1011A000767676767676767777787879797A7B7BC5
:1011B0007C7D7E7F8080818283848485868687870C
:1011C000888889898989898989898888878786859E
:1011D000848382807F7D7C7A78767472706D6B6890
:1011E0006663605E5B5855524F4C4946423F3C39FE
:1011F0003633302D2A2724211F1C19171512100EE3
:101200000C0B09070605040302020101010101029A
:101210000303040607090A0C0E111316191C1F22DA
:1012200025292D3034383D41454A4E53585D62667C
:101230006B70757A8080878F969EA5ACB4BAC1C753
:10124000CDD3D9DEE3E7EBEFF2F5F8FAFBFDFEFED6
:10125000FEFEFDFCFAF9F7F4F2EFECE8E5E1DDD98A
:10126000D5D1CDC9C6C2BEBAB7B3B0ADAAA8A5A3E1
:10127000A2A09F9E9E9E9E9E9FA0A2A3A5A8AAAD4F
:10128000B0B3B7BABEC2C6C9CDD1D5D9DDE1E5E8A4
:10129000ECEFF2F4F7F9FAFCFDFEFEFEFEFDFBFAC0
:1012A000F8F5F2EFEBE7E3DED9D3CDC7C1BAB4ACC2
:1012B000A59E968F8780787069615A534B453E385A
:1012C000322C26211C1814100D0A070504020101F6
:1012D000010102030506080B0D1013171A1E222622
:1012E0002A2E3236393D4145484C4F5255575A5CAB
:1012F0005D5F606161616161605F5D5C5A5755521D
:101300004F4C4845413D3936322E2A26221E1A17A7
:1013100013100D0B0806050302010101010204056B
:10132000070A0D1014181C21262C32383E454B5349
:101330005A6169707880808890989FA7ADB4B9BED3
:10134000C3C6C9CBCCCCCCCBC9C7C4C0BCB8B3AE68
:10135000A9A4A09B97938F8C8A88878787888A8D7A
:101360009094999EA4AAB0B7BEC5CCD3D9E0E5EBC2
:10137000F0F4F7FAFCFEFEFEFCFAF7F4F0EBE5E021
:10138000D9D3CCC5BEB7B0AAA49E9994908D8A88B3
:10139000878787888A8C8F93979BA0A4A9AEB3B8C0
:1013A000BCC0C4C7C9CBCCCCCCCBC9C6C3BEB9B4F6
:1013B000ADA79F98908880776F676058524B4641E1
:1013C0003C3936343333333436383B3F43474C5162
:1013D000565B5F64686C7073757778787877757230
:1013E0006F6B66615B554F48413A332C261F1A14C8
:1013F0000F0B0805030101010305080B0F141A1F49
:10140000262C333A41484F555B61666B6F72757796
:10141000787878777573706C68645F5B56514C4769
:10142000433F3B3836343333333436393C41464B13
:10143000525860676F7780010101010102030305C3
:1014400006080A0D1013171B20252B31383E464D78
:10145000555D666E778089919AA3ACB4BCC4CCD339
:10146000DAE0E6EBEFF3F7FAFCFDFEFEFDFCFAF83E
:10147000F4F1ECE7E2DCD5CEC7BFB8B0A79F968EFB
:10148000857D746C645C544C453E37312B25201BA4
:1014900017130F0C090604020101010101010101EA
:1014A000010101010101010101010101010101012C
:1014B000010101010101010101010101010101021B
:1014C00002020203030304040505060606070707D4
:1014D00007060605040302010101010101010101E2
:1014E00001010101010101010101010101010101EC
:1014F00001010101010101010101010101010101DC
:1015000001010101010101010101010101010101CB
:1015100001010101010101010101010101010101BB
:1015200001010101010101010101010101010101AB
:10153000010101010101010101010101020305078E
:10154000090D11161B2229313A434D58636E7A86D4
:10155000919DA9B4BFC9D3DCE4EBF1F6F9FCFEFE22
:10156000FDFBF8F4EFEAE3DCD4CCC3BBB2A9A1994C
:10157000928B847F7A777473727374777A7F848B9B
:101580009299A1A9B2BBC3CCD4DCE3EAEFF4F8FB97
:10159000FDFEFEFCF9F6F1EBE4DCD3C9BFB4A99D76
:1015A00091867A6E63584D433A3129221B16110DEC
:1015B0000907050302010101010101010101010106
:1015C000010101010101010101010101010101010B
:1015D00001010101010101010101010101010101FB
:1015E00001010101010101010101010101010101EB
:1015F00001010101010101010101010101010101DB
:1016000001010101010101010101010101010101CA
:1016100001010101010101010101010101010101BA
:1016200001010101010101010101010101010101AA
:10163000010101010101010101403D3A3734312E20
:101640002B2825221F1C191613100D0A070401024E
:1016500005080B0E1114171A1D202326292C2F32D2
:1016600035383B3E4144474A4D505356595C5F62C2
:1016700065686B6E7174777A7D808285888B8E91B8
:1016800094979A9DA0A3A6A9ACAFB2B5B8BBBEC1B2
:10169000C4C7CACDD0D3D6D9DCDFE2E5E8EBEEF1A2
:1016A000F4F7FAFDFEFBF8F5F2EFECE9E6E3E0DD36
:1016B000DAD7D4D1CECBC8C5C2BFC2C5C8CBCED174
:1016C000D4D7DADDE0E3E6E9ECEFF2F5F8FBFEFD76
:1016D000FAF7F4F1EEEBE8E5E2DFDCD9D6D3D0CDD2
:1016E000CAC7C4C1BEBBB8B5B2AFACA9A6A3A09DC2
:1016F0009A9794918E8B888582807D7A7774716EAB
:101700006B6865625F5C595653504D4A4744413E91
:101710003B3835322F2C292623201D1A1714110E81
:101720000B0805020104070A0D101316191C1F22CD
:1017300025282B2E3134373A3D40807C7874706CEC
:101740006864605C5854504C4844403C3834302CF9
:101750002925211D1915110D09050105090D111561
:10176000191D2125292C3034383C4044484C505414
:10177000585C6064686C7074787C8083878B8F930E
:10178000979B9FA3A7ABAFB3B7BBBFC3C7CBCFD309
:10179000D6DADEE2E6EAEEF2F6FAFEFAF6F2EEEA81
:1017A000E6E2DEDAD6D3CFCBC7C3BFBBB7B3AFABAE
:1017B000A7A39F9B97938F8B87838083878B8F9320
:1017C000979B9FA3A7ABAFB3B7BBBFC3C7CBCFD3C9
:1017D000D6DADEE2E6EAEEF2F6FAFEFAF6F2EEEA41
:1017E000E6E2DEDAD6D3CFCBC7C3BFBBB7B3AFAB6E
:1017F000A7A39F9B97938F8B8783807C7874706C53
:101800006864605C5854504C4844403C3834302C38
:101810002925211D1915110D09050105090D1115A0
:10182000191D2125292C3034383C4044484C505453
:10183000585C6064686C7074787C800101020203FB
:1018400003030404050506060607070809090A0A32
:101850000B0B0C0C0D0E0E0F101011121313141590
:1018600016171718191A1B1C1D1E1F2021222324AE
:10187000252628292A2B2D2E2F3132343537383A78
:101880003B3D3F40424446484A4C4E5052545658C5
:101890005A5D5F626467696C6F7174777A7D80836B
:1018A000878A8D9194989B9FA3A7ABAFB3B7BCC019
:1018B000C5C9CED3D8DDE2E8EDF3F8FEF8F3EDE8E4
:1018C000E2DDD8D3CEC9C5C0BCB7B3AFABA7A39F29
:1018D0009B9894918D8A8783807D7A7774716F6CE1
:1018E000696764625F5D5A58565452504E4C4A487C
:1018F000464442403F3D3B3A3837353432312F2E53
:101900002D2B2A2928262524232221201F1E1D1C99
:101910001B1A191817171615141313121110100F7C
:101920000E0E0D0C0C0B0B0A0A0909080707060618
:1019300006050504040303030202010101070C115B
:10194000161B2024292D3034383B3E4144474A4D54
:101950004F525456585A5C5E606263656668696AA5
:101960006C6D6E6F70717273747576767778787946
:101970007A7A7B7B7C7D7D7D7E7E7F7F808080818F
:101980008182828283848485858687878889898A03
:101990008B8C8D8E8F90919293959697999A9C9D12
:1019A0009FA1A3A5A7A9ABADB0B2B5B8BBBEC1C43A
:1019B000C7CBCFD2D6DBDFE4E9EEF3F8FEF8F3EEE7
:1019C000E9E4DFDBD6D2CFCBC7C4C1BEBBB8B5B26A
:1019D000B0ADABA9A7A5A3A19F9D9C9A99979695F9
:1019E000939291908F8E8D8C8B8A89898887878638
:1019F000858584848382828281818080807F7F7ECE
:101A00007E7D7D7D7C7B7B7A7A797878777676753A
:101A100074737271706F6E6D6C6A6968666563620B
:101A2000605E5C5A585654524F4D4A4744413E3BC3
:101A30003834302D2924201B16110C0701F1E5D96B
:101A4000CDC2B8AEA49B938A827B746D66605A54F3
:101A50004F4A45403C3733302C292623201D1B1884
:101A6000161412100E0D0B0A0908070605040403CC
:101A7000030202010101010101010101020202034D
:101A800003040405050606070809090A0B0C0D0DD9
:101A90000E0F1011121314151617191A1B1C1D1EE8
:101AA0001F21222324252728292A2C2D2E303132AC
:101AB00033353637393A3B3D3E404142444546484E
:101AC000494B4C4D4F505253545657595A5C5D5EDA
:101AD000606163646667686A6B6D6E70717374755C
:101AE00077787A7B7D7E808182848587888A8B8DDA
:101AF0008E909193949597989A9B9D9EA0A1A3A454
:101B0000A6A7A9AAACADAEB0B1B3B4B6B7B9BABCCA
:101B1000BDBFC0C2C3C5C6C7C9CACCCDCFD0D2D342
:101B2000D5D6D8D9DBDCDEDFE1E2E3E5E6E8E9EBB8
:101B3000ECEEEFF1F2F4F5F7F8FAFBFDFEF10B1421
:101B40001D262E363E454D535A60666C72777D8257
:101B5000868B9094989CA0A3A7AAAEB1B4B7BABC48
:101B6000BFC1C4C6C8CACCCED0D2D4D5D7D9DADC8E
:101B7000DDDEE0E1E2E3E4E5E6E7E8E9EAEBECEC10
:101B8000EDEEEFEFF0F0F1F2F2F3F3F4F4F5F5F53A
:101B9000F6F6F7F7F7F8F8F8F8F9F9F9F9FAFAFAC2
:101BA000FAFBFBFBFBFBFCFCFCFCFCFCFCFDFDFD79
:101BB000FDFDFDFDFDFDFDFEFEFEFEFEFEFEF4EB69
:101BC000E2D9D1C9C1BAB2ACA59F99938D88827D63
:101BD00079746F6B67635F5C5855514E4B48454352
:101BE000403E3B39373533312F2D2B2A28262523EC
:101BF00022211F1E1D1C1B1A19181716151413134A
:101C0000121110100F0F0E0D0D0C0C0B0B0A0A0AFF
:101C10000909080808070707070606060605050557
:101C20000504040404040303030303030302020280
:101C300002020202020202010101010101010BFE86
:101C4000F8ECDCC7B0977D644D3725160B04010214
:101C5000060D1723313F4E5C6A76818A91969999D9
:101C60009895918B857E78716B65605D5A5858594F
:101C70005A5D6064686D72767B7F8285888A8B8C02
:101C80008C8B8B8A8887858483818180808080810A
:101C90008283848688898B8D8F9092939495969772
:101CA0009798989898989899999999999A9A9B9BA6
:101CB0009C9D9E9FA0A1A2A3A4A5A6A7A7A8A9A9F1
:101CC000AAABABACACADADAEAEAFAFB0B0B1B2B233
:101CD000B3B4B5B5B6B7B8B8B9BABBBBBCBDBDBE79
:101CE000BFBFC0C1C1C2C3C3C4C4C5C6C6C7C8C8BC
:101CF000C9CACACBCCCCCDCECECFD0D1D1D2D3D302
:101D0000D4D5D5D6D7D7D8D9D9DADADBDCDCDDDE45
:101D1000DEDFE0E1E1E2E3E3E4E5E5E6E7E7E8E989
:101D2000E9EAEBEBECEDEDEEEFEFF0F1F1F2F3F3CE
:101D3000F4F5F5F6F7F7F8F9F9FAFBFBFCFDFDFE13
:101D40004348515D6C7D8FA2B4C5D5E2EDF6FBFE34
:101D5000FEFBF7F0E8DFD5CBC1B8B0A9A39E9B9AF4
:101D60009A9B9EA1A6ABB0B5BABFC4C8CBCDCFCF0E
:101D7000CFCFCDCCC9C7C4C1BEBCB9B7B5B4B3B35E
:101D8000B3B3B4B5B6B8B9BBBCBEBFC0C1C1C2C2A3
:101D9000C2C2C2C1C0C0BFBEBDBCBCBBBBBABABA66
:101DA000BABABABBBBBBBCBCBDBDBDBEBEBEBEBE6F
:101DB000BEBEBEBEBEBEBDBDBDBDBDBCBCBCBCBC52
:101DC000BCB7AEA29382705D4B3A2A1D1209040182
:101DD0000104080F17202A343E474F565C616465A2
:101DE0006564615E59544F4A45403B373432303068
:101DF0003030323336383B3E414346484A4B4C4CF8
:101E00004C4C4B4A494746444341403F3E3E3D3D92
:101E10003D3D3D3E3F3F40414243434444454545AF
:101E20004545454444444343424242414141414186
:101E30004141414141414242424242434343434383
:101E40004301010101010101010101010101010140
:101E5000010101010101015555555555555555557E
:101E60005555555555555555555555555555555522
:101E70005555555555555555555555555555555512
:101E800055AAAAAAAAAAAAAAAAAAAAAAAAAAAAAA07
:101E9000AAAAAAAAAAAAAAAAAAAAAAAAAAAAAAAAA2
:101EA000AAAAAAAAAAAAAAAAAAAAAAAAFEFEFEFE42
:101EB000FEFEFEFEFEFEFEFEFEFEFEFEFEFEFEFE42
:101EC000FEFEFEFEFEFEFEFEFEFEFEFEFEFEFEFE32
:101ED000FEFEFEFEFEFEFEAAAAAAAAAAAAAAAAAA16
:101EE000AAAAAAAAAAAAAAAAAAAAAAAAAAAAAAAA52
:101EF000AAAAAAAAAAAAAAAAAAAAAAAAAAAAAAAA42
:101F0000AAAA5555555555555555555555555555D7
:101F10005555555555555555555555555555555571
:101F200055555555555555555555555501010101B1
:101F30000101010101010101010101010101010191
:101F400001010101010101121212121212121223D7
:101F500023232323232323233434343434343434C9
:101F600044444444444444444455555555555555BA
:101F700055666666666666666666777777777777AC
:101F8000777788888888888888888899999999999E
:101F900099999999AAAAAAAAAAAAAAAABBBBBBBBA1
:101FA000BBBBBBBBBBCBCBCBCBCBCBCBCBDCDCDC9E
:101FB000DCDCDCDCDCDCEDEDEDEDEDEDEDEDFEFE95
:101FC000FEFEFEFEFEFEFEEDEDEDEDEDEDEDEDDCDB
:101FD000DCDCDCDCDCDCDCDCCBCBCBCBCBCBCBCBC9
:101FE000BBBBBBBBBBBBBBBBBBAAAAAAAAAAAAAAB8
:101FF000AA999999999999999999888888888888A6
:102000008888887777777777777777666666666682
:102010006666666655555555555555554444444470
:102020004444444444343434343434343423232353
:10203000232323232323121212121212121201013C
:1020400001010177617665666F726D007061726182
:102050006D657465720072616E67650074756E659A
:10206000006F7363206D697800737562206F73630E
:102070002E0063726F73736D6F642E006F706572E4
:1020800061746F7200616D6F756E74007265736F4D
:102090006E616E6365006D6F646500656E76327E9D
:1020A000766366006C666F327E7663660061747478
:1020B00061636B0064656361790073757374616952
:1020C0006E0072656C65617365007472696767653F
:1020D000720072617465006C666F2F656700766FC1
:1020E000696365206C666F00736F75726365006469
:1020F000657374696E6174696F6E00696E31006931
:102100006E32006D6F64756C6174696F6E006D6F17
:1021100064756C2E006D6F646966696572006D6F21
:102120006469662E00766F6C756D65006F6374610F
:10213000766500737072656164006C656761746FC9
:1021400000706F7274616D656E746F006172702FD4
:1021500073657100726167610064697265637469B7
:102160006F6E007061747465726E006368616E6E8C
:10217000656C00706172740062706D006C746368ED
:10218000006C61746368006C6F7700686967680051
:10219000677269640073657131206C656E007365E8
:1021A0007132206C656E0070617474206C656E0015
:1021B0006C656E31006C656E32006C656E70006728
:1021C000726F6F7665006D69646900736E6170008F
:1021D00068656C70006175746F206261636B757007
:1021E000006C6564730063617264206C65647300E5
:1021F0007377617020636F6C6F727300696E7074B7
:102200002066696C746572006F757470206D6F6400
:102210006500657874006F6D6E6900616D6E7400A5
:1022200073726365006F6374007370726400612F72
:102230007371006F637476006F6666006F6E006E78
:102240006F6E6500736177007371756172650074FC
:102250007269616E676C650073696E65007A73619F
:1022600077006C707A73617700706B7A73617700B6
:1022700062707A7361770068707A736177006C704E
:102280007A70756C736500706B7A70756C7365002D
:1022900062707A70756C73650068707A70756C73B3
:1022A00065007A747269616E676C650070616400C4
:1022B000666D0038626974730070776D006E6F69C7
:1022C000736500766F77656C006D616C650066659F
:1022D0006D616C650063686F69720074616D707523
:1022E000726100626F7765640063656C6C6F007685
:1022F0006962657300736C617000657069616E6F0F
:10230000006F7267616E007761766573006469675C
:102310006974616C0064726F6E6520310064726F65
:102320006E652032006D6574616C6C696300626576
:102330006C6C007761767175656E636500747269A7
:1023400000737172007326680072616D70006872AC
:102350006D320068726D330068726D3500677267A8
:1023600031006772673200626174310062617432F9
:102370000073706B310073706B32006C73617700A7
:102380006C73717200727361770072737172007393
:1023900074703100737470320073796E6300726907
:1023A0006E676D6F6400786F7200666F6C640062B8
:1023B00069747300737175310074726931007075DE
:1023C0006C31007371753200747269320070756C13
:1023D0003200636C69636B00676C697463680062E8
:1023E0006C6F77006D6574616C00706F7000656E66
:1023F000763100656E763200656E7633006C666FFE
:1024000031006C666F32006C666F33006C666F343F
:10241000006D6F6431006D6F6432006D6F64330066
:102420006D6F6434007365713100736571320061E2
:1024300072700076656C6F00616674720062656E22
:1024400064006D77686C0077686C32007064616C52
:10245000006E6F74650067617465006E6F6973006C
:1024600072616E64003D323536003D313238003DD8
:102470003634003D3332003D3136003D38003D34C6
:102480000070726D310070726D32006F73633100D5
:102490006F7363320003312B320076696272006D14
:1024A000697800786D6F64007375620066757A7A7A
:1024B00000637273680066726571007265736F0005
:1024C0006174746B00646563610072656C650076AD
:1024D000636100656E76203100656E76203200659E
:1024E0006E762033006C666F2031006C666F203290
:1024F000006C666F2033006C666F2034006D6F6473
:102500002E2031006D6F642E2032006D6F642E20FE
:1025100033006D6F642E2034007365712E203100FE
:102520007365712E203200616674746368006265A1
:102530006E646572006D776865656C0077686565C7
:102540006C3200706564616C0072616E646F6D0066
:102550003D20323536003D203332003D20313600FB
:102560003D2038003D203400706172616D203100E3
:10257000706172616D2032006F73632031006F7380
:10258000632032006F736320312B320076696272F0
:1025900061746F007375626F736300637275736843
:1025A000006672657175656E6379006C70006270AB
:1025B000006870006672656500656E767E6C666F99
:1025C000006C666F7E656E7600737465702073654F
:1025D0007100617270656767696F006164640070A3
:1025E000726F64006174746E006D6178006D696E65
:1025F000003E3D003C3D0071747A006C6167006DE7
:102600006F6E6F00706F6C7900327820756E697331
:102610006F6E006379636C696300636861696E0063
:10262000757000646F776E00757026646F776E004A
:10263000706C617965640063686F726400312F317A
:1026400000332F3400322F3300312F3200332F3834
:1026500000312F3300312F3400312F3600312F3825
:1026600000312F313200312F313600312F3234001A
:10267000312F333200312F343800312F3936007486
:102680006872750073657175656E63657200636F5E
:102690006E74726F6C6C720066756C6C002E2E2EF0
:1026A0002E002E2E2E73002E2E702E002E2E7073C6
:1026B000002E6E2E2E002E6E2E73002E6E702E00AB
:1026C0002E6E707300632E2E2E00632E2E73006309
:1026D0002E702E00632E707300636E2E2E00636EBC
:1026E0002E7300636E702E00636E707300737769D3
:1026F0006E670073687566666C6500707573680058
:1027000068756D616E006D6F6E6B6579006F7363D8
:10271000696C6C61746F722031006F7363696C6CEB
:1027200061746F722032006D69786572006C666F3B
:102730000066696C74657220310066696C7465723C
:10274000203200656E76656C6F7065006172706531
:1027500067676961746F72006D756C746900636C92
:102760006F636B00706572666F726D616E6365009A
:1027700073797374656D0070742058207061746390
:102780006800707420582073657175656E6365000C
:10279000707420582070726F6772616D0072616E84
:1027A000646F6D697A6500696E69740050415443C5
:1027B000480053455155454E43450050524F4752EE
:1027C000414D004D554C5449005F5F5F0065717588
:1027D000616C006A757374007079746861676F72F8
:1027E00065616E00312F3420656200312F34206521
:1027F00000312F3420656100626861697261760082
:1028000067756E616B7269006D61727761007368E4
:102810007265650070757276690062696C617761D6
:102820006C0079616D616E006B6166690062686958
:102830006D70616C61737265650064617262617272
:1028400069006261676573687265650072616765DA
:102850007368726565006B68616D616A006D6927F8
:102860006D616C00706172616D657368776172692A
:102870000072616E67657368776172690067616E87
:102880006765736877617269006B616D65736877FE
:102890006172690070612E206B616669006E6174FF
:1028A00062686169726176006D2E6B61756E73008E
:1028B0006261697261676900622E746F64690063A6
:1028C00068616E64726164656570006B61757368E0
:1028D000696B20746F6469006A6F676573687761FC
:1028E000726900726173696100F000210200042FB7
:1028F00042414E4B2F002F484953544F52592F00FD
:102900002F434C49504252442F434C495042524469
:1029100000000001000101010000000000000000B3
:102920000000A72B00010203040506070100F001C7
:10293000A72B080D0C0B090A0E0F00000F02A72B86
:102940001011FF121617FFFF0201F003A72B181E2C
:102950001F1D191A1B1C0402F004A72BFF2021FFC6
:10296000FFFFFFFF03020F05A72B222324252627A5
:1029700028290503F006A72B2A392F302B2C2D2EC2
:102980000704F007A72B31323334353637380804C3
:102990000F08D32B00000000000000000604FF0910
:1029A000552C3A3B3C3DFFFFFFFF0A05F00AA72BE1
:1029B0003E3F4041FFFFFFFF09050F0BBD2BF0F12C
:1029C000F2F3F4F5F6F70C06F00C3D2A00000000D7
:1029D000000000000B060F0D812A0000000000001F
:1029E00000000D07F00E0F2C00000000000000009A
:1029F0000D08F00FA72B424347484445FF460F08F8
:102A0000F010392B00000000000000001008F0005A
:102A100003010402050002030506090B0D0F4245E0
:102A20008F564545B1466845B8460000A646DC4588
:102A30007745A856796573207C206E6F0029488FF2
:102A40005674479256234706570000A056C747A919
:102A500056A8566B6E6F6220787C70617274207A13
:102A60007C00706572666F726D616E636520706167
:102A7000676520637573746F6D697A6174696F6ED1
:102A800000B84C8F560B49FC489E56AB4C0000A03A
:102A900056F94A41487B4A53442063617264204995
:102AA0002F4F206572726F7200736176657C63616F
:102AB0006E63656C00207C202020696E69747C73D5
:102AC000656E647C736176657C76657273696F6E22
:102AD0007320206D6F72657C657869740070726513
:102AE000667C7E696E697C61626F7574202020202F
:102AF00020202020202020202020206D6F72657C47
:102B000065786974006D756C74690028656D707402
:102B10007929202020202020200000757365206363
:102B2000757272656E74206D756C746920617320A6
:102B300064656661756C743F00524E8F56384E92D4
:102B4000569E56CA4D0000A0565B4DFC4CA85665DB
:102B500078697400696E7374616C6C00757067726B
:102B6000616465007570677261646500706F72748E
:102B7000203120646576696365203F00616D62697C
:102B80006B61002F564F494345242E42494E002F7A
:102B9000564F494345242E42494E002F414D42494C
:102BA0004B412E42494E007E5170510A5192566659
:102BB0005006570000A056014FA54EA8567E5170F2
:102BC000513E5211526650EA510000A056014F8604
:102BD00051A8567D5671562955D952E85206577755
:102BE00052A0560954A956A85607206E6F74652046
:102BF0000776656C6F636974792007737465707309
:102C0000657120310773746570736571203200C17E
:102C1000588F56905692569E5660580000A0560502
:102C200058A957A856636F70797C737761707C7070
:102C3000617374652020202020203C3C207C203EB5
:102C40003E207C6B6565707C657869740076657282
:102C500073696F6E005E5A515A325AE859A3590689
:102C6000578F59A0563E59A54EA856766F69636591
:102C7000636172640000EB165B18BA1DBB1D271E52
:102C8000EC1E36225326EE34443C023FD944F44431
:102C90008E45D54661480D4D574E9C51BB53B85695
:102CA000B757F058E73411241FBECFEFD0E1DEBF95
:102CB000CDBF11E0A0E0B1E0ECEFFEEE02C0059068
:102CC0000D92A436B107D9F710E1A4E6B1E001C036
:102CD0001D92AF30B107E1F71CE2C4EADCE204C0A8
:102CE0002297FE010E946D77C637D107C9F70E946F
:102CF000F61C0C940C760C9400000F931F93CF934A
:102D0000DF938C01EB0160E070E0AE010E9446763B
:102D1000009719F0EC01C01BD10BCE01DF91CF91D0
:102D20001F910F9108951F93CF93DF93EC01162FFE
:102D300070E00E947D16982F06C0FE01E90FF11D7C
:102D400080E280839F5F9117C0F3DF91CF911F9145
:102D50000895EF92FF920F931F93CF93DF93EC01AF
:102D6000F62EE42E062F10E0B8010E947D16282FC3
:102D70008F15D1F0DE01A00FB11F1297E82FF0E000
:102D80003197EC0FFD1F90E00DC0921728F4808161
:102D900011968C93119703C01196EC9211979F5F37
:102DA000119731979F1588F3CDB7DEB7E6E00C9405
:102DB0005C7740E20E94A91608958FB7F89420919D
:102DC00064013091650140916601509167018FBFA8
:102DD000B901CA0108950895FC0110820895FC010B
:102DE0008081882311F484E10895CF0101960E9427
:102DF0001D6B0895FC018081882311F484E10895FE
:102E0000CF0101960E941F70089501960E942A60CA
:102E10000895FC018081882321F0CF0101960E9452
:102E20002A600895FC018081882311F484E10895CB
:102E3000CF0101960E946A640895A0E0B0E0E3E249
:102E4000F7E10C943D77EC016B01B42E7901888198
:102E5000882321F0CE0101960E942A608E010F5F27
:102E60001F4FC801B6014B2D0E94C46E982F8130B0
:102E700061F4E114F10449F0C7010E947617C8011A
:102E8000B6014B2D0E94C46E982F1882992311F41D
:102E900081E08883892FCDB7DEB7E9E00C945977BC
:102EA0000E941D690895FF920F931F93CF93DF93A4
:102EB000F82E092F9C01E9010DC01F3251F419822F
:102EC0008F2D902F0E945A6D1983882311F088301E
:102ED00029F421961981112381F780E0CDB7DEB75F
:102EE000E5E00C945D770E94806A0895AF92BF92EE
:102EF000CF92DF92EF92FF920F931F937C0180E0BD
:102F000069E671E00E94645A0E94DD165B016C0163
:102F100000E010E0AE0CBF1CC01ED11E07C080E058
:102F20000E94E57280FD02C080E008C00E94DD16AC
:102F30006A157B058C059D0590F381E01F910F912B
:102F4000FF90EF90DF90CF90BF90AF900895FC017D
:102F50002081222349F0862F90E0019630E08217ED
:102F6000930711F080E0089591818281891750F0D4
:102F7000491710F420E004C020E0841708F021E095
:102F8000822F06C0841718F480E0491708F081E00A
:102F9000811181E008953091240E81E0382730932B
:102FA000240E8091A2039091A303891B8F71D1F00D
:102FB0003323C1F08091A303E82FF0E0EE0FFF1F51
:102FC000E15BF14F908121818F5F8F718093A3032B
:102FD00085B1887F892B85B92C982EBD0DB407FE4D
:102FE000FDCF2C9A8091A4039091A503891B8F712A
:102FF000D1F03323C1F48091A503E82FF0E0EE0F68
:10300000FF1FE756F14F908121818F5F8F71809371
:10301000A50385B1887F892B85B92C982EBD0DB469
:1030200007FEFDCF2C9A08951F920F920FB60F92B4
:1030300011242F933F934F935F936F937F938F93BD
:103040009F93AF93BF93EF93FF938091060C909162
:10305000070C01969093070C8093060C2091080CA6
:103060003091090C2F5F3F4F3093090C2093080CCF
:1030700020910C0C30910D0C8217930748F0809131
:103080000B0C8F5F80930B0C1092070C1092060CA8
:103090000E94CB17FF91EF91BF91AF919F918F91BC
:1030A0007F916F915F914F913F912F910F900FBE44
:1030B0000F901F9018951F931092970310929B03E7
:1030C00010929C038091250E2091260E3091270EA0
:1030D0004091280E6091290EE0912A0EA0912B0EAE
:1030E00010912C0EB82FBF5F91E0B81708F090E058
:1030F000F92FF20F81E0F21708F080E0782F730FBC
:1031000081E0731708F080E0582F540F81E05417C6
:1031100008F080E0382F360F81E0361708F080E0A5
:10312000282F2E0F81E02E1708F080E0982F9A0F9D
:1031300081E09A1708F080E0810FB093250EF0939C
:10314000260E7093270E5093280E3093290E20934D
:103150002A0E90932B0E80932C0E1F910895909120
:10316000C10C943019F40E94D11D0895933041F49C
:10317000982F907F903821F0903911F00E94D11D46
:1031800008951F93182F8091C10C843011F0833063
:1031900031F4812F60E070E040E00E94D11D812F6A
:1031A0000E94B63A1F9108950F931F93CF93DF9318
:1031B000082F162FC0E0D0E0CE01880F991F880F8E
:1031C000991F84559C4F602F412F0E94A717882379
:1031D00079F08BE591E09C01C29FC001C39F900DE7
:1031E000D29F900D11248C519C4F612F0E943F2E35
:1031F0002196C630D10501F7DF91CF911F910F9134
:103200000895A7E0B0E0E7E0F9E10C944277298364
:103210003A834B835C836D837E838F838E010F5F44
:103220001F4FC8010E94AE33882319F0C8010E94C5
:103230005C3780E0BE016F5F7F4F41E00E940A383B
:103240002796E4E00C945E77A0E0B0E0EAE2F9E1D2
:103250000C943D77EC01162FBFE0DB2ED622603FA9
:1032600051F0673F41F0BC016F5F7F4F812F4C8170
:1032700021E00E94AF18612F607F603B09F4A1C07C
:10328000613B48F46039D9F0603A09F474C06038A1
:1032900009F0CDC210C0603D09F428C2613D20F4A0
:1032A000603C09F0C4C262C1603E09F445C2603F9F
:1032B00009F0BDC27CC28D2D69814A8159C00A8145
:1032C000002309F452C0198182E080934E0E1092BF
:1032D000970E10924D0EE091030DF091040D309772
:1032E00009F49FC2812F602F0995882309F499C2A0
:1032F00023E0222F2295207F220F220F2F6390910F
:103300009E03E92FF0E0EE0FFF1FE457F24F2083FA
:103310008FEF81839F5F977090939E0388C20E9476
:103320005C1FC0E0D0E0CE01880F991F880F991F65
:1033300084559C4F6D2D412F0E94A717882381F043
:103340008BE591E09C01C29FC001C39F900DD29F6D
:10335000900D11248C519C4F612F402F0E948F2E75
:103360002196C630D105F9F662C28D2D698140E003
:103370000E94D4185CC219810A81C0E0D0E0CE015D
:10338000880F991F880F991F84559C4F6D2D412FD1
:103390000E94A717882381F08BE591E0FC01CE9F66
:1033A000C001CF9F900DDE9F900D11248C519C4F3A
:1033B000612F402F0E94C6302196C630D105F9F604
:1033C00036C2F9808F2D90E0FC01E857F040E830DC
:1033D000F10508F098C0E25CFF4F0C946B770CEAA3
:1033E00013E0C0E0D0E0F8012081222339F08D2DD8
:1033F00090E0019630E08217930771F48BE591E03D
:103400009C01C29FC001C39F900DD29F900D1124BB
:103410008C519C4F0E943A2F21960C5F1F4FC63053
:10342000D10509F704C20CEA13E0C0E0D0E0F801CE
:103430002081222339F08D2D90E0019630E0821713
:10344000930771F48BE591E09C01C29FC001C39F7B
:10345000900DD29F900D11248C519C4F0E940528F5
:1034600021960C5F1F4FC630D10509F7E0C10CEA69
:1034700013E0C0E0D0E0F8012081222339F08D2D47
:1034800090E0019630E08217930771F48BE591E0AC
:103490009C01C29FC001C39F900DD29F900D11242B
:1034A0008C519C4F0E94C62D21960C5F1F4FC63039
:1034B000D10509F7BCC1ECEAF3E02081222339F001
:1034C0008D2D90E0019630E08217930719F4D39484
:1034D000D082DA94349633E0E43CF30771F7A7C165
:1034E000ECEAF3E02081222339F08D2D90E0019663
:1034F00030E08217930709F41082349683E0E43CAD
:10350000F80781F794C1EA80FF2019F4E092AA033A
:103510008EC184E080934E0E1092970E10924D0E45
:103520000CEA13E0C0E0D0E0F8012081222339F05A
:103530008D2D90E0019630E08217930781F48BE5A2
:1035400091E09C01C29FC001C39F900DD29F900D3E
:1035500011248C519C4F6F2D4E2D0E94313121969C
:103560000C5F1F4FC630D105F9F661C1C98080914B
:10357000C00C81FD5CC1BB245091AA035A3108F0F4
:1035800050C0CCEAD3E010E000E02881222339F0DB
:103590008D2D90E0019630E082179307E1F582E0EF
:1035A0008093580110925E0110925D0110935901B1
:1035B0005091AA0350935B01C0925C01002359F51E
:1035C00022E0312F40915A016C2D70915D01809164
:1035D0005E010E940119882311F001E01CC0E091F6
:1035E0005801E33011F4E2E107C08091590123E072
:1035F000829FC0011124E80FF0E0EE0FFF1FEA5A8E
:10360000F24FF0905B01EE2480915C0190E08E29F6
:103610009F29918380831F5F2496163009F0B5CFD0
:1036200037C013E01093580110925E0110925D01B3
:10363000109259015A5150935B01C0925C0123E0F2
:1036400030E040915A016C2D70915D0180915E01D6
:103650000E940119882311F5E0915801E33011F41B
:10366000E2E106C080915901819FC0011124E80F59
:10367000F0E0EE0FFF1FEA5AF24F90915B0180E0FD
:1036800020915C0130E0822B932B9183808302C0D8
:10369000002321F481E080937C0DC9C00E94B543D2
:1036A00085B1876085B92E9A80E58CBD81E08DBD9E
:1036B00080933E0D8EEE92E00E9476172E98279A08
:1036C000259A2698249A2C9A249A2C9A8DB58E7F26
:1036D0008DBD8DB581608DBD81E58CBD10923E0D97
:1036E000B39432E0B31609F4A2C046CFF9800CEAD5
:1036F00013E0C0E0D0E0F8012081222339F08D2DC5
:1037000090E0019630E08217930779F48BE591E021
:103710009C01C29FC001C39F900DD29F900D1124A8
:103720008C519C4F6F2D0E94C52621960C5F1F4F18
:10373000C630D10501F77BC08A81082F10E01695AD
:10374000102F0027179507958981080F111D83E019
:1037500080934E0E1092970E10924D0E4CEAE42E6E
:1037600043E0F42EC0E0D0E0F7012081222339F0BD
:103770008D2D90E0019630E08217930779F48BE568
:1037800091E09C01C29FC001C39F900DD29F900DFC
:1037900011248C519C4FB8010E94CB26219684E0C5
:1037A00090E0E80EF91EC630D105F1F640C09AE06F
:1037B000D916E1F09D1530F0DD2069F0E8E0DE1665
:1037C000B1F50DC0FCE0DF16A1F0DF1678F02FE0B8
:1037D000D21669F511C089810E94C11828C0809154
:1037E000C403883220F50E948D1F21C00E945C1FF7
:1037F0001EC00E943A1F1BC0C0E0D0E08BE591E0E4
:10380000FC01CE9FC001CF9F900DDE9F900D112433
:103810008C519C4F0E94E5272196C630D10571F747
:1038200006C08091100C882309F07BCD78CDCDB7F0
:10383000DEB7E9E00C945977CF93DF93EC018091E8
:10384000C10C882359F48091A003E82FF0E0EC55D7
:10385000F24F60838F5F8F778093A003683F20F0E3
:10386000CE010E94241958C067FF41C01C8281E02C
:103870008D83862F807F803AA1F0813A28F48038AA
:1038800081F08039A1F40DC0803E59F0803F19F0DD
:10389000803B69F406C0962F9F70892F815082303B
:1038A00018F482E08D8303C0943008F01D82673FD6
:1038B000A9F48881803F81F487EF0E94C11880912C
:1038C000680C843011F48CE201C084E280934E0EC7
:1038D0001092970E10924D0E188210C0603F29F47E
:1038E000688380EF0E94C11809C0688307C08C817B
:1038F000FE01E80FF11D61838F5F8C839C818D81B8
:10390000981750F0CE0168810E9424191C8288818A
:10391000813F10F01D821882DF91CF910895789435
:103920001092C1001092C90084B714BE809160004B
:1039300088618093600010926000389A80E00E9455
:10394000453C8091C0008D7F8093C0001092C500DF
:1039500087E28093C4008091C10088608093C10099
:103960008091C10080618093C10080918100887F37
:10397000826080938100809180008C7F8160809341
:1039800080008091B100887F81608093B100809138
:10399000B0008C7F81608093B00080917000816066
:1039A000809370000E94B94180916F008160809384
:1039B0006F000E94DA440E946C448091C50C8823F9
:1039C00011F40E949F448091960E882319F481E09F
:1039D0000E94453C90E08091960E882309F491E086
:1039E000892F0E94B1200E94FC3208950E948F1CF2
:1039F00080919D0380939E030FC080919F03E82FC9
:103A0000F0E0E35DF14F60818F5F8F7180939F03E2
:103A100087E993E00E941C1C8091A10390919F0371
:103A2000891B8F7151F70E94FC1F0E941640F4CF32
:103A300078941F920F920FB60F9211242F933F93F9
:103A40004F935F936F937F938F939F93AF93BF93A6
:103A5000EF93FF938091C00087FF15C02091C600AF
:103A600080919F039091A1038150891B8F7159F020
:103A70008091A103E82FF0E0E35DF14F20838F5F99
:103A80008F718093A1038091A7039091A803891B54
:103A9000877081F08091C00085FF24C08091A803C9
:103AA000E82FF0E0E456F24F90818F5F87708093AB
:103AB000A80316C08091A0039091A903891B8F775A
:103AC00089F08091C00085FF0DC08091A903E82F87
:103AD000F0E0EC55F24F90818F5F8F778093A903D0
:103AE0009093C6000E94DF3C2091A603822F90E0B5
:103AF00083709070892B19F590916801892F8A59EC
:103B0000809368018D37D8F0975190936801809128
:103B10006401909165010196909365018093640121
:103B20008091640190916501892B49F4809166012F
:103B30009091670101969093670180936601822FAF
:103B40008F5F8093A603803321F41092A6030E9416
:103B5000F375FF91EF91BF91AF919F918F917F91FD
:103B60006F915F914F913F912F910F900FBE0F90EA
:103B70001F90189508950895282F8091A90390917A
:103B8000A0038150891B8F77C1F38091A003E82F98
:103B9000F0E0EC55F24F20838F5F8F778093A00386
:103BA0000895DB019091A003E92FF0E0EC55F24F6E
:103BB00080839F5F9F779093A0034423D9F08091E7
:103BC000A003E82FF0E0EC55F24F9C9190838F5FBB
:103BD0008F778093A003413069F08091A003E82F94
:103BE000F0E0EC55F24F11969C9190838F5F8F77A8
:103BF0008093A00308959091A703ECE9FDE0E90FFD
:103C0000F11D80839F5F97709093A7030895909113
:103C1000A003A4EABDE0FD01E90FF11D80839F5FD1
:103C20009F779093A0038091A003FD01E80FF11D01
:103C300060838F5F8F778093A0038091A003A80F8C
:103C4000B11D4C938F5F8F778093A00308951F93CE
:103C50008091250E2091260E3091270E4091280E3E
:103C60006091290EE0912A0EA0912B0E10912C0E3E
:103C7000B82FBF5F91E0B81708F090E0F92FF20F6E
:103C800081E0F21708F080E0782F730F81E073175E
:103C900008F080E0582F540F81E0541708F080E0BE
:103CA000382F360F81E0361708F080E0282F2E0FCE
:103CB00081E02E1708F080E0982F9A0F81E09A1784
:103CC00008F080E0810FB093250EF093260E7093DC
:103CD000270E5093280E3093290E20932A0E90938E
:103CE0002B0E80932C0E1F910895382FEFEAF3E0EE
:103CF0002FEF90E0931729F08081822380838095B5
:103D000028239F5F34969630A9F7822F0895A0E06C
:103D1000B0E0EDE8FEE10C943A776091C40370E006
:103D200080E090E0660F771F881F991F9B01AC0110
:103D3000220F331F441F551F645274408A4F9F4FF8
:103D40000E94197749018091C503E82EFF24EE0CEB
:103D5000FF1C8FEE9FE0E80EF91EB401882777FD67
:103D60008095982F2091C60330E040E050E00E94FB
:103D7000A5765B016C01C0E0D0E0F701259134919C
:103D80002C0F3D1FF90165917491882777FD80956F
:103D9000982F8E010E5E134FA60195010E94A57605
:103DA000BC01992777FD9095892FC401860F971F35
:103DB000F801918380832296C032D105F1F680917B
:103DC000120C9091130C90930D0C80930C0CCDB7AA
:103DD000DEB7ECE00C9456771F938091250E20916E
:103DE000260E3091270E4091280E6091290EE09109
:103DF0002A0EA0912B0E10912C0EB82FBF5F91E0D0
:103E0000B81708F090E0F92FF20F81E0F21708F0F0
:103E100080E0782F730F81E0731708F080E0582F4F
:103E2000540F81E0541708F080E0382F360F81E0FE
:103E3000361708F080E0282F2E0F81E02E1708F0AB
:103E400080E0982F9A0F81E09A1708F080E0810FA8
:103E5000B093250EF093260E7093270E5093280EE4
:103E60003093290E20932A0E90932B0E80932C0EC4
:103E70001F910895CF93DF938091C10C813019F485
:103E80008CEF0E94FB1DC0E0D0E08BE591E09C012F
:103E9000C29FC001C39F900DD29F900D11248C51E1
:103EA0009C4F0E94352E2196C630D10571F7109295
:103EB000100CDF91CF910895CF93DF938091C10CC7
:103EC000813019F48AEF0E94FB1D10920E0C1092A3
:103ED0000F0C1092110CC0E0D0E08BE591E09C013A
:103EE000C29FC001C39F900DD29F900D11248C5191
:103EF0009C4F0E94372D2196C630D10571F78091D5
:103F0000120C9091130C90930D0C80930C0C81E08B
:103F10008093100CDF91CF910895FF920F931F9320
:103F2000CF93DF9380910E0C8F5F80930E0C8630C1
:103F3000C1F410920E0C80910F0C8F5F80930F0CC8
:103F4000803111F410920F0CE0910F0CF0E0EE0FA5
:103F5000FF1FEE5EF34F8081918190930D0C809353
:103F60000C0C8091100C882309F441C08091C10C85
:103F7000813019F488EF0E94FB1D03ED14E0FF244B
:103F8000F394C0E0D0E08BE591E09C01C29FC001BA
:103F9000C39F900DD29F900D11248C519C4F0E9475
:103FA000C72CF80180818111FF242196055A1E4FEC
:103FB000C630D10541F78091C4038832C0F0FF209C
:103FC00031F08091110C8F5F8093110C02C0109220
:103FD000110C2091C70348E1249F90011124809186
:103FE000110C90E02817390710F40E943A1FCDB742
:103FF000DEB7E5E00C945D77CF93DF9322C080912C
:104000000A0C8F5F80930A0C285230403093090CC1
:104010002093080CC0E0D0E08BE591E09C01C29FAA
:10402000C001C39F900DD29F900D112460910A0C86
:1040300061708C519C4F0E94D5262196C630D105C7
:1040400059F72091080C3091090C28323105B8F647
:104050008091C403883240F40CC00E948D1F80916F
:104060000B0C815080930B0C80910B0C8823A9F7CB
:1040700002C010920B0CDF91CF9108950F931F9304
:10408000CF93DF930FEA13E0C0E0D0E08BE591E03F
:104090009C01C29FC001C39F900DD29F900D11241F
:1040A0008C519C4FF80160810E94933221960C5FE5
:1040B0001F4FC630D10551F7DF91CF911F910F915E
:1040C00008950E94871E8FEF0E94751E0E943E2059
:1040D00081E08093320C0895982F282F30E0F90169
:1040E000E455FC4F80818617A1F060838091320CEB
:1040F00082608093320C983140F42370307023300A
:10410000310539F40E94612008959B3110F40E941A
:10411000871E08951F93CF93DF93182F8CEA93E0A7
:104120006AEB70E048E350E00E941C76C0E0D0E00B
:104130008BE591E09C01C29FC001C39F900DD29F6F
:10414000900D11248C519C4F612F0E94DD322196DD
:10415000C630D10569F70E946120DF91CF911F9190
:1041600008951F93CF93DF93182FC0E0D0E08BE525
:1041700091E09C01C29FC001C39F900DD29F900D02
:1041800011248C519C4F0E94B02D2196C630D10530
:1041900071F7112311F080E004C00E949A3B88233C
:1041A00029F40E948A200E940E3C02C00E946120D5
:1041B0001092100CDF91CF911F910895FC01928114
:1041C000992379F0838124812F5F281B660F269F16
:1041D000612D1124680F943121F46F3E08F060EFD7
:1041E0006E7F862F08951F93CF93DF93EC01162FD8
:1041F000642F0E94DE20982F8A81833059F4612F2A
:10420000772767FD7095892F992787FD9095681B03
:10421000790B04C0612F70E0691B710930E077FFF2
:1042200003C0709561957F4F8C812B81821B90E03C
:1042300025E0959587952A95E1F7861797070CF065
:1042400031E0832FDF91CF911F910895FC0182818E
:104250009381833031F4691734F0848186174CF4EC
:1042600007C0691710F4692F04C08481861708F409
:10427000682F862F0895FC01262F30E08281552774
:1042800047FD509593818330A9F4332727FD30955E
:10429000240F351F892F992787FD909528173907F7
:1042A000B4F08481992787FD9095821793077CF05D
:1042B000622F0DC0420F531F892F90E048175907F6
:1042C00034F0848190E0841795070CF0642F862FDA
:1042D0000895FC016481E3816F5F762F7E1B61503E
:1042E00080914401909145019C01217030704427D8
:1042F0005527421B530B4070547B96958795482752
:1043000059275093450140934401852F772329F481
:104310006E1739F0652F05C0871B8717E8F7682FE0
:104320006E0F862F0895482F9B016CE00E94C47683
:10433000990F6DEE76E0FB01E90FF11DE491D901D3
:10434000ED939F5F690F711DFB018491F9018183DA
:10435000842F6CE00E94C476E6E0F7E0E80FF11DE0
:10436000E4911196EC93119712961C920895E2EF46
:10437000F1E0E80FF11DE4918E2F0895E2EFF0E0F7
:10438000E80FF11DE4918E2F0895FC018681489F6E
:10439000402D11248181480F8081823080F4262FA6
:1043A00030E08BE591E0289FF001299FF00D389FC8
:1043B000F00D1124E40FF11DEC51FC4F0DC08230C3
:1043C00029F4E42FF0E0E455FC4F06C0E42FF0E0C0
:1043D000833021F4E054F34F80810895EC52F34F81
:1043E000808108951F93CF93DF939C01162FEA01DC
:1043F0006623C1F1009729F4FA0180E381936150AB
:104400002FC097FF06C08DE28993115030952195FA
:104410003F4F40E0E42FF0E0E752F14FC9016AE07E
:1044200070E00E94E47680834F5FC9016AE070E02B
:104430000E94E4769B016115710561F7642FDE012E
:1044400008C04150E42FF0E0E752F14F8081805DD9
:104450008D934423B1F7FE01E60FF11D161B612F6A
:1044600061111082DF91CF911F9108951F93809168
:10447000250E2091260E3091270E4091280E609136
:10448000290EE0912A0EA0912B0E10912C0EB82F20
:10449000BF5F91E0B81708F090E0F92FF20F81E0CC
:1044A000F21708F080E0782F730F81E0731708F09F
:1044B00080E0582F540F81E0541708F080E0382F27
:1044C000360F81E0361708F080E0282F2E0F81E0AC
:1044D0002E1708F080E0982F9A0F81E09A1708F0C5
:1044E00080E0810FB093250EF093260E7093270E77
:1044F0005093280E3093290E20932A0E90932B0E62
:1045000080932C0E1F9108950F93FC01962F522F2C
:104510008681489F602D11248181680FE081E230FF
:1045200098F4892F90E02BE531E0FC01E29FC00177
:10453000E39F900DF29F900D11248C519C4F452FBD
:10454000202F0E94B82F11C0E23029F4862F622F4D
:104550000E946C200AC0A62FB0E0E33019F4A054EA
:10456000B34F02C0AC52B34F5C930F9108951F93A9
:10457000182F8E3F19F427E431E014C080915601C2
:10458000181771F06FE0169FB00111246E587D4F1F
:1045900083E39CE04FE050E00E941C7610935601AC
:1045A00023E33CE0C9011F910895A4E0B0E0EBEDE6
:1045B000F2E20C943E776C01142F79016F3FB9F051
:1045C000F90180E7819384E7D90111968C93DF018B
:1045D000119680E28183FD0131966F5C11966C9398
:1045E000818352E0E52EF12CEE0EFF1E0550D60120
:1045F0001D96ED91FC911E97EE0FFF1FED5FF74F9B
:1046000065917491C701402F50E00E943776F60102
:1046100087818F3F91F080E289831C82812F90E017
:10462000019662E0AE014E5F5F4F0E94F221C7012A
:10463000BE016F5F7F4F0E946376C701602F0E94AB
:1046400093162496E8E00C945A771F93CF93DF9348
:10465000FC01EB01142F473018F48185928502C0CC
:1046600083859485FC01EE0FFF1FED5FF74F659189
:104670007491CE01412F50E00E943776CE01612F18
:104680000E949316DF91CF911F910895A0E0B0E0B2
:10469000ECE4F3E20C943E776C01162F7A01022FC2
:1046A000FC018281E82FF0E0EE0FFF1FE754F94F85
:1046B000C591D4918D30D9F08E3038F48A3071F0B4
:1046C0008C3081F0823029F507C08431A9F089311E
:1046D000F1F08331F1F416C01F5F1BC06F30C8F0DA
:1046E0001F5028C02630A8F0C6ECD0E014C02630F9
:1046F00080F0C3EED0E00FC0683258F410E0CFE392
:10470000D0E009C0862FBA010E94932102C066231F
:1047100059F1209779F0FE01E10FF11DEE0FFF1F17
:10472000ED5FF74F65917491C701402F50E00E94F3
:10473000377611C0F6018281833169F0833029F424
:10474000812F992787FD909502C0812F90E0602FDF
:10475000A7010E94F221C701602F0E94D916CDB790
:10476000DEB7E8E00C945A77C0E4D0E0D4CFA0E004
:10477000B0E0EDEBF3E20C943F777C01D62EEA013A
:10478000122FBA01422F0E942523115002C011504E
:104790000F5FFE01E10FF11D80818032C1F31F5FC9
:1047A000412F50E0FE01E40FF51F80E280834F5F50
:1047B0005F4F4C0F5D1FC7016D2D202F0E944623B8
:1047C000CDB7DEB7E7E00C945B77CF93DF93DC01E6
:1047D0009C012D513F4FEC01C553DF4F40E05D96EA
:1047E000EC915D97EF3038F4F0E0E05DF84F8491A4
:1047F000F90180830AC0EF50F0E0EE0FFF1FE15196
:10480000F54F85919491998388834F5F18962F5F18
:104810003F4F2796433019F7DF91CF910895DC0180
:10482000AF58BF4F3C91A157B0402CE032039001EC
:104830001124260F311D2038310514F02FE730E008
:10484000A90137FF02C040E050E020E8429FA001EC
:104850001124AC58BF4F9C91A457B0409923B9F094
:10486000E92FF0E0EE0FFF1FE555F04F2591349151
:10487000862F6CE00E94C476892F90E0880F991FE4
:10488000280F391FF90185919491480F591FAE588F
:10489000BF4F2C91332727FD3095240F351FC901B9
:1048A0000895FC01EC58FF4FE081EE2311F421E064
:1048B0001BC0F0E0EE0FFF1FE555F04F259134913E
:1048C000862F6CE00E94C476892F90E0880F991F94
:1048D000280F391FF9018591949120E08F5F9F4740
:1048E00009F421E081E02827822F0895CF93DF93F8
:1048F000FC01DC01A353BF4FEC01C052DF4F90E03D
:10490000878D813039F412968C93129711961C92F0
:104910001E9218829F5F389617962196933081F7E2
:10492000DF91CF910895CF93DF93FC01EA5AFE4FB8
:104930008081E655F140EF01C85ADE4FDF01A95AE8
:10494000BE4F813019F418821C920AC0E151FF4F0A
:10495000808181508C93E657F0408081815088831C
:10496000DF91CF9108951F93CF93DF93EC01C15155
:10497000DF4F1881C757D0408881C857D040FE010B
:10498000E95AFE4F843009F049C02091440130912A
:104990004501C90181709070909581959F4F8070FD
:1049A000947B369527958227932790934501809392
:1049B0004401C85ADE4F892F8F708883C855D14073
:1049C00092959F70908302C0451B4083FE01E85A78
:1049D000FE4F4081C758DF4F5881C957D040242F20
:1049E000332727FD3095852F90E02817390764F786
:1049F000612F6195C95ADE4F4881C755D140542F68
:104A0000460F252F332727FD3095812F90E028175B
:104A10003907ACF7C95ADE4F58834FC0CA5ADE4F28
:104A20004881C655D1408081480F4083242F3327C9
:104A300027FD3095812F90E02817390714F0108258
:104A400005C047FF3AC0115010831F5FFE01E85AAE
:104A5000FE4FCA5ADE4F48818081480F4083242F81
:104A6000332727FD3095CD5DD0408881C957D04090
:104A700090E02817390714F447FF1FC0C858DF4FCC
:104A80008881C857D0408230A9F4FE01EA5AFE4F0F
:104A9000808181958083CE010E949324123008F09A
:104AA00066CFC758DF4F8881C957D040823008F0A1
:104AB0005ECF03C0CE010E949324DF91CF911F915E
:104AC0000895CF93DF93EC0128A590E01CC0422FFE
:104AD00050E0FA01EE0FFF1FE40FF51FEC0FFD1F72
:104AE0008181861729F44F5F5F4F992379F426C09F
:104AF000CA010196FC01EE0FFF1FE80FF91FEC0F32
:104B0000FD1F922F2081222311F751C0892F90E0A1
:104B10000196DC01AA0FBB1FA80FB91FAC0FBD1F68
:104B2000FA01EE0FFF1FE40FF51FEC0FFD1F808150
:104B30008C933881FE01B99690E01FC0FA01EE0F08
:104B4000FF1FE40FF51FEC0FFD1F808188A7F1CF39
:104B50008191821789F4692F06C0FE01E40FF51FC9
:104B600082A581A76F5F462F50E0888190E0019772
:104B70004817590794F303C09F5F931748F330E039
:104B8000C9010196FC01EE0FFF1FE80FF91FEC0FA2
:104B9000FD1F1082F901EE0FFF1FE20FF31FEC0F54
:104BA000FD1F8FEF81831282888181508883DF917E
:104BB000CF910895CF93DF93EC01298D90E01CC035
:104BC000422F50E0FA01EE0FFF1FE40FF51FEC0F2C
:104BD000FD1F8181861729F44F5F5F4F992379F478
:104BE00025C0CA010196FC01EE0FFF1FE80FF91F57
:104BF000EC0FFD1F922F2081222311F751C0892F26
:104C000090E00196DC01AA0FBB1FA80FB91FAC0FE3
:104C1000BD1FFA01EE0FFF1FE40FF51FEC0FFD1F84
:104C200080818C933881FE0190E020C0FA01EE0F64
:104C3000FF1FE40FF51FEC0FFD1F8081898FF2CF5E
:104C4000828D3196821789F4692F06C0FE01E40F28
:104C5000F51F838D828F6F5F462F50E0888190E033
:104C600001974817590794F303C09F5F931740F3C8
:104C700030E0C9010196FC01EE0FFF1FE80FF91F9C
:104C8000EC0FFD1F1082F901EE0FFF1FE20FF31F63
:104C9000EC0FFD1F8FEF8183128288818150888302
:104CA000DF91CF9108951F938091250E2091260EBC
:104CB0003091270E4091280E6091290EE0912A0E26
:104CC000A0912B0E10912C0EB82FBF5F91E0B8175A
:104CD00008F090E0F92FF20F81E0F21708F080E081
:104CE000782F730F81E0731708F080E0582F540F6E
:104CF00081E0541708F080E0382F360F81E0361736
:104D000008F080E0282F2E0F81E02E1708F080E0B9
:104D1000982F9A0F81E09A1708F080E0810FB093E6
:104D2000250EF093260E7093270E5093280E309385
:104D3000290E20932A0E90932B0E80932C0E1F91F8
:104D40000895EF92FF920F931F93CF93DF93EC019F
:104D5000E62EF42E022F10E00CC0FE01E10FF11D33
:104D6000EC53FF4F80816E2D4F2D202F0E94034466
:104D70001F5FC653DF4F8881CA5CD040181768F3A5
:104D8000CDB7DEB7E6E00C945C77262F60E44FE009
:104D90000E94A1260895272F660F221F660F221F4B
:104DA00060E440E10E94A12608956F927F929F9255
:104DB000AF92BF92CF92DF92EF92FF920F931F9329
:104DC000DF93CF930F92CDB7DEB73C01962EFC0157
:104DD000E651FF4F808191810196918380832AEC77
:104DE00030E0620E731EF301808126E33FEF620E16
:104DF000731E882309F4D1C05301830105531F4F4B
:104E000050EEC52ED12CC60CD71CEE24F501448DD6
:104E1000F8012081318182819381820F931F9383D6
:104E2000828350E08217930708F451E0F80154831D
:104E30004130A1F1413010F1423029F04330A1F569
:104E4000F801F3804BC05523B1F02091440130911B
:104E50004501C90181709070909581959F4F807038
:104E6000947B3695279582279327909345018093CD
:104E70004401F8019583F801F58030C0F801828182
:104E80009381AC01440F452F441F550B519597FF5B
:104E900002C0F42E23C0F42EF09420C0F8018381C8
:104EA000F82EFF0CFF081AC04450842F90E0382FD2
:104EB0002227280F391F2D5C3F4EF80182819381F4
:104EC000F901E90FF11D882FF5901590819DF001F2
:104ED00080958F9DE00DF11D1124FF2EEE2011F025
:104EE000992009F1F6018681F816D9F090E00DC0FD
:104EF000F301E90FF11DEC53FF4F80816E2D4F2D13
:104F000099830E94F54399819F5F2AEC30E0620EFD
:104F1000731EF301808126E33FEF620E731E981724
:104F200038F3F601F682F501878D823041F5F801FC
:104F30009481F501858D8F3028F4F60180818823D6
:104F4000F1F402C09923D9F090E00DC0F301E90F0C
:104F5000F11DEC53FF4F6E2D6068808199830E9494
:104F6000C44399819F5F2AEC30E0620E731EF30107
:104F7000808126E33FEF620E731E981738F3E394A7
:104F800088E090E0A80EB91E095F1F4F0894C11C6D
:104F9000D11C93E0E91609F039CF0F90CF91DF9142
:104FA0001F910F91FF90EF90DF90CF90BF90AF9047
:104FB0009F907F906F900895E8E3FDE0E80FF11D6A
:104FC000108260E60E94C44308951F93CF93DF933D
:104FD000EC0110E00FC0FE01E10FF11DEC53FF4F9B
:104FE0008081E82FF0E0E85CF24F108269EF0E94C8
:104FF000C4431F5FC653DF4F8881CA5CD040181777
:1050000050F3DF91CF911F9108951F93CF93DF93BA
:10501000EC01C251DF4F1882CE5ED04010E00AC0D2
:10502000FE01E10FF11DEC53FF4F808168EF0E94FC
:10503000C4431F5FC653DF4F8881CA5CD040181736
:1050400078F3DF91CF911F9108959C018091C10C5D
:10505000813021F5E0E0F0E08BE591E0DC01EA9FB2
:10506000C001EB9F900DFA9F900D11248C519C4F25
:105070002817390759F4EE0FFF1FEE0FFF1FE455F5
:10508000FC4F8081882331F0815005C03196E63095
:10509000F10511F780E080690E94071E08959C01C8
:1050A0008091C10C833021F5E0E0F0E08BE591E0E8
:1050B000DC01EA9FC001EB9F900DFA9F900D112437
:1050C0008C519C4F2817390759F4EE0FFF1FEE0F34
:1050D000FF1FE455FC4F8081882331F0815005C0CB
:1050E0003196E630F10511F780E080690E94071ED5
:1050F0000895A0E0B0E0EFE7F8E20C943E77EC0111
:10510000D62E8FEF681709F4DEC0CE0140E00E9472
:1051100025286FE7E62EF12CEC0EFD1EF7018081AD
:10512000882309F07CC05EE3E52E51E0F52EEC0EFD
:10513000FD1EF701808190E0FC01EE0FFF1FE80FDC
:10514000F91FEC0FFD1FEA5DFE4FC0808E010B5D65
:105150001E4FC8016D2D0E94DA25F8018081882339
:1051600099F400E009C0FE01E00FF11DEC53FF4F80
:1051700080810E94DC270F5FC653DF4F8881CA5CA5
:10518000D040081780F39FC0CD1409F09CC0F701F0
:10519000808190E0FC01EE0FFF1FE80FF91FEC0F7C
:1051A000FD1FEA5DFE4FCE0160810E940F247C014D
:1051B00010E000E024C0DE01A00FB11DAC53BF4FD2
:1051C000B701610F711DC25CDE4F8881CE53D140A3
:1051D00090E0FC01EE0FFF1FE80FF91FEC0FFD1F21
:1051E000E95DFE4F40814F778C9121E00E9417448A
:1051F000CD58DF4F8881C357D040180F0F5FC6537B
:10520000DF4F8881CA5CD0400817A8F2CB58DF4F27
:105210008881C557D040882309F452C054C0CE01BC
:10522000895B9E4F6D2D0E94F242082FF70180810D
:10523000823021F5C55BDE4F8881CB54D140081701
:1052400008F041C0F02EFF0C0F2D10E0FE01E00F22
:10525000F11FEC53FF4F80810E94DC270F5F1F4F2F
:10526000C653DF4F8881CA5CD04090E00817190709
:1052700014F000E022C00F2D0F5F1FC0FE01E55BA0
:10528000FE4F8430B9F4202F30E0808190E0959576
:1052900087952817390744F4C20FD31FCC53DF4F2B
:1052A00088810E94DC270FC0CE016D2D40E00E9456
:1052B0004F2809C08081081730F4C00FD11DEECFF0
:1052C000CE010E947624CDB7DEB7E8E00C945A7781
:1052D000A0E0B0E0EEE6F9E20C943D77EC01D62ECA
:1052E000B42E0E945124882309F468C1CE016D2D8B
:1052F0004B2D0E942528C158DF4F8881CF57D040C1
:10530000882309F0B9C08E010B5D1E4FC8016D2DB9
:105310000E94DA25F8018081873081F4FE01E75D83
:10532000FE4F91E060E08281882309F460819F5FF5
:1053300033969830C1F7C8010E94DA25FE01E75D77
:10534000FE4F41E080818F3F29F04F5F3396483018
:10535000C9F740E0242F30E0C9010196FC01EE0FAF
:10536000FF1FE80FF91FEC0FFD1FEB5DFE4FDE0185
:10537000A25CBE4F8C918083F901EE0FFF1FE20FFC
:10538000F31FEC0FFD1FEA5DFE4FD192B0824C93EC
:10539000CB5DDE4F5881C552D140BE01615C7E4F6E
:1053A00020E030E024C0D901FB018191BF0190E0F1
:1053B000FC01EE0FFF1FE80FF91FEC0FFD1FEA5D68
:1053C000FE4F80812F5F3F4FD81688F408C0FE0142
:1053D000E50FF11DE25CFE4F81918083515015175E
:1053E000B0F3AC0FBD1FA15CBE4F4C930BC0122F8E
:1053F0002517C8F2442331F0FE01E50FF11DE15CF1
:10540000FE4F4083FE01EB5DFE4F10811F5F108356
:10541000CE016D2D0E940F246C01FF24123010F07C
:10542000FF24F39400E010E014C0FE01E10FF11D31
:10543000EC53FF4FB601600F711D80814B2D2F2D56
:105440000E941744CD58DF4F8881C357D040080FC2
:105450001F5FC653DF4F8881CA5CD040181728F3FE
:10546000FF2009F4A8C0CB58DF4F8881C557D04032
:10547000882309F0A3C09FC0E7E4EE2EE1E0FE2EF2
:10548000EC0EFD1EC7016D2D0E94B142082F8F3F0B
:1054900029F4C7016D2D0E942A43082FC158DF4F00
:1054A0008881CF57D0408230D1F5C55BDE4F8881EF
:1054B000CB54D140081708F081C0C02ECC0CCE01CF
:1054C0006D2D0E940F247C010C2D10E0FE01E00FD9
:1054D000F11FEC53FF4F8081B7014B2D20E00E945C
:1054E00017440F5F1F4FC653DF4F8881CA5CD040FF
:1054F00090E00817190714F000E002C00C2D0F5FB0
:10550000FE01E00FF11DEC53FF4FCD58DF4F8881B6
:10551000C357D040E80EF11C8081B70148C0FE019E
:10552000E55BFE4F843029F510E0808190E0959591
:10553000879508171907BCF4CE016D2D0E940F2422
:10554000FE01E00FF11FEC53FF4FCD58DF4F2881D4
:10555000C357D04030E0029FB001039F700D129FEF
:10556000700D112421C0CE016D2D4B2D0E944F28AE
:1055700022C08081081710F5CE016D2D0E940F24E6
:10558000402F50E0FE01E40FF51FEC53FF4FCD58C4
:10559000DF4F2881C357D04030E0429FB001439F86
:1055A000700D529F700D1124680F791F80814B2D53
:1055B00020E00E941744CE010E947624CDB7DEB7CA
:1055C000E9E00C945977EF92FF920F931F93CF93DA
:1055D000DF93EC01C658DF4F8881E82FF0E0EE0F33
:1055E000FF1FE154F14F85919491C652DF4F2881FE
:1055F0003981C455D14082239323892B11F400E0D3
:1056000001C00FEF10E007C0CE0160E44DE0202F95
:105610000E94A1261F5FC653DF4F8881CA5CD0401D
:10562000181790F3C958DF4F8881C757D040813091
:1056300009F0B9C08FEEE82EF12CEC0EFD1ED7015B
:105640008C91882309F4BFC0002309F4BCC08E01EB
:1056500008581F4FF8018081853011F410E06CC0AC
:10566000FE01ED5AFE4FCE0160810E947928CE01E5
:105670000E94B324C95ADE4F9881C755D140FE011C
:10568000E90FF11DE85EFE4FE081D8018C91833077
:10569000D9F4C95EDE4FE881C751D140D7012C91C2
:1056A0002150291B30E00EC08E2F90E00196FC01A6
:1056B000EE0FFF1FE80FF91FEC0FFD1FE151FF4F29
:1056C000E0813F5F321780F383E0E89FF00111240F
:1056D000E051FF4FEC0FFD1F10814181C85ADE4F92
:1056E0008881C855D1402CE08202C0011124180FD6
:1056F00001C01C5017FDFDCF4F77CE01612F0E94D6
:105700006829CD5ADE4F18834CC0FE01E10FF11D10
:10571000E85EFE4F808190E0FC01EE0FFF1FE80F76
:10572000F91FEC0FFD1FEF50FF4F40814F77CE0167
:1057300062910E9468291F5FC151DF4F8881CF5E4F
:10574000D040181710F3CD5ADE4F8CE329C0CE019C
:1057500060810E94792821C080818F3FF1F010E0A4
:1057600015C0FE01E10FF11DE85EFE4F808190E063
:10577000FC01EE0FFF1FE80FF91FEC0FFD1FE051BA
:10578000FF4FCE0160810E9479281F5FC151DF4F1A
:105790008881CF5ED040181720F3CD5ADE4F8FEFAF
:1057A0008883C355D140FE01EC5AFE4F8081918120
:1057B000880F991F91838083892B89F481E090E081
:1057C000918380830CC0C858DF4F8881C857D04070
:1057D000FE01ED5AFE4F853009F0B9CFBDCFCDB7F0
:1057E000DEB7E6E00C945C77A0E0B0E0EAEFFBE225
:1057F0000C943E77EC01C05BDE4F8881C055D140F0
:105800008F71FE01E80FF11DE058FF4F2081C45851
:10581000DF4F8881CC57D040882329F0CE0160E447
:105820004BE00E94A126CF5ADE4FE881C155D140FE
:10583000F0E07096EF71F070EC0FFD1FE058FF4F35
:105840002081C358DF4F8881CD57D040882329F06D
:10585000CE0160E44CE00E94A126C958DF4F888148
:10586000C757D0408230D1F5C151DF4F8881CF5E1C
:10587000D040882399F1C258DF4F8881CE57D0405D
:10588000882361F1CE5ADE4F8881C255D140880FFE
:10589000805E8F73FE01E80FF11DE058FF4F2191EC
:1058A0003081C95EDE4F8881C751D14090E0FC0154
:1058B000EE0FFF1FE80FF91FEC0FFD1FE051FF4F28
:1058C000E08127FD10C08E010D5A1E4FCE01F80158
:1058D00060810E9479288FEFF8018083FE01E05BF0
:1058E000FE4F20E040C04FE7D42ED3226E2F70E051
:1058F0006C5370402F77620F711D6038710514F082
:105900006FE770E08B0177FF02C000E010E0C02E6F
:1059100023E5E22E21E0F22EEC0EFD1E37FD0DC038
:10592000CE01F70160810E947928FFE7DF22CE01D6
:10593000602F4D2D0E94682910C0F70180818017CB
:1059400061F0FFE7DF22CE01602F4D2D0E94682914
:10595000CE01F70160810E947928CD5ADE4FC882BE
:10596000C355D140BBCF80818F5F8083E45DF04021
:105970009081EC52FF4F891708F010822F5F31960B
:10598000233089F7CDB7DEB7E8E00C945A77EF9271
:10599000FF920F931F93CF93DF93EC01FC01E35130
:1059A000FF4F80818F5F8083C451DF4F9881CC5E31
:1059B000D040891738F01082CE010E94F42BCE011E
:1059C0000E94E32A7E019E0120523F4F8E01055323
:1059D0001F4FD7015D968C918F30B0F5F901808112
:1059E0008F5F80839381891708F01082D7015D96BD
:1059F0008C91E82FF0E0EE0FFF1FEE5EF84FA591BF
:105A0000B491F901808190E0A89FA001A99F500D59
:105A1000B89F500D112460E0F801828193818417B2
:105A2000950708F061E0F801648353834283FE0127
:105A3000E651FF4F60817181CD010E94D076D8017F
:105A40006D937C9311821082E8E0F0E0EE0EFF1E71
:105A50002F5F3F4F095F1F4FCE014896E816F906AA
:105A600009F0B7CFCDB7DEB7E6E00C945C77CF9303
:105A7000DF93DC01805B9E4F23E0EC01822F1992C3
:105A80008A95E9F7CD0180529F4FEC0119922A9532
:105A9000E9F7FD01E351FF4FA451BF4F8C91808383
:105AA000A959BF4F8FEF8D9381E090E011969C93A1
:105AB0008E93AC5DB0408C91A857B040813011F00E
:105AC00081E001C08FEFAA5ABE4F8C93A655B1401A
:105AD000CD010E949324DF91CF910895CF93DF935E
