:10000000D3C111C2F6C1F5C1F4C1F3C1F2C1F1C14E
:10001000F0C109C4EEC1EDC1ECC1EBC1EAC1E9C157
:10002000E8C149C948C947C946C993C9CBC943C9E9
:1000300042C99DC99CC99BC93EC93DC93CC9DDC9CE
:10004000DCC9DBC9DAC9ACCA46CBD7C9D6C9CCCA68
:10005000CBCACACAD2C9D1C9D0C9E5CAE4CA00004C
:100060005500AA0000015501AA0100025502AA028A
:1000700000035503AA0300045504AA04000555050E
:10008000AA0500065506AA0600075507AA07000894
:100090005508AA0800095509AA09000A550AAA0A1A
:1000A000000B550BAA0B000C550CAA0C000D550D9E
:1000B000AA0D000E550EAA0E000F550FAA0F001024
:1000C0005510AA1000115511AA1100125512AA12AA
:1000D00000135513AA1300145514AA14001555152E
:1000E000AA1500165516AA1600175517AA170018B4
:1000F0005518AA1800195519AA19001A551AAA1A3A
:10010000001B551BAA1B001C551CAA1C001D551DBD
:10011000AA1D001E551EAA1E001F551FAA1F002043
:100120005520AA2000215521AA2100225522AA22C9
:1001300000235523AA2300245524AA24002555254D
:10014000AA2500265526AA2600275527AA270028D3
:100150005528AA2800295529AA29002A552AAA2A59
:10016000002B552BAA2B002C552CAA2C002D552DDD
:10017000AA2D002E552EAA2E002F552FAA2F003063
:100180005530AA3000315531AA3100325532AA32E9
:1001900000335533AA3300345534AA34003555356D
:1001A000AA3500365536AA3600375537AA370038F3
:1001B0005538AA3800395539AA39003A553AAA3A79
:1001C000003B553BAA3B003C553CAA3C003D553DFD
:1001D000AA3D003E553EAA3E003F553FAA3F6C084F
:1001E0000000A40700002707000027070000BD0645
:1001F00000001A050000C1080000C10800005405F5
:10020000000093050000D2050000DA080000DA08BB
:100210000000DA0800008C0600008C06000003EDE8
:100220004EEB9DE9EEE743E69BE4F6E254E1B5DFF1
:1002300019DE80DCEADA57D9C7D739D6AFD427D34D
:10024000A2D120D0A1CE24CDAACB33CABFC84DC7DE
:10025000DEC572C408C3A1C13CC0DABE7ABD1DBCF4
:10026000C3BA6BB915B8C2B672B524B4D8B28FB1DF
:1002700048B003AFC1AD81AC43AB07AACEA897A7E6
:1002800063A630A500A4D2A2A6A17CA0559F2F9E54
:100290000C9DEB9BCC9AAF9994987B9764964F9565
:1002A0003C942B931C920E910390FA8EF38DED8C5F
:1002B000EA8BE88AE889EA88EE87F486FB8504857C
:1002C0000F841C832B823B814D80617F767E8D7DE8
:1002D000A67CC07BDC7AFA791A793B785D778176E7
:1002E0001201100100000008C016E405000101021F
:1002F000030109026500020103000F090400000068
:1003000001010000092401000109000101090401A3
:10031000000201030000072401000141000624023D
:100320000101000624020202000924030103010264
:100330000100092403020401010100090501030869
:1003400000010000052501010109058103080001E4
:10035000000005250101030403090428034D00756D
:10036000007400610062006C006500200049006EAE
:100370000073007400720075006D0065006E0074FB
:100380000073000C0343005600700061006C001401
:100390000343005600700061006C00200031002E05
:1003A0000030000025042B0411241FBECFE5D2E04D
:1003B000DEBFCDBF10E0A0E6B0E0E2EEFEE102C09D
:1003C00005900D92A236B107D9F711E0A2E6B0E090
:1003D00001C01D92A133B107E1F713E0C6EAD3E0F3
:1003E00003C02297FE016DDDC43AD107D1F757D281
:1003F000BFCC06CEA82FB92F80E090E041E050EAB4
:10040000609530E009C02D9182279795879510F06F
:1004100084279527305EC8F36F5FA8F30895EADF5D
:100420008D939D930895CF93CFB7CF93DF93C395CB
:10043000C99BE9F7C99B11C0C99B0FC0C99B0DC0DF
:10044000C99B0BC0C99B09C0C99B07C0C99B05C0FC
:10045000C99B03C0C99B01C086C06F93C0911401A2
:10046000DD27C55EDE4F2F9320E400C065E0C99B09
:1004700003C02F916F91DECF0F931F934F9345E5EC
:100480005F9355E53F933BE011E009B303702EC045
:100490006A95C9F03150D8F109B3037001130BC04C
:1004A00008942795299320E4555500F46A9569F737
:1004B00001E069B30BC0102F66E02695299320E474
:1004C000555518F3E2CF0FEF69B30000162F4555CD
:1004D00000F0404066E013700030E2F221F00000CE
:1004E00009B3037003C009B30370A9F0011309C075
:1004F0000894279568F200C06A95A9F700E069B3EF
:10050000E5CF102F66E0269528F20000ECCF10E42E
:100510001ABF00271CC03B503195C31BD04010E4CC
:100520001ABF0881033C21F10B3411F12091120113
:100530001981110F1213EDCF4A81441F093669F159
:100540000D3211F0013E29F74F7009F0042F00938E
:1005500019013F915F914F911F910F912F916F91D1
:10056000CAB7C6FD64CFDF91CF91CFBFCF911895A9
:1005700020911901222369F310911701112381F5AC
:10058000343082F13093170120931301109114013C
:100590003BE0311B3093140125C00091170101305D
:1005A000FCF40AE54F7049F43091600034FD1BC043
:1005B00000936000CBEFD0E01AC03091060134FD0B
:1005C00012C000930601C7E0D1E011C0052710E07A
:1005D00000C00BBB19C0052710E0221F00C01DC0C2
:1005E0004AE502C032ED432FC4E1D0E032E01AB355
:1005F0001360D99A0BB31ABB53E020E869E420FFDB
:1006000005270BBB2795179500C000001C3FF0F68F
:100610006695A8F7A1F720FF05270BBB279517952F
:1006200000001C3FC0F629913A9541F70C7F1091CC
:100630001801110F0BBBC651D04011F010931201DD
:1006400010E41ABF02601AB31C7F402F4C7F55E0A4
:100650005A95F1F70BBB1ABB4BBB7BCFCF92DF9206
:10066000EF92FF920F931F936050724128E1613027
:10067000720714F060E078E177FF02C060E070E09C
:1006800020E003C02F5F605C7040603C7105D4F7D0
:10069000FB01EE0FFF1FE25AFF4FE590F49000E0E0
:1006A00010E0E22FE695E695F0E0DF01AA0FBB1F10
:1006B000A80FB91F1196CD90DC9012973196EE0FCE
:1006C000FF1FE80FF91F618172816C197D0980E0BD
:1006D00090E0237030E040E050E0EEE0220F331F66
:1006E000441F551FEA95D1F72E0D3F1D401F511F86
:1006F00082DBBC0188279927C60ED71EC6011F9131
:100700000F91FF90EF90DF90CF900895A0E0B0E0C0
:10071000EBE8F3E0A7CBFC018081E82EFF2455E055
:10072000EE0CFF1C5A95E1F78F01E701CC24DD2484
:10073000F80161817281CE012BDBF8018181928108
:10074000C80ED91E22960E5F1F4FC7014296C817CA
:10075000D90771F7CE01B6011BDBCDB7DEB7E8E0F4
:100760009DCBA0E0B0E0E6EBF3E078CB5C01FC01D0
:100770006083E62EFF2465E0EE0CFF1C6A95E1F72E
:100780004C01E7018C01CC24DD24CE01FCDAF80118
:1007900092838183C80ED91E22960E5F1F4FC70118
:1007A0004296C817D90789F7CE01EDDA8C159D0559
:1007B00089F080E090E0F401928381838C509E4F19
:1007C00022E030E0820E931E31E18439930799F7DD
:1007D000C5019CDFCDB7DEB7ECE05CCB9FB921E172
:1007E0002DB993E19DB92DB99DB92DB99DB92DB9FB
:1007F0009DB92DB99DB92DB99DB92DB99DB92DB909
:100800009DB98FB92DB99DB92DB99DB92DB99DB996
:100810002DB99DB92DB99DB92DB99DB92DB99DB9E8
:100820002DB99DB908951F920F920FB60F92112402
:100830008F938091F7008F5F8093F7008F910F90D7
:100840000FBE0F901F901895089581E090E06FEF14
:100850007FEFFADF089580E090E06FEF7FEFF4DF45
:1008600008950F931F93D69ADE98D39ADB98D79A60
:10087000DF9AD59AD49A02E610E0C80100D8C801E0
:1008800064D882E080BF84E083BF8DE486BF89B7EF
:10089000826089BF82E18EBD1F910F9108950F93F1
:1008A0001F93DFDF4ED880916200882399F182E6A2
:1008B00090E0B3D40091F0001091F100DF988091A6
:1008C000EE009091EF00906189DFDF9ADF98C80118
:1008D000906984DFDF9A2091F4003091F5002115B2
:1008E000310549F080E88FBD35BD24BD369527958B
:1008F0003BBD2ABD08C01FBC8091F200882311F0C7
:10090000DE9A01C0DE988091F300882311F0DB9A13
:1009100001C0DB988091F700882321F28091F700D5
:1009200081508093F70082E690E034D0BBCFFC0189
:1009300081818B50833068F5683F11F5EC56FF4F8D
:100940008081E459F040882339F4EF57FF4F11823A
:1009500010821292E058F040DF01AC56BF4F9C91DC
:100960009F5F9C9381818B3049F08C3019F49330D8
:1009700080F004C08D3069F4963058F01C920895D0
:100980006A3F39F4EC56FF4F108270971182108243
:1009900012920895DC0111968C911197885086303F
:1009A00098F4FD01EF57FF4F20E0808191813FEFE8
:1009B0008F3F930719F00196918380832F5F3396C1
:1009C000243099F781E08C93FD01EF58FF4F80812F
:1009D000882321F08150808381E08C93FD01EE58C3
:1009E000FF4F8081882321F08150808381E08C93A8
:1009F0000895FC01842F8150843030F4E40FF11D00
:100A0000E859FF4F20830895862F8450873088F05F
:100A1000443479F46350683018F484E790E002C0FD
:100A200083E790E0E80FF91F1082203410F081E096
:100A300080830895DC01FC01E457FF4FA759BF4FA5
:100A40008C91A956B04090E075E0880F991F7A9577
:100A5000E1F791838083FD01E257FF4FA659BF4F15
:100A60008C91AA56B04090E065E0880F991F6A9576
:100A7000E1F791838083FD01E057FF4F90E0A55996
:100A8000BF4F8C91AB56B040803408F091E090831A
:100A9000FD01EF56FF4F90E0A459BF4F8C91803479
:100AA00008F091E090830895DC01FC01E457FF4FCA
:100AB000A058BF4F8C91A058B04090E035E0880F0F
:100AC000991F3A95E1F791838083FD01E257FF4F2B
:100AD000AD57BF4F8C91A358B04090E025E0880FF0
:100AE000991F2A95E1F791838083FD01E057FF4F1D
:100AF00020E0AF57BF4F8D919C911197A158B04006
:100B00008F5F9F4F09F021E02083FD01EF56FF4FDB
:100B100020E0AC57BF4F8D919C918F5F9F4F09F0A4
:100B200021E020830895FC01EF57FF4F80819181E0
:100B3000E158F0400A9718F080E090E002C08FEF93
:100B40009FE0E457FF4F91838083389780819181A4
:100B5000E458F0400A9718F080E090E002C08FEF70
:100B60009FE0E257FF4F91838083EE58F040DF0112
:100B7000A057BF4F20E0E957FF4F80819181E75890
:100B8000F0400A9708F421E02C93DF01AF56BF4FE5
:100B900020E0E657FF4F808191810A9708F421E019
:100BA0002C930895FC01EF57FF4F80819181E1580C
:100BB000F0408F5F9F4F19F480E090E002C08FEF0C
:100BC0009FE0E457FF4F9183808338978081918124
:100BD000E458F0408F5F9F4F19F480E090E002C02E
:100BE0008FEF9FE0E257FF4F91838083EE58F040F4
:100BF000DF01A057BF4F20E0E957FF4F808191816F
:100C0000E758F0408F5F9F4F09F021E02C93DF0100
:100C1000AF56BF4F20E0E657FF4F808191818F5F35
:100C20009F4F09F021E02C930895CF93DF93EC01BF
:100C3000362F2E8940E01BC0A22FB0E0CD0163E02B
:100C400070E0C7D8FE01E80FF91F8181831729F4EE
:100C5000FD013196442371F423C0CD01019663E078
:100C600070E0B7D8FE01E80FF91F422F2081222340
:100C700019F74FC0842F90E0019663E070E0A9D887
:100C8000DE01A80FB91FCF0163E070E0A2D8FE011A
:100C9000E80FF91F80818C933881FE0190E020C01D
:100CA000CF0163E070E095D8FE01E80FF91F808165
:100CB0008E8BF2CF87893196821789F4692F06C00F
:100CC000FE01E40FF51F808D878B6F5F462F50E08C
:100CD000888190E001974817590794F303C09F5FFC
:100CE000931740F330E0C901019663E070E071D8DA
:100CF000FE01E80FF91F1082C90163E070E069D8B6
:100D0000FE01E80FF91F8FEF8183128288818150E5
:100D10008883DF91CF9108950F931F938C01005723
:100D20001F4F81E0F80181938F01808301591040AA
:100D3000F80160A570E07695762F66277795679520
:100D4000C80102968BDC04571F4FF8019183808302
:100D50000C581040F80160A570E07695762F662754
:100D600077956795C801459679DC02571F4FF801C2
:100D7000918380831F910F9108950F931F93CF93B9
:100D8000DF93EC01C258DF4F6881CE57D0408E010F
:100D900000571F4F6F3F19F4F801108224C070E014
:100DA0007695762F662777956795CB59DF4F8881A3
:100DB0009981C556D040A5E095958795AA95E1F70C
:100DC000680F791FCE01029649DCC457DF4F998323
:100DD000888390E06B978881C157D040882309F4BD
:100DE00091E0F8019083C158DF4F6881CF57D04020
:100DF0008E010F561F4F6F3F19F170E07695762FD9
:100E0000662777956795CB59DF4F88819981C556BD
:100E1000D040E5E095958795EA95E1F7680F791F51
:100E2000CE0145961BDCC257DF4F9983888390E043
:100E30006C978881882309F491E0F801908302C0BF
:100E4000F8011082DF91CF911F910F9108950F93B8
:100E50001F93CF93DF93EC0189A58E0100571F4F9D
:100E6000882319F4F80110822DC08FAD90E063E063
:100E700070E0AFD7FE01E80FF91F82A590E09695CC
:100E8000982F882797958795CB59DF4F688179816F
:100E9000C556D04045E0759567954A95E1F7680FCE
:100EA000791FCE010296DADBC457DF4F998388831E
:100EB00090E06B978881C157D040882309F491E076
:100EC000F8019083C95BDF4F8881C754D0408E0101
:100ED0000F561F4F882389F1FE01E35AFF4F80818F
:100EE00090E063E070E075D7FE01E80FF91FE85B62
:100EF000FF4F808190E09695982F8827979587954A
:100F0000C959DF4F68817981C756D04025E0759572
:100F100067952A95E1F7680F791FCE0145969EDB0C
:100F2000C257DF4F9983888390E06C97888188232C
:100F300009F491E0F801908302C0F8011082DF917A
:100F4000CF911F910F9108958F929F92AF92BF9270
:100F5000DF92EF92FF920F931F93CF93DF93EC01F9
:100F600089A551E9E52EF12CEC0EFD1E882309F42C
:100F7000A5C08FAD90E063E070E02BD7FE01E80FD5
:100F8000F91F82A5082F10E01695102F002717953E
:100F90000795CB59DF4F68817981C556D04035E040
:100FA000759567953A95E1F7600F711FCE0102962E
:100FB00055DBC457DF4F99838883CC58D0408FAD21
:100FC00090E063E070E005D7FE01E80FF91F83A50C
:100FD00090E025E0880F991F2A95E1F7C257DF4F6F
:100FE0009983888390E06D978881C157D04088238A
:100FF00009F491E0F7019083CB59DF4F28813981C3
:10100000C556D04085E0359527958A95E1F7200FA4
:10101000311F2050384002C020503A4F37FDFCCFDE
:10102000C90160E076E000D7972FD62E862F60E0CA
:101030007AEFCFD6BC01620F731FCB0196958795CF
:10104000969587959695879596958795662F62953F
:10105000607F880F991FFC01E25EFD4FE590F490E0
:1010600000E010E0FC01E05EFD4F2591349170E05E
:1010700080E090E040E050E047015801821A930A76
:10108000A40AB50AA5019401B6D6672F782F892F37
:101090009927A8019701261B370B480B590BDA013A
:1010A000C90105C0B695A79597958795DA94DD2077
:1010B000C9F7CE56DF4F9983888302C0F7011082AB
:1010C000DF91CF911F910F91FF90EF90DF90BF9034
:1010D000AF909F908F900895CF93DF93EC0189A5F7
:1010E000882309F446C08FAD90E063E070E071D6CC
:1010F000FE01E80FF91F62A570E07695762F66274E
:1011000077956795CB59DF4F88819981C556D04037
:10111000E5E095958795EA95E1F7680F791FCE018F
:1011200002969CDAC457DF4F99838883CC58D0400D
:101130008FAD90E063E070E04CD6FE01E80FF91F40
:1011400083A590E065E0880F991F6A95E1F7C25783
:10115000DF4F9983888390E06D978881C157D04095
:10116000882309F491E0CF56DF4F9883FE019293D4
:1011700005C0CF56DF4F1882FE011292DF91CF914A
:1011800008950F931F938C01A7DFF8018181E80F69
:10119000F11DED59FF4F808190E0A5E0880F991F68
:1011A000AA95E1F702571F4FF801918380831F91A1
:1011B0000F910895CF93DF93EC018EDFC057DF4F7F
:1011C0008881C059D040882319F480E090E002C0A3
:1011D0008FEF9FE0C257DF4F99838883CE58D0406E
:1011E000FE01E057FF4F20E0CF57DF4F8881998104
:1011F000C158D0400A9708F421E02083FE01EF5641
:10120000FF4F20E0CC57DF4F888199810A9708F47F
:1012100021E02083DF91CF910895A4E0B0E0E2E1E6
:10122000F9E024C68C01FC01618170E0660F771F34
:10123000660F771F62527E4FCE01019644E050E068
:1012400099D5F8018181813039F00E561F4FF80190
:1012500011821082025910408B819C8129813A8130
:1012600080FF0EC0FC01F595E795E00FF11F01909E
:10127000F081E02DE20FF31F0190F081E02D01C01D
:10128000F90195958795800F911F0995F8011082B6
:101290002496E4E007C6A0E0B0E0E0E5F9E0DEC5B2
:1012A000EC01862EE62FF0E0EE30F10508F08AC062
:1012B000EF5EFF4F0994EE24FF2423E0621719F438
:1012C00071E0E72EF12CC7016EE170E082D56C0170
:1012D0008E01080F191F6FE3A62EB12CA00EB11EB0
:1012E000F501808190E063E070E073D5FC01EC0DC6
:1012F000FD1DEC0FFD1F92A4C60189968C0F9D1F4A
:10130000642F93DCF80181A5882309F45BC0F50103
:10131000808190E063E070E05CD5F601E80FF91F92
:10132000EC0FFD1F82A5891509F44CC0FE01EE0DDE
:10133000FF1DED58FF4F8081882311F080E001C030
:1013400082E0EC0EFD1E21E730E0E20EF31EF70115
:101350000CC08B589F4F642F30D3823098F5FE011C
:10136000E80FF11DE258FF4F8FEF80832BC044320E
:1013700049F4CF57DF4F8FEF9FEF99838883C15890
:10138000D04020C0463249F4CC57DF4F8FEF9FEF5B
:1013900099838883C458D04015C0483249F4C9574E
:1013A000DF4F8FEF9FEF99838883C758D0400AC0E3
:1013B0004E3241F4C657DF4F8FEF9FEF99838883FA
:1013C000CA58D0408982CDB7DEB7ECE063C5A0E053
:1013D000B0E0ECEEF9E040C56C01762E942E822E42
:1013E000222311F458DF77C1E62FF0E0E031F10558
:1013F00008F071C1E15EFF4F0994AA24BB2423E0E9
:10140000621719F4F1E0AF2EB12CC5016EE170E066
:10141000E0D4EC01A99686010C0F1D1FA997C80105
:10142000692D03DCF601EC0FFD1F81A5863081F4E8
:10143000FE01BD96EC0DFD1D91E060E082818823E8
:1014400009F460819F5F33969730C1F7C801EDDBE7
:10145000C5016EE170E0BDD4FC01BD96EC0DFD1D33
:1014600041E080818F3F29F04F5F33964730C9F7C5
:1014700040E0E42EFF24C701019663E070E0A9D4A8
:10148000FC01C5016EE170E0A4D49C01E80FF91FD6
:10149000EC0DFD1D8601080F191FD801DF968C91F8
:1014A00081A7C70163E070E094D4FC01E20FF31F51
:1014B000EC0DFD1D92A683A64C93F80111A5D90150
:1014C000A05CBF4FAC0DBD1D20E030E02FC0E90196
:1014D0008D9190E063E070E07CD4FC01C5016EE189
:1014E00070E077D4E80FF91FEC0DFD1D82A52F5F8A
:1014F0003F4F9816D8F40EC0C5016EE170E069D474
:10150000F601E80FF91FE10FF11D87ADE05CFF4F19
:1015100080831150011780F3C5016EE170E059D44A
:10152000F601E80FF91FEC0FFD1F0EC0022F211767
:1015300070F2442361F0C5016EE170E04AD4F60117
:10154000E80FF91FE10FF11DE05CFF4F4083C5017B
:101550006EE170E03ED4F601E80FF91F81A58F5FC0
:1015600081A7F1E07F1611F0F50102C0E1E0F0E0A3
:10157000EC0DFD1DE057FF4F8081882309F4ABC0BF
:10158000F601EA0DFB1DED58FF4F8081E357F04057
:10159000882309F0A0C0EF58FF4F82E080839BC0F2
:1015A0008B589F4F642F2DD2282F30E0F601E20F89
:1015B000F31FE057FF4F8081E059F040882359F036
:1015C000ED58FF4F8081E357F040882321F4EF5816
:1015D000FF4F82E08083C20ED31E8EE790E0C80EDC
:1015E000D91EF601908277C0F4E24F1719F481E812
:1015F00090E012C0F6E24F1719F484E890E00CC0B6
:10160000F8E24F1719F487E890E006C0FEE24F17A2
:1016100009F061C08AE890E0C80ED91EF601118277
:101620001082829258C0862F90E00E9763E170E09E
:10163000D0D302963601680E791EEC012396CC0DAC
:10164000DD1D5E01EAE2EE2E00E010E0292D30E023
:10165000C80189962817390791F4F601E0A6888118
:1016600099810197F0E180309F0714F08FEF9FE0A0
:1016700097FF02C080E090E09983888318C0C8017A
:101680008B9628173907B1F4F601E0A6F5018081A1
:1016900091810196F0E180309F0714F08FEF9FE079
:1016A00097FF02C080E090E0F50191838083C30141
:1016B0002DD804C09E1411F4F60190A60A5F1F4FA6
:1016C000229682E090E0A80EB91E94E5E91619F082
:1016D000E6E0EE0EBBCFCDB7DEB7EEE0D9C3CF93D9
:1016E000DF93DC011C920496FC0182E1EF01199268
:1016F0008A95E9F7CD014896FC0186E0EF01199241
:101700008A95E9F756961C925697FD0190E08FEF67
:1017100081839F5F33969730D1F7DF91CF91089502
:101720000F931F938C018996DADFC801895B9F4F65
:10173000D6DF0F571F4F8FEF9FEFF8019183808304
:101740000D5F1F4FF801918380830D5F1F4FF801DC
:10175000918380830D5F1F4FF80191838083055231
:101760001040F801119211928F0111821082035DD5
:101770001F4FF801108201521040F80111928F01A1
:1017800010820A501040F801108212928F010D5FF2
:101790001F4FF801108212921F910F910895A0E03F
:1017A000B0E0E4EDFBE05FC3EC017B01D42E60C050
:1017B000F70110811F7061811F3009F44DC0062FA1
:1017C0000F708981081759F0823019F4033029F419
:1017D00006C0833011F4023011F0CE01A1DF1B30BE
:1017E000D1F01C3028F4183041F01930C9F50BC085
:1017F0001E30C1F01F30A1F52FC0CE01602FF701C0
:10180000428149DD06C0CE01602FF701428123816C
:10181000DEDD098325C0CE01602FF70142812381DF
:10182000E8D8F7CFF7018381282F30E03695322FA3
:101830002227379527958281280F311D033019F40F
:10184000E7E6F0E002C0E5E6F0E0EC0FFD1F205017
:10185000304231832083DDCFCE01F701618167D82B
:10186000FCEFDF0E84E090E0E80EF91E81E0888353
:10187000DD2009F09DCFCDB7DEB7E7E010C3EF92D2
:10188000FF920F931F938C01FC011182BDE7EB2E99
:10189000F12CE80EF91EF70110828B589F4F03D1EF
:1018A00082E0F7018083C801029660E05AD7C80140
:1018B000459661E056D70F571F4F8FEF9FEFF80106
:1018C000918380830D5F1F4FF801918380830D5FAB
:1018D0001F4FF801918380830D5F1F4FF8019183A3
:1018E00080830A58104081E0F80180838CE380A750
:1018F000C80116DF1F910F91FF90EF900895FC0132
:101900008381813041F480EE92E0909316018093C0
:10191000150182E1089582EF92E090931601809381
:10192000150185E608958FEF0895FC01108211825C
:101930001282138214821582168287E0089581E054
:101940000895D0D08091060108959093F900809376
:10195000F800D298DA9880ED97E0E4EFF1E0319763
:10196000F1F70197D1F7D29ADA9AAFD07894089527
:101970009C01462F8091F8009091F900B9010FDF8A
:101980000895CF93DF93EC01DC0123E017968C914F
:101990001797861741F0E22FFF27E7FDF095EC0F30
:1019A000FD1F848321501197CE010497A817B90712
:1019B00069F76C83DF91CF9108951F93DC0118962E
:1019C0004C911897FC0110E00AC0819190E08F774C
:1019D0009070262F30E08217930729F01F5F1417AD
:1019E000A0F31FEF0BC01F3F49F0FD01E10FF11DF8
:1019F00080818F778083CD01612FC3DF812F1F917D
:101A000008951F93CF93DF93EC014885442311F48D
:101A10001FEF3EC0FC0110E00AC0819190E08F777B
:101A20009070262F30E08217930721F01F5F141764
:101A3000A0F302C01F3FA9F4DE019FEF14961C9192
:101A40001497141728F4FE01E10FF11D808187FD22
:101A5000192F1196CE010496A817B90711F0912FEE
:101A6000EDCF1F3F69F4FE0190E08481841708F0F8
:101A7000812F9F5F3196943011F0182FF6CF182FD9
:101A8000FE01E10FF11D60686083CE01612F79DFF7
:101A9000812FDF91CF911F910895FC011082118257
:101AA0001282138208950F931F93182F092FF5DFC9
:101AB000212F302FC901FC0183E0848381503196AE
:101AC0008F3FD9F71F910F91089585B7826085BF29
:101AD0008BB780648BBF8BE4809307018AE580938A
:101AE000060108951F93CF93DF9360911701635010
:101AF00067FDD5C080911401CCE0D0E0C81BD109AE
:101B0000C55EDE4F80911301803118F4CE0130DFC5
:101B1000C4C08D3209F0B1C0683009F0BEC083EC9A
:101B20008093FB008AE5809360001092FA00988110
:101B3000892F807621F0CE01F6DE282F8BC02A81F6
:101B40003C81109204018981882381F49F71923035
:101B500049F4313839F4809106018E3119F481E06D
:101B6000809304011092050122E06DC0813011F0D4
:101B7000833089F4222309F065C0313809F062C04E
:101B8000813011F08EE101C08AE5809306018BE47B
:101B90008093070157C0853019F42093180152C073
:101BA0008630C9F58B81813011F0823021F4CE016D
:101BB000A6DE282F2CC0833049F58A81882341F482
:101BC00087E593E0909316018093150124E01FC0F0
:101BD000813041F48BE593E09093160180931501D9
:101BE00028E215C0823041F483E893E09093160117
:101BF000809315012CE00BC0833041F48FE893E013
:101C0000909316018093150124E101C020E080E447
:101C10008093FA001FC0883021F421E08AE191E02E
:101C200014C0893019F420931A0109C08A3011F4C4
:101C300021E009C08B3031F48BE4809307018AE501
:101C40008093060120E084E091E090931601809358
:101C5000150109C02F3F39F4888187FD2E8180E866
:101C60008093FA0006C08F81882319F48E81821731
:101C700008F0822F8093610010C08091FA0087FFE6
:101C80000CC0CE015CDE8F3F21F48EE180936000BA
:101C900004C0882311F01092610010921701809106
:101CA000600084FF54C0809161008F3F09F44FC0F1
:101CB000182F893008F018E0811B80936100809113
:101CC000FB0098E889278093FB00112371F1809134
:101CD000FA0087FF08C08CEF90E0612F26DE182FF6
:101CE000893078F522C0209115013091160186FFC8
:101CF0000AC0912FF901ACEFB0E084918D93319639
:101D00009150D9F708C0912FD901ECEFF0E08D91F7
:101D100081939150E1F7C90101961150810F911DF6
:101D20001F5F90931601809315018CEF90E0612F57
:101D300076D3612F6C5F6C3041F08FEF8093610040
:101D400004C08FEF809361006EE16093600094E1C6
:101D500089B3837049F49150D9F710921801109209
:101D600012018AE580930601DF91CF911F910895BA
:101D7000F894ABC0FB01DC0102C005900D9241500C
:101D80005040D8F70895A8E1B0E042E050E005C027
:101D900012D0272F11C0DC01CB01FC01E199FECF4D
:101DA00006C0FFBBEEBBE09A31960DB20D924150DA
:101DB0005040B8F70895262FE199FECF1CBA9FBB7B
:101DC0008EBB2DBB0FB6F894E29AE19A0FBE019636
:101DD00008955527002480FF02C0060E571F660F86
:101DE000771F6115710521F096958795009799F7F2
:101DF000952F802D0895FF27EE27BB27AA2760FF88
:101E000004C0A20FB31FE41FF51F220F331F441F8E
:101E1000551F969587957795679589F7009776076B
:101E200071F7CF01BD010895AA1BBB1B51E107C08B
:101E3000AA1FBB1FA617B70710F0A61BB70B881F5A
:101E4000991F5A95A9F780959095BC01CD010895E9
:101E50002F923F924F925F926F927F928F929F92BA
:101E6000AF92BF92CF92DF92EF92FF920F931F93A8
:101E7000CF93DF93CDB7DEB7CA1BDB0B0FB6F89459
:101E8000DEBF0FBECDBF09942A88398848885F8499
:101E90006E847D848C849B84AA84B984C884DF800A
:101EA000EE80FD800C811B81AA81B981CE0FD11DEE
:101EB0000FB6F894DEBF0FBECDBFED010895EE0F53
:101EC000FF1F0590F491E02D099413E0C6EAD3E0DA
:101ED00003C0FE01F6DF2296C83AD107D1F7F89485
:021EE000FFCF32
:021EE2005AFFA5
:00000001FF
