:100000000C9423110C944B110C944B110C944B1128
:100010000C944B110C944B110C944B110C944B11F0
:100020000C944B110C944B110C944B110C945117D4
:100030000C94B9160C944B110C944B110C943F1763
:100040000C944B110C944B110C940F1A0C944B11F3
:100050000C944B110C944B110C944B110C944B11B0
:100060000C944B110C944B110C944B110C944B11A0
:100070000C944B110C944B110C944B110800000084
:10008000BE922449123EABAAAA2ABECDCCCC4C3E8D
:1000900000000080BEABAAAAAA3E00000000BF007C
:1000A0000000803F0000000000084178D3BB438778
:1000B000D1133D190E3CC3BD4282AD2B3E68EC828C
:1000C00076BED98FE1A93E4C80EFFFBE01C4FF7F11
:1000D0003F00000000006E616E00696E6600000067
:1000E00028F000010E0003010212000702030A00BB
:1000F0000103041A0009040512000702062C00027D
:10010000030824000705091A0009040A410005072D
:100110000B2F0004030C340003060D010069080EC8
:100120002C0002090F4700030320000002004000DA
:1001300000050041000001002043432320444423E4
:100140002045204646232047472320414123204283
:10015000002D303132333435363738390001040858
:1001600018761F7C1F831F891F8E1F951F9A1FA043
:100170001FA61FAC1FB31FB71FBA1FBF1FC41FCBC3
:100180001FD21FD91FE11FE51FE91FED1FF21FF549
:100190001FF91FFD1FED1F012006200B2011201746
:1001A000201D202020232026202A2033203A2042F0
:1001B000204A204F2058206120B31FBF1F6A20B360
:1001C0001FBA1F72207B2084208D2033202A204AD2
:1001D00020912096209B20A020A620AC20B220B900
:1001E00020C020C720CB20CF20D320D720DB20B3B6
:1001F0001FBA1FBF1FB71F03000F001F002B0037C0
:1002000000470053005F006F000C000D000E000F50
:100210000010001100120013001400150016001742
:1002200000180019001A001B001C001D001E001FF2
:1002300000200021002200230024002500260027A2
:1002400000280029002A002B002C002D002E002F52
:100250000030003100320033003400350036003702
:1002600000380039003A003B003C003D003E003FB2
:100270000040004100420043004400450046004762
:1002800000480049004A004B004C004D004E004F12
:1002900000500051005200530054005500560057C2
:1002A00000580059005A005B005C005D005E005F72
:1002B0000060006100620063006400650066006722
:1002C00000680069006A006B006C00FF0FBF0F80C0
:1002D0000F420F040FC80E8C0E510E160EDC0DA32C
:1002E0000D6B0D330DFC0CC60C900C5B0C260CF347
:1002F0000BC00B8D0B5B0B2A0BFA0ACA0A9A0A6C0D
:100300000A3E0A100AE309B7098B09600935090B8F
:1003100009E208B9089108690842081B08F507CFE7
:1003200007AA07850761073E071B07F806D606B42C
:100330000693067306530633061406F505D705B96A
:10034000059C057F05620546052A050F05F404DABC
:1003500004C004A7048D0475045C0444042D041631
:1003600004FF03E803D203BD03A70392037E0369DE
:1003700003560342032F031C030903F702E502D3CC
:1003800002C202B102A10290028002700261025216
:100390000243023402260218020A02FC01EF01E2C3
:1003A00001D501C901BD01B101A50199018E0183EA
:1003B0000178016E01630159014F0146013C01338F
:1003C000012A012101180110010801FF00F800F0C5
:1003D00000E800E100DA00D300CC00C500BF00B89F
:1003E00000B200AC00A600A1009B00960090008B1C
:1003F00000860081007C00780073006F006B00674E
:100400000063005F005B005700540050004D004A3D
:10041000004700440041003E003B003900360034F4
:100420000031002F002D002B00290027002500237C
:100430000021001F001E001C001B001900180016E0
:1004400000150014001300120011000F000F000E21
:10045000000D000C000B000A000A0009000800084B
:100460000007000600060005000500050004000462
:10047000000300030003000200020002000200016A
:100480000001000100010001000100000000000067
:10049000000000000000000000000000000000005C
:1004A000000000000000000000000000000000004C
:1004B000000000000000000000000000000000003C
:1004C0000000000000000000000000000009001310
:1004D0000031006200000000000000000000000089
:1004E0000000000000CC0C9919333300801800067E
:1004F0000003000100FF7F2383468669898A8CAA56
:100500008FC692E095F7980A9C189F22A226A525EF
:10051000A81DAB0FAEFAB0DDB3B8B68BB955BC159C
:10052000BFCCC179C41BC7B2C93ECCBECE32D199B3
:10053000D3F3D541D880DAB2DCD5DEEAE0F0E2E6EA
:10054000E4CDE6A4E86BEA22ECC8ED5DEFE0F05301
:10055000F2B4F302F53FF66AF782F888F97BFA5BAA
:10056000FB28FCE1FC88FD1BFE9BFE07FF60FFA54E
:10057000FFD6FFF4FFFEFFF4FFD6FFA5FF60FF07E5
:10058000FF9BFE1BFE88FDE1FC28FC5BFB7BFA88E1
:10059000F982F86AF73FF602F5B4F353F2E0F05D42
:1005A000EFC8ED22EC6BEAA4E8CDE6E6E4F0E2EA7F
:1005B000E0D5DEB2DC80DA41D8F3D599D332D1BEB2
:1005C000CE3ECCB2C91BC779C4CCC115BF55BC8BBC
:1005D000B9B8B6DDB3FAB00FAE1DAB25A826A5227B
:1005E000A2189F0A9CF798E095C692AA8F8A8C69F8
:1005F0008946862383FF7FDA7CB7799476737353B9
:1006000070376D1D6A0667F363E560DB5DD75AD806
:1006100057E054EE51034F204C45497246A843E839
:1006200040313E843BE2384B36BF333F31CB2E6402
:100630002C0A2ABC277D254B232821131F0D1D17AB
:100640001B301959179215DB133512A0101D0FAA74
:100650000D490CFB0ABE0993087B0775068205A2AB
:1006600004D5031C037502E2016201F6009D0058E7
:10067000002700090000000900270058009D00F62F
:10068000006201E20175021C03D503A20482057514
:10069000067B079308BE09FB0A490CAA0D1D0FA093
:1006A000103512DB13921559173019171B0D1D1336
:1006B0001F28214B237D25BC270A2A642CCB2E3FE3
:1006C00031BF334B36E238843B313EE840A84372B9
:1006D000464549204C034FEE51E054D857D75ADBDA
:1006E0005DE560F36306671D6A376D53707373943D
:1006F00076B779DA7CFE7FF701CB02CD04DD04ED1D
:1007000004F504CEA62300F98A2400256F250050A5
:100710005326007C372700A71B2800D3FF2800FFA3
:10072000E329002AC82A0056AC2B0081902C00AD8A
:10073000742D00D8582E00043D2F002F2130005B6F
:1007400005310087E93100B2CD3200DEB133000956
:10075000963400357A3500605E36008C423700B73B
:10076000263800E30A39000FEF39003AD33A006621
:10077000B73B00919B3C00BD7F3D00E8633E001409
:10078000483F003F2C40006B10410097F44100C2ED
:10079000D84200EEBC430019A144004585450070D5
:1007A0006946009C4D4700C7314800F31549001FBA
:1007B000FA49004ADE4A0076C24B00A1A64C00CDA1
:1007C0008A4D00F86E4E0024534F004F3750007B87
:1007D0001B5100A7FF5100D2E35200FEC75300296E
:1007E000AC54005590550080745600AC585700D753
:1007F0003C5800032159002F055A005AE95A008637
:10080000CD5B00B1B15C00DD955D00087A5E00341F
:100810005E5F005F4260008B266100B70A6200E203
:10082000EE62000ED3630039B76400659B650090EB
:100830007F6600BC636700E7476800132C69003FD0
:10084000106A006AF46A0096D86B00C1BC6C00EDB7
:10085000A06D0018856E0044696F006F4D70009B9D
:10086000317100C7157200F2F972001EDE73004983
:10087000C2740075A67500A08A7600CC6E7700F76A
:10088000527800233779004F1B7A007AFF7A00A64E
:10089000E37B00D1C77C00FDAB7D0028907E005437
:1008A000747F007F588000AB3C8100D7208200021B
:1008B0000583002EE9830059CD840085B18500B001
:1008C000958600DC798700075E8800334289005FE7
:1008D000268A008A0A8B00B6EE8B00E1D28C000DCE
:1008E000B78D00389B8E00647F8F008F639000BBB4
:1008F000479100E72B9200121093003EF493006999
:10090000D8940095BC9500C0A09600EC8497001781
:10091000699800434D99006F319A009A159B00C663
:10092000F99B00F1DD9C001DC29D0048A69E00744D
:100930008A9F009F6EA000CB52A100F736A2002232
:100940001BA3004EFFA30079E3A400A5C7A500D018
:10095000ABA600FC8FA7002774A8005358A9007FFE
:100960003CAA00AA20AB00D604AC0001E9AC002DE3
:10097000CDAD0058B1AE008495AF00AF79B000DBCB
:100980005DB1000742B2003226B3005E0AB40089AE
:10099000EEB400B5D2B500E0B6B6000C9BB7003798
:1009A0007FB8006363B9008F47BA00BA2BBB00E67B
:1009B0000FBC0011F4BC003DD8BD0068BCBE009463
:1009C000A0BF00BF84C000EB68C100174DC2004249
:1009D00031C3006E15C40099F9C400C5DDC500F02F
:1009E000C1C6001CA6C700478AC800736EC9009F15
:1009F00052CA00CA36CB00F61ACC0021FFCC004DFB
:100A0000E3CD0078C7CE00A4ABCF00CF8FD000FBE2
:100A100073D1002758D200523CD3007E20D400A9C5
:100A200004D500D5E8D5009A779C02CD3B4E0185D0
:100A3000B18500C2D84200616C21008D5E0D004678
:100A4000AF0600A35703004156010020AB00009AF7
:100A5000779C02CD3B4E0185B18500C2D842006132
:100A60006C21008D5E0D0046AF0600A357030041C8
:100A700056010020AB00009055000030B610006118
:100A80006C2100F38E5300E61DA700CD3B4E018183
:100A9000954303022B870604560E0D0AD7A3208622
:100AA000531B007FF31C0035AC1E00207F2000CEBE
:100AB0006D2200E77924002AA5260071F12800B3F1
:100AC000602B0005F52D009BB03000CA9533000C5B
:100AD000A73600FFE639006B583D0041FE40009DFF
:100AE000DB4400CFF34800544A4D00E3E251006775
:100AF000C156000BEA5B0036616100952B67001858
:100B00004E6D00FFCD7300D7B07A0082FC81003BB0
:100B1000B789009EE79100A9949A00C6C5A300CFAB
:100B200082AD0017D4B7006DC2C2002A57CE003183
:100B30009CDA00FF9BE700AF61F50004F903017741
:100B40006E13013CCF2301522935018C8B47019F45
:100B5000055B012EA86F01DB84850154AE9C016307
:100B600038B501FF37CF015EC3EA0109F20702EF92
:100B7000DC2602799E4702A5526A0219178F023EAF
:100B80000BB6025D50DF02B7090B03A95C3903C73E
:100B9000706A03FF6F9E03BD86D50313E40F04DE66
:100BA000B94D04F33C8F044BA5D404322E1E057CB2
:100BB000166C05BAA0BE056F13160653B972068FE0
:100BC000E1D406FEDF3C077A0DAB0726C81F08BC40
:100BD000739B08E6791E09964AA909645C3C0AF9E8
:100BE0002CD80A74417D0BDF262C0CA772E50C1E55
:100BF000C3A90DFCBF790EF51A560F4C903F107922
:100C0000E73611CDF33C122C955213C9B87814F382
:100C100059B015E882FA16BE4D58184FE5CA193C6E
:100C200086531B0307270A4F0A7B0A04041F040488
:100C3000001F00000004040E1F1F00000008150222
:100C4000000000010101030300120C00191B060241
:100C50000404080010080402010000040004000459
:100C6000000400020202030203030405040705094D
:100C7000070A0B0B0D0D111012151517191B1C204F
:100C80001F242427292B2E30333537393E3F414648
:100C9000464B4C515255595C5E6164686B6D707483
:100CA000777A7C818287898C9093949A9B9EA3A368
:100CB000A9A9AEB1B2B6B9BBBFC0C3C7C8CBCDD16D
:100CC000D2D4D8D8DCDDDFE2E3E6E6E9EBEBEFEE09
:100CD000F1F2F3F5F5F6F9F7FBF9FCFBFCFDFDFD90
:100CE000FEFEFEFDFFFEFDFDFEFCFDFBFBFAFAF83D
:100CF000F8F6F6F5F2F3F0EFEEECEAE9E7E6E2E219
:100D0000E0DDDBD9D7D4D3D0CECAC9C6C4C0BEBCFF
:100D1000B8B6B3B1ADAAA8A4A29E9C9995938F8DA5
:100D2000888783807D7A7674716D6A6865605F5CA0
:100D3000585553504D4A4745423F3D393835323179
:100D40002D2B2A262523201F1D1A1A1616141310C0
:100D5000100D0E0B0A0A0808060605040502040217
:100D60000202030106050606050606050606060537
:100D70000605060606050507050606050605070518
:100D80000507040705060605060606050507050509
:100D900007050605070407050605070407050605F8
:100DA0000706020BF5FEFAF8FCFAFAFBFAFAFAFB70
:100DB000F9FBFBFAF9FCF9FBFAFAFBFAFAFAFBFA8F
:100DC000FAFBFAFAFAFBFAFAFAFBFAFAFBFAFAFA7F
:100DD000FBFAFAFAFBFAFAFBFAFAFAFBFAFAFAFB6E
:100DE000FAFBF9FBFAFBF9FBFBF9FBFAFAFBFAFA5F
:100DF000FAFBFAFAFBFAFAFAFBFAFAFAFBFAFAFB4E
:100E0000FAFAFAFBFAFAFBF9FBFBF9FBFAFBF9FB3E
:100E1000FBF9FBFAFAFBFAFAFAFBFAFAFBF9FBFC2C
:100E2000F7FCFDF30D020607050506060507050597
:100E30000607040606060506060506060506060557
:100E40000606060505070506050606060506050647
:100E50000606050606050606050605070505070537
:100E600005070506050A0B0A0A0A0B0A0A0A0B0BF4
:100E7000090A0B0A0B0A0A0A0B090B0B0A090C09CF
:100E80000B0A0B090B0A0A0B0A0B090B0A0A0B0ABD
:100E90000A0B0A090C0A090B0C080A0D080A0C0AAD
:100EA000070F0A0219E8FDF5F2F8F7F3F7F7F3F781
:100EB000F6F5F5F7F5F5F6F7F4F6F6F5F6F6F5F6D8
:100EC000F6F5F6F6F5F5F7F5F5F7F5F5F7F5F5F6C8
:100ED000F6F5F6F6F6F4F7F5F6F6F5F6F5F6F6F5B8
:100EE000F6F6F5F6F5F6F6F6F5F5F7F5F5F7F4F7A7
:100EF000F5F6F5F6F6F5F6F6F5F6F6F5F5F7F5F599
:100F0000F7F5F5F7F5F5F6F6F5F6F6F5F6F6F5F686
:100F1000F6F5F5F7F5F5F7F5F5F7F5F5F6F7F3F777
:100F2000F7F3F5FEE719020A0F070A0C090A0C0984
:100F30000A0B0B090A0C090A0B0A0A0B0A0A0B090D
:100F40000B0B090B0A0B090B0B090B0A0A0B0A0AFC
:100F50000A0B0A0A0B0A0A0A0B0A0A0B0A090C0AEC
:100F6000090C090B0A0A08070807080708080708F8
:100F700008060907080708070808070807080709F7
:100F800006090609060907080708070906080807E9
:100F90000808070709060A040B050A050B030C03DA
:100FA0000D020D020E01FEF3FEF3FEF2FEF4FCF55F
:100FB000FCF5FBF6FAF7FAF7F9F8F9F8F8F9F7FAA9
:100FC000F8F8F8F9F8F9F7FAF7FAF6FBF6FAF7FA9B
:100FD000F7F9F8F8F9F8F9F8F8F9F8F8F9F8F9F78D
:100FE000FAF7F9F8F9F7FAF7F9F9F7FAF7F9F8F97A
:100FF000F7FAF7F9F8F9F8F8F9F8F8F9F8F9F8F86C
:10100000F9F7FAF7F9F8F9F8F9F7FAF7F9F8F9F75B
:10101000FAF8F7FAF7FAF6FBF6FBF5FCF5FCF4FD47
:10102000F3FEF3FEF3FD030C030D020D020D030BA3
:10103000050A050A050A0609060907070808070838
:101040000806090708070807090609060906090727
:101050000807080708080708070807090609060916
:101060000609070807080717161516171715161586
:10107000181715161518171515161718151515190B
:1010800017141615191714151619171316161917FC
:101090001315171A151414181A1612131A1C150EF4
:1010A000141D210F031454ACEBFEF0E0E1EDF1EB65
:1010B000E5E5ECEFE9E7E7EBEEE8E8E8EBECEAE79B
:1010C000E8ECEBEAE7E9EBEBEAE7EAEAECE8E9E986
:1010D000EBEBE8E9E9ECEAE8E9EAEBEAE9E8EAEB74
:1010E000EBE7EAE9ECE9E9E9EAEBE9EAE8EAEBEA65
:1010F000E8E9EBEAEBE7E9EBEBEAE7EAEAEBEAE857
:10110000E8ECEBE9E7EAEBEBE9E8E9ECEAEAE6EA46
:10111000ECECE7E8E9ECEDE7E5EBEEECE5E5EBF22E
:10112000ECE1E0F1FDECAA551502101F1F130E169D
:101130001B191511161A1913141619171514161947
:10114000171415161916151516191615141817173C
:10115000141518171616141718161515181715162E
:101160001517181516151717121314161818181620
:101170001614121212141417181917171512121226
:10118000121316181919181613121110121418190F
:101190001B1A1816110E0F0D13161B1E201E1810E9
:1011A00009040108152E496F91B6D4E9F8FFFCF740
:1011B000F0E7E2E1E1E5E9EFF1F2F1EEEBE8E6E597
:1011C000E6E8EDEDEFF0EEECEAE8E7E7E7EBECEE72
:1011D000EEEFECECE9E8E7E8E9EBEDEDEFEDECEB59
:1011E000E8E9E7E8EBEBECEFEEECECEAE9E7E8E95D
:1011F000EAEDEDEEEDEEEAE9E9E6E9E9EBEDEEEF39
:10120000EDEDE9E9E7E6E9E9ECEFEFF0EDECE9E532
:10121000E6E6E7EBEEF2F2F0EFEAE5E1E0E2E8EF36
:10122000F7FDFEF9E9D3B6926E4A2D1607020309BF
:1012300011181D211D1C1611100C10111519191C47
:1012400018181511111111131718181A171614124E
:101250001112131516181818181413131113131646
:101260001717191717131411131E1D1C1D1A1918FF
:10127000161412120F0F0D0D0C0C0D0E0E0F121472
:1012800014171A1B1C1E211F21221F201E1C1A1797
:1012900015110E0C0905050301010404080B1116B4
:1012A0002027303B47525F6C798794A0AEB9C5CFF9
:1012B000D9E1E8F0F3F9FBFEFDFEFEFBFAF7F4F2EC
:1012C000EEEBE9E6E3E2E1DEE0DFDFE0E2E3E5E6E4
:1012D000E9EAEEEDF1F1F2F3F4F3F3F3F1F0EFED0F
:1012E000ECE9E9E6E5E5E2E3E2E2E2E4E3E6E6E9A9
:1012F000E9ECEDEEF1F1F3F3F3F3F4F2F1F0EFECEE
:10130000EBE9E6E5E3E2DFE0DFDFE0E0E1E4E6E9A8
:10131000EBEEF1F5F7FAFBFEFDFFFDFAFAF3EFE96C
:10132000E1D9CFC5B9AEA094867A6C5E54453C3005
:10133000271F17110B0804030202020406090C0DF3
:101340001215171A1C1E1F2120221F211D1D1C18DB
:1013500018141411100E0E0D0B0E0B0F0D10121190
:10136000151618191A1C1D1E1C1F424444444748D8
:1013700047494A4B4C4D4E4F4F5251535355565679
:1013800058585A5A5C5C5E5E5F606262636465676F
:101390006669686A6C6B6D6E6E7170727274757668
:1013A000757978797B7B7C7E7E7F81818184858461
:1013B000868788898A8B8C8D8D8F90909293939558
:1013C00096969799999A9C9C9E9E9FA0A1A2A4A351
:1013D000A6A5A8A7A9AAABACACAFADB1B0B2B3B249
:1013E000B6B5B6B8B8BABABBBCBEBDC1BFC1C2C340
:1013F000C5C4C6C7C8C9CACACCCDCECED0D0D2D338
:10140000D3D4D6D7D6D9DAD9DCDCDDDFDEE1E0E330
:10141000E3E3E6E5E7E9E7EBEAECEDEEEEEFF1F228
:10142000F2F3F6F4F6F9F7F8FFF40C0007090709F0
:101430000A0C0B0E0D0F1012101414141617171996
:10144000191B1C1C1D1F201F22232225252628278F
:101450002A292C2B2E2D302F313232353435383786
:10146000383A3B3B3C3E3E40404142454448474879
:101470004A4A4B4C4D4E4E51515054535555565768
:101480005959595C5C5C5E5F606061636463666669
:10149000676869696C6B6D6E6D717071727473766B
:1014A000757877797A7A7C7C7E7E7F81818184846D
:1014B00084868788888A8A8B8D8D8E908F9192936F
:1014C000949496969899989B9B9C9E9D9FA0A1A171
:1014D000A4A2A5A6A6A7A9A8ABABACACAEB0AEB172
:1014E000B2B3B2B6B4B6B8B8B8BBBABCBDBEBDC173
:1014F000C0C1C3C2C5C5C6C7C8C9C9CBCBCECCCF76
:10150000CFD1D0D3D3D4D5D5D7D8D9D9DBDBDCDE76
:10151000DEDEE1E2E1E2E5E5E4E8E8E7EAEAEBED78
:10152000EEEBF1F1EEF3F5F0F4FEE817020C0E0B22
:101530000E100E101312121615151719181A1B1C5F
:101540001C1E1E1F212122242325272628282B2963
:101550002D2C2D2E302F3232333336353737393963
:101560003B3B3D3C3F3E414141434444434545466E
:101570004848494A4B4C4D4E4F5051505552555585
:10158000585659585C5A5D5D5D6060606362646581
:1015900065676769696B6B6D6C6F6F70707373747F
:1015A00075757778787A7A7C7D7C7F7F818083837C
:1015B0008484878787898A8A8C8D8D8E9090929279
:1015C000929694969799979B9B9B9D9E9EA0A1A077
:1015D000A3A4A4A4A8A6A8A9ABAAACADADB0AFB073
:1015E000B3B1B4B5B5B6B8B7BABABBBCBDBEBEC16F
:1015F000C0C2C3C3C4C7C5C9C7CAC9CCCDCCCECF6E
:10160000D1D0D2D2D5D4D6D6D8D8DADADCDBDEDE69
:10161000E0DFE1E2E3E5E3E7E6E8E8EBE9EDEAF065
:10162000ECF2EDF4EFF7F0F9F1FCF3FD030C030F2E
:101630000610081209140D140F1612161518171992
:101640001A1A1C1D1D1E202022222324262528278D
:10165000292A2B2B2E2D2E30313132343436353889
:10166000373A3A3B3B3D3E3F3F424044424A4B4B78
:101670004D4F4E4F4F525352535456565757585B37
:101680005A5B5B5D5F5E5F5F626263636465676751
:1016900068676A6A6D6A6D6D706F7070727473746A
:1016A00074787678787A7A7B7D7B7E7F807F818183
:1016B0008484848486888888888C8B8B8E8C8F9099
:1016C0009090929394949595989898999A9C9D9BB4
:1016D0009E9DA1A1A0A0A4A4A5A4A5A8A8A8AAA9CC
:1016E000ABADADADAEAFB1B2B0B2B4B6B4B6B6B8E4
:1016F000BAB9B9BBBCBEBEBCC0C0C3C0C2C4C5C5FC
:10170000C6C6C7CACACAC9CCCFCDCECDD2D2D2D115
:10171000D2D6D7D5D5D7DADBDAD8DCDEE1DCDCE02F
:10172000E4E6DEDFE5ECE9E0DDEFFDEDAB541400CF
:1017300012222016131A22201B1A1F2522202023D2
:1017400029252426272C2A282A2C302D2D2E3232EA
:1017500031323335373536373A3B393A3C3D403D07
:101760003E40434241444446474548494A4A464828
:1017700048494D4E4F515152505251515454575760
:101780005B5B5C5A5D5B5B5D5D6061626565666568
:1017900067656668676B6B6D6E716F717070717184
:1017A00073747678797A7B7A7A7C7A7C7D80808291
:1017B000838585858486858787898C8C8F8E8F909D
:1017C0008F8F90919393959899989B99999B999CB9
:1017D0009C9F9FA3A3A4A3A5A4A3A5A5A8A8ACABC5
:1017E000AFAEAEAFAEAEAEB1B0B5B5B7B8BAB8BACF
:1017F000B7B9B8BABDBDC1C1C4C4C3C3C3C1C4C3F2
:10180000C6CACACECECFCDCECCCBCDCED0D4D6D9F3
:10181000DBD9D9D6D6D4D5D8DADFE3E6E7E7E3DFFC
:10182000DDD9DADFE4EFF6FCFFF8E9D3B4926D4CD2
:101830002D1508020209111B21262524201C191828
:10184000191D2025292A2B2A2926272427292C2F30
:1018500031343334323132303334363A3B3D3D3E2D
:101860003C3C3B3D3D3F424346474648464747494F
:1018700049494848484748484849494B4C4D5051C8
:10188000525657595B5D5E5F626262636563646472
:1018900064646464646465666667686B6B6D7070CD
:1018A00073757679787C7C7D7F7E7F7F8080807F7A
:1018B00080807F8181818382858688888B8D8E91CF
:1018C00091959597989A999B9B9B9C9B9C9B9C9B85
:1018D0009C9C9B9D9E9EA0A1A3A4A7A8AAADAEB1CF
:1018E000B1B3B6B5B7B7B8B7B9B7B7B8B7B5B8B594
:1018F000B7B7B8B8BBBABFBEC3C3C6CACBCECFD2C8
:10190000D3D4D6D5D6D6D4D5D3D2D2CFCECFCECEB1
:10191000CDD0D0D4D5D8DDDFE6E8EDF2F5F9FAFE8A
:10192000FEFEFCF9F6EFE9DFD7CBBEB3A4968778CD
:101930006A5B4E4034292017100A06030202010593
:10194000070A0D14151C1F2327292E2E3032313281
:101950003131302E2D2C2C2A2A2A292A2C2C2D31BB
:10196000313437393B3E40424446464848494A486C
:10197000030506090B0C0F10121517171B1C1E2050
:10198000222426282A2B2E3031343538393B3E3F4D
:1019900041434548484B4D4F51525557585A5E5D4B
:1019A00061626565696A6C6E6F737475787A7B7E47
:1019B0007F828484888A8A8E8F90949597989B9E44
:1019C0009DA2A2A4A7A9AAACAEB1B2B4B6B8BABC43
:1019D000BEC0C1C4C6C8C9CBCECFD2D3D5D8D9DA40
:1019E000DEDFE0E4E4E8E7ECECEFF0F3F4F7F8FA3C
:1019F000FEFDF9F9F6F4F2F1EEECEBE9E6E4E3E1F1
:101A0000DEDDDADAD6D5D3D1CFCDCBC9C7C5C3C2D7
:101A1000BFBDBBBAB7B6B3B2AFADADA9A8A5A4A2BE
:101A2000A09E9C9A97979492908E8C8B88868582A4
:101A3000817E7C7B79767573716E6D6B696666638A
:101A400060605D5B5958555351504D4C4947474272
:101A5000433F3E3B3B373634322F2F2C2A28272357
:101A600023201E1C1B19161413100F0D0B0807043E
:101A700004030407090A0C0F10121516181A1C1F6C
:101A80001F22242529292C2D30313436363A3C3C6E
:101A90004041434448494B4C4F51535457595A5C69
:101AA0005F60626565696A6C6F6F717576777A7C65
:101AB0007D8081848588898B8D9090949597989C62
:101AC0009C9FA1A2A6A5AAA9AEADB1B2B5B5B9BA5F
:101AD000BCBEBFC3C4C5C8CACBCFCED2D4D5D7DA5B
:101AE000DBDDDFE2E2E6E6EAEAEDEFF1F2F5F6F958
:101AF000FBFDFDFAF9F5F5F2F1EEECEBE9E6E5E2D6
:101B0000E1DFDCDBD9D7D5D3D0D0CCCCC9C7C5C3B6
:101B1000C2BFBDBBBAB7B6B3B2AFAEACA9A8A5A59C
:101B2000A1A09E9C9A97979492908E8D8989868584
:101B300082807F7C7B78777572716F6C6B6967656B
:101B400063615E5E5B59575652524F4E4A4B464652
:101B50004441403E3B3939353432302D2D29292638
:101B60002323201E1C1B18161512100F0C0B090620
:101B70000502030507090A0E0E10131516191A1C83
:101B80001F20222426282A2B2F2F32343538393C87
:101B90003D3F42434547494B4D4E52525557585B86
:101BA0005C5F60636367686A6C6E70727377777A84
:101BB0007B7E7F82838588898B8D8F919395969A82
:101BC0009A9CA0A0A2A5A6A8ABACAEB0B2B4B6B881
:101BD000B9BDBDC0C1C4C5C8C9CCCCD0D1D3D5D77F
:101BE000DAD9DEDFE0E2E6E6E8EBECEEF1F2F4F67D
:101BF000F8FBFDFCFAF8F6F5F1F1EEEDEAE8E7E4C2
:101C0000E2E1DFDCDCD7D8D4D3D1CFCDCBC8C8C597
:101C1000C4C0BFBEBBBAB7B5B4B1B0ADACA9A9A57D
:101C2000A4A1A19D9D9998979393908E8C8A898663
:101C30008582817E7D7A79777473716F6D6A6A6748
:101C40006464615F5D5C5858565351504D4C49492E
:101C5000444541403E3C3A37373431312E2D292915
:101C6000262423201F1C1B19161414100F0D0A0AFA
:101C7000060602020405070A0B0E0E1312161719A8
:101C80001B1E1E22232428292B2C303034343738B5
:101C90003C3C3F40434546494A4D4E515255555AAA
:101CA000595D5E60636367686A6C6E7072747678A3
:101CB000797D7D80828485888A8B8E8F929495979A
:101CC0009A9B9E9FA1A4A5A7AAAAAEAFB1B3B5B790
:101CD000B9BBBDBFC1C3C4C8C8CBCCD0D0D2D6D687
:101CE000D8DBDCDFE1E2E4E6E9EBEBEFF0F2F5F67E
:101CF000F7FBFCFFFCFCF9F6F5F3F2EEEEEAE9E89F
:101D0000E5E3E1DFDDDCD9D7D5D4D1D0CCCCCAC76F
:101D1000C6C3C1C0BDBDB8B8B6B4B1B0ADADA9A859
:101D2000A5A5A1A09E9C9A97979491918E8B8B8844
:101D30008684837F7F7C7A79767472716E6D6A692E
:101D4000656662605F5D5A58585452524E4D4A4A19
:101D5000464542423E3E3A39383433312F2E2A2A04
:101D600026262321201C1C1918141510100D0C09EF
:101D70000805030202030305070A0B0E10131416CD
:101D800018191D1C21212426282A2C2E30323336E6
:101D9000383A3B3F3F434445484B4A4F4F535356D5
:101DA000585B5B5E60616565686A6C6E70727475C5
:101DB00079797C7E8082848688898D8E8F929496B4
:101DC00098999D9EA0A2A3A7A7AAACAEB0B2B4B6A4
:101DD000B8B9BDBEBFC2C4C6C8CACCCFCFD2D4D694
:101DE000D7DADCDFDFE2E5E6E8E9EDECF0F2F5F585
:101DF000FAFAFDFCFFFEFCFBFAF6F5F1F1EEEBEB77
:101E0000E7E8E3E4DFDFDDD9D8D7D3D3D0CECCCB3E
:101E1000C9C5C5C2BFBFBCBAB8B7B4B2B1ADADA930
:101E2000A9A6A4A2A09E9D9A98969492908E8D8920
:101E300089858582807F7B7A78767472716D6D6A10
:101E400067676461615D5C5B58565451514E4C4903
:101E500048474342413E3B3B37373331312E2B2BF2
:101E600028262422201D1B1B17171313110D0C09E4
:101E7000070603020302020303040507080A0B0E08
:101E8000101215161A1C1E202425282A2C2E313239
:101E90003536393A3C3D4141444547494C4D505116
:101EA0005357575B5C5F616366676A6C6E717175EF
:101EB0007679797D7E8081858588898C8E909194D4
:101EC00096999A9CA0A1A3A6A8A9AEADB1B3B4B7A8
:101ED000B9BABDBEC0C2C4C6C7CACBCDD1D0D4D793
:101EE000D7DBDCE0E2E4E6E9ECEEEFF3F4F6F8F958
:101EF000FBFCFDFDFDFFFDFEFDFCFBF9F8F6F5F238
:101F0000F0EEECE8E8E3E3DFDCDCD7D7D3D2D0CDEA
:101F1000CCC9C8C6C3C3C0BFBCBABAB6B5B2B1AFEC
:101F2000ACAAA8A6A4A0A09D9A989793938F8E8BF5
:101F30008B878683837F7F7C7A79767472716E6CEF
:101F40006A686563625E5C5B59545551504D4B49FC
:101F5000484642433F3E3C3B38363532312E2C2BEF
:101F6000272623201F1B1A1714130F0E0C0909060E
:101F700006030402030174656D706F007265736F70
:101F80006C2E0070756C7365006D69646900706516
:101F900072696F64006D6F646500736861706500DD
:101FA00072616E676500667265712E00656E76659A
:101FB0006C2E006F6666006F6E006E6F7465006752
:101FC0006174650031207070716E00342070707122
:101FD0006E0038207070716E003234207070716E37
:101FE00000316D7300326D7300356D730031306DEB
:101FF000730035250031302500323025003530257D
:102000000032306D730035306D73003130306D73D8
:10201000003230306D73003530306D730031730035
:1020200032730035730031307300747269616E670A
:102030006C65007371756172650072616D702075F9
:10204000700072616D7020646E0073696E6500319E
:102050006F63742061727000326F637420617270FC
:10206000006368726D2E73636C00747269676765D4
:10207000720076656C6F636974790070746368626E
:10208000656E64006D6F64776865656C0073617779
:10209000003130487A003230487A003530487A00D2
:1020A000313030487A00323030487A0035303048AC
:1020B0007A00312E306B487A00322E306B487A002D
:1020C000352E306B487A000131560001325600013E
:1020D0003556002B3156002B3256002B355600E575
:1020E00020E520E52005229B023505050D4D019BCD
:1020F0000283060008000800085907B306BF04B3AE
:102100000697067B065F06440628060C06F005D4F3
:1021100005B9059D058105650578030200060700E0
:102120000000060200034500000400030404070445
:102130000B010F021000407A10F35A00A0724E18E3
:10214000090010A5D4E80000E87648170000E40B69
:1021500054020000CA9A3B000000E1F5050000802F
:10216000969800000040420F000000A08601000089
:1021700000102700000000E80300000000640000D9
:102180000000000A00000000000100000000002C18
:1021900076D888DC674F0823DFC1DFAE59E1B1B7DD
:1021A00096E5E3E453C63AE651997696E8E6C284AA
:1021B00026EB898C9B62ED407C6FFCEFBC9C9F40C2
:1021C000F2BAA56FA5F490055A2AF75C936B6CF9E7
:1021D000676DC11BFCE0E40D47FEF520E6B500D0BD
:1021E000ED902E0300943577050080841E080000D2
:1021F000204E0A000000C80C333333330F986E12A0
:10220000831141EF8D2114893BE65516CFFEE6DBA5
:1022100018D1844B381BF77C1D901DA4BBE42420EF
:102220003284725E228100C9F124ECA1E53D2700D1
:1022300042154615B816A6182C1BEC1BE223F725F1
:102240004715ED1BE32311241FBECFEFD0E1DEBF06
:10225000CDBF11E0A0E0B1E0EEEAFCE502C00590E0
:102260000D92AA39B107D9F714E0AAE9B1E001C08B
:102270001D92A939B107E1F712E2C0E4D2E204C02D
:102280002297FE010E94462EC033D107C9F70E9453
:102290002D190C941F290C940000A1E1B0E0E3E596
:1022A000F1E10C94F92D3C017F876E876A01FC01F6
:1022B00017821682838181FD03C06FEF7FEF6FC3AA
:1022C0009E012F5F3F4F398B288BF3012381EE85D1
:1022D000FF8523FD859123FF8191FF87EE8788236A
:1022E00009F45AC3853251F4EE85FF8523FD8591AB
:1022F00023FF8191FF87EE87853229F490E0B301B7
:102300000E94432AE2CF982F10E0882499241032AB
:10231000B0F49B3269F09C3228F4903251F0933241
:1023200071F40BC09D3239F0903349F4116028C02C
:102330001260146025C0186023C0106121C017FD11
:102340002AC0892F80538A3078F416FF06C0FAE03D
:102350009F9E902C1124980E13C03AE0839E802CEF
:102360001124880E10620CC09E3221F416FD14C395
:10237000106406C09C3611F4106802C0983659F4F7
:10238000EE85FF8523FD959123FF9191FF87EE87D1
:10239000992309F0BCCF892F8554833020F4812FF5
:1023A0008061905E07C0892F8556833008F09FC1F9
:1023B000812F8F7E86FD02C076E0972E6FE3F62E8A
:1023C000F822953619F4F0E4FF2A07C0963619F47E
:1023D00020E8F22A02C091109A94F7FE0AC03BE36B
:1023E000391518F45CE3B52E02C0B92CB39427E07C
:1023F00009C047E0491520F4BB2447E0942EF7CFED
:10240000292DBB24C60104969D878C87F601608127
:10241000718182819381AE014F5F5F4F0B2D0E94CE
:1024200022296C010981202E332400FF04C003FD02
:1024300002C01DE209C0F1FE02C01BE205C0F2FCB1
:1024400002C010E001C010E2C1018C709070892BB5
:10245000B9F1112311F483E001C084E0881510F074
:1024600088240AC0881AF3FC07C080E290E0B30118
:102470000E94432A8A94C9F7112329F0812F90E002
:10248000B3010E94432A23FE03C006ED10E00EC0F4
:102490000AED10E00BC0E114F10409F0805290E065
:1024A000B3010E94432A0F5F1F4F05C0EF2CFF248A
:1024B000F0E1EF22FF24F8018491882361F714C131
:1024C000F7FE12C0BC0C24FE04C08A81813309F4DB
:1024D000BA941B141CF0BB24B3942DC0F8E0FB1578
:1024E00050F538E0B32E27C0F6FC25C0892D90E0CA
:1024F0008C159D054CF02CEFC2162FEFD20624F060
:1025000030E8F32A01C09A94992049F0E2E0F0E023
:10251000EC0FFD1FE90DF11D80818033A1F3F7FE63
:102520000AC0B92CB394892D90E0C816D90614F0CE
:10253000992401C09C18F7FC03C025E030E009C0D5
:102540001C141D041CF021E030E003C096012F5F35
:102550003F4F112311F02F5F3F4F992029F0892D14
:1025600090E00196280F391F882D90E02817390731
:1025700014F0882401C0821A4F2C5524C20189709E
:102580009070892B39F008C080E290E0B3010E947E
:10259000432A8A948820C1F7112329F0812F90E0E3
:1025A000B3010E94432A43FE07C008C080E390E0C5
:1025B000B3010E94432A8A948820C1F7F7FE46C0DF
:1025C0008601D7FE02C000E010E076010894E11C0D
:1025D000F11CE01AF10A41E050E04C0F5D1FE40EDF
:1025E000F51E26014B185108892D90E0AA24BB2422
:1025F000A81AB90A5FEF0F3F150729F48EE290E0A1
:10260000B3010E94432AC016D10634F04016510689
:102610001CF4F701808101C080E301501040089450
:10262000E11CF11C0A151B052CF090E0B3010E947F
:10263000432AE0CF0C151D0539F49A81963318F41E
:10264000953311F424FE81E390E04BC08A818133FD
:1026500009F00F7E90E0B3010E94432A9920A1F077
:102660008EE290E0B3010E94432A12E0E1E0F0E044
:10267000EC0FFD1FE10FF11D1F5F808190E0B301A2
:102680000E94432A9A9491F744FC03C085E690E0A7
:1026900002C085E490E0B3010E94432AD7FC05C044
:1026A000C114D10441F404FF06C0D094C194D108F0
:1026B000D3948DE201C08BE290E0B3010E94432AE3
:1026C00080E305C08F5F26EF3FEFC20ED31E3AE0D6
:1026D000C316D104BCF790E0B3010E94432AC6019F
:1026E000C096B3010E94432ACC84DD8452C1933644
:1026F00031F0933799F0933509F059C023C0F601B2
:10270000808189835E010894A11CB11C22E030E025
:10271000C20ED31E21E0E22EF12C12C0F601A080E1
:10272000B18016FD03C06FEF7FEF02C0692D70E02E
:1027300022E030E0C20ED31EC5010E94382A7C017F
:102740001F7713C0F601A080B18016FD03C06FEFA4
:102750007FEF02C0692D70E022E030E0C20ED31E90
:10276000C5010E94122A7C01106813FF07C01BC01C
:1027700080E290E0B3010E94432A8A94882D90E081
:10278000E816F906A8F30FC0F50117FD859117FFAC
:1027900081915F0190E0B3010E94432A81108A94E5
:1027A0000894E108F108E114F10471F7F2C09436DD
:1027B00011F0993689F517FF08C0F60120813181A3
:1027C0004281538184E090E00AC0F60180819181CA
:1027D0009C01442737FD4095542F82E090E0C80EBD
:1027E000D91E9FE6F92EF12257FF09C0509540955A
:1027F000309521953F4F4F4F5F4F90E8F92ACA011E
:10280000B901AE014F5F5F4F2AE030E00E94932A8A
:10281000E82EE889EE1A41C0953721F41F7E2AE0A0
:1028200030E01CC0197F9F3661F0903720F4983556
:1028300009F0B2C00FC0903739F0983709F0ACC03A
:1028400004C028E030E00AC0106114FD146020E1EB
:1028500030E004C014FD166020E132E017FF08C02C
:10286000F601608171818281938144E050E008C06B
:10287000F60180819181BC0180E090E042E050E06F
:10288000C40ED51EAE014F5F5F4F0E94932AE82E03
:102890005889E51A8FE7F82EF122F6FE0BC08EEF6D
:1028A000F822E91438F4F4FE07C0F2FC05C09FEEEC
:1028B000F92202C01E2D01C0192DF4FE0DC0FE012B
:1028C000EE0DF11D8081803319F4E9EEFE2208C07F
:1028D0001F5FF2FE05C003C08F2D867809F01F5FD1
:1028E0000F2DF3FC14C0F0FE0FC0181510F09E2C35
:1028F0000BC09E2C980C911A182D06C080E290E017
:10290000B3010E94432A1F5F1815C0F304C01815B5
:1029100010F4811A01C0882404FF0FC080E390E006
:10292000B3010E94432A02FF1DC001FD03C088E7D6
:1029300090E00EC088E590E00BC0802F867891F083
:1029400001FF02C08BE201C080E2F7FC8DE290E063
:10295000B3010E94432A06C080E390E0B3010E94C5
:10296000432A9A94E914C0F3EA94E1E0F0E0EC0F12
:10297000FD1FEE0DF11D808190E0B3010E94432AFE
:10298000EE2091F706C080E290E0B3010E94432A56
:102990008A948820C1F799CCF30166817781CB01B5
:1029A0006196E2E10C94152E0F931F93CF93DF9362
:1029B0008C01EB0160E070E0AE010E941D2A0097DF
:1029C00019F0EC01C01BD10BCE01DF91CF911F910B
:1029D0000F9108951F93CF93DF93EC01162F70E0B2
:1029E0000E94D414982F06C0FE01E90FF11D80E269
:1029F00080839F5F9117C0F3DF91CF911F9108955E
:102A0000EF92FF920F931F93CF93DF93EC01F62E7B
:102A1000E42E062F10E0B8010E94D414282F8F1541
:102A2000D1F0DE01A00FB11F1297E82FF0E031972F
:102A3000EC0FFD1F90E00DC0921728F480811196D5
:102A40008C93119703C01196EC9211979F5F119789
:102A500031979F1588F3CDB7DEB7E6E00C94212EB1
:102A600040E20E94001508958FB7F89420919A01D2
:102A700030919B0140919C0150919D018FBFB90104
:102A8000CA010895089510929F0108950895089528
:102A9000A7E0B0E0EEE4F5E10C94F92D9E838D8380
:102AA0006F836091AA017091AB01A090A601B090D4
:102AB000A701C090A801D090A901A114B104C1043C
:102AC000D104E1F061157105C9F080E090E00E9449
:102AD000F32B20E836E948E95BE40E94EA2C7B010D
:102AE0008C01C601B5010E94F32B9B01AC01C8010A
:102AF000B7010E945A2B5B016C010AC00F2EF0E057
:102B0000AF2EF0E0BF2EF0E0CF2EF0E0DF2EF02D64
:102B100080919F01882309F58DB79EB708970FB65E
:102B2000F8949EBF0FBE8DBFEDB7FEB731968D8175
:102B30009E81ADB7BEB712969C938E93119780E09D
:102B400091E093838283A482B582C682D7820E9459
:102B50006F2AADB7BEB71896F9C0813009F077C0BB
:102B6000C601B50120E030E04CED53E40E945A2B41
:102B70000E94AA2C2CEA3FE74AE851E40E94EA2C82
:102B800020E030E04AE852E40E94F22A1B012C01C6
:102B90000E944D2D3B014C010E94C72BCB0177FFBA
:102BA00002C080E090E08038910514F08FE790E05B
:102BB0007E010894E11CF11CB7010E949A1AC6011B
:102BC000B50120E030E040E050E00E94562B882321
:102BD000B9F1EDB7FEB738970FB6F894FEBF0FBE48
:102BE000EDBF0DB71EB70F5F1F4F8D819E81928382
:102BF00081838CE091E0D80113969C938E93129779
:102C00001596FC92EE921497C201B101A4019301B2
:102C10000E94F12A20E030E048EC52E40E94EA2CC5
:102C20000E94C22BF801778366830E946F2A8DB7BA
:102C30009EB708960FB6F8949EBF0FBE8DBF8BC08F
:102C40008D819E8167E171E00E94312A84C08230CB
:102C500009F081C0C601B50120E030E04CED53E43D
:102C60000E945A2B0E94AA2C2CEA3FE74AE851E422
:102C70000E94EA2C20E030E04AE852E40E94F22A66
:102C800020E030E048EC52E40E94EA2C0E94C22B83
:102C90008091B201882389F42091AC013091AD017B
:102CA000CB01C296821793072CF02E5C3F4F26175C
:102CB00037071CF482E08093B2018091B20188232F
:102CC00041F181508093B201882319F52091AC0124
:102CD0003091AD013093AF012093AE017093AD01FF
:102CE0006093AC01C901C296861797073CF4621B3A
:102CF000730B7093B1016093B0010BC0CB01C2960E
:102D00008217930734F4261B370B3093B1012093BD
:102D1000B00100D000D000D0EDB7FEB731968D8164
:102D20009E81ADB7BEB712969C938E93119780E2A9
:102D300091E0938382838091B0019091B10195835A
:102D400084830E946F2AADB7BEB716960FB6F8946B
:102D5000BEBF0FBEADBFBF81B450BF838D819E810A
:102D600004966B2F0E9430152796E2E10C94152EE5
:102D700008951F920F920FB60F921124AF92BF9237
:102D8000CF92DF92EF92FF920F931F932F933F9377
:102D90004F935F938F939F93AF93BF9380918600E0
:102DA000909187002091BA01E090CB01F090CC0186
:102DB00000E010E09093CC018093CB011092BA0117
:102DC0005C01CC24DD248091A0019091A101A0910F
:102DD000A201B091A301A80EB91ECA1EDB1E30E0ED
:102DE00040E050E0A90133272227A20EB31EC41EE3
:102DF000D51EAE18BF08C00AD10AA092A001B09299
:102E0000A101C092A201D092A3018091A40190914E
:102E1000A50101969093A5018093A4012EE1C2160D
:102E2000D104C0F0A092A601B092A701C092A8015F
:102E3000D092A9019093AB018093AA011092A001B6
:102E40001092A1011092A2011092A3011092A5016B
:102E50001092A401BF91AF919F918F915F914F917B
:102E60003F912F911F910F91FF90EF90DF90CF90A6
:102E7000BF90AF900F900FBE0F901F901895789451
:102E80001F920F920FB60F9211248F938091BA0167
:102E90008F5F8093BA018F910F900FBE0F901F909C
:102EA00018951F920F920FB60F921124FF920F9355
:102EB0001F932F933F934F935F936F937F938F93C2
:102EC0009F93AF93BF93EF93FF932C9A2C98F0901E
:102ED000BF018F2D90E083709070892B09F049C05D
:102EE0002091C901E22FF0E0EE0FFF1FEF57FD4FD9
:102EF000808191812F5F2F712093C901392F9F709D
:102F00009069F82F9EBD8091EC018823F9F0909193
:102F100029028091B901891768F08091B901891B54
:102F20008093B90180911D0290911E0290931C0222
:102F300080931B0280911B0290911C02009731F03C
:102F4000019790931C0280931B02306837FD02C0EA
:102F50005C9801C05C9A36FD02C05B9801C05B9A28
:102F60000DB407FEFDCFFEBD0DB407FEFDCF2C9ABC
:102F70002C988091CA01E82FF0E0EE0FFF1FE75177
:102F8000FD4F208131818F5F8F778093CA0130613F
:102F9000F22F3EBDE9B1E695E695E095E1709E2FF2
:102FA00009F091E080917902882311F490937902DD
:102FB0008091C0018823A1F0EE2309F092C0809196
:102FC000C1019091C201A091C301B091C40180934D
:102FD000C5019093C601A093C701B093C80181C0F9
:102FE000992309F47EC04091C1015091C2016091C2
:102FF000C3017091C4010091D5011091D6012091B7
:10300000D7013091D8018091C5019091C601A0915E
:10301000C701B091C801080F191F2A1F3B1F009359
:10302000D5011093D6012093D7013093D801809118
:10303000D9019091DA01A091DB01B091DC01480F38
:10304000591F6A1F7B1F4093D9015093DA01609387
:10305000DB017093DC018091DD019091DE0101962E
:103060009093DE018093DD014839ACE45A07A0E07B
:103070006A07A0E07A0740F10093DF011093E001B6
:103080002093E1013093E2014093E3015093E40186
:103090006093E5017093E6019093E8018093E70166
:1030A0001092D5011092D6011092D7011092D8013A
:1030B0001092D9011092DA011092DB011092DC011A
:1030C0001092DE011092DD0180912B028F5F8093C0
:1030D0002B021092C1011092C2011092C3011092F2
:1030E000C401E093C001E0932C020DB407FEFDCFB4
:1030F000FEBD8091C1019091C201A091C301B09128
:10310000C4010196A11DB11D8093C1019093C2011C
:10311000A093C301B093C401F394F092BF010DB426
:1031200007FEFDCFFF91EF91BF91AF919F918F91DE
:103130007F916F915F914F913F912F911F910F91CF
:10314000FF900F900FBE0F901F9018951F93109235
:10315000B3011092B7011092B8018091C102209181
:10316000C2023091C3024091C4026091C502E09155
:10317000C602A091C7021091C802B82FBF5F91E0AC
:10318000B81708F090E0F92FF20F81E0F21708F07D
:1031900080E0782F730F81E0731708F080E0582FDC
:1031A000540F81E0541708F080E0382F360F81E08B
:1031B000361708F080E0282F2E0F81E02E1708F038
:1031C00080E0982F9A0F81E09A1708F080E0810F35
:1031D000B093C102F093C2027093C3025093C40231
:1031E0003093C5022093C6029093C7028093C80211
:1031F0001F910895FC01607F603951F0613918F426
:10320000603851F50CC0603B71F0603E29F516C086
:103210006281662321F081810E945E23089581816D
:103220000E94582308959181892F88578830A0F0F3
:103230008281913089F4809344020895828190E0E4
:103240009695982F8827979587952181820F911DB4
:103250009093430280934202089578941092C100A3
:1032600084B714BE809160008861809360001092E2
:1032700060008091C0008D7F8093C0001092C500D7
:1032800087E28093C4008091C10080618093C10077
:10329000279A259A2698249A2C9A249A2C9A8DB5A6
:1032A0008E7F8DBD8DB581608DBD80E58CBD0E940A
:1032B00078240E9443150E94E61B0E942A2785B5A8
:1032C000887F826085BD84B58C7F816084BD80915C
:1032D0006E00816080936E00549A539A5298809148
:1032E000B100887F81608093B1008091B0008C7FB5
:1032F00081608093B0008091700081608093700045
:103300002C9A2C988FE18EBD0DB407FEFDCF8FEF68
:103310008EBD0DB407FEFDCF809180008C7F809321
:10332000800080918100887F8160809381008091FE
:103330006F00816080936F0080916F008062809346
:103340006F008091BB018093BC010E94E4230E9426
:1033500009285CC08091BD01E82FF0E0E753FD4FE4
:1033600060818F5F8F718093BD01683F28F083EB90
:1033700091E00E94FA184AC067FF28C01092B70176
:1033800081E08093B801862F807F803AA1F0813A56
:1033900028F4803881F08039B1F40DC0803E59F0B6
:1033A000803F19F0803B79F406C0962F9F70892FDB
:1033B0008150823020F482E08093B80104C09430C0
:1033C00010F01092B8016093B3010AC08091B70168
:1033D000E82FF0E0ED54FE4F61838F5F8093B701DB
:1033E0009091B7018091B801981780F083EB91E03C
:1033F0006091B3010E94FA181092B7018091B30155
:10340000813F20F01092B8011092B3018091BE016B
:103410009091BD01891B8F7109F497CF9BCF789450
:103420001F920F920FB60F9211242F933F934F9339
:103430005F936F937F938F939F93AF93BF93EF931C
:10344000FF938091C00087FF1DC02091C600283FD8
:1034500031F48091B9018F5F8093B90113C08091DD
:10346000BD019091BE018150891B8F7159F08091EF
:10347000BE01E82FF0E0E753FD4F20838F5F8F718F
:103480008093BE018091CD0180FD02C00E94A224E4
:103490002091CD01822F90E083709070892B19F5D7
:1034A00090919E01892F8A5980939E018D37D8F083
:1034B000975190939E0180919A0190919B01019662
:1034C00090939B0180939A0180919A0190919B0126
:1034D000892B49F480919C0190919D0101969093D4
:1034E0009D0180939C012F5F2093CD01FF91EF916F
:1034F000BF91AF919F918F917F916F915F914F910C
:103500003F912F910F900FBE0F901F901895FC01C7
:10351000552747FD5095460F511D828190E0481771
:10352000590734F0838190E0841795070CF0642FDD
:10353000862F0895482F9B016CE00E94DA2D990F89
:1035400068E371E0FB01E90FF11DE491D901ED930E
:103550009F5F690F711DFB018491F9018183842FA5
:103560006CE00E94DA2DE1E5F1E0E80FF11DE49155
:103570001196EC93119712961C920895FC01E0812C
:10358000E5FF03C0AFE9B1E007C0E6FD03C0A9EE67
:10359000B1E002C0A3EDB1E0EF71AE0FB11D6C93CD
:1035A0000895FC018081E82FF0E085FF05C0EF71F0
:1035B000F070E156FE4F06C086FF06C0EF71F07056
:1035C000ED52FE4F80810895E751FE4F80810895AE
:1035D0001F93CF93DF939C01162FEA016623C1F15D
:1035E000009729F4FA0180E3819361502FC097FF7F
:1035F00006C08DE289931150309521953F4F40E0F0
:10360000E42FF0E0E651FC4FC9016AE070E00E944F
:10361000E62D80834F5FC9016AE070E00E94E62DCD
:103620009B016115710561F7642FDE0108C04150EF
:10363000E42FF0E0E651FC4F8081805D8D934423C0
:10364000B1F7FE01E60FF11D161B612F611110820B
:10365000DF91CF911F9108951F938091C102209116
:10366000C2023091C3024091C4026091C502E09150
:10367000C602A091C7021091C802B82FBF5F91E0A7
:10368000B81708F090E0F92FF20F81E0F21708F078
:1036900080E0782F730F81E0731708F080E0582FD7
:1036A000540F81E0541708F080E0382F360F81E086
:1036B000361708F080E0282F2E0F81E02E1708F033
:1036C00080E0982F9A0F81E09A1708F080E0810F30
:1036D000B093C102F093C2027093C3025093C4022C
:1036E0003093C5022093C6029093C7028093C8020C
:1036F0001F9108951F93182F80916B01181771F077
:1037000065E0169FB001112462527F4F8EEC91E06C
:1037100045E050E00E94FA2910936B018EEC91E095
:103720001F910895A0E0B0E0E8E9FBE10C94022EBF
:103730006C01162FB42E7901FC018481E82FF0E092
:10374000EE0FFF1FEF59FE4F65917491C90146E0DE
:1037500050E00E94032AC70166E00E94EA14A70114
:10376000495F5F4F0750E7012696F701B682F601E1
:103770008181882331F4812F90E0602F0E94E81A24
:103780001BC0813059F4193030F0812F8D5FBA01A0
:103790000E949A1A11C0185CE12F02C0810FE82F15
:1037A000F0E0EE0FFF1FEF59FE4F65917491CA01D3
:1037B000402F50E00E94032A0F5FCE01602F0E942D
:1037C0003015CDB7DEB7E9E00C941E2E81E0809372
:1037D000D3018093D401089508950895A0E0B0E046
:1037E000E4EFFBE10C94002EEC01962E8091D401C5
:1037F0002091DF013091E0014091E1015091E2011F
:10380000882309F040C0C090E701D090E80121155D
:10381000310541055105F9F0C114D104E1F0CA01A7
:10382000B9010E94F32B20E635EE40ED5CE30E94E7
:10383000EA2C7B018C01B60180E090E00E94F32B22
:103840009B01AC01C801B7010E945A2BB62FA72FCC
:10385000782F692F04C0B0E0A0E070E060E08DB781
:103860009EB708970FB6F8949EBF0FBE8DBFCDB61A
:10387000DEB60894C11CD11CEDB7FEB7D283C1835C
:1038800087E291E043C0A090E301B090E401C090D2
:10389000E501D090E601211531054105510509F1F9
:1038A0008091E7019091E801892BD9F0CA01B90113
:1038B0000E94F32B20E030E048EC52E40E94EA2C16
:1038C0007B018C01C601B5010E94F32B9B01AC0169
:1038D000C801B7010E945A2BB62FA72F782F692F46
:1038E00004C0B0E0A0E070E060E0EDB7FEB738974C
:1038F0000FB6F894FEBF0FBEEDBFCDB6DEB608948E
:10390000C11CD11CD283C18383E391E0F601938370
:1039100082832B2F3A2F472F562FC901DA01848338
:103920009583A683B7830E946F2A8DB79EB70896AA
:103930000FB6F8949EBF0FBE8DBF9CEF990ECE01BF
:103940000496692D0E943015CDB7DEB7EBE00C94DC
:103950001C2EA0E0B0E0EFEAFCE10C94FF2DEC019E
:10396000862EE091D301EE2309F08BC06091E30134
:103970007091E4018091E5019091E601C090E7012A
:10398000D090E801611571058105910529F1C114F7
:10399000D10411F10E94F32B25ED38EE45ED57E3EC
:1039A0000E94EA2C7B018C01B60180E090E00E942D
:1039B000F32B9B01AC01C801B7010E945A2B7B017C
:1039C0008C015B016C012DEC3CEC4CEC5DE30E9446
:1039D000562B882394F50AC00F2EF0E0AF2EF0E0AE
:1039E000BF2EF0E0CF2EF0E0DF2EF02D8DB79EB78A
:1039F00008970FB6F8949EBF0FBE8DBF0DB71EB7C8
:103A00000F5F1F4FADB7BEB71296DC93CE931197E1
:103A10008EE391E0F80193838283C601B50120E033
:103A200030E04AE754E40E94EA2CD80114966D93E2
:103A30007D938D939C93179719C08DB79EB7089768
:103A40000FB6F8949EBF0FBE8DBFEDB7FEB731968F
:103A5000ADB7BEB71296DC93CE93119789E491E08F
:103A600093838283E482F582068317830E946F2A00
:103A7000EDB7FEB738960FB6F894FEBF0FBEEDBF98
:103A8000BDC0A090E301B090E401C090E501D090EA
:103A9000E6016091E7017091E801E13009F04CC066
:103AA000A114B104C104D104F1F061157105D9F07C
:103AB00080E090E00E94F32B20E03FE249E157E4F0
:103AC0000E94EA2C7B018C01C601B5010E94F32BF8
:103AD0009B01AC01C801B7010E945A2BB62FA72F3A
:103AE000782F692F04C0B0E0A0E070E060E08DB7EF
:103AF0009EB708970FB6F8949EBF0FBE8DBF0DB747
:103B00001EB70F5F1F4FEDB7FEB7D283C18383E5AA
:103B100091E0F801938382832B2F3A2F472F562F62
:103B2000C901DA0184839583A683B7830E946F2A33
:103B30008DB79EB708965DC0F0E0E55AFE4F9490B1
:103B4000A114B104C104D10461F16115710549F1F9
:103B500080E090E00E94F32B20E13CE94FE05AE442
:103B60000E94EA2C7B018C01C601B5010E94F32B57
:103B70009B01AC01C801B7010E945A2B7B018C014B
:103B8000692D70E080E090E00E94F32B9B01AC0176
:103B9000C801B7010E945A2BB62FA72F782F692F83
:103BA00004C0B0E0A0E070E060E0EDB7FEB73A9787
:103BB0000FB6F894FEBF0FBEEDBF0DB71EB70F5F77
:103BC0001F4FD283C1838EE591E0F80193838283F6
:103BD0002B2F3A2F472F562FC901DA018483958363
:103BE000A683B783908611860E946F2A8DB79EB7F1
:103BF0000A960FB6F8949EBF0FBE8DBF9CEF890E3C
:103C0000CE010496682D0E943015CDB7DEB7ECE0EA
:103C10000C941B2ECF93DF938091E901E82FF0E005
:103C2000EE0FFF1FEE0FFF1FED59F94F2591359154
:103C3000459154918091EB0190E0880F991FFC0110
:103C4000E353FB4FC591D491D0931E02C0931D0244
:103C5000FC01E352FB4F8591949190932002809355
:103C60001F026091EA01613079F0613028F0623022
:103C700079F0633041F515C0F3E0569547953795D7
:103C80002795FA95D1F704C056954795379527950E
:103C90002093FD013093FE014093FF0150930002F9
:103CA00012C0DA01C901880F991FAA1FBB1F820F1A
:103CB000931FA41FB51F8093FD019093FE01A09355
:103CC000FF01B09300028091EC018823B1F0CD2B6D
:103CD00041F4EDECF4E08591949190931E02809371
:103CE0001D02E62FF0E0EE0FFF1FE351FB4F859121
:103CF000949190932A02809329028091ED01E82FFC
:103D0000F0E0EE0FFF1FEE0FFF1FE95DF54F85910D
:103D10009591A591B4918093050290930602A0938A
:103D20000702B09308028091EE0190E0880F991F7E
:103D3000FC01E353FB4F25913491309324022093EF
:103D40002302FC01E352FB4F85919491909326024C
:103D5000809325028091EF01882351F0232B41F4B9
:103D6000EDECF4E0859194919093240280932302EA
:103D70008091F201E82FF0E0EE0FFF1FEE0FFF1F22
:103D8000E15BF54F85919591A591B49180930D02DA
:103D900090930E02A0930F02B0931002DF91CF9187
:103DA0000895CF92DF92EF92FF920F931F9380912D
:103DB000EC01882309F04BC04091F9015091FA01C0
:103DC0006091FB017091FC01E090FD01F090FE011B
:103DD0000091FF0110910002C0901D02D0901E02C0
:103DE000A0911F02B091200220911B0230911C0271
:103DF000EEE2F2E04E0D5F1D601F711F4E155F0574
:103E00006007710708F496012115310539F021503A
:103E10003040808191819068918380836A177B070D
:103E200028F480819181906891838083329682E02A
:103E3000E234F807F9F630931C0220931B024093FA
:103E4000F9015093FA016093FB017093FC011F91FB
:103E50000F91FF90EF90DF90CF900895AF92BF92B7
:103E6000CF92DF92EF92FF920F931F934091010246
:103E7000509102026091030270910402D090EF0110
:103E8000E0900502F09006020091070210910802EE
:103E9000A0902302B0902402A0912502B0912602A6
:103EA000C09047022091210230912202EEE2F2E01E
:103EB000DD2071F44E0D5F1D601F711F4E155F05F3
:103EC0006007710708F495016A177B0758F405C06D
:103ED00081E0D81639F4CC2029F08081918190645A
:103EE000918380832115310539F08081918190641F
:103EF0009183808321503040329682E0E234F8078B
:103F0000B9F630932202209321024093010250938C
:103F1000020260930302709304021F910F91FF90BD
:103F2000EF90DF90CF90BF90AF900895A0E0B0E009
:103F3000ECE9FFE10C94FA2D8091F30190E0880FF9
:103F4000991FFC01E951FF4D45905490FC01ED5043
:103F5000FF4D659074908091F401882309F488C026
:103F6000823009F440C0833020F4813009F05AC017
:103F700007C0833009F447C0843009F053C04CC0F7
:103F800080914702882351F18091690290E0FC0101
:103F9000EE0FFF1FE80FF91FE95BFD4F218130E0B5
:103FA00024523040322F222747EC5BE16627249FC2
:103FB000712D3503C001529F700D811D961F340372
:103FC000960B700D811D961F112440E058E0481B90
:103FD000590B509346024093450241C0409145021F
:103FE000509146023CC080914702882301F18091A4
:103FF000690290E0FC01EE0FFF1FE80FF91FE95B7B
:10400000FD4F82810BC04091420250914302440F08
:10401000551F440F551F0DC080914402582F550F56
:1040200040E007C0813019F440E050E018C040E0A3
:1040300050E02FEF3FE7241B350BB2018827269F66
:10404000912D3703A001729F900D411D581F36031B
:10405000580B900D411D581F1124460D571DEEE2BF
:10406000F2E04193519372E0E234F707D1F7A8C030
:1040700030900902C0900A02D0900B0270910C029D
:1040800080900D0290900E02A0900F02B09010024E
:104090006091F101CEE2D2E0832D9C2DAD2DB72FA2
:1040A00085017401E80EF91E0A1F1B1F3E2CCF2C40
:1040B000D02E712F9801C901643021F1653040F490
:1040C0006130A9F0613058F0633009F04BC017C07F
:1040D000663009F437C0673008F037C02EC0220FB1
:1040E000331F97FF02C0C9010AC0C9013DC0892F13
:1040F000992787FD9095990F880B982F35C080954B
:10410000909532C0812F90E0880F991FFC01EB50F1
:10411000FB4FA591B491FC01E950FB4F25913491DF
:104120002A1B3B0B402F9927249F812D3403800DA0
:10413000911D11248A0F9B1F17C037FD2CC085E6E7
:1041400095E02BC037FF39C026C02DE0129F212DEE
:104150001124E22FF0E0EE0FFF1FE150FF4D85919B
:1041600094911BC06530C8F42FEF3FE7281B390B33
:10417000A201EE27249FF12D3503C001529FF00DBF
:10418000811D9E1F34039E0BF00D811D9E1F112467
:10419000860D971D02C083EB96E08993999352E0B8
:1041A000C234D50709F078CFE0920902F0920A02F2
:1041B00000930B0210930C0203C088E194E0EDCF52
:1041C000CDB7DEB7E1E10C94162EAAE0B0E0EBEE3D
:1041D000F0E20C94F92D209119022C300CF42CE013
:1041E0002C50822F8295282F207F2E8320952D837F
:1041F0008F709091F501992311F498E005C09130EA
:1042000011F09FE001C091E0A92FB0E0AD01480F8F
:10421000511D440F551F43595E4FFA010190F08123
:10422000E02DFC83EB838F5F873008F086E0A80FDA
:10423000B11DAA0FBB1FA359BE4F2D913C913A83CC
:1042400029838090110290901202A0901302B090E6
:1042500014022090150230901602409017025090E0
:10426000180240912702509128025A87498780916D
:104270002B02882321F010922B021A861986609057
:10428000F70151E0651639F480912C02882319F466
:1042900000E010E002C00FEF1FE08091F8018250B3
:1042A000823048F480914702882319F400E010E03E
:1042B00002C00FEF1FE07501640168E2762E82C034
:1042C000C20CD31CE41CF51CC70169857A856C5FA0
:1042D0007F4F7A8769876430710520F4AFEFBFEFB5
:1042E000BA87A9879C016B817C81FB01E90FF11DD5
:1042F000882F45911590819DF0018095849FE00D58
:10430000F11D11244F2F5D81459FB0011124A9811A
:10431000BA81FD01E30FF11D822F25911590819D3A
:10432000F0018095829FE00DF11D11242F2F3E8119
:10433000239FD001112442E0641609F55A85852F88
:1043400090E0880F991FFC01E553FD4F25913491B2
:1043500038872F83FC01E353FD4F259134914F8122
:104360005885241B350B59851127259F012D3503B1
:10437000000D111D11248F819885080F191F6A0FD8
:104380007B1F605070482227609F312D7103C00150
:10439000169F300D811D921F7003920B300D811DF1
:1043A000921F112420917502E22FF0E0EE0FFF1F03
:1043B000E751FD4F8050984F918380832F5F2F7777
:1043C000209375027A949FEF791609F079CFC20194
:1043D000B10128E230E040E050E00E94BB2D860EA3
:1043E000971EA81EB91E8092110290921202A092EE
:1043F0001302B0921402A985BA85B0932802A09343
:1044000027022A96E2E10C94152EA6E0B0E0EBE03C
:10441000F2E20C94F92D8090110290901202A0907B
:104420001302B090140220901502309016024090B2
:1044300017025090180220912702309128023E83E3
:104440002D8380912B02882321F010922B021E8253
:104450001D826090F70131E0631639F480912C02DF
:10446000882319F400E010E002C00FEF1FE08091F4
:10447000F8018250823048F480914702882319F471
:1044800000E010E002C00FEF1FE07501640138E2A8
:10449000732E72C0C20CD31CE41CF51C4E2D8F2D44
:1044A000AD81BE811496BE83AD83149720F4EFEFE7
:1044B000FFEFFE83ED8390E0880F991FFC01EB5026
:1044C000FB4F65917491FC01E950FB4F25913491AC
:1044D000261B370B9927249F812D3403800D911DB6
:1044E00011249C838B8392E0691609F5AE818A2F93
:1044F00090E0880F991FFC01E553FD4F2591349101
:104500003A832983FC01E353FD4F2591349149817E
:104510005A81241B350B5D811127259F012D350301
:10452000000D111D112489819A81080F191F6050F7
:104530007048AB81BC816A0F7B1F2227609F312DA1
:104540007103C001169F300D811D921F7003920BE5
:10455000300D811D921F112420917502E22FF0E091
:10456000EE0FFF1FE751FD4F8050984F91838083DE
:104570002F5F2F77209375027A94BFEF7B1609F097
:1045800089CFC201B10128E230E040E050E00E9452
:10459000BB2D860E971EA81EB91E80921102909206
:1045A0001202A0921302B0921402ED81FE81F093E8
:1045B0002802E09327022696E2E10C94152ECF9371
:1045C000DF93EC012AA190E01CC0422F50E0FA01D9
:1045D000EE0FFF1FE40FF51FEC0FFD1F8181861703
:1045E00029F44F5F5F4F992379F426C0CA010196E1
:1045F000FC01EE0FFF1FE80FF91FEC0FFD1F922FBC
:104600002081222311F751C0892F90E00196DC010F
:10461000AA0FBB1FA80FB91FAC0FBD1FFA01EE0FE9
:10462000FF1FE40FF51FEC0FFD1F80818C93388175
:10463000FE01B39690E01FC0FA01EE0FFF1FE40FDA
:10464000F51FEC0FFD1F80818AA3F1CF81918217A6
:1046500089F4692F06C0FE01E40FF51F84A183A32E
:104660006F5F462F50E0888190E001974817590707
:1046700094F303C09F5F931748F330E0C90101969C
:10468000FC01EE0FFF1FE80FF91FEC0FFD1F10825A
:10469000F901EE0FFF1FE20FF31FEC0FFD1F8FEF6D
:1046A00081831282888181508883DF91CF91089520
:1046B000682F87E492E00E94DF2208950F931F93F2
:1046C000182F062F87E492E0612F0E94DF2280914D
:1046D00047028A3081F4EBE4F2E060E082818823D3
:1046E00009F46081339682E0E936F807B9F7CF0123
:1046F00082970E94DF22EBE4F2E041E080818F3F6D
:1047000029F04F5F33964B30C9F740E0242F30E05B
:10471000C9010196FC01EE0FFF1FE80FF91FE95BCD
:10472000FD4F809169028083F901EE0FFF1FE20FB8
:10473000F31FE95BFD4F118302834093690250919F
:10474000470220E030E022C0D901F901E95BFD4FCA
:1047500083A190E0FC01EE0FFF1FE80FF91FE95B5A
:10476000FD4F81812F5F3F4F181780F4952F07C0B1
:10477000E92FF0E0E95BFD4F82A183A39150691717
:10478000B8F3A95BBD4F93964C930AC0622F2517CF
:10479000D8F2442329F0E52FF0E0E95BFD4F43A375
:1047A0005F5F509347028091EF01823041F4809126
:1047B00023029091240290932202809321021F9160
:1047C0000F91089508950895A2E0B0E0EAEEF3E2B3
:1047D0000C94092E579A56C05F9A2091F601809149
:1047E000F801813011F08330E9F480914702882389
:1047F000B1F08091690290E0FC01EE0FFF1FE80F1D
:10480000F91FE95BFD4F818180932D028C3010F4FC
:104810008CE003C08D3618F08CE680932D02209139
:104820002D02235030E0F901EE0FFF1FEE0FFF1FA6
:10483000E558F54F85919591A591B4918093150216
:1048400090931602A0931702B0931802F901EE0F8D
:10485000FF1FE950FE4F8591949190931A02809327
:1048600019026091F50170E0660F771F61527F4D6C
:10487000CE01019642E050E00E94FA29E981FA81D6
:1048800009955F988091CA01909175028150891BAA
:104890008F77883208F0A0CF1EC00E940A1E0E94A7
:1048A000961F0E94D11E0E942E1FAEE2B2E08091A0
:1048B0007602E82FF0E0EE0FFF1FEF57FD4F2D912E
:1048C0003D91318320838F5F8F718093760282E0E8
:1048D000A234B80761F78091C901909176028150A6
:1048E000891B8F718A30C8F62296E2E00C94252E3F
:1048F00089EE91E069E171E240E150E00E94FA291D
:1049000010924702EBE4F2E08EE1DF011D928A95FE
:10491000E9F7B0968AE0DF011D928A95E9F71092D7
:104920006902B3978FEF80833396B2E0E936FB07D5
:10493000C9F780E090E29093430280934202109284
:1049400044020895409177024F5F4093770286B109
:1049500090E096958795817020915604220F282B20
:104960002093560486B190E0969587959695879505
:10497000817090914704990F982B909347042038A9
:1049800029F4892F807F11F431E007C0903821F499
:10499000207F11F43FEF01C030E086B1817090912B
:1049A000F103990F982B9093F103332391F021E0B9
:1049B000222F2295207F8091BC01E82FF0E0EE0F9E
:1049C000FF1FEE50FC4F208331838F5F87708093F1
:1049D000BC019F3799F422E0222F2295207F9091ED
:1049E000BC01E92FF0E0EE0FFF1FEE50FC4F2083DB
:1049F00081E081839F5F97709093BC01842F90E04A
:104A000083709070892B09F070C04498449A60E0DC
:104A100028E0660F86B190E036E0969587953A9546
:104A2000E1F78170682B479A4798215091F7A0E5EC
:104A3000B4E0FD0150E24081440F4083852F90E0B7
:104A4000262F30E082239323892B11F0416040838D
:104A5000319684E0E635F80711F05695ECCF35E055
:104A60008C918F37B1F423E0222F2295207F832F62
:104A70008F70282B9091BC01E92FF0E0EE0FFF1F03
:104A8000EE50FC4F208381E081839F5F977090936D
:104A9000BC01315011963F3F19F781E090E0009042
:104AA0007A0202C0880F991F0A94E2F7682F80915A
:104AB0007902882319F0606210927902449845982F
:104AC00050E848E04798852F90E0262F30E0822379
:104AD0009323892B11F0459A01C04598479A41507C
:104AE00011F05695EFCF4798449A80914E048F5F0E
:104AF00080934E0480915704882329F012981398CC
:104B00001092570408958091800290917F02891B32
:104B10008F73B9F081E08093570480917F02E82F72
:104B2000F0E0E85AFB4FE0818F5F8F7380937F0244
:104B3000E4FD139A82B1E295E07F8F70E82BE2B931
:104B4000129A0895DB0120E1482F429F9001112421
:104B50002E5F3B4FF90102C0419311964C914423C3
:104B600029F0C9014096E817F907B1F70895982F81
:104B700084FD139A82B19295907F8F70892B82B9B0
:104B8000129A88E893E10197F1F71298139888E94F
:104B90009AE30197F1F708951F93182F82958F706C
:104BA0000E94B725812F8F700E94B7251F9108950D
:104BB000282F80917F02909180028150891B8F73F2
:104BC000823010F480E0089590918002E92FF0E0A7
:104BD000E85AFB4F822F82958F70806180832F70FF
:104BE000206121839E5F9F739093800208951F939D
:104BF0008091C1022091C2023091C3024091C4024F
:104C00006091C502E091C602A091C7021091C8024E
:104C1000B82FBF5F91E0B81708F090E0F92FF20FBE
:104C200081E0F21708F080E0782F730F81E07317AE
:104C300008F080E0582F540F81E0541708F080E00E
:104C4000382F360F81E0361708F080E0282F2E0F1E
:104C500081E02E1708F080E0982F9A0F81E09A17D4
:104C600008F080E0810FB093C102F093C20270930C
:104C7000C3025093C4023093C5022093C60290939E
:104C8000C7028093C8021F91089582E094E060E219
:104C900070E040E250E00E942A2A0895682F809335
:104CA0007A0270E0660F771F675D7E4D8BE792E0BA
:104CB00042E050E00E94FA2910927E0210927D029A
:104CC000109278020895A1E1B0E0E9E6F6E20C94D2
:104CD000072E80917D02882331F480917802882309
:104CE00011F48EE301C080E28983CE0102966FE069
:104CF0000E94A91C80E08E010F5F1F4FB8010E9427
:104D0000A225C80160E270E041E150E00E942A2A39
:104D100080917D02813031F480917802882311F4F2
:104D20008EE301C080E28983CE0102966FE00E948B
:104D3000EE1B81E0BE016F5F7F4F0E94A22561964E
:104D4000E4E00C94232EA1E1B0E0E9EAF6E20C9451
:104D5000092E80917D02882331F480917802882386
:104D600011F48EE301C080E28983CE0102966FE0E8
:104D70000E94481580E0BE016F5F7F4F0E94A22510
:104D80006196E2E00C94252EA1E1B0E0EAECF6E2B7
:104D90000C94042EDD2400917E020D0DCE010196AF
:104DA00060E270E041E150E00E942A2A198AE02E78
:104DB000FF2480917D02992787FD9095E816F906DA
:104DC00031F480917802882311F48EE389838091F5
:104DD0007A028430F8F480917C02800F0E947A1B62
:104DE0008C010E94D11A682F80917802882351F09B
:104DF00080917D02992787FD9095E816F90611F4B8
:104E00004EE301C040E2C8019E012E5F3F4F0FE01C
:104E10000E94921B8D2DBE016F5F7F4F0E94A225C5
:104E2000D39482E0D81609F0B6CF6196E7E00C94EF
:104E3000202E80917A02843018F40E94C4260895AE
:104E4000843019F40E94A3260895853011F40E943D
:104E500063260895FF920F931F933998419A8FEF1D
:104E6000809356043A98429A809347043898409A1F
:104E70008093F1033F9A3C9A3E98449A479880E584
:104E800094E06FEF70E046E050E00E942A2A3F9ADB
:104E90003C9A3D9A449A0B9A0A9A81B1806F81B9E3
:104EA0001398129888EE93E0E4EFF1E03197F1F770
:104EB0000197D1F783E00E94B72500E117E2C8010E
:104EC0000197F1F783E00E94B725C8010197F1F738
:104ED00083E00E94B725C8010197F1F782E00E94A4
:104EE000B72588E20E94CC258CE00E94CC2586E084
:104EF0000E94CC2581E00E94CC2582E00E94CC2536
:104F0000109257040E94452687E294E06FE370E018
:104F100040E250E00E942A2A10924F041092980416
:104F2000109248048FEF80932304809325041092FD
:104F3000260480E00E944E260E94452688E40E94B6
:104F4000CC25FF2412C00F2D10E0055D134FF80192
:104F50000491802F82958F7080610E94B7250F7019
:104F6000802F80610E94B725F394F8E3FF1659F76C
:104F70000E9419271F910F91FF900895FF920F93A0
:104F80001F93F82E8091780220917D02882361F58D
:104F90002F0D20937D0227FF03C010927D020DC0CC
:104FA00040917B02332727FD3095842F90E028170E
:104FB00039071CF0415040937D0250917E02409190
:104FC0007D02852F992787FD90950196242F332701
:104FD00027FD30958217930714F4415002C04517FE
:104FE000A4F440937E0211C080917C02820F0E9443
:104FF0007A1B8C010E94D11A682FC8014F2D0E9484
:10500000871A682FC8010E94BE1A1F910F91FF9046
:105010000895FF920F931F9380917F0290918002D9
:105020008150891B8F73843008F494C090914E0492
:1050300080912404981738F4809126048F5F809320
:10504000260410924D0480914E0480932404909184
:105050004F0480912504981739F48091260481FF2C
:1050600003C010916C0117C020914D04222371F0F0
:10507000992311F09F3051F4E92FF0E0EE5FFB4FE0
:105080008081803219F4122F115005C0E92FF0E011
:10509000EE5FFB4F1081292F30E0F901E95DFB4FF6
:1050A00080811817F1F18091230490E00196281770
:1050B000390721F480914804882339F52091980418
:1050C0003091480480917F02909180028150891B29
:1050D0008F738230D0F02295220F220F207C30680F
:1050E000232B30918002E32FF0E0E85AFB4F822F10
:1050F00090E0B4E095958795BA95E1F780832F709D
:1051000021833E5F3F7330938002812F0E94D82518
:1051100080914F04E82FF0E0E95DFB4F108380930E
:105120002304909148049F5F9093480480914F041A
:105130008F5F80934F04903169F4109248048091FE
:1051400098048F5F80939804823021F41092980421
:1051500010924F0410E032C08091BB01E82FF0E0C4
:10516000EE0FFF1FEE50FC4F0081F1808F5F8770C4
:105170008093BB01102F12951F700E94341560930D
:10518000490470934A0480934B0490934C0412306A
:1051900029F0133071F0113081F407C0809178024A
:1051A00091E089278093780208C08F2D0E94BE2746
:1051B00004C0802F8F700E944E2611E08091BC01A8
:1051C0009091BB01891B877039F60E94341520919C
:1051D000490430914A04621B730B695E734058F0B6
:1051E0000E9434156093490470934A0480934B04E1
:1051F00090934C0411E00E943415209149043091A1
:105200004A04621B730B6536710578F080917A024F
:10521000843058F00E9434156093490470934A0416
:1052200080934B0490934C0402C0112321F00E9400
:1052300045260E9419271F910F91FF900895F89419
:105240000C944A2E283008F027E03327DA01990F12
:10525000311D87FD916000966105710539F432605A
:105260002E5F3D9330E32A95E1F708959F3F30F09C
:1052700080387105610509F03C5F3C5F3D939130DA
:1052800008F08068911DDF93CF931F930F93FF92D7
:10529000EF92192F987F9695E92F96959695E90F9D
:1052A000FF27E157FE4D99273327EE24FF24A7015E
:1052B000E70105900894079428F4360FE71EF81EBE
:1052C000491F511D660F771F881F991F0694A1F76C
:1052D0000590079428F4E70EF81E491F561FC11DBC
:1052E000770F881F991F661F0694A1F705900794F2
:1052F00028F4F80E491F561FC71FD11D880F991F8C
:10530000661F771F0694A1F70590079420F4490FB4
:10531000561FC71FD81F990F661F771F881F069437
:10532000A9F784911095177041F0D695C7955795B8
:105330004795F794E7941A95C1F7E5E3F1E268948D
:105340001590159135916591959105907FE2739532
:10535000E118F10A430B560BC90BD009C0F7E10C59
:10536000F11E431F561FC91FD01D7EF4703311F468
:105370008A95E6CFE894015030F0080F0AF4002730
:10538000021708F4202F2395022F7A3328F079E3AF
:105390007D932A95E9F710C07D932A9589F60694A6
:1053A00097956795379517951794E118F10A430B70
:1053B000560BC90BD00998F023957E9173957A33DB
:1053C00008F070E37C932013B8F77E9170617D93B1
:1053D00030F0839571E37D9370E32A95E1F7112412
:1053E000EF90FF900F911F91CF91DF91992787FD4B
:1053F00090950895FB01DC0102C005900D9241508B
:105400005040D8F70895FB01DC014150504048F06E
:1054100005900D920020C9F701C01D9241505040E7
:10542000E0F70895FC010590615070400110D8F735
:10543000809590958E0F9F1F0895FC01415050401C
:1054400030F001900616D1F73197CF0108958827E3
:1054500099270895DC0101C06D9341505040E0F759
:105460000895FB01DC0101900D920020E1F7089501
:10547000FC016150704001900110D8F78095909523
:105480008E0F9F1F08950F931F93CF93DF938C016F
:10549000EB018B8181FF1BC082FF0DC02E813F81FC
:1054A0008C819D812817390764F4E881F981019383
:1054B000F983E88306C0E885F985802F0995892B53
:1054C00031F48E819F8101969F838E8302C00FEFFE
:1054D0001FEFC801DF91CF911F910F910895AEE0AA
:1054E000B0E0E5E7FAE20C94072E0D891E8986E00C
:1054F0008C831A8309838FEF9FE79E838D839E01A0
:10550000275E3F4FCE0101966F89788DA9010E94D9
:105510004D112F813885020F131FF80110822E962E
:10552000E4E00C94232EFA01AA27283051F120310F
:1055300081F1E8946F936E7F6E5F7F4F8F4F9F4F27
:10554000AF4FB1E03ED0B4E03CD0670F781F891F69
:105550009A1FA11D680F791F8A1F911DA11D6A0F37
:10556000711D811D911DA11D20D009F468943F91EA
:105570002AE0269F11243019305D3193DEF6CF01E9
:105580000895462F4770405D4193B3E00FD0C9F7AF
:10559000F6CF462F4F70405D4A3318F0495D31FD1C
:1055A0004052419302D0A9F7EACFB4E0A69597956F
:1055B000879577956795BA95C9F700976105710545
:1055C00008959B01AC010A2E06945795479537958F
:1055D0002795BA95C9F7620F731F841F951FA01DE9
:1055E00008955058BB27AA270ED075C166D130F058
:1055F0006BD120F031F49F3F11F41EF45BC10EF427
:10560000E095E7FB51C1E92F77D180F3BA17620724
:1056100073078407950718F071F49EF58FC10EF497
:10562000E0950B2EBA2FA02D0B01B90190010C01B2
:10563000CA01A0011124FF27591B99F0593F50F4CA
:10564000503E68F11A16F040A22F232F342F442722
:10565000585FF3CF469537952795A795F04053951A
:10566000C9F77EF41F16BA0B620B730B840BBAF0EA
:105670009150A1F0FF0FBB1F661F771F881FC2F755
:105680000EC0BA0F621F731F841F48F48795779569
:105690006795B795F7959E3F08F0B3CF9395880F20
:1056A00008F09927EE0F979587950895D9D008F4BB
:1056B00081E008950CD00FC107D140F0FED030F04A
:1056C00021F45F3F19F0F0C0511139C1F3C014D17A
:1056D00098F39923C9F35523B1F3951B550BBB27B9
:1056E000AA2762177307840738F09F5F5F4F220F66
:1056F000331F441FAA1FA9F333D00E2E3AF0E0E85F
:1057000030D091505040E695001CCAF729D0FE2FAA
:1057100027D0660F771F881FBB1F2617370748073C
:10572000AB07B0E809F0BB0B802DBF01FF279358F2
:105730005F4F2AF09E3F510568F0B6C000C15F3F41
:10574000ECF3983EDCF3869577956795B795F795DA
:105750009F5FC9F7880F911D9695879597F90895D2
:10576000E1E0660F771F881FBB1F6217730784076E
:10577000BA0720F0621B730B840BBA0BEE1F88F77D
:10578000E095089504D06894B111D9C00895BCD0B3
:1057900088F09F5790F0B92F9927B751A0F0D1F01A
:1057A000660F771F881F991F1AF0BA95C9F712C0A4
:1057B000B13081F0C3D0B1E00895C0C0672F782F19
:1057C0008827B85F39F0B93FCCF386957795679510
:1057D000B395D9F73EF490958095709561957F4F7C
:1057E0008F4F9F4F0895E89409C097FB3EF4909522
:1057F0008095709561957F4F8F4F9F4F9923A9F0AA
:10580000F92F96E9BB279395F69587957795679538
:10581000B795F111F8CFFAF4BB0F11F460FF1BC07C
:105820006F5F7F4F8F4F9F4F16C0882311F096E90F
:1058300011C0772321F09EE8872F762F05C06623BD
:1058400071F096E8862F70E060E02AF09A95660F76
:10585000771F881FDAF7880F9695879597F908952F
:10586000990F0008550FAA0BE0E8FEEF1616170671
:10587000E807F907C0F012161306E407F50798F0D9
:10588000621B730B840B950B39F40A2661F0232BF2
:10589000242B252B21F408950A2609F4A140A6956E
:1058A0008FEF811D811D089597F99F6780E870E053
:1058B00060E008959FEF80EC089500240A94161686
:1058C000170618060906089500240A9412161306EE
:1058D000140605060895092E0394000C11F488237C
:1058E00052F0BB0F40F4BF2B11F460FF04C06F5F98
:1058F0007F4F8F4F9F4F089557FD9058440F551F6E
:1059000059F05F3F71F04795880F97FB991F61F041
:105910009F3F79F087950895121613061406551FB8
:10592000F2CF4695F1DF08C0161617061806991F24
:10593000F1CF86957105610508940895E894BB2719
:1059400066277727CB0197F908950EF0E1C0B2CF13
:105950006894AACFD9DFC8F39923D1F3C6F3DF93B4
:10596000CF931F930F93FF92C92FDD2788232AF02F
:105970002197660F771F881FDAF720E030E040E8B4
:105980005FEB9FE3883920F0803E30F021968F77DF
:1059900029DEECE7F0E003C025DEE9EAF0E0C6D05E
:1059A0008B01BE01EC01FB2E6F5771097595771FB6
:1059B000880B990B1ADF28E132E741E35FE316D049
:1059C000AF2D9801AE01FF900F911F91CF91DF9104
:1059D0001ADE81CF0BD07FCF70DF28F075DF18F093
:1059E000952309F061CF66CF1124A9CF85DFA0F3FD
:1059F000959FD1F3950F50E0551F629FF001729F64
:105A0000BB27F00DB11D639FAA27F00DB11DAA1F82
:105A1000649F6627B00DA11D661F829F2227B00DCF
:105A2000A11D621F739FB00DA11D621F839FA00D5A
:105A3000611D221F749F3327A00D611D231F849FAA
:105A4000600D211D822F762F6A2F11249F57504001
:105A50008AF0E1F088234AF0EE0FFF1FBB1F661F9C
:105A6000771F881F91505040A9F79E3F510570F055
:105A70001BCF65CF5F3FECF3983EDCF386957795BF
:105A80006795B795F795E7959F5FC1F7FE2B880F50
:105A9000911D9695879597F9089536DFE0F09E372A
:105AA000D8F09639B8F49E3848F4672F782F8827B5
:105AB000985FF9CF86957795679593959539D0F34B
:105AC000B62FB1706B0F711D811D20F487957795EE
:105AD0006795939502C01CC032CF882371F4772359
