:10FC00003EC0000061C000005FC000005DC0000099
:10FC10005BC0000059C0000057C0000055C0000084
:10FC200053C0000051C000004FC000004DC0000094
:10FC30004BC0000049C0000047C0000045C00000A4
:10FC400043C0000041C000003FC000003DC00000B4
:10FC50003BC0000039C0000037C0000035C00000C4
:10FC600033C0000031C000002FC000002DC00000D4
:10FC70002BC0000029C0000027C00000E17F112434
:10FC80001FBECFEFD0E1DEBFCDBF11E0A0E0B1E0FD
:10FC9000E4EDFFEF02C005900D92AC30B107D9F74B
:10FCA00013E0ACE0B1E001C01D92A231B107E1F771
:10FCB0001CEFCEE7DCEF03C02297FE0185D1CC37E5
:10FCC000D107D1F750D084C19BCFCF93DF93F9995F
:10FCD000FECF60910C0170910D0183E0FB018093D8
:10FCE0005700E89507B600FCFDCFAB01CEE0D1E0B0
:10FCF000A1E0888190E0398120E0822B932B22962D
:10FD0000FA010C01A0935700E89511244E5F5F4F54
:10FD1000F2E0CE30DF0769F785E0FB018093570002
:10FD2000E89507B600FCFDCF81E180935700E89588
:10FD3000DF91CF9108955A982D9830E828E0482F08
:10FD400050E02F98832F90E084239523892B11F086
:10FD50002D9A01C02D982F9A215011F03695F1CF90
:10FD60002F985A9A08956F927F929F92AF92BF9266
:10FD7000CF92DF92EF92FF920F931F93DF93CF9377
:10FD800000D000D0CDB7DEB784B714BE809160003C
:10FD900088618093600010926000F894279A529ACC
:10FDA000259A5A9A279A529A26985A9A2F985A9888
:10FDB0005A9A20E038E0220F83B190E046E0969511
:10FDC00087954A95E1F78170282B2F9A2F9831500B
:10FDD00091F720FDDBC08091C0008D7F8093C00033
:10FDE0001092C50087E28093C4008091C1008061B9
:10FDF0008093C10010920D0110920C0185E59BDFEC
:10FE0000AA24BB2400E010E0CC249924DD24D39460
:10FE1000EE241B823E010894611C711C13C08D2DC1
:10FE2000FE2C00E010E092E038C08D2DFE2C00E0AA
:10FE300010E006C0FE2C00E010E0CC2481E01B8224
:10FE4000D82EEF2C8091C00087FFFCCF9091C60088
:10FE5000913F18F0973F09F05CC08C2D9C836BDFBD
:10FE60009C818B818130D9F0813030F0823021F15A
:10FE7000833009F04EC033C0F801E050FF4F80815D
:10FE80009817A1F0F801EA5FFE4F8081981769F694
:10FE90000F5F1F4F8D2DFE2C91E09B83D1CFF8017A
:10FEA000EA5FFE4F8081981709F0BFCF0F5F1F4FA9
:10FEB0000630110571F5B3CF97FDBCCFF301E00F0C
:10FEC000F11F90830F5F1F4F0230110511F58D2D2B
:10FED000AA24BB2400E010E0FF2493E0DECF97FDCE
:10FEE0001BC0F501E25FFE4F00FF0EC09F708081D6
:10FEF000982B90838FEFA816B10409F008F4E90E4F
:10FF00000894A11CB11C03C09295907F90830F5F51
:10FF10001F4F8D2DFE2C94CF973FD9F799819F3796
:10FF200029F48A81882311F4012B81F181E0A8163C
:10FF300081E0B80609F07ECF9E3709F07BCF8A8139
:10FF4000882309F077CFF0900E02FE1409F072CFEB
:10FF5000BCDE80910C0190910D0180509F4F9093D9
:10FF60000D0180930C01939490E2991611F08D2D60
:10FF700009C08D2D880F21F4CC24992481E002C082
:10FF8000CD289924C82600E010E059CFE091100355
:10FF9000F091110309958AEACEDE80E090E00F909F
:10FFA0000F900F900F90CF91DF911F910F91FF90C5
:10FFB000EF90DF90CF90BF90AF909F907F906F9029
:10FFC00008950895EE0FFF1F0590F491E02D099418
:04FFD000F894FFCFD3
:0CFFD400F00021020002F0002077000283
:040000030000FC00FD
:00000001FF
