:107E000011E0A0E0B1E0EAEFFFE702C005900D92BB
:107E1000A030B107D9F711E0A0E0B1E001C01D9298
:107E2000A038B107E1F784B714BE80916000886183
:107E30008093600010926000F8948FEF98E09EBFEE
:107E40008DBF11243C9A3D9A8FEF93E0C0D0682FEC
:107E50008F3F11F460E0ACC0823080F020E088B148
:107E600090E1892788B980ED97E0E4EFF1E0319760
:107E7000F1F70197D1F72F5F2A3089F7663010F0BC
:107E800061E003C0613009F093C025982398249ADB
:107E9000229880EC8CBD90E04598449888E08EBD97
:107EA0000DB407FEFDCF8EB5459A449A8B3F11F471
:107EB0009F5FF2CF903F78F38F70809300011EBCDC
:107EC0000DB407FEFDCF2EB52F70222F2295282B43
:107ED00020930001459A70E081E090E040E050E09E
:107EE00044980DB407FEFDCF3EB5449A3B3F29F4BC
:107EF000892B09F448C091E016C07F5F7EBD44988D
:107F00000DB407FEFDCF2EB52F70222F2295FC0158
:107F1000E050FF4F3F70232B20830196449A803816
:107F20009105F1F690E0F999FECF83E0FA01809394
:107F30005700E89507B600FCFDCF9A01C0E0D1E0FC
:107F4000A881B981229681E0F9010D018093570043
:107F5000E89511242E5F3F4FF1E0C038DF0781F72D
:107F600085E0FA0180935700E89507B600FCFDCF45
:107F700081E180935700E895992329F440585F4F99
:107F800080E090E0ADCF449820E088B190E289276E
:107F900088B988B190E1892788B98EEE92E0E4EF44
:107FA000F1E03197F1F70197D1F72F5F203169F7B1
:107FB000862F8250843010F062E001C06F5F8FEF37
:107FC00093E00DD0E0E0F0E0099580E090E0F999D1
:107FD000FECF92BD81BDF89A992780B50895262FCE
:107FE000F999FECF1FBA92BD81BD20BD0FB6F8949E
:0A7FF000FA9AF99A0FBE019608955F
:0400000300007E007B
:00000001FF
