:107C000034C0000057C0000055C0000053C0000041
:107C100051C000004FC000004DC000004BC000002C
:107C200049C0000047C0000045C0000043C000003C
:107C300041C000003FC000003DC000003BC000004C
:107C400039C0000037C0000035C0000033C000005C
:107C500031C000002FC000002DC000002BC000006C
:107C600029C0000027C00000973F11241FBECFEF9E
:107C7000D8E0DEBFCDBF11E0A0E0B1E0E2EBFFE76E
:107C800002C005900D92A630B107D9F712E0A6E028
:107C9000B1E001C01D92AC30B107E1F71CE7CAE6C4
:107CA000DCE703C02297FE017ED1C836D107D1F7A9
:107CB00051D03EC1A5CFCF93DF93F999FECFA091CC
:107CC0000601B091070183E0FD0180935700E8951C
:107CD00007B600FCFDCFBD01C8E0D1E0888190E08F
:107CE000598140E0842B952B229621E0FB010C0169
:107CF00020935700E89511246E5F7F4FF1E0C8385C
:107D0000DF0761F785E0FD0180935700E89507B62E
:107D100000FCFDCF81E180935700E895DF91CF9182
:107D20000895682F5A985C9850E848E05E98852F2F
:107D300090E0262F30E082239323892B11F05C9A68
:107D400001C05C985E9A415011F05695EFCF5E9855
:107D50005A9A0895A4E0B0E0EFEAFEE3F2C084B7D7
:107D600014BE809160008861809360001092600072
:107D7000F894569A529A55985A9A5E98569A529AE8
:107D8000549A5A9A5A985A9A20E091E088E04D996C
:107D9000292B5E9A5E98815011F0990FF8CF23FD40
:107DA000BAC08091C0008D7F8093C0001092C50042
:107DB00087E28093C4008091C10080618093C100FC
:107DC000109207011092060185E1ABDF9924CC24C3
:107DD000DD24D394EE241B82AA24BB2400E010E00F
:107DE00008C0FE2CCC2481E01B8200E010E0D82EDD
:107DF000EF2C8091C00087FFFCCF9091C600913F8F
:107E000018F0973F09F04BC08C2D9C838ADF9C8132
:107E10008B818130C9F0813020F0823009F03FC081
:107E200025C0F801E050FF4F8081981719F08D2D83
:107E3000FE2CDBCF0F5F1F4F0630110581F58D2D16
:107E4000FE2C91E09B83D1CF97FDCBCFFE01E00FBD
:107E5000F11F91830F5F1F4F0230110501F58D2D2A
:107E6000FF2492E09B83AA24BB24BFCF97FD1AC0B6
:107E7000F501E85FFE4F00FF0DC09F708081982BD9
:107E8000908380E8A816B10408F4E90E0894A11CB8
:107E9000B11C03C09295907F90830F5F1F4F8D2D73
:107EA000FE2CA5CF973FD9F799819F3731F48A816E
:107EB000882319F40115110571F181E8A816B104A0
:107EC00009F08FCF9E3709F08CCF8A81882309F083
:107ED00088CFF0908801FE1409F083CFECDE80910A
:107EE00006019091070180589F4F9093070180935E
:107EF0000601939490E2991611F08D2D0AC08D2DF4
:107F0000880F803421F49924CC2481E002C0CD284C
:107F10009924C82669CFE0910A02F0910B020995D5
:107F20008AE2FFDE80E090E02496EBE026C0089530
:107F3000F8943DC02F923F924F925F926F927F9242
:107F40008F929F92AF92BF92CF92DF92EF92FF9269
:107F50000F931F93CF93DF93CDB7DEB7CA1BDB0B15
:107F60000FB6F894DEBF0FBECDBF09942A883988BA
:107F700048885F846E847D848C849B84AA84B984C1
:107F8000C884DF80EE80FD800C811B81AA81B981CD
:107F9000CE0FD11D0FB6F894DEBF0FBECDBFED01E1
:107FA0000895EE0FFF1F0590F491E02D0994F894C9
:027FB000FFCF01
:067FB200F00021020008AE
:0400000300007C007D
:00000001FF
