:100000000C9433310C945B310C945B310C945B3168
:100010000C945B310C945B310C945B310C945B3130
:100020000C945B310C948B310C945B310C945B31F0
:100030000C945B310C945B310C945B310C945B3110
:100040000C945B310C945B310C945D310C945B31FE
:100050000C945B310C945B310C945B310C945B31F0
:100060000C945B310C945B31001B242B3035393CF4
:100070003F4345484B4D50525456585A5C5E5F6161
:1000800063646668696B6C6E6F7072737476777890
:10009000797B7C7D7E7F8081838485868788898A41
:1000A0008B8C8D8E8F90919293939495969798992F
:1000B0009A9A9B9C9D9E9F9FA0A1A2A3A3A4A5A644
:1000C000A7A7A8A9AAAAABACACADAEAFAFB0B1B16F
:1000D000B2B3B3B4B5B5B6B7B7B8B9B9BABBBBBCB0
:1000E000BDBDBEBEBFC0C0C1C2C2C3C3C4C5C5C6FC
:1000F000C6C7C7C8C9C9CACACBCBCCCDCDCECECF57
:10010000CFD0D0D1D1D2D3D3D4D4D5D5D6D6D7D7BA
:10011000D8D8D9D9DADADBDBDCDCDDDDDEDEDFDF27
:10012000E0E0E1E1E2E2E3E3E4E4E5E5E6E6E6E798
:10013000E7E8E8E9E9EAEAEBEBECECECEDEDEEEE12
:10014000EFEFF0F0F0F1F1F2F2F3F3F3F4F4F5F590
:10015000F6F6F6F7F7F8F8F9F9F9FAFAFBFBFBFC13
:10016000FCFDFDFDFEFEFFFF807B7B7573716C6BFC
:100170006664605F5A5855524F4C4A4644413F3C72
:10018000393635312F2E2A28262422201D1C1A18F4
:1001900017141311110E0D0B0C090808060605049F
:1001A0000303020202010200020002010103020332
:1001B00003040506060709090B0C0D0F0F12131493
:1001C00017181A1B1E20222425292B2C30313438D5
:1001D000383C3F4045464A4C4F5254595B5D616341
:1001E00068696E6F74757A7D7F8286898C8F92952F
:1001F000989C9DA2A4A8A9AEAFB3B6B8BBBEC1C31C
:10020000C5C9CBCDD0D2D4D8D8DBDDE0E1E4E4E77A
:10021000E9EAEDEDEFF0F2F4F4F5F7F8F8F9FBFBAD
:10022000FBFDFCFDFDFEFEFEFEFEFEFDFEFDFCFDFB
:10023000FBFBFAFAF8F8F7F5F4F4F1F1EFEEEBEB7B
:10024000E9E6E6E3E1DFDEDBD8D8D4D2CFCECBC916
:10025000C5C3C1BDBCB8B6B2B1ACABA7A3A39D9C8E
:100260009796928F8C89858380010001000100019F
:100270000001000100010001000100010001000176
:100280000001000100010001000100010001000166
:100290000001000100010001000100010001000156
:1002A0000001000100010001000100010001000146
:100A60000001000100010002000200020002000279
:100A70000002000200020002000200020002000266
:100A80000002000200020002000200020002000256
:100A90000002000200020002000200020002000246
:100AA0000002000200020002000200020002000236
:100AB0000002000200020002000200020002000226
:100AC0000002000200020002000200020002000216
:100AD0000002000200020002000200020002000206
:100AE00000020002000200020002000200020002F6
:100AF00000020002000200020002000200020002E6
:100B000000020002000200020002000200020002D5
:100B100000020002000200020002000200020002C5
:100B200000020002000200020002000200020002B5
:100B300000020002000200020002000200020002A5
:100B40000002000200020002000200020002000295
:100B50000002000200020002000200020002000285
:100B6000000300030003000300030003000300036D
:100B7000000300030003000300030003000300035D
:100B8000000300030003000300030003000300034D
:100B9000000300030003000300030003000300033D
:100BA000000300030003000300030003000300032D
:100BB000000300030003000300030003000300031D
:100BC000000300030003000300030003000300030D
:100BD00000030003000400040004000400040004F7
:100BE00000040004000400040004000400040004E5
:100BF00000040004000400040004000400040004D5
:100C000000040004000400040004000400040004C4
:100C100000040004000400040004000400040004B4
:100C2000000500050005000500050005000500059C
:100C3000000500050005000500050005000500058C
:100C4000000500050005000500050005000500057C
:100C50000005000500050005000500060006000669
:100C60000006000600060006000600060006000654
:100C70000006000600060006000600060006000644
:100C80000006000600060006000700070007000730
:100C9000000700070007000700070007000700071C
:100CA000000700070007000700070007000700080B
:100CB00000080008000800080008000800080008F4
:100CC00000080008000800080008000800080009E3
:100CD00000090009000900090009000900090009CC
:100CE00000090009000900090009000A000A000AB9
:100CF000000A000A000A000A000A000A000A000AA4
:100D0000000A000A000B000B000B000B000B000B8D
:100D1000000B000B000B000B000B000C000C000C78
:100D2000000C000C000C000C000C000C000C000C63
:100D3000000D000D000D000D000D000D000D000D4B
:100D4000000D000E000E000E000E000E000E000E34
:100D5000000E000E000F000F000F000F000F000F1D
:100D6000000F000F00100010001000100010001005
:100D700000100010001100110011001100110011ED
:100D800000110012001200120012001200120012D4
:100D900000130013001300130013001300140014B9
:100DA000001400140014001400150015001500159F
:100DB0000015001500160016001600160016001784
:100DC0000017001700170017001800180018001867
:100DD000001800190019001900190019001A001A4A
:100DE000001A001A001A001B001B001B001B001C2D
:100DF000001C001C001C001D001D001D001D001E0D
:100E0000001E001E001E001F001F001F001F0020EC
:100E100000200020002000210021002100220022CB
:100E200000220022002300230023002400240024A9
:100E30000024002500250025002600260026002786
:100E40000027002700280028002800290029002961
:100E5000002A002A002A002B002B002C002C002C3A
:100E6000002D002D002D002E002E002F002F002F12
:100E700000300030003100310032003200320033E7
:100E800000330034003400350035003500360036BC
:100E9000003700370038003800390039003A003A8E
:100EA000003B003B003C003C003D003D003E003E5E
:100EB000003F003F0040004000410042004200432C
:100EC00000430044004400450046004600470047F8
:100ED000004800490049004A004B004B004C004CC0
:100EE000004D004E004E004F005000500051005287
:100EF0000053005300540055005500560057005849
:100F000000580059005A005B005B005C005D005E09
:100F1000005F005F006000610062006300640064C5
:100F200000650066006700680069006A006B006B7E
:100F3000006C006D006E006F007000710072007335
:100F4000007400750076007700780079007A007BE5
:100F5000007C007D007E007F008000810083008493
:100F600000850086008700880089008A008C008D3B
:100F7000008E008F009000920093009400950097DF
:100F800000980099009B009C009D009E00A000A17D
:100F900000A300A400A500A700A800A900AB00AC16
:100FA00000AE00AF00B100B200B400B500B700B8A9
:100FB00000BA00BB00BD00BF00C000C200C300C536
:100FC00000C700C800CA00CC00CD00CF00D100D3BC
:100FD00000D400D600D800DA00DB00DD00DF00E13D
:100FE00000E300E500E700E900EA00EC00EE00F0B5
:100FF00000F200F400F600F800FA00FC00FF000127
:101000000103010501070109010B010E0110011285
:10101000011401170119011B011D012001220125E5
:1010200001270129012C012E01310133013601383C
:10103000013B013D0140014201450148014A014D8A
:101040000150015201550158015B015D01600163CE
:1010500001660169016C016F017201750178017B04
:10106000017E018101840187018A018D0190019334
:101070000197019A019D01A001A401A701AA01AE57
:1010800001B101B401B801BB01BF01C201C601C970
:1010900001CD01D101D401D801DC01DF01E301E779
:1010A00001EA01EE01F201F601FA01FE0102020677
:1010B000020A020E02120216021A021E0222022660
:1010C000022A022F02330237023B02400244024945
:1010D000024D02510256025A025F02630268026D1B
:1010E00002710276027B027F02840289028E0293E1
:1010F0000297029C02A102A602AB02B002B502BA9C
:1011000002BF02C502CA02CF02D402D902DF02E442
:1011100002E902EF02F402F902FF0204030A030FDC
:101120000315031B03200326032C03310337033D60
:1011300003430349034F0354035A03600366036CDC
:1011400003720379037F0385038B03910397039E47
:1011500003A403AA03B103B703BE03C403CB03D1A3
:1011600003D803DE03E503EB03F203F903000406EF
:10117000040D0414041B0422042904300436043D25
:101180000444044C0453045A04610468046F047654
:10119000047E0485048C0494049B04A204AA04B174
:1011A00004B904C004C804CF04D704DE04E604EE86
:1011B00004F504FD0405050D0514051C0524052C86
:1011C0000534053C0544054C0554055C0564056C77
:1011D0000574057C0584058C0594059C05A505AD65
:1011E00005B505BD05C605CE05D605DF05E705EF46
:1011F00005F8050006090611061A0622062B063315
:10120000063C0644064D0656065E0667066F0678DF
:10121000068106890692069B06A406AC06B506BEA4
:1012200006C706CF06D806E106EA06F306FC060462
:10123000070D0716071F07280731073A0743074C12
:101240000754075D0766076F07780781078A0793CA
:10125000079C07A507AE07B707C007C907D207DB7A
:1012600007E407ED07F607FF07080811081A082327
:10127000082C0835083E0847085008590862086BD2
:101280000874087D0886088F089808A108AA08B283
:1012900008BB08C408CD08D608DF08E808F108FA3A
:1012A0000802090B0914091D0926092F09370940ED
:1012B00009490952095A0963096C0975097D0986AA
:1012C000098F099709A009A809B109BA09C209CB70
:1012D00009D309DC09E409ED09F509FE09060A0F3D
:1012E0000A170A1F0A280A300A380A410A490A510D
:1012F0000A590A620A6A0A720A7A0A820A8A0A92EF
:101300000A9A0AA20AAA0AB20ABA0AC20ACA0AD2DD
:101310000ADA0AE20AEA0AF10AF90A010B090B10D1
:101320000B180B200B270B2F0B360B3E0B450B4DD1
:101330000B540B5C0B630B6A0B720B790B800B88E5
:101340000B8F0B960B9D0BA40BAB0BB20BBA0BC107
:101350000BC80BCE0BD50BDC0BE30BEA0BF10BF838
:101360000BFE0B050C0C0C130C190C200C260C2D71
:101370000C330C3A0C400C470C4D0C540C5A0C60BE
:101380000C670C6D0C730C790C7F0C850C8C0C921B
:101390000C980C9E0CA40CAA0CAF0CB50CBB0CC189
:1013A0000CC70CCD0CD20CD80CDE0CE30CE90CEF06
:1013B0000CF40CFA0CFF0C050D0A0D0F0D150D1A8F
:1013C0000D1F0D250D2A0D2F0D340D390D3F0D4428
:1013D0000D490D4E0D530D580D5D0D620D670D6BD2
:1013E0000D700D750D7A0D7F0D830D880D8D0D918E
:1013F0000D960D9B0D9F0DA40DA80DAD0DB10DB556
:101400000DBA0DBE0DC30DC70DCB0DCF0DD40DD82C
:101410000DDC0DE00DE40DE80DEC0DF00DF40DF814
:101420000DFC0D000E040E080E0C0E100E140E17FF
:101430000E1B0E1F0E220E260E2A0E2D0E310E35FD
:101440000E380E3C0E3F0E430E460E4A0E4D0E5009
:101450000E540E570E5A0E5E0E610E640E670E6B22
:101460000E6E0E710E740E770E7A0E7D0E800E8348
:101470000E860E890E8C0E8F0E920E950E980E9B78
:101480000E9E0EA10EA30EA60EA90EAC0EAE0EB1B0
:101490000EB40EB60EB90EBC0EBE0EC10EC30EC6F5
:1014A0000EC80ECB0ECD0ED00ED20ED50ED70ED945
:1014B0000EDC0EDE0EE10EE30EE50EE70EEA0EEC9C
:1014C0000EEE0EF00EF30EF50EF70EF90EFB0EFDFE
:1014D0000EFF0E020F040F060F080F0A0F0C0F0E5F
:1014E0000F100F120F140F150F170F190F1B0F1DD1
:1014F0000F1F0F210F230F240F260F280F2A0F2B4A
:101500000F2D0F2F0F310F320F340F360F370F39CA
:101510000F3B0F3C0F3E0F3F0F410F430F440F4651
:101520000F470F490F4A0F4C0F4D0F4F0F500F52DF
:101530000F530F550F560F570F590F5A0F5B0F5D73
:101540000F5E0F600F610F620F630F650F660F670D
:101550000F690F6A0F6B0F6C0F6E0F6F0F700F71AB
:101560000F720F740F750F760F770F780F790F7A50
:101570000F7B0F7D0F7E0F7F0F800F810F820F83F8
:101580000F840F850F860F870F880F890F8A0F8BA7
:101590000F8C0F8D0F8E0F8F0F900F910F920F9357
:1015A0000F930F940F950F960F970F980F990F9A0F
:1015B0000F9A0F9B0F9C0F9D0F9E0F9F0F9F0FA0C9
:1015C0000FA10FA20FA30FA30FA40FA50FA60FA685
:1015D0000FA70FA80FA90FA90FAA0FAB0FAB0FAC46
:1015E0000FAD0FAE0FAE0FAF0FB00FB00FB10FB208
:1015F0000FB20FB30FB30FB40FB50FB50FB60FB7D0
:101600000FB70FB80FB80FB90FBA0FBA0FBB0FBB98
:101610000FBC0FBC0FBD0FBE0FBE0FBF0FBF0FC063
:101620000FC00FC10FC10FC20FC20FC30FC30FC432
:101630000FC40FC50FC50FC60FC60FC70FC70FC802
:101640000FC80FC90FC90FC90FCA0FCA0FCB0FCBD5
:101650000FCC0FCC0FCC0FCD0FCD0FCE0FCE0FCFA9
:101660000FCF0FCF0FD00FD00FD10FD10FD10FD27F
:101670000FD20FD20FD30FD30FD40FD40FD40FD557
:101680000FD50FD50FD60FD60FD60FD70FD70FD731
:101690000FD80FD80FD80FD90FD90FD90FDA0FDA0B
:1016A0000FDA0FDA0FDB0FDB0FDB0FDC0FDC0FDCE9
:1016B0000FDD0FDD0FDD0FDD0FDE0FDE0FDE0FDEC6
:1016C0000FDF0FDF0FDF0FDF0FE00FE00FE00FE0A6
:1016D0000FE10FE10FE10FE10FE20FE20FE20FE286
:1016E0000FE30FE30FE30FE30FE40FE40FE40FE466
:1016F0000FE40FE50FE50FE50FE50FE50FE60FE649
:101700000FE60FE60FE60FE70FE70FE70FE70FE72C
:101710000FE80FE80FE80FE80FE80FE90FE90FE90E
:101720000FE90FE90FE90FEA0FEA0FEA0FEA0FEAF4
:101730000FEA0FEB0FEB0FEB0FEB0FEB0FEB0FECD9
:101740000FEC0FEC0FEC0FEC0FEC0FEC0FED0FEDBF
:101750000FED0FED0FED0FED0FED0FEE0FEE0FEEA6
:101760000FEE0FEE0FEE0FEE0FEE0FEF0FEF0FEF8E
:101770000FEF0FEF0FEF0FEF0FEF0FF00FF00FF076
:101780000FF00FF00FF00FF00FF00FF00FF10FF15F
:101790000FF10FF10FF10FF10FF10FF10FF10FF248
:1017A0000FF20FF20FF20FF20FF20FF20FF20FF231
:1017B0000FF20FF20FF30FF30FF30FF30FF30FF31B
:1017C0000FF30FF30FF30FF30FF30FF40FF40FF406
:1017D0000FF40FF40FF40FF40FF40FF40FF40FF4F1
:1017E0000FF40FF40FF50FF50FF50FF50FF50FF5DB
:1017F0000FF50FF50FF50FF50FF50FF50FF50FF5C9
:101800000FF60FF60FF60FF60FF60FF60FF60FF6B0
:101810000FF60FF60FF60FF60FF60FF60FF60FF6A0
:101820000FF70FF70FF70FF70FF70FF70FF70FF788
:101830000FF70FF70FF70FF70FF70FF70FF70FF778
:101840000FF70FF70FF70FF80FF80FF80FF80FF863
:101850000FF80FF80FF80FF80FF80FF80FF80FF850
:101860000FF80FF80FF80FF80FF80FF80FF80FF840
:101870000FF80FF80FF90FF90FF90FF90FF90FF92A
:101880000FF90FF90FF90FF90FF90FF90FF90FF918
:101890000FF90FF90FF90FF90FF90FF90FF90FF908
:1018A0000FF90FF90FF90FF90FF90FF90FF90FFAF7
:1018B0000FFA0FFA0FFA0FFA0FFA0FFA0FFA0FFAE0
:1018C0000FFA0FFA0FFA0FFA0FFA0FFA0FFA0FFAD0
:1018D0000FFA0FFA0FFA0FFA0FFA0FFA0FFA0FFAC0
:1018E0000FFA0FFA0FFA0FFA0FFA0FFA0FFA0FFAB0
:1018F0000FFA0FFA0FFA0FFA0FFA0FFB0FFB0FFB9D
:101900000FFB0FFB0FFB0FFB0FFB0FFB0FFB0FFB87
:101910000FFB0FFB0FFB0FFB0FFB0FFB0FFB0FFB77
:101920000FFB0FFB0FFB0FFB0FFB0FFB0FFB0FFB67
:101930000FFB0FFB0FFB0FFB0FFB0FFB0FFB0FFB57
:101940000FFB0FFB0FFB0FFB0FFB0FFB0FFB0FFB47
:101950000FFB0FFB0FFB0FFB0FFB0FFB0FFB0FFB37
:101960000FFB0FFB0FFB0FFB0FFB0FFB0FFB0FFC26
:101970000FFC0FFC0FFC0FFC0FFC0FFC0FFC0FFC0F
:101980000FFC0FFC0FFC0FFC0FFC0FFC0FFC0FFCFF
:101990000FFC0FFC0FFC0FFC0FFC0FFC0FFC0FFCEF
:1019A0000FFC0FFC0FFC0FFC0FFC0FFC0FFC0FFCDF
:1019B0000FFC0FFC0FFC0FFC0FFC0FFC0FFC0FFCCF
:1019C0000FFC0FFC0FFC0FFC0FFC0FFC0FFC0FFCBF
:1019D0000FFC0FFC0FFC0FFC0FFC0FFC0FFC0FFCAF
:1019E0000FFC0FFC0FFC0FFC0FFC0FFC0FFC0FFC9F
:1019F0000FFC0FFC0FFC0FFC0FFC0FFC0FFC0FFC8F
:101A00000FFC0FFC0FFC0FFC0FFC0FFC0FFC0FFC7E
:101A10000FFC0FFC0FFC0FFC0FFC0FFC0FFC0FFC6E
:101A20000FFC0FFC0FFC0FFC0FFC0FFC0FFC0FFC5E
:101A30000FFC0FFC0FFC0FFC0FFC0FFC0FFC0FFC4E
:101A40000FFC0FFC0FFC0FFC0FFC0FFC0FFC0FFC3E
:101A50000FFC0FFC0FFC0FFC0FFC0FFC0FFC0FFC2E
:101A60000FFC0FFC0FFC0FFC0FFD0FFD0FFD0FFD1A
:101A70000FFD0FFD0FFD0FFD0FFD0FFD0FFD0FFD06
:101A80000FFD0FFD0FFD0FFD0FFD0FFD0FFD0FFDF6
:101A90000FFD0FFD0FFD0FFD0FFD0FFD0FFD0FFDE6
:101AA0000FFD0FFD0FFD0FFD0FFD0FFD0FFD0FFDD6
:102260000FFD0FFD0FFD0FFD0FFF07FF07FF07FF1E
:1022700007FF07FF07FF07FF07FF07FF07FF07FF2E
:1022800007FF07FF07FF07FF07FF07FF07FF07FF1E
:1022900007FF07FF07FF07FF07FF07FF07FF07FF0E
:1022A00007FF07FF07FF07FF07FF07FF07FF07FFFE
:1029F00007FF07FF07FF07FF07FF07FF07FF07FEA8
:102A000007FE07FE07FE07FE07FE07FE07FE07FE9E
:102A100007FE07FE07FE07FE07FE07FE07FE07FE8E
:102A200007FE07FE07FE07FE07FE07FE07FE07FE7E
:102A300007FE07FE07FE07FE07FE07FE07FE07FE6E
:102A400007FE07FE07FE07FE07FE07FE07FE07FE5E
:102A500007FE07FE07FE07FE07FE07FE07FE07FE4E
:102A600007FE07FE07FE07FE07FE07FE07FE07FE3E
:102A700007FE07FE07FE07FE07FE07FE07FE07FE2E
:102A800007FE07FE07FE07FE07FE07FE07FE07FE1E
:102A900007FE07FE07FE07FE07FE07FE07FD07FD10
:102AA00007FD07FD07FD07FD07FD07FD07FD07FD06
:102AB00007FD07FD07FD07FD07FD07FD07FD07FDF6
:102AC00007FD07FD07FD07FD07FD07FD07FD07FDE6
:102AD00007FD07FD07FD07FD07FD07FD07FD07FDD6
:102AE00007FD07FD07FD07FD07FD07FD07FD07FDC6
:102AF00007FD07FD07FD07FD07FC07FC07FC07FCBA
:102B000007FC07FC07FC07FC07FC07FC07FC07FCAD
:102B100007FC07FC07FC07FC07FC07FC07FC07FC9D
:102B200007FC07FC07FC07FC07FC07FC07FC07FC8D
:102B300007FC07FC07FC07FC07FC07FB07FB07FB80
:102B400007FB07FB07FB07FB07FB07FB07FB07FB75
:102B500007FB07FB07FB07FB07FB07FB07FB07FB65
:102B600007FB07FB07FB07FB07FB07FB07FB07FA56
:102B700007FA07FA07FA07FA07FA07FA07FA07FA4D
:102B800007FA07FA07FA07FA07FA07FA07FA07FA3D
:102B900007FA07FA07FA07F907F907F907F907F932
:102BA00007F907F907F907F907F907F907F907F925
:102BB00007F907F907F907F907F907F807F807F818
:102BC00007F807F807F807F807F807F807F807F80D
:102BD00007F807F807F807F807F707F707F707F701
:102BE00007F707F707F707F707F707F707F707F7F5
:102BF00007F707F607F607F607F607F607F607F6EC
:102C000007F607F607F607F607F607F507F507F5DF
:102C100007F507F507F507F507F507F507F507F5D4
:102C200007F407F407F407F407F407F407F407F4CC
:102C300007F407F407F307F307F307F307F307F3C2
:102C400007F307F307F307F207F207F207F207F2B9
:102C500007F207F207F207F207F107F107F107F1B0
:102C600007F107F107F107F107F007F007F007F0A8
:102C700007F007F007F007EF07EF07EF07EF07EFA1
:102C800007EF07EF07EE07EE07EE07EE07EE07EE9A
:102C900007ED07ED07ED07ED07ED07ED07ED07EC95
:102CA00007EC07EC07EC07EC07EB07EB07EB07EB90
:102CB00007EB07EB07EA07EA07EA07EA07EA07E98B
:102CC00007E907E907E907E907E807E807E807E888
:102CD00007E807E707E707E707E707E707E607E685
:102CE00007E607E607E507E507E507E507E507E483
:102CF00007E407E407E407E307E307E307E307E282
:102D000007E207E207E207E107E107E107E007E082
:102D100007E007E007DF07DF07DF07DE07DE07DE84
:102D200007DE07DD07DD07DD07DC07DC07DC07DB87
:102D300007DB07DB07DA07DA07DA07DA07D907D98B
:102D400007D807D807D807D707D707D707D607D692
:102D500007D607D507D507D507D407D407D307D398
:102D600007D307D207D207D107D107D107D007D0A1
:102D700007CF07CF07CF07CE07CE07CD07CD07CCAC
:102D800007CC07CB07CB07CA07CA07CA07C907C9B9
:102D900007C807C807C707C707C607C607C507C5C7
:102DA00007C407C407C307C307C207C107C107C0D9
:102DB00007C007BF07BF07BE07BE07BD07BC07BCEC
:102DC00007BB07BB07BA07B907B907B807B807B702
:102DD00007B607B607B507B407B407B307B207B21B
:102DE00007B107B007B007AF07AE07AD07AD07AC37
:102DF00007AB07AB07AA07A907A807A707A707A656
:102E000007A507A407A407A307A207A107A0079F78
:102E1000079F079E079D079C079B079A079907999D
:102E200007980797079607950794079307920791C6
:102E30000790078F078E078D078C078B078A0789F6
:102E40000788078707860785078407830782078126
:102E5000077F077E077D077C077B077A077907775F
:102E6000077607750774077307710770076F076E9A
:102E7000076C076B076A07690767076607650763DB
:102E800007620760075F075E075C075B0759075823
:102E900007570755075407520751074F074E074C6E
:102EA000074A074907470746074407420741073FC4
:102EB000073D073C073A073807370735073307311F
:102EC0000730072E072C072A072807260725072380
:102ED0000721071F071D071B0719071707150713EA
:102EE0000711070F070D070B07090706070407025D
:102EF000070007FE06FB06F906F706F506F206F0E0
:102F000006EE06EB06E906E706E406E206DF06DD66
:102F100006DA06D806D506D306D006CE06CB06C8F6
:102F200006C606C306C006BE06BB06B806B506B38F
:102F300006B006AD06AA06A706A406A1069E069B35
:102F4000069806950692068F068C068906850682E7
:102F5000067F067C067806750672066E066B0668A6
:102F600006640661065D065A06560653064F064B72
:102F7000064806440640063D063906350631062D4C
:102F8000062906260622061E061A06160611060D34
:102F900006090605060106FD05F805F405F005EB32
:102FA00005E705E205DE05DA05D505D005CC05C740
:102FB00005C305BE05B905B405B005AB05A605A159
:102FC000059C05970592058D05880583057E057886
:102FD0000573056E05690563055E05580553054EC5
:102FE00005480542053D05370532052C0526052017
:102FF000051A0515050F0509050305FD04F704F17C
:1030000004EA04E404DE04D804D104CB04C504BEFD
:1030100004B804B104AB04A4049E04970490048A89
:103020000483047C0475046E04670460045904522C
:10303000044B0444043D0436042F042704200419DF
:103040000411040A040304FB03F403EC03E403DDAA
:1030500003D503CD03C603BE03B603AE03A6039E8A
:103060000396038F0387037E0376036E0366035E76
:103070000356034E0345033D0335032D0324031C70
:103080000313030B030303FA02F202E902E002D87E
:1030900002CF02C702BE02B602AD02A4029C029396
:1030A000028A0281027902700267025F0256024DB3
:1030B0000244023C0233022A0221021902100207D2
:1030C00002FE01F601ED01E401DC01D301CA01C2F7
:1030D00001B901B001A8019F0197018E0186017D10
:1030E0000175016C0164015C0153014B0143013B1B
:1030F0000133012B0123011B0113010B010301FC0F
:1031000000F400EC00E500DE00D600CF00C800C1EE
:1031100000BA00B300AC00A5009E00980091008B9F
:103120000085007F00790073006D00670062005C1D
:1031300000570052004D00480043003E003A003561
:103140000031002D002900250022001F001B00185F
:10315000001500130010000E000C000A0008000605
:10316000000500040003000200010001000100014D
:103170000001000200030004000500060008000A28
:10318000000C000F001100140018001B001F00238A
:103190000027002C00300035003B00400046004C6A
:1031A0000053005900610068006F0077007F0088BD
:1031B0000091009A00A300AD00B700C100CB00D67B
:1031C00000E100ED00F900050111011E012B01389D
:1031D0000145015301620170017F018E019D01AD26
:1031E00001BD01CD01DE01EF010002110223023514
:1031F0000248025A026D0280029402A702BB02D06A
:1032000002E402F9020E03240339034F0365037B32
:10321000039203A903C003D703EF0307041F043776
:10322000044F04680480049904B304CC04E604FF4A
:1032300004190533054D05680582059D05B805D3BC
:1032400005EE050906240640065B0677069206AEE3
:1032500006CA06E60602071E073A07560772078ED9
:1032600007AB07C707E307FF071C083808540871B6
:10327000088D08A908C508E108FD08190935095194
:10328000096D098809A409BF09DB09F609110A2C8F
:103290000A470A620A7D0A970AB20ACC0AE60A00BD
:1032A0000B190B330B4C0B660B7F0B970BB00BC83A
:1032B0000BE00BF80B100C280C3F0C560C6D0C841B
:1032C0000C9A0CB00CC60CDB0CF10C060D1B0D2F70
:1032D0000D440D580D6B0D7F0D920DA50DB70DCA48
:1032E0000DDC0DEE0DFF0D100E210E320E420E52B2
:1032F0000E620E710E800E8F0E9D0EAC0EBA0EC7B2
:103300000ED40EE10EEE0EFA0E060F120F1E0F294E
:103310000F340F3E0F480F520F5C0F650F6E0F7783
:103320000F800F880F900F970F9E0FA60FAC0FB353
:103330000FB90FBF0FC40FCA0FCF0FD30FD80FDCB9
:103340000FE00FE40FE70FEB0FEE0FF00FF30FF5A9
:103350000FF70FF90FFA0FFB0FFC0FFD0FFE0FFE1B
:103360000FFE0FFE0FFE0FFD0FFC0FFB0FFA0FF904
:103370000FF70FF50FF30FF10FEF0FEC0FEA0FE759
:103380000FE40FE00FDD0FDA0FD60FD20FCE0FCA0A
:103390000FC50FC10FBC0FB70FB20FAD0FA80FA312
:1033A0000F9D0F980F920F8C0F860F800F7A0F745E
:1033B0000F6E0F670F610F5A0F530F4C0F450F3EE3
:1033C0000F370F300F290F210F1A0F130F0B0F0399
:1033D0000FFC0EF40EEC0EE40EDC0ED40ECC0EC47C
:1033E0000EBC0EB40EAC0EA30E9B0E930E8A0E8274
:1033F0000E790E710E680E600E570E4F0E460E3D82
:103400000E350E2C0E230E1B0E120E090E010EF899
:103410000DEF0DE60DDE0DD50DCC0DC30DBB0DB2C0
:103420000DA90DA00D980D8F0D860D7E0D750D6CDF
:103430000D630D5B0D520D490D410D380D300D27FB
:103440000D1F0D160D0D0D050DFC0CF40CEC0CE311
:103450000CDB0CD20CCA0CC20CBA0CB10CA90CA11E
:103460000C990C910C890C810C780C700C690C6116
:103470000C590C510C490C410C390C320C2A0C2201
:103480000C1B0C130C0B0C040CFC0BF50BEE0BE6DD
:103490000BDF0BD80BD00BC90BC20BBB0BB40BADA6
:1034A0000BA60B9F0B980B910B8A0B830B7C0B7558
:1034B0000B6F0B680B610B5B0B540B4E0B470B41F7
:1034C0000B3A0B340B2E0B270B210B1B0B150B0E82
:1034D0000B080B020BFC0AF60AF00AEA0AE50ADFFF
:1034E0000AD90AD30ACD0AC80AC20ABD0AB70AB164
:1034F0000AAC0AA70AA10A9C0A960A910A8C0A87B2
:103500000A810A7C0A770A720A6D0A680A630A5EEF
:103510000A590A540A4F0A4B0A460A410A3C0A3819
:103520000A330A2F0A2A0A250A210A1D0A180A1430
:103530000A0F0A0B0A070A020AFE09FA09F609F23B
:1035400009EE09E909E509E109DD09D909D609D238
:1035500009CE09CA09C609C209BF09BB09B709B41E
:1035600009B009AC09A909A509A2099E099B0997F7
:1035700009940991098D098A098709830980097DC0
:10358000097A097609730970096D096A096709647E
:103590000961095E095B095809550952094F094C2F
:1035A000094A094709440941093F093C09390937D2
:1035B00009340931092F092C092A0927092509226B
:1035C0000920091D091B0918091609140911090FF9
:1035D000090D090A090809060904090109FF08FD7E
:1035E00008FB08F908F608F408F208F008EE08EC01
:1035F00008EA08E808E608E408E208E008DE08DC73
:1036000008DA08D908D708D508D308D108CF08CEDA
:1036100008CC08CA08C808C708C508C308C208C03B
:1036200008BE08BD08BB08B908B808B608B508B395
:1036300008B108B008AE08AD08AB08AA08A808A7EA
:1036400008A608A408A308A108A0089F089D089C34
:10365000089A08990898089608950894089308917C
:103660000890088F088E088C088B088A08890888BB
:103670000886088508840883088208810880087EF7
:10368000087D087C087B087A08790878087708762E
:10369000087508740873087208710870086F086E5E
:1036A000086D086C086B086A08690868086708668E
:1036B00008660865086408630862086108600860B5
:1036C000085F085E085D085C085B085B085A0859DB
:1036D00008580858085708560855085408540853FD
:1036E0000852085208510850084F084F084E084D1C
:1036F000084D084C084B084B084A08490849084837
:10370000084708470846084608450844084408434F
:10371000084308420841084108400840083F083F64
:10372000083E083E083D083C083C083B083B083A78
:10373000083A083908390838083808370837083689
:103740000836083508350835083408340833083396
:103750000832083208310831083008300830082FA4
:10376000082F082E082E082E082D082D082C082CAE
:10377000082C082B082B082A082A082A08290829B7
:1037800008290828082808280827082708270826BD
:1037900008260825082508250825082408240824C3
:1037A00008230823082308220822082208210821C8
:1037B00008210821082008200820081F081F081FCA
:1037C000081F081E081E081E081D081D081D081DCC
:1037D000081C081C081C081C081B081B081B081BCD
:1037E000081A081A081A081A081A081908190819CC
:1037F00008190818081808180818081808170817CA
:1038000008170817081708160816081608160816C5
:1038100008150815081508150815081408140814C3
:1038200008140814081408130813081308130813BD
:1038300008120812081208120812081208120811B9
:1038400008110811081108110811081008100810B3
:103850000810081008100810080F080F080F080FAC
:10386000080F080F080F080E080E080E080E080EA5
:10387000080E080E080E080D080D080D080D080D9D
:10388000080D080D080D080D080C080C080C080C94
:10389000080C080C080C080C080C080B080B080B8B
:1038A000080B080B080B080B080B080B080B080A81
:1038B000080A080A080A080A080A080A080A080A78
:1038C000080A080A0809080908090809080908096E
:1038D0000809080908090809080908090808080862
:1038E0000808080808080808080808080808080858
:1038F000080808080808080708070807080708074D
:10390000080708070807080708070807080708073F
:103910000807080708060806080608060806080635
:103920000806080608060806080608060806080627
:10393000080608060806080608050805080508051B
:10394000080508050805080508050805080508050F
:1039500008050805080508050805080508050805FF
:1039600008040804080408040804080408040804F7
:1039700008040804080408040804080408040804E7
:1039800008040804080408040804080408040804D7
:1039900008040804080308030803080308030803CD
:1039A00008030803080308030803080308030803BF
:1039B00008030803080308030803080308030803AF
:1039C000080308030803080308030803080308039F
:1039D0000803080308030802080208020802080294
:1039E0000802080208020802080208020802080287
:1039F0000802080208020802080208020802080277
:103A00000802080208020802080208020802080266
:103A10000802080208020802080208020802080256
:103A20000802080208020802080208020802080246
:103A3000080208010801080108010801080108013D
:103A4000080108010801080108010801080108012E
:103A5000080108010801080108010801080108011E
:103A6000080108010801080108010801080108010E
:103A700008010801080108010801080108010801FE
:104260000800080008000800083C003E004000422A
:10427000004400460048004A004C004E00510053E4
:1042800000560058005B005D006000630066006936
:10429000006C006F007200760079007C0080008462
:1042A0000088008C009000940098009D00A100A65A
:1042B00000AB00B000B500BB00C000C600CB00D111
:1042C00000D800DE00E400EB00F200F90000010875
:1042D00001100117012001280131013A0143014C6D
:1042E00001560160016A01750180018B019701A3EC
:1042F00001AF01BC01C901D601E401F201010210C4
:10430000021F022F023F02500262027302860299CC
:1043100002AC02C002D502EA02000316032E0345D6
:10432000035E0377039103AC03C803E40301041F96
:10433000043E045E047F04A004C304E7040C0531BA
:104340000558058005AA05D40500062D065B068BD9
:1043500006BC06EF06230758078F07C80702083E6A
:10436000087C08BC08FD0841098609CE09170A63C4
:104370000AB10A010B540BA90B000C5A0CB70C160E
:104380000D780DDD0D450EB00E1E0F900F05107D42
:1043900010F8107811FB1182120C139B132E14C607
:1043A0001462150216A71651170018B4186D192CAF
:1043B0001AF01ABA1B8A1C601D3D1E201F0920F925
:1043C00020F121EF22F5230325192637275D288CBC
:1043D00029C32A042C4E2DA22E00306831DA32581F
:1043E00034E13575371539C13A7A3C3F3E1240F316
:1043F00041E243DF45EB47064A324C6D4EBA501757
:1044000053865508589C5A445D0060D062B565B02B
:1044100068C16BEA6E2A728275F3787F7C2580E62C
:1044200083C387BE8BD68F0D946398DA9C73A12EBD
:10443000A60DAB10B039B588BAFFBF9FC56ACB6077
:10444000D182D7D3DD53E404EBE7F1FDF8FFFFFFA2
:10445000FFFFFFFFFFFFFFFFFFFFFFFFFFFFFFFF6C
:10446000FFFFFFFFFFFFFFFFFF0004000400040049
:10447000040004000400040004000400040004001C
:10448000040004000400040004000400040004000C
:1044900004000400040004000400040004000400FC
:1044A00004000400040004000400040004000400EC
:1044B0000400040004000400040004E303C703AB89
:1044C00003900376035D0345032D031603FF02E902
:1044D00002D402BF02AB029802850273026102504D
:1044E000023F022E021E020F020002F101E301D67A
:1044F00001C801BB01AF01A20196018B01800175CA
:10450000016A01600156014C014301390130012863
:10451000011F0117010F0108010001F900F200EB72
:1045200000E400DE00D700D100CB00C500C000BA17
:1045300000B500B000AB00A600A1009D009800945B
:104540000090008C008800840080007C0079007559
:104550000072006F006C0069006600630060005D1F
:10456000005B0058005500530051004E004C004ABB
:1045700000480046004400420040003E003C003B32
:104580000039003700360034003300310030002F8E
:10459000002D002C002B00290028002700260025D4
:1045A00000240023002200210020001F001E001D07
:1045B000001D001C001B001A00190019001800172C
:1045C0000017001600150015001400140013001247
:1045D000001200110011001000100010000F000F59
:1045E000000E000E000D000D000D000C000C000C64
:1045F000000B000B000B000A000A000A000A000969
:104600000009000900080008000800080008000769
:104610000007000700070007000600060006000666
:104620000006000500050005000500050005000561
:10463000000400040004000400040004000400045A
:104640000004000300030003000300030003000351
:104650000003000300030003000300020002000245
:104660000002000200020002000A000A000A000A1A
:10467000000B000B000B000C000C000D000D000DDA
:10468000000E000E000F000F0010001000100011AF
:10469000001100120013001300140014001500157F
:1046A00000160017001700180019001A001A001B46
:1046B000001C001D001E001F002000200021002201
:1046C000002300240026002700280029002A002BB0
:1046D000002D002E002F003100320034003500374D
:1046E0000039003A003C003E0040004100430045D4
:1046F00000470049004C004E005000520055005742
:10470000005A005D005F006200650068006B006E8B
:10471000007200750078007C008000830087008BA9
:10472000008F00930098009C00A100A500AA00AF94
:1047300000B500BA00BF00C500CB00D100D700DD36
:1047400000E400EA00F100F800000107010F011782
:10475000011F0127013001390142014B0155015F61
:10476000016A0174017F018A019601A201AE01BBB9
:1047700001C801D501E301F10100020F021E022E62
:10478000023E024F026002720285029702AB02BF34
:1047900002D402E902FF0215032C0344035D0376F1
:1047A000039003AB03C603E20300041E043C045C55
:1047B000047D049F04C104E5040A052F0556057E07
:1047C00005A805D205FE052B0659068906BA06EC92
:1047D00006200756078D07C50700083C087908B969
:1047E00008FA083E098309CA09140A5F0AAD0AFDDE
:1047F0000A500BA50BFC0B560CB20C120D740DD904
:104800000D410EAC0E1A0F8B0F00107810F31072C2
:1048100011F5117C12061395132814BF145B15FBB8
:1048200015A0164A17F917AC186519241AE81AB218
:104830001B821C581D341E161F0020F020E721E5A6
:1048400022EB23F8240D262B2751287F29B72AF79E
:104850002B412D942EF22F5931CB324934D135646E
:10486000370439B03A683C2D3ED103EB03060422ED
:10487000043D045A0476049304B004CE04EB045CB3
:1048800003700385039A03AF03C403DA03F003063E
:10489000041C0433044A04610478048F04A704BF91
:1048A00004D704F004C603D903EC03FF0312042663
:1048B000043A044D04610475048A049E04B304C8D8
:1048C00004DD04F2040604170429043A044C045ECF
:1048D00004700482049404A704B904CC04DF04F235
:1048E000042F043F044F045F04700480049104A269
:1048F00004B304C404D504E604F804510460046F4E
:10490000047F048E049E04AD04BD04CD04DD04EDDB
:1049100004FD046C047A0488049704A504B404C359
:1049200004D204E004EF04FF047E048C049904A77D
:1049300004B504C304D104DF04ED04FB0489049628
:1049400004A304B004BD04CA04D704E504F2048B34
:10495000049804A404B104BD04CA04D704E304F019
:1049600004FD049E04AA04B604C204CF04DB04E7D9
:1049700004F3049D04A904B404C004CB04D704E3E5
:1049800004EE04FA04AA04B504C104CC04D704E27A
:1049900004EE04F904AF04BA04C404CF04DA04E555
:1049A00004F004FB04B604C004CB04D504E004EA1C
:1049B00004F504B504BF04C904D304DD04E704F21C
:1049C00004FC04BF04C904D304DD04E704F104FBC0
:1049D00004C104CB04D504DE04E804F204FC04C5DD
:1049E00004CF04D804E104EB04F504FE04CA04D4A3
:1049F00004DD04E604EF04F904C804D104DA04E396
:104A000004EC04F504FE04CF04D804E104EA04F243
:104A100004FB04CF04D704E004E904F104FA04D051
:104A200004D804E004E904F104FA04D104D904E24E
:104A300004EA04F204FB04D404DC04E404EC04F40B
:104A400004FD04D704DF04E704EF04F704D304DB18
:104A500004E304EB04F304FA04D804DF04E704EFEE
:104A600004F704FE04DD04E4040200020002000274
:104A70000002000200020002000200020002000325
:104A8000000300030003000300030003000300030E
:104A900000030003000300030003000300030003FE
:104AA00000030003000400040004000400040004E8
:104AB00000040004000400040004000400040004D6
:104AC00000040004000500050005000500050005C0
:104AD00000050005000500050005000500050005AE
:104AE0000006000600060006000600060006000696
:104AF0000006000600060006000600070007000783
:104B0000000700070007000700070007000700076D
:104B10000007000800080008000800080008000856
:104B20000008000800080008000900090009000941
:104B3000000900090009000900090009000A000A2B
:104B4000000A000A000A000A000A000A000A000B14
:104B5000000B000B000B000B000B000B000B000BFD
:104B6000000B000C000C000C000C000C000C000CE6
:104B7000000C000D000D000D000D000D000D000DCE
:104B8000000D000D000E000E000E000E000E000EB7
:104B9000000E000E000F000F000F000F000F000F9F
:104BA000000F000F00100010001000100010001087
:104BB000001000110011001100110011001100116E
:104BC0000011001200120012001200120012001256
:104BD000001300130013001300130013001300143C
:104BE0000014001400140014001400140015001523
:104BF0000015001500150015001600160016001609
:104C000000160016001600170017001700170017EF
:104C100000170018001800180018001800180019D4
:104C200000190019001900190019001A001A001AB9
:104C3000001A001A001A001B001B001B001B001B9F
:104C4000001B001C001C001C001C001C001D001D83
:104C5000001D001D001D001D001E001E001E001E68
:104C6000001E001E001F001F0080008000800080CA
:104C7000008000800080008000800080008000555F
:104C8000005500550055005500550055005500557C
:104C9000005500550055005500550055005500556C
:104CA00000550055004000400040004000400040DA
:104CB00000400040004000400040004000400040F4
:104CC0000040004000330033003300330033003332
:104CD000003300330033003300330033003300333C
:104CE000002B002B002B002B002B002B002B002B6C
:104CF000002B002B002B002B002B0025002500256E
:104D0000002500250025002500250025002500257B
:104D1000002500200020002000200020002000208E
:104D20000020002000200020001D001D001D001D8F
:104D3000001D001D001D001D001D001D001A001A91
:104D4000001A001A001A001A001A001A001A001895
:104D50000018001800180018001800180018001893
:104D60000018001600160016001600160016001691
:104D70000016001400140014001400140014001491
:104D80000014001400130013001300130013001389
:104D90000013001300110011001100110011001187
:104DA0000011001100100010001000100010001081
:104DB0000010000F000F000F000F000F000F000F7A
:104DC000000F000F000F000F000F000F000F000F6B
:104DD000000E000E000E000E000E000E000E000D64
:104DE000000D000D000D000D000D000D000D000D5B
:104DF000000D000D000D000D000C000C000C000C4F
:104E0000000C000C000C000C000C000C000C000C42
:104E1000000C000B000B000B000B000B000B000B39
:104E2000000B000B000B000B000B000A000A000A2D
:104E3000000A000A000A000A000A000A000A000A22
:104E4000000A000A000A000A000A000A0009000914
:104E5000000900090009000900090009000900090A
:104E6000000900090009000900008000800080009E
:104E700080008000800080008000800080008055DD
:104E800055555555555555555555555555555555D2
:104E900055555555555555555555555555555555C2
:104EA0005555555555004000400040004000400019
:104EB00040004000400040004000400040004000F2
:104EC00040004000403333333333333333333333F1
:104ED00033333333333333333333333333333333A2
:104EE00033AA2AAA2AAA2AAA2AAA2AAA2AAA2AAA19
:104EF0002AAA2AAA2AAA2AAA2AAA2A922492249266
:104F000024922492249224922492249224922492F1
:104F100024922400200020002000200020002000F7
:104F2000200020002000200020711C711C711C71C9
:104F30001C711C711C711C711C711C711C991999BC
:104F40001999199919991999199919991999194525
:104F50001745174517451745174517451745174571
:104F600017451755155515551555155515551555FD
:104F7000155515B113B113B113B113B113B113B169
:104F800013B113B113491249124912491249124976
:104F9000124912491211111111111111111111118E
:104FA000111111111100100010001000100010005C
:104FB0001000100F0F0F0F0F0F0F0F0F0F0F0F0F0E
:104FC0000F0F0F380E380E380E380E380E380E38D8
:104FD0000E790D790D790D790D790D790D790DCC4D
:104FE0000CCC0CCC0CCC0CCC0CCC0CCC0C300C3039
:104FF0000C300C300C300C300CA20BA20BA20BA20C
:105000000BA20BA20BA20B210B210B210B210B21BD
:105010000B210BAA0AAA0AAA0AAA0AAA0AAA0A3DE4
:105020000A3D0A3D0A3D0A3D0A3D0AD809D809D879
:1050300009D809D809D8097B097B097B097B097B39
:10504000097B0924092409240924092409D308D344
:1050500008D308D308D308D30888088808880888A4
:10506000088808880842084208E804ED04F404FDB2
:1050700004E004EC04FA04DF04EF04D504E804FDC2
:1050800004E404FC04E404FE04E804D204EF04D9BC
:1050900004FA04E504D104F404E004CD04F404E1CA
:1050A00004CF04FA04E804D604C504F304E204D2ED
:1050B00004C104F404E404D404C504FD04ED04DED6
:1050C00004CF04C004FD04EF04E004D204C504B717
:1050D00004FA04EC04DF04D204C504B804AC04F4FC
:1050E00004E804DB04CF04C304B704AC04FC04F0FC
:1050F00004E404D904CD04C204B704AD04A204FA44
:1051000004EF04E404D904CF04C504BB04B104A72C
:10511000049D04FE04F404EA04E004D704CD04C4AE
:1051200004BB04B204A904A00497048E04FA04F199
:1051300004E804DF04D604CD04C504BC04B404AC04
:1051400004A4049C0494048C048404FD04F404EC7E
:1051500004E404DC04D404CC04C504BD04B604AEE9
:1051600004A704A004990492048B0484047D0476AB
:1051700004FD04F604EF04E804E004D904D204CCEE
:1051800004C504BE04B704B104AA04A4049D049792
:105190000491048B0484047E04780472046D046713
:1051A000046104FB04F404EE04E804E104DB04D528
:1051B00004CF04C904C304BD04B704B204AC04A6FC
:1051C00004A1049B04950490048B04850480047B53
:1051D00004750470046B04660461045C0457045293
:1051E000044D044904FA04F404EF04E904E404DF80
:1051F00004D904D404CF04CA04C504C004BB04B653
:1052000004B104AC04A704A2049D04990494048F7F
:10521000048B04860481047D047804740470046B98
:1052200004670462045E045A04560452044D04499F
:1052300004450441043D043904350431042D04FEC1
:1052400004FA04F504F104EC04E804E304DF04DAEE
:1052500004D604D204CD04C904C504C004BC04B8F7
:1052600004B404B004AC04A804A404A0049C0498EE
:1052700004940490048C048804840481047D0479DB
:1052800004750472046E046A046704630460045CB9
:10529000045904550452044E044B0447044404408A
:1052A000043D043A043604330430042D0429042652
:1052B00004230420041D0419041604130410040D0F
:1052C000040A04070404040104FD04FA04F604F2C9
:1052D00004EF04EB04E804E404E004DD04D904D69C
:1052E00004D204CF04CC04C804C504C104BE04BB6A
:1052F00004B704B404B104AD04AA04A704A404A12F
:10530000049D049A049704940491048E048B0488E9
:1053100004840481047E047B0478047504720470A0
:10532000046D046A046704640461045E045B045948
:10533000045604530450044D044B044804450442ED
:105340000440043D043A0438043504320430042D8A
:10535000042B0428042504230420041E041B041920
:10536000041604140411040F040C040A04080405B0
:105370000403040004FE03FC03F903F703F503F23E
:1053800003F003EE03EB03E903E703E403E203E0C6
:1053900003DE03DC03D903D703D503D303D103CE44
:1053A00003CC03CA03C803C603C403C203C003FD7E
:1053B00004FA04F704F404F204EF04EC04E904E74B
:1053C00004E404E104DF04DC04D904D704D404D2E7
:1053D00004CF04CC04CA04C704C504C204C004BD7D
:1053E00004BB04B804B604B304B104AE04AC04A90D
:1053F00004A704A504A204A0049D049B0499049698
:1054000004940492048F048D048B0488048604841D
:105410000481047F047D047B0478047604740472A0
:105420000470046D046B046904670465046204601D
:10543000045E045C045A0458045604540452044F95
:10544000044D044B04490447044504430441043F0C
:10545000043D043B04390437043504330431042F7C
:10546000042D042B042904270425042404220420E9
:10547000041E041C041A0418041604140413041152
:10548000040F040D040B04090408040604040402B8
:10549000040004FF03FD03FB03F903F703F603F421
:1054A00003F203F003EF03ED03EB03EA03E803E683
:1054B00003E403E303E103DF03DE03DC03DA03D9E0
:1054C00003D703D503D403D203D103CF03CD03CC39
:1054D00003CA03C803C703C503C403C203C103BF90
:1054E00003BD03BC03BA03B903B703B603B403B3E4
:1054F00003B103B003AE03AD03AB03AA03A803A734
:1055000003A503A403A203A1039F039E039C039B83
:105510000399039803960395039403920391038FD1
:10552000038E038C038B038A03880387038503841C
:10553000038303810380037F037D037C037A037964
:105540000378037603750374037203710370036EAB
:10555000036D036C036B03690368036703650364EE
:10556000036303610360035F035E035C035B035A31
:10557000035903570356035503FD04FC04FA04F8CA
:1055800004F604F404F204F104EF04ED04EB04E97E
:1055900004E804E604E404E204E004DF04DD04DBE0
:1055A00004D904D804D604D404D204D104CF04CD41
:1055B00004CC04CA04C804C604C504230022002184
:1055C00000200020001F001E001E001D001D001CEA
:1055D000001B001B001A001A0019001900190018FE
:1055E0000018001700170017001600160016001507
:1055F000001500150014001400140014001300130B
:10560000001300130012001200120012001100110A
:105610000011001100110010001000100010001007
:105620000010000F000F000F000F000F000F000F01
:10563000000E000E000E000E000E000E000E000DFB
:10564000000D000D000D000D000D000D000D000DF2
:10565000000C000C000C000C000C000C000C000CEA
:10566000000C000C000B000B000B000B000B000BE0
:10567000000B000B000B000B000B000B000B000AD3
:10568000000A000A000A000A000A000A000A000ACA
:10569000000A000A000A000A000A000A00090009BC
:1056A00000090009000900090009000900090009B2
:1056B00000090009000900090009000900090009A2
:1056C0000009000800080008000800080008000899
:1056D000000800080008000800080008000800088A
:1056E000000800080008000800080008000800087A
:1056F0000008000800070007000700070007000770
:105700000007000700070007000700070007000761
:105710000007000700070007000700070007000751
:105720000007000700070007000700070007000741
:105730000007000700070006000600060006000636
:105740000006000600060006000600060006000629
:105750000006000600060006000600060006000619
:105760000006000600060006000600060006000609
:1057700000060006000600060006000600060006F9
:1057800000060006000600060006000600060006E9
:1057900000050005000500050005000500050005E1
:1057A00000050005000500050005000500050005D1
:1057B00000050005000500050005000500050005C1
:1057C00000050005000500050005000500050005B1
:1057D00000050005000500050005000500050005A1
:1057E0000005000500050005000500050005000591
:1057F0000005000500050005000500050005000581
:105800000005000500050005000500050005000570
:105810000005000500050005000500040004000463
:105820000004000400040004000400040004000458
:105830000004000400040004000400040004000448
:105840000004000400040004000400040004000438
:105850000004000400040004000400040004000428
:105AC00000030003000300030003000200020002C1
:105AD00000020002000200020002000200020002B6
:105AE00000020002000200020002000200020002A6
:105AF0000002000200020002000200020002000296
:105B00000002000200020002000200020008000879
:105B10000008000800080009000900090009000940
:105B2000000A000A000A000A000A000B000B000B22
:105B3000000B000B000C000C000C000C000C000C07
:105B4000000D000D000D000D000D000D000D000EEC
:105B5000000E000E000E000F000F000F000F000FD0
:105B6000000F000F000F000F0010001000100010B9
:105B7000001000100011001100110011001100119F
:105B8000001100130013001300130013001300137F
:105B90000014001400140014001400140014001465
:105BA0000014001600160016001600160016001647
:105BB000001600160016001800180018001800182B
:105BC0000018001800180018001800180018001815
:105BD000001A001A001A001A001A001A001A001AF5
:105BE000001A001A001A001A001A001A001A001DE2
:105BF000001D001D001D001D001D001D001D001DBD
:105C0000001D001D001D001D001D001D001D001DAC
:105C1000001D001D0020002000200020002000208A
:105C20000020002000200020002000200020002074
:105C30000020002000200020002000200020002064
:105C4000002000200020002500250025002500253B
:105C5000002500250025002500250025002500251C
:105C6000002500250025002500250025002500250C
:105C700000250025002500250025002500250025FC
:105C80000025002500250025002B002B002B002BD4
:105C9000002B002B002B002B002B002B002B002BAC
:105CA000002B002B002B002B002B002B002B002B9C
:105CB000002B002B002B002B002B002B002B002B8C
:105CC000002B002B002B002B002B002B002B002B7C
:105CD000002B002B002B002B002B002B002B002B6C
:105CE000002B003300330033003300330033003324
:105CF000003300330033003300330033003300330C
:105D000000330033003300330033003300330033FB
:105D100000330033003300330033003300330033EB
:105D200000330033003300330033003300330033DB
:105D300000330033003300330033003300330033CB
:105D400000330033003300330033003300330033BB
:105D500000330033003300330033003300330033AB
:105D60000033003300330033003300330040004081
:105D70000040004000400040004000400040004023
:105D80000040004000400040004000400040004013
:105D90000040004000400040004000400040004003
:105DA00000400040004000400040004000400040F3
:105DB00000400040004000400040004000400040E3
:105DC00000400040004000400040004000400040D3
:105DD00000400040004000400040004000400040C3
:105DE00000400040004000400040004000400040B3
:105DF00000400040004000400040004000400040A3
:105E00000040004000400040004000400040004092
:105E10000040004000400040004000400040004082
:105E20000040004000400040004000400040004072
:105E30000040004000400040004000400040004062
:105E40000040004000400040004000400040004052
:105E500000400055005500550055005500550055AF
:105E6000005500550055005500550055005500558A
:105E7000005500550055005500550055005500557A
:105E8000005500550055005500550055005500556A
:105E9000005500550055005500550055005500555A
:105EA000005500550055005500550055005500554A
:105EB000005500550055005500550055005500553A
:105EC000005500550055005500550055005500552A
:105ED000005500550055005500550055005500551A
:105EE000005500550055005500550055005500550A
:105EF00000550055005500550055005500550055FA
:105F000000550055005500550055005500550055E9
:105F100000550055005500550055005500550055D9
:105F200000550055005500550055005500550055C9
:105F300000550055005500550055005500550055B9
:105F400000550055005500550055005500550055A9
:105F50000055005500550055005500550055005599
:105F60000055005500550055005500550055005589
:105F70000055005500550055005500550055005579
:105F80000055005500550055005500550055005569
:105F90000055005500550055005500550055005559
:105FA0000055005500550055005500550055005549
:105FB0000055005500550055005500550055005539
:105FC0000055005500550055005500550055005529
:105FD0000055005500550055005500550055005519
:105FE0000055005500550055005500550055005509
:105FF00000550055005500550055005500550055F9
:1060000000550055005500550055005500550055E8
:106010000055005500550055005500550080008082
:106020000080008000800080008000800080008070
:106030000080008000800080008000800080008060
:106040000080008000800080008000800080008050
:106050000080008000800080008000800080002898
:1060600000290029002A002B002B002C002D002DD8
:10607000002E002F002F003000310031003200339D
:10608000003400340035003600370037003800395E
:10609000003A003B003C003C003D003E003F004019
:1060A00000410042004300440045004600470048CC
:1060B0000049004A004B004C004D004E004F00517B
:1060C0000052005300540055005700580059005B1F
:1060D000005C005D005F00600061006300640066BA
:1060E00000670069006A006C006D006F007000724C
:1060F0000074007500770079007B007C007E0080D2
:106100000082008400860088008A008C008E009047
:106110000092009400960098009A009D009F00A1B4
:1061200000A400A600A800AB00AD00B000B200B50E
:1061300000B800BA00BD00C000C300C500C800CB55
:1061400000CE00D100D400D700DA00DE00E100E488
:1061500000E700EB00EE00F200F500F900FC0000A3
:1061600001040108010B010F01130117011B011F9D
:1061700001240128012C013001350139013E014380
:106180000147014C01510156015B01600165016A43
:10619000016F0175017A01800185018B01910196E2
:1061A000019C01A201A801AF01B501BB01C201C858
:1061B00001CF01D601DC01E301EA01F101F901009F
:1061C0000207020F0217021E0226022E0236023FAB
:1061D0000247025002580261026A0273027C028581
:1061E000028E029802A202AB02B502BF02CA02D41A
:1061F00002DF02E902F402FF020A03160321032D63
:10620000033903450351035D036A03760383039057
:10621000039E03AB03B903C703D503E303F10300F4
:10622000040F041E042D043D044D045D046D047D23
:10623000048E049F04B004C204D304E504F8040AE5
:10624000051D053005430557056B057F059305A81A
:1062500005BD05D305E805FE0515062B064206001B
:106260008A3144322E3911241FBECFEFD8E0DEBF71
:10627000CDBF11E0A0E0B1E0E4E3F3E702C0059098
:106280000D92A232B107D9F718E0A2E2B1E001C045
:106290001D92A23AB107E1F712E6C6E6D2E604C0C3
:1062A0002297FE010E949439C036D107C9F70E9497
:1062B000C3320C9498390C9400001F920F920FB6C1
:1062C0000F9211242F938F939F93EF93FF938091BD
:1062D000C00087FF15C02091C600809122019091D7
:1062E00023018150891B8F7159F080912301E82F80
:1062F000F0E0EE5FF84F20838F5F8F718093230172
:10630000FF91EF919F918F912F910F900FBE0F9062
:106310001F90189508951F920F920FB60F92112497
:106320002F938F939F93EF93FF9390917900809198
:106330002601E82FF0E0EE5DF74F90838F5F8F77B7
:10634000809326018091000180937C0080917A00E7
:10635000806480937A002A9A2A98913C10F45A9883
:1063600001C05A9A809129018EBD80912401E82FA5
:10637000F0E0EE0FFF1FEE5DF84F208191818F5FFF
:106380008F7780932401993010F45B9801C05B9A59
:1063900090679093290180912A018EBD20932A0154
:1063A000FF91EF919F918F912F910F900FBE0F90C2
:1063B0001F90189550918C0160918B0130918D0147
:1063C00040912801209101014CC080912201E82FC9
:1063D000F0E0EE5FF84F90818F5F8F718093220124
:1063E0002F3FC9F1442321F5223051F1233028F405
:1063F000222351F0213019F50CC0243099F02430BB
:1064000070F02530E1F411C09F3FC9F0932F2FEFBA
:1064100017C0692F62956F70592F5F7010C09093ED
:106420002D010DC090932B010AC090932C0107C041
:10643000E22FE170ED5FF0E0E55DFE4F9083932F7A
:10644000842F8F5F482F417080FD0AC02F5F263058
:1064500039F4392F03C09F3F21F441E020E001C00F
:10646000392F8091230190912201891B8F7109F0AE
:10647000ACCF50938C0160938B0130938D0140938E
:10648000280120930101089508958091240190919D
:1064900025018150891B8F77883270F08091260109
:1064A00090912701891B8F77883230F0519A599A41
:1064B0000E949D335998E9CF089578941092C100B5
:1064C000259A239A2498229A2A9A229A80918000C7
:1064D0008F7D809380002A9A8DB581608DBD80E587
:1064E0008CBD8091C0008D7F8093C0001092C5004C
:1064F00089E08093C4008091C10080618093C100D5
:106500008091C10080688093C1002A981EBC0DB4A0
:1065100007FEFDCF1EBC0DB407FEFDCF2A9A529A8E
:10652000539A80917A00887F846080937A0080916A
:106530000001807C80628093000180917A008068F5
:1065400080937A000E942F398091000180937C0013
:1065500080917A00806480937A0080917A0086FD31
:10656000FCCF8091B100887F81608093B1008091E1
:10657000B0008C7F81608093B0008091700081605A
:106580008093700008950E945D320E9445320E94FF
:10659000DA31FBCFA0E0B0E0E0EDF2E30C9461393A
:1065A00040912E0180918B0190E021E0A22EB12C30
:1065B000A822B92280FF03C0413F08F040EFE091DC
:1065C0002D01F0E0E859FF4F349120ED329FD12C9E
:1065D0001124D094E42FF0E0EE0FFF1FE759FD4B9C
:1065E0008590949020E6092D029F812D1124281B6F
:1065F000231710F0CC2402C0C32EC21AE09100076A
:10660000F0910107A091FE06B091FF066091FC0693
:106610007091FD06CCEAD6E09B012A1B3B0BA90139
:106620000C2D3327409F212D5003200D311D1124A7
:10663000E880F980220F331F220F331F2E0D3F1DDC
:10664000261B370B84018827209F912D3103A00141
:10665000129F900D411D581F3003580B900D411D86
:10666000581F1124460F571F9A012A1B3B0B662700
:10667000209F712D3103C001129F700D811D961F47
:106680003003960B700D811D961F1124A80FB91FA2
:106690009D012E1B3F0B6627209F712D3103C001EA
:1066A000129F700D811D961F3003960B700D811D7A
:1066B000961F1124E80FF91F2FEF3FE142175307F0
:1066C0000CF49A01B90110EE2130310714F461E0A5
:1066D00070EEA114B10411F49F0103C097012E1BA9
:1066E0003F0B4D2D9927249F812D3403800D911D43
:1066F000112458E08030950714F08FEF97E008EFF1
:106700008130900714F481E098EF8993999316E013
:10671000CC3FD10709F080CFF0930107E093000749
:10672000B093FF06A093FE067093FD066093FC06EF
:10673000CDB7DEB7ECE00C947D39CF93DF93CCEA94
:10674000D6E0DE0180912701E82FF0E0EE5DF74F03
:1067500020818F5F8F7780932701205840E12403A9
:10676000900111242D933D9386E0AC3FB80751F77B
:1067700080918B01823028F140912F01ECEAF6E004
:10678000208131819927249F812D3403800D911D13
:1067900011248193919386E0EC3FF80789F7E0910B
:1067A0008C01F0E0EE0FFF1FEE5FFE4F0190F081D5
:1067B000E02D099580918B01843019F10E94CA3235
:1067C00020C00E94CA3240912F01ECEAF6E02081FD
:1067D00031819927249F812D3403800D911D11242F
:1067E0008193919386E0EC3FF80789F7E0918C0163
:1067F000F0E0EE0FFF1FEE5FFE4F0190F081E02D05
:10680000099520912501E22FF0E0EE0FFF1FEE5DCC
:10681000F84F899199918050984F918380832F5F91
:106820002F772093250186E0CC3FD80751F7DF91E1
:10683000CF9108950F931F93CF93DF9370912B0106
:10684000072F009560912C01162F1095ACEAB6E049
:106850004D915C911197FA01EE0FFF1FE759FD4C26
:10686000259134919927409F812D5003800D911DD2
:106870001124205038405527279F412D3703400DC4
:10688000511D1124480F591FFA01EE0FFF1FE75940
:10689000FD4EC591D4919A015527219F412D310379
:1068A000400D511D1124C050D8409E019927269FAC
:1068B000812D3603800D911D1124840F951F8D931A
:1068C0009D9336E0AC3FB30709F0C2CFDF91CF9183
:1068D0001F910F91089560912B01669566956695BD
:1068E0006F5F20912C013CE0239F212D1124321B4E
:1068F00040E058EF02C0559547953150E1F780913F
:106900008F019091900120918E01ECEAF6E026171C
:1069100028F0808191818423952320E02F5F81934B
:10692000919336E0EC3FF30791F7909390018093B9
:106930008F0120938E010895CF93DF9360912C01F6
:1069400080912B01E82FF0E0EE0FFF1FE759FB4B82
:10695000259134918091920690919306EC01CF5647
:10696000DE4FFC01E21BF30BF370EF56FE4FACEA77
:10697000B6E04D915C91119734E0559547953A9565
:10698000E1F780918C012081823051F42603812D22
:106990001124282F332727FD3095240F351F09C0D8
:1069A0002603812D1124992787FD90959A01281B94
:1069B000390B20583F4F822F332B12F480E002C056
:1069C00009F08FEF80588883308120E132039001F5
:1069D00011248D919C911197280F391F88E0203048
:1069E000380714F02FEF37E0C90128EF8130920704
:1069F00014F481E098EF11969C938E933196219632
:106A000085E0E139F80710F0E050F44025E0C139A5
:106A1000D20710F0C050D440129686E0AC3FB807C1
:106A200009F0A7CF80919206909193068896937073
:106A30009093930680939206DF91CF910895A0E002
:106A4000B0E0E5E2F5E30C94653980912B01E82F85
:106A5000F0E0EE0FFF1FE759F94BC590D490F0908E
:106A60002C01EF2CE09460919406709195066C0DCA
:106A70007D1DACEAB6E0EB0128E631E0F901ED0F4F
:106A8000F11D8C2F25911590819DF0018095829F9D
:106A9000E00DF11D11242F2F4D915C91119720587D
:106AA000FF272502F00124030024F009E10DF01D69
:106AB00011249A011E2D5527219F412D3103400D90
:106AC000511D11249F011F2D9927219F812D3103D5
:106AD000800D911D1124840F951F8D939D93CC0DD6
:106AE000DD1D26E0AC3FB20709F0C6CF87E290E09B
:106AF0009C01C29EC001C39E900DD29E900D112498
:106B0000680F791F7093950660939406CDB7DEB732
:106B1000E8E00C948139EF92FF920F931F93CF938B
:106B2000DF93E0902C0120918C01822F85508330DF
:106B300000F580912B01263011F415E505C02730B2
:106B400011F410EE01C010E090E0880F991FFC01D5
:106B5000E759F54B25913491F22EFC01E759F34B9F
:106B600025913491022FFC01E759F74B459154913F
:106B700040C080918D01482F50E0413F510518F0F1
:106B800040EF50E005C04832510510F448E250E0B3
:106B90002A3029F423E0429FA001112413C02B3096
:106BA00049F429E0429FA001112456954795569536
:106BB000479508C02C3031F423E0429FA0011124F6
:106BC00056954795CA018897880F991FFC01E5548F
:106BD000FA4A25913491F22EFC01E35FF44A2591A3
:106BE0003491022FFC01E759FF4A459154911091CD
:106BF0002B018091920690919306FC01E41BF50B0A
:106C0000EF56F94F02C0E050F54026E0E139F207B7
:106C1000D0F7DC01AF56BE4FCCEAD6E080919606A5
:106C20008F1508F438C01092960620919B0630917B
:106C30009C0640814103412D112420583F4F552788
:106C400047FD5095240F351F222F332B12F420E0DF
:106C500002C009F02FEF20582D93219140E1240329
:106C600090011124309398062093970646E0E1396D
:106C7000F40710F0E050F54056E0A139B50710F0E8
:106C8000A050B54080919206909193060196909302
:106C90009306809392066881798140919B0650917A
:106CA0009C069B0184E0359527958A95E1F7241B86
:106CB000350B9927209F812D3003800D911D1124C4
:106CC000840F951F90939C0680939B068091990654
:106CD00090919A062091970630919806281B390BBF
:106CE000A9013327409F212D5003200D311D112470
:106CF000280F391F30939A062093990680919606A3
:106D00008F5F809396065E2D9927259F812D3503F1
:106D1000800D911D1124860F971F28E08030920767
:106D200014F08FEF97E048EF8130940714F481E07E
:106D300098EF8993999356E0CC3FD50709F06ECF31
:106D4000809192069091930602C08050954025E074
:106D500081309207D0F79093930680939206CDB737
:106D6000DEB7E6E00C9483391F93CF93DF938091D5
:106D70002B0120918C01283011F465E505C02930E4
:106D800011F460EE01C060E010912C0190E0880FDA
:106D9000991FFC01E759F54B25913491722FFC01A5
:106DA000E759F74B85919491209192063091930683
:106DB000F901E81BF90BEF56F94F02C0E050F5401E
:106DC00086E0E139F807D0F7E901CF56DE4FACEAAB
:106DD000B6E080919606871708F43CC0109296069C
:106DE0002D913C91119784E0359527958A95E1F78F
:106DF00040814603412D112420583F4F552747FD20
:106E00005095240F351F222F332B12F420E002C09F
:106E100009F02FEF20582993219140E1240390019C
:106E20001124309398062093970626E0E139F20763
:106E300010F0E050F54086E0C139D80710F0C0509E
:106E4000D540809192069091930601969093930677
:106E500080939206809196068F5F809396068D911F
:106E60009C91119720919706309198065527219F64
:106E7000412D3103400D511D1124480F591F28E0A9
:106E80004030520714F04FEF57E0CA0128EF41306D
:106E9000520714F481E098EF8D939D9386E0AC3F08
:106EA000B80709F096CF809192069091930602C0A0
:106EB0008050954025E081309207D0F7909393065B
:106EC00080939206DF91CF911F9108950F931F93A6
:106ED00080912B018093A30690E0880F991FFC01FD
:106EE000E759F54B25913491022FFC01E759F74BF7
:106EF00065917491FC01E759F34B85919491182F9A
:106F0000E0919D06F0919E06EF56FE4FACEAB6E08A
:106F100080919606801708F11092960620919B06A4
:106F200030919C0620583F4F822F332B12F480E083
:106F300002C009F08FEF819395E0E139F90720F065
:106F400080939105E050F44080919D0690919E06BB
:106F5000019690939E0680939D0640919B065091CA
:106F60009C062D913D9184E0359527958A95E1F712
:106F7000241B350B9927219F812D3103800D911DF5
:106F80001124840F951F90939C0680939B068091FB
:106F900096068F5F8093960686E0AC3FB80709F0AF
:106FA000B7CF80919D0690919E06937090939E0618
:106FB00080939D06861B970B93709093A0068093F9
:106FC0009F061092A5061092A4061092A606709332
:106FD000A2066093A1061F910F910895EF92FF9270
:106FE0000F931F93CF93DF938091A30690E09C01B2
:106FF00035952795205840912B014695241BE22F6B
:10700000F0E0EE0FFF1FE15AFF4925913491FC019A
:10701000EE0FFF1FE759F14B459154914115510572
:1070200081F0B9018827649F912D75039001569FC7
:10703000900D211D381F7403380B900D211D381F32
:1070400011242115310511F421E030E0E32EFF2455
:10705000722F00919F061091A006C091A106D091B9
:10706000A2066091A6064091A4065091A506ACEA3E
:10707000B6E0FA01E00FF11FF370E257FE4F3381E3
:107080002481269FC0016095369F6095800D911DDB
:10709000112434E0969587953A95E1F78050984011
:1070A00011969C938E939701670F421F531F4C17A5
:1070B0005D0710F04C1B5D0B129636E0AC3FB3073A
:1070C000C1F66093A6065093A5064093A406CDB7DB
:1070D000DEB7E6E00C94833980912C0187FD03C074
:1070E0000E94663708950E94EE370895A0E0B0E050
:1070F000ECE7F8E30C94643980912B01E82FF0E081
:10710000EE0FFF1FE15AFF4985919491A091A706C8
:10711000B091A806AF56BE4FE92EFF24B82ED090EE
:107120002C01CD2CC094CCEAD6E088819981F4E082
:1071300095958795FA95E1F780588D9305E0A139EB
:10714000B00720F080939105A050B4406091A9064B
:107150007091AA06CB018F569E4FFB01E257FE4F5E
:107160000381FC01E050FE4F15E0E139F10718F012
:10717000FC01E050F24010819F012A1B3B0BC9012A
:1071800080509C4F44E08030940708F49C0182E0DA
:107190002030380728F0309521953F4F21503C4F43
:1071A00036952795129FA0012095029F2095400DAE
:1071B000511D112420E1529FF00111244881598171
:1071C0008A012C2D5527029F412D1203400D511D80
:1071D0001124E050F8408F012D2D9927029F812D19
:1071E0001203800D911D1124840F951F99838883AC
:1071F0008091AB06FB012B2D8701820FE01FF11F51
:107200008093AB06F093AA06E093A90634E0E03041
:10721000F30730F0E050F440F093AA06E093A9069B
:10722000229646E0CC3FD40709F07FCF2091A706F5
:107230003091A806C90188969093A8068093A70666
:107240008050944030F0285D33403093A80620935E
:10725000A706CDB7DEB7E9E00C9480390895109207
:107260008B0181E080938C011092FD061092FC0648
:107270001092FF061092FE0610920107109200076E
:10728000109230018AE0E1E8F1E0DF011D928A9579
:10729000E9F780E5E1E3F1E0DF011D928A95E9F786
:1072A0008EE195E0EEE8F1E0DF019C011D922150B6
:1072B0003040E1F708952F923F924F925F926F9284
:1072C0007F928F929F92AF92BF92CF92DF92EF9276
:1072D000FF920F931F93CF93DF93CDB7DEB7CA1BF7
:1072E000DB0B0FB6F894DEBF0FBECDBF09942A8822
:1072F000398848885F846E847D848C849B84AA84CA
:10730000B984C884DF80EE80FD800C811B81AA8156
:10731000B981CE0FD11D0FB6F894DEBF0FBECDBF21
:10732000ED010895EE0FFF1F0590F491E02D0994F3
:04733000F894FFCFFF
:1073340040FF1A346B349C349C341F358B358B35A9
:107344008B35B436B4368B358B358B358B356C3801
:02735400763889
:00000001FF
